:020000040800F2
:10000000581B002069020008A94F00084F4A000849
:10001000A54F00089913000849600008000000007F
:10002000000000000000000000000000A1540008D3
:10003000271E0008000000008551000851580008E4
:10004000830200088302000883020008830200087C
:10005000830200088302000883020008830200086C
:10006000830200088302000883020008830200085C
:10007000830200088302000883020008830200084C
:100080008302000883020008830200087514000838
:100090005514000865140008830200088302000854
:1000A000830200088302000883020008830200081C
:1000B000830200082959000883020008830200080F
:1000C00083020008830200088302000883020008FC
:1000D00083020008830200088302000883020008EC
:1000E00083020008830200088302000883020008DC
:1000F00083020008830200088302000883020008CC
:1001000083020008830200088302000883020008BB
:1001100083020008830200088302000883020008AB
:1001200083020008091D00088302000883020008FA
:100130008302000883020008830200080D150008EE
:10014000ED140008FD140008830200088302000873
:10015000191D0008291D0008391D00082D5F000821
:10016000830200088302000883020008830200085B
:1001700083020008830200088302000800000000D8
:10018000830200088302000800F002F800F05CF827
:100190000AA090E8000C82448344AAF10107DA45E2
:1001A00001D100F051F8AFF2090EBAE80F0013F0D8
:1001B000010F18BFFB1A43F00103184794A2000077
:1001C000B4A200000A444FF0000C10F8013B13F0F9
:1001D000070408BF10F8014B1D1108BF10F8015BA0
:1001E000641E05D010F8016B641E01F8016BF9D193
:1001F00013F0080F1EBF10F8014BAD1C0C1B09D1EA
:100200006D1E58BF01F801CBFAD505E014F8016B5B
:1002100001F8016B6D1EF9D59142D6D370470000ED
:100220000023002400250026103A28BF78C1FBD8FF
:10023000520728BF30C148BF0B6070471FB509F097
:100240008AFE1FBD10B510BD00F0A1F91146FFF7E1
:10025000F5FF07F035FB00F0BFF903B4FFF7F2FF3D
:1002600003BC00F0C3F90000094880470948004773
:10027000FEE7FEE7FEE7FEE7FEE7FEE7FEE7FEE756
:10028000FEE7FEE704480549054A064B70470000B3
:10029000155900088901000858150020581B002036
:1002A000581700205817002053EA020C00F069800C
:1002B0002DE9F04B4FF00006002B1FBFB3FA83F57A
:1002C00003FA05F424FA05F65E4012BF1643B2FAAB
:1002D00082F502FA05F4C5F120051EBF22FA05FCDD
:1002E00044EA0C04203556EA044C4FEA144418BF83
:1002F000641C4FF000084FF00009904271EB030CB2
:1003000039D3002919BFB1FA81F701FA07F6B0FA1B
:1003100080F700FA07F6C7F120071EBF20FA07FC96
:1003200046EA0C062037B6FBF4FCA7EB0507103FA6
:1003300007F01F0BCBF120060CFA0BFB2CFA06F68C
:1003400044BFB3460026202FA4BF5E464FF0000BEB
:100350005BEA060C08BF4FF0010B19EB0B09ABFB76
:10036000027C48EB0608C01B06FB02CC0BFB03CC4F
:1003700071EB0C01C1E70B46024641464846BDE819
:10038000F08B13B54FF000004FF00001AFF3008089
:10039000BDE81C40704740EA0103024630B59B07A8
:1003A00010D14FF0013400E008C208C91D1B9D4365
:1003B00015EAC41FF8D013F0FF0102F8011B0DD09D
:1003C0001B0AF8E711F8013B002B02F8013B05D0AE
:1003D00011F8013B002B02F8013BF3D130BD032A99
:1003E00040F2308010F0030C00F0158011F8013B52
:1003F000BCF1020F624498BF11F801CB00F8013B39
:1004000038BF11F8013BA2F1040298BF00F801CBFC
:1004100038BF00F8013B11F0030300F07C80083A7C
:10042000C0F0088051F8043B083A51F804CBA0E82A
:100430000810F5E7121D5CBF51F8043B40F8043B7F
:10044000AFF30080D20724BF11F8013B11F801CBB4
:1004500048BF11F8012B24BF00F8013B00F801CB85
:1004600048BF00F8012B70474FF000020429C0F08C
:10047000128010F0030C00F01B80CCF1040CBCF1D6
:10048000020F18BF00F8012BA8BF20F8022BA1EB28
:100490000C0100F00DB85FEAC17C24BF00F8012B0D
:1004A00000F8012B48BF00F8012B70474FF0000205
:1004B00000B5134694469646203922BFA0E80C505A
:1004C000A0E80C50B1F12001BFF4F7AF090728BF35
:1004D000A0E80C5048BF0CC05DF804EB890028BFB1
:1004E00040F8042B08BF704748BF20F8022B11F0DA
:1004F000804F18BF00F8012B704770477047704756
:1005000010B500F03FF8006810BD10B5044600F0CB
:1005100039F8046010BD10B5203AC0F00B80B1E886
:100520001850203AA0E81850B1E81850A0E8185028
:10053000BFF4F5AF5FEA027C24BFB1E81850A0E831
:10054000185044BF18C918C0BDE810405FEA827C4B
:1005500024BF51F8043B40F8043B08BF7047D20762
:1005600028BF31F8023B48BF11F8012B28BF20F803
:10057000023B48BF00F8012B70470000004870475D
:10058000F414002000487047F414002070477546AA
:10059000FFF7F4FFAE4605006946534620F007001A
:1005A000854618B020B5FFF76DFEBDE820404FF03E
:1005B00000064FF000074FF000084FF0000B21F04D
:1005C0000701AC46ACE8C009ACE8C009ACE8C0091A
:1005D000ACE8C0098D46704710B50446AFF3008003
:1005E0002046BDE81040FFF738BE00000149182042
:1005F000ABBEFEE72600020090ED0E0A80ED0F0A6A
:1006000090ED170A80ED180A90ED200A80ED210A7E
:1006100090ED290A80ED2A0AD0ED0D0A90ED100A1E
:10062000B8EEC00A30EE800A80ED0E0AD0ED160A50
:1006300090ED190AB8EEC00A30EE800A80ED170A74
:10064000D0ED1F0A90ED220AB8EEC00A30EE800A03
:1006500080ED200AD0ED280A90ED2B0AB8EEC00AF2
:1006600030EE800A80ED290A017A39B390ED100A44
:10067000B8EEC00ADFED6E0A30EE200A80ED0E0AF9
:1006800090ED190AB8EEC00ADFED6A0A30EE200AD2
:1006900080ED170A90ED220AB8EEC00ADFED660A77
:1006A00030EE200A80ED200A90ED2B0AB8EEC00A49
:1006B000DFED620A30EE200A80ED290A90ED0E0A85
:1006C000DFED5F0AB4EEE00AF1EE10FA07DD90ED1F
:1006D0000E0ADFED5B0A30EE600A80ED0E0A90ED47
:1006E0000E0AB5EEC00AF1EE10FA07D290ED0E0A2E
:1006F000DFED530A30EE200A80ED0E0A90ED170A66
:10070000DFED4F0AB4EEE00AF1EE10FA07DD90EDEE
:10071000170ADFED4B0A30EE600A80ED170A90ED04
:10072000170AB5EEC00AF1EE10FA07D290ED170ADB
:10073000DFED430A30EE200A80ED170A90ED200A23
:10074000DFED3F0AB4EEE00AF1EE10FA07DD90EDBE
:10075000200ADFED3B0A30EE600A80ED200A90EDC2
:10076000200AB5EEC00AF1EE10FA07D290ED200A89
:10077000DFED330A30EE200A80ED200A90ED290AE1
:10078000DFED2F0AB4EEE00AF1EE10FA07DD90ED8E
:10079000290ADFED2B0A30EE600A80ED290A90ED80
:1007A000290AB5EEC00AF1EE10FA07D290ED290A37
:1007B000DFED230A30EE200A80ED290A90ED120ABF
:1007C000BDEEC00AB8EEC00AF7EE000A20EE200A1D
:1007D000BDEEC00A80ED130A90ED1B0ABDEEC00A03
:1007E000B8EEC00AF7EE000A20EE200ABDEEC00AFD
:1007F00080ED1C0A90ED240ABDEEC00AB8EEC00AD6
:10080000F7EE000A20EE200ABDEEC00A80ED250AB0
:1008100090ED2D0ABDEEC00AB8EEC00AF7EE000A50
:1008200020EE200ABDEEC00A80ED2E0A70470000BF
:1008300000F9DF4500FB9F4500FA3F4500F87F4483
:1008400000F8FF4510B52DED108B86B0044694EDF1
:10085000060A20EE000AD4ED080A94ED081A00EE0C
:10086000810A10EE101A084609F004FB41EC1D0B3A
:10087000B0EE4D0AF0EE6D0A05F0EEFFB0EE40CAA4
:10088000F0EE60CA51EC1C0B08F02AFD08EE900A4D
:1008900094ED0A0ADFEDFB0A20EE200AB0EE409A42
:1008A000207802280FD1F84890ED1A0AD4ED010AF9
:1008B00030EE200A9FEDF51AC0EE010A9FEDF40A12
:1008C00060EE80AA09E094ED010ADFEDF00A80EE07
:1008D000201A9FEDEF0A61EE00AA94ED060A10EED1
:1008E000101A084609F0C6FA41EC1E0B94ED080AEE
:1008F00010EE101A084609F0BDFA41EC1D0BB0EEDF
:100900004E1AF0EE6E1AB0EE4D0AF0EE6D0A05F0DA
:10091000E3FDB0EE40FAF0EE60FA1AEE900A09F04C
:10092000A9FA41EC1C0B53EC1F2B08F00BFDCDE991
:1009300004019DED040B51EC100B08F0D1FC08EE06
:10094000100A05E09FEDD20A38EE400AB0EE408A68
:100950009FEDD00AB4EEC08AF1EE10FAF2DC05E0A9
:100960009FEDCB0A38EE000AB0EE408A9FEDCA0A2E
:10097000B4EEC08AF1EE10FAF2D318EE100A09F0C4
:1009800079FA41EC1D0BB0EE4D0AF0EE6D0A05F060
:10099000FFFEB0EE40CAF0EE60CA51EC1C0B08F04E
:1009A0009FFC0BEE900A18EE100A09F063FA41EC76
:1009B0001D0BB0EE4D0AF0EE6D0A05F085FEB0EEAF
:1009C00040CAF0EE60CA51EC1C0B08F089FC0BEE3B
:1009D000100AB5EEC08AF1EE10FA08DDB0EE6B0A2F
:1009E00001F02DFAB0EE49AA08EE80AA09E0B0EEB7
:1009F0006B0A01F024FAB1EE400AB0EE49AA08EE03
:100A000080AA9FEDA60AB4EEC08AF1EE10FA0FD2CA
:100A10009FEDA30AB4EEC08AF1EE10FA08DDB0EE45
:100A20004B0A01F00CFAF0EE499A48EE809A09E080
:100A3000B0EE4B0A01F003FAB1EE400AF0EE499A2B
:100A400048EE809A19EE900A09F014FACDE90201F5
:100A50001AEE100A09F00EFACDE900019DED021B15
:100A60009DED000B05F038FDB0EE40CAF0EE60CA17
:100A700051EC1C0B08F028FC9FED8A0B53EC102B5B
:100A8000CDE904019DED040B51EC100B08F00EFDB7
:100A900041EC1D0B9FED850B53EC102B08F006FD70
:100AA00041EC1E0B9FED830B53EC102B08F0ECFE7A
:100AB00041EC1F0B08F014FC6063B0EE690A04F00F
:100AC000A9FEF0EE401AB0EE4A0A04F0A3FE31EEA1
:100AD000800A84ED110A94ED110A10EE101A0846EE
:100AE00009F0C8F941EC1D0BB0EE4D0AF0EE6D0AAD
:100AF00005F0B2FEB0EE40CAF0EE60CA51EC1C0B3D
:100B000008F0EEFB6064B5EEC08AF1EE10FA0ADD83
:100B1000B0EE6B0A01F093F9F0EE490A48EE800A54
:100B2000B0EE60AA0BE0B0EE6B0A01F088F9F1EECE
:100B3000400AB0EE490A08EEA00AB0EE40AA9FEDC6
:100B4000570AB4EEC08AF1EE10FA11D29FED540AA2
:100B5000B4EEC08AF1EE10FA0ADDB0EE4B0A01F0F5
:100B60006EF9F0EE490A58EE800AF0EE609A0BE05A
:100B7000B0EE4B0A01F063F9F1EE400AB0EE490A1B
:100B800018EEA00AF0EE409A19EE900A09F072F9F8
:100B900041EC1C0B1AEE100A09F06CF941EC1E0B2B
:100BA000B0EE4C1AF0EE6C1AB0EE4E0AF0EE6E0A91
:100BB00005F092FCB0EE40DAF0EE60DA51EC1D0B7D
:100BC00008F082FB9FED370B53EC102BCDE90001B1
:100BD0009DED000B51EC100B08F068FC41EC1F0B75
:100BE0009FED320B53EC102B08F060FC9FED310BA6
:100BF00053EC102BCDE902019DED020B51EC100BD3
:100C000008F042FECDE904019DED040B51EC100B00
:100C100008F066FBA065B0EE690A04F0FBFDF0EE9B
:100C2000401AB0EE4A0A04F0F5FD31EE800A84ED78
:100C30001A0A94ED1A0A10EE101A084609F01AF969
:100C400041EC1D0BB0EE4D0AF0EE6D0A05F004FE0E
:100C5000B0EE40CAF0EE60CA51EC1C0B08F040FB4D
:100C6000A066B5EEC08AF1EE10FA27DDB0EE6B0A91
:100C700001F0E5F8F0EE490A58EE800AB0EE60AAFD
:100C800028E00000713D1E428C1000200000B4439B
:100C9000DC0FC940DC0F4940DC0F49C0DC0FC93F05
:100CA000DC0FC9BF00000080FB21094000000000EC
:100CB000000000400000000000FFBF40B0EE6B0AE3
:100CC00001F0BDF8F1EE400AB0EE490A18EEA00AB4
:100CD000B0EE40AA1FED0F0AB4EEC08AF1EE10FA92
:100CE00011D21FED110AB4EEC08AF1EE10FA0ADD3E
:100CF000B0EE4B0A01F0A3F8F0EE490A58EE800A74
:100D0000F0EE609A0BE0B0EE4B0A01F098F8F1EECD
:100D1000400AB0EE490A18EEA00AF0EE409A19EE29
:100D2000900A09F0A7F841EC1C0B1AEE100A09F022
:100D3000A1F841EC1D0BB0EE4C1AF0EE6C1AB0EEBF
:100D40004D0AF0EE6D0A05F0C7FBB0EE40EAF0EE9A
:100D500060EA51EC1E0B08F0B7FA41EC1F0B1FEDD7
:100D60002F0B53EC102B08F0A1FB1FED300B53ECB5
:100D7000102BCDE900019DED000B51EC100B08F09C
:100D800095FB1FED340B53EC102BCDE902019DEDCB
:100D9000020B51EC100B08F077FDCDE904019DED3D
:100DA000040B51EC100B08F09BFAE067B0EE690AF7
:100DB00004F030FDF0EE401AB0EE4A0A04F02AFDCD
:100DC00031EE800A84ED230A94ED230A10EE101A06
:100DD000084609F04FF841EC1E0BB0EE4E0AF0EE5B
:100DE0006E0A05F039FDB0EE40CAF0EE60CA51EC73
:100DF0001C0B08F069FA41EC1D0B08F071FA8C210C
:100E00000851B5EEC08AF1EE10FA0ADDB0EE6B0AB9
:100E100001F015F8F0EE490A58EE800AB0EE60AA2B
:100E20000BE0B0EE6B0A01F00AF8F1EE400AB0EE0A
:100E3000490A18EEA00AB0EE40AA1FED680AB4EE07
:100E4000C08AF1EE10FA11D21FED6B0AB4EEC08A1F
:100E5000F1EE10FA0ADDB0EE4B0A00F0F0FFF0EE12
:100E6000490A48EE800AF0EE609A0BE0B0EE4B0AB9
:100E700000F0E5FFF1EE400AB0EE490A08EEA00AE4
:100E8000F0EE409A19EE900A08F0F4FFCDE9000167
:100E90001AEE100A08F0EEFF41EC1D0B9DED001B51
:100EA000B0EE4D0AF0EE6D0A05F016FBB0EE40CA4A
:100EB000F0EE60CA51EC1C0B08F006FA1FED870B30
:100EC00053EC102BCDE902019DED020B51EC100B00
:100ED00008F0ECFA41EC1E0B1FED8C0B53EC102BC1
:100EE00008F0E4FA41EC1F0B1FED8E0B53EC102BB6
:100EF00008F0CAFCCDE904019DED040B51EC100B88
:100F000008F0EEF9A0210851B0EE690A04F082FC65
:100F1000F0EE401AB0EE4A0A04F07CFC31EE800A92
:100F200084ED2C0A94ED2C0A10EE101A084608F0F5
:100F3000A1FF41EC1D0BB0EE4D0AF0EE6D0A05F07D
:100F40008BFCB0EE40CAF0EE60CA51EC1C0B08F00E
:100F5000C7F9B021085194ED110ADFED110A20EE16
:100F6000200A84ED120A94ED1A0ADFED0D0A20EE34
:100F7000200A84ED1B0A94ED230ADFED090A20EE16
:100F8000200A84ED240A94ED2C0ADFED050A20EEF8
:100F9000200A84ED2D0A06B0BDEC108B10BD0000B8
:100FA0004276F43F70B504460C2094FBF0F100FB50
:100FB0001140002867D1DB480078D0B1D94890F8BB
:100FC0005100B0B9D8480021016041600121D548E5
:100FD00080F85110014691F850000122002100F0E4
:100FE00023FF05460823D04A2946D04800F026FBB7
:100FF00049E0CC480078C8B9CA4890F85100A8B177
:10100000C948002101604160C64880F8511001467E
:1010100091F850000022114600F006FF0546082313
:10102000C14A2946C14800F009FB2CE0C048D0ED78
:10103000090AB0EE600ABB48B0F84C0002B2B948E9
:10104000D0ED0E0AFDEEE00A10EE900A01B2B648AD
:1010500004F04CFAB34A92ED050ADFEDB60A20EE31
:10106000200ABDEEC00A10EE102A91B2AD4A92F8E5
:101070005000032200F0D8FE05460823AA4A29465C
:10108000AA4800F0DBFA0C2094FBF0F100FB1140C1
:10109000032867D1A3480078D0B1A24890F8750022
:1010A000B0B9A54800210160416001219D4880F848
:1010B0007510014691F874000122002100F0B4FE81
:1010C000054608239C4A2946984800F0B7FA49E0AB
:1010D00094480078C8B9934890F87500A8B196482C
:1010E0000021016041608F4880F87510014691F839
:1010F00074000022114600F097FE054608238E4A30
:1011000029468A4800F09AFA2CE08948D0ED0A0A6C
:10111000B0EE600A8348B0F8700002B28148D0EDAA
:10112000170AFDEEE00A10EE900A01B2824804F0C0
:10113000DDF97C4A92ED050ADFED7E0A20EE200AF9
:10114000BDEEC00A10EE102A91B2764A92F87400F1
:10115000032200F069FE05460823774A29467348B2
:1011600000F06CFA0C2094FBF0F100FB1140062813
:1011700067D16C480078D0B16A4890F89900B0B94E
:101180006E480021016041600121664880F8991095
:10119000014691F898000122002100F045FE054625
:1011A0000823664A2946614800F048FA49E05D484C
:1011B0000078C8B95B4890F89900A8B15F48002151
:1011C00001604160574880F89910014691F89800F5
:1011D0000022114600F028FE05460823574A2946FA
:1011E000524800F02BFA2CE05148D0ED0B0AB0EE3B
:1011F000600A4C48B0F8940002B24A48D0ED200A88
:10120000FDEEE00A10EE900A01B24C4804F06EF9CF
:10121000444A92ED050ADFED470A20EE200ABDEEB2
:10122000C00A10EE102A91B23E4A92F898000322AA
:1012300000F0FAFD05460823404A29463B4800F0E5
:10124000FDF90C2094FBF0F100FB1140092867D157
:1012500034480078D0B1334890F8BD00B0B9384870
:1012600000210160416001212E4880F8BD10014637
:1012700091F8BC000122002100F0D6FD05460823AC
:101280002F4A2946294800F0D9F949E02548007835
:10129000C8B9244890F8BD00A8B1294800210160D0
:1012A0004160204880F8BD10014691F8BC00002242
:1012B000114600F0B9FD05460823214A29461B487E
:1012C00000F0BCF92CE01A48D0ED0C0AB0EE600A30
:1012D0001448B0F8B80002B21248D0ED290AFDEE69
:1012E000E00A10EE900A01B2154804F0FFF80D4A2A
:1012F00092ED050ADFED0F0A20EE200ABDEEC00ACE
:1013000010EE102A91B2074A92F8BC00032200F0B6
:101310008BFD054608230A4A2946044800F08EF949
:1013200070BD0000B80F002078030020D403002017
:10133000C01200200000C842800300208803002063
:101340009003002070B505460C4600260DB1022C16
:1013500000D870BDA11E06480288284600F056FE3F
:101360000646A01E2E54310A601E295400BFF0E725
:101370001400002070B505460C4600260DB1022C65
:1013800000D870BD611EFF22284600F059FE0646B7
:10139000601E2E5400BFF4E700BFFEE710B5044600
:1013A0002068B0F5A97F13D005DC672822D0B0F5FE
:1013B000A87F41D106E0B0F5AA7F0FD0A0F20620A9
:1013C000D0BB11E004F11C011D4800F033FB33E0F9
:1013D00004F11C011A4800F0E9F92DE004F11C01A8
:1013E000174800F039FD27E004F11C01154800F012
:1013F00049FD21E01448E169C0F8C410216AC0F831
:10140000C81090ED320ADFED110A20EE200A80EDBF
:10141000320A0F48008800EE100AB8EE400A0A4867
:1014200080ED340A0A48408800EE100AB8EE400AFF
:10143000054880ED330A00BF00BF00BF00BF10BDEC
:10144000F41200208C100020B80F00200000C842C9
:10145000A403002010B5024801F096FA10BD000068
:10146000AC03002010B5024801F08EFA10BD000058
:10147000AC03002010B5024801F086FA10BD000050
:10148000AC03002000BF00BF01791A2906D01B2938
:101490000DD01C2914D01D2924D11AE01249C2698B
:1014A0000A61097B41F001010F4A11731AE00E49EC
:1014B000C2694A61097B41F002010B4A117311E0D4
:1014C0000949C2698A61097B41F00401064A117326
:1014D00008E00549C269CA61097B41F00801024A76
:1014E000117300BF00BF7047C012002010B5024842
:1014F00001F04AFA10BD0000D403002010B50248E4
:1015000001F042FA10BD0000D403002010B50248DB
:1015100001F03AFA10BD0000D403002030B58BB0C2
:1015200004460D4601200690002001900290039091
:1015300004900790012009900890002005903149FF
:10154000206888422CD13048046085620E200A90C1
:1015500040F2FF7340F206220021204605F0A8FE6B
:1015600040F2FF734FF4A8720C21204605F0A0FE54
:1015700040F2FF734FF4A9721421204605F098FE43
:1015800040F2FF734FF4AA721821204605F090FE36
:1015900040F2FF7367222021204605F089FE20E0FB
:1015A0001A49206888421CD11948046085620F20BE
:1015B0000A90FF231A227A21204605F079FEFF23A4
:1015C0001B228221204605F073FEFF231C228E2160
:1015D000204605F06DFEFF231D229621204605F0D2
:1015E00067FE01A9204601F057F8204601F0DBFC18
:1015F0000221204600F096FF1021204600F092FFC5
:101600000BB030BD006400409C1400200068004016
:10161000C8140020F0B587B006460C4617461D4694
:101620000194002002900390049005956B463A4681
:1016300001A9304600F08BFF07B0F0BDF0B587B0D0
:1016400006460C4617461D460294002001900420D1
:10165000039000200490059500BF304601F079F911
:101660000028FAD06B463A4601A9304600F06FFFD9
:1016700007B0F0BD10B504490448FFF74FFF044917
:101680000448FFF74BFF10BD9D130008AC0300207A
:1016900085140008D403002070B52DED068B374863
:1016A000406918B90120BDEC068B70BD34494888EB
:1016B00008F09AF841EC180B3149888808F094F842
:1016C00041EC1A0B9FED2F0B53EC102B08F0DCF8BC
:1016D00041EC190B53EC182B08F0D4F901D201207E
:1016E00000E0002029490870244890ED0C0AB1EE72
:1016F000400ADFED270A20EE200ABDEEC00A254889
:1017000080ED000A1D4890ED0C0AD0ED0D0A30EE78
:10171000600A10EE101A084608F0ACFB41EC190BF9
:10172000B0EE490AF0EE690A06F042F8054608F004
:1017300044F841EC180B9FED180B53EC102B08F0FC
:10174000A1F90AD20D4890ED0C0A80ED0D0A022095
:101750001349C86005201349C8700C480078124925
:101760000870002406E00E4850F82400022800D13A
:1017700099E7641C072CF6DB002094E7F4120020A4
:10178000D40E0020666666666666D63F7A00002044
:1017900000007A44840000207B14AE47E17A843F45
:1017A000C01300207C0000207B0000200A7802701B
:1017B0004A7842608A78C260CA78C2610A79426215
:1017C0004A7942618A790AB1012200E0002280F858
:1017D0002C20704742688260C2680261C26902625E
:1017E000426A8262426982617047000001201C499E
:1017F00008704870087200200874012081F8C00049
:101800000220C8609FED170A084680ED010AB7EE76
:10181000000A80ED050A4FF4F451016441F6880195
:10182000416641F66251C0F888104FF4D671C0F895
:10183000AC10012180F8511080F8751080F89910D3
:1018400080F8BD101A2180F850101B2180F8741008
:101850001C2180F898101D2180F8BC1070470000F2
:10186000B80F00200000000000B52548406808B10E
:10187000012000E00020234948702148C06808B1D9
:10188000012000E000201F494872084640780128E6
:101890001CD11B4890ED0F0AB1EE400A084680EDBE
:1018A000070A174890ED100AB1EE400A084680ED8D
:1018B000090A134890ED110AB1EE400AF2EE040A4B
:1018C00080EE201A084680ED0B1A15E00C4890EDCA
:1018D0000F0A0C4880ED070A094890ED100A0948E4
:1018E00080ED090A064890ED110AF2EE040A80EE36
:1018F000201A044880ED0B1A024800F0E3F800BDFE
:10190000F4120020B80F002010B53748007837498E
:1019100008700846007830B1012813D0022825D07D
:1019200003285ED100E000BF9FED310A2F4880ED13
:10193000060A9FED2F0A80ED080A9FED2D0A80ED23
:101940000A0A4EE02948407A012809D105F0E8FC4E
:10195000FFEE000A20EE200A244880ED0A0A04E087
:101960009FED230A214880ED0A0A3AE01F4890EDD6
:10197000060AB5EEC00AF1EE10FA17D190ED080A8A
:10198000B5EEC00AF1EE10FA10D1174890F82C000D
:10199000012805D1B1EE000A144880ED0A0A1FE0C3
:1019A000B9EE000A114880ED0A0A19E00E4890F8D5
:1019B0002C0001280AD1B0EE080A0C4880ED0A0A72
:1019C000BBEE090A0B4880ED1A0A09E0B8EE080AD6
:1019D000064880ED0A0AB3EE090A064880ED1A0AA5
:1019E00000BF00BF10BD0000F4120020B80F00209F
:1019F000000000008C10002010B5FFF735FF00F04C
:101A000031FBFFF781FF024800F036F810BD0000FF
:101A1000B80F0020002007E0B2EE040A044901EBF1
:101A2000800181ED000A401C0428F5DB70470000AE
:101A3000E41200204A780B7842EA032212B200EE48
:101A4000102AB8EEC00A80ED0F0ACA788B7842EAF5
:101A5000032212B200EE102AB8EEC00A80ED100A7E
:101A60004A790B7942EA032212B200EE102AB8EE4C
:101A7000C00A80ED110A704710B5044694ED060ABD
:101A8000B5EEC00AF1EE10FA10D194ED080AB5EEE9
:101A9000C00AF1EE10FA09D194ED0A0AB5EEC00AB7
:101AA000F1EE10FA02D10120207201E00020207234
:101AB0002046FEF7C7FE2046FEF79EFD204603F0B7
:101AC0004DFD10BDC268002A7DD0012A02D0022A35
:101AD0007AD1BCE0322190ED070AB5EEC00AF1EEF2
:101AE00010FA06D190ED060AB5EEC00AF1EE10FA32
:101AF0004DD090ED070AD0ED060AB4EEE00AF1EE03
:101B000010FA1DDD90ED070AD0ED060A70EE600AAE
:101B100000EE101AB8EEC00AF4EEC00AF1EE10FAA8
:101B20000ADDD0ED060A00EE101AB8EEC00A30EE5B
:101B3000800A80ED060A03E090ED070A80ED060AB0
:101B400090ED070AD0ED060AB4EEE00AF1EE10FAC5
:101B50001DD290ED060AD0ED070A70EE600A00EE85
:101B6000101AB8EEC00AF4EEC00AF1EE10FA0ADD5F
:101B7000D0ED060A00EE101AB8EEC00A30EEC00A28
:101B800080ED060A03E090ED070A80ED060A90ED6D
:101B9000090AB5EEC00AF1EE10FA06D190ED080A76
:101BA000B5EEC00AF1EE10FA50D090ED090AD0ED72
:101BB000080AB4EEE00AF1EE10FA20DD90ED090A11
:101BC000D0ED080A01E08FE097E070EE600A00EEC9
:101BD000101AB8EEC00AF4EEC00AF1EE10FA0ADDEF
:101BE000D0ED080A00EE101AB8EEC00A30EE800AF6
:101BF00080ED080A03E090ED090A80ED080A90EDF7
:101C0000090AD0ED080AB4EEE00AF1EE10FA1DD28E
:101C100090ED080AD0ED090A70EE600A00EE101A85
:101C2000B8EEC00AF4EEC00AF1EE10FA0ADDD0ED0B
:101C3000080A00EE101AB8EEC00A30EEC00A80EDB5
:101C4000080A03E090ED090A80ED080A55E090EDDE
:101C5000070AB5EEC00AF1EE10FA1AD0DFED280A35
:101C6000B0EE600AD0ED070A90ED061A70EEC10AD8
:101C700060EE800AFDEEE00A10EE901A90ED061A72
:101C800000EE901AF8EEE00A71EE200AC0ED060AA6
:101C900003E09FED1C0A80ED060A90ED090AB5EEFF
:101CA000C00AF1EE10FA1AD0DFED150AB0EE600AA4
:101CB000D0ED090A90ED081A70EEC10A60EE800AB4
:101CC000FDEEE00A10EE901A90ED081A00EE901A60
:101CD000F8EEE00A71EE200AC0ED080A03E09FED7D
:101CE000090A80ED080A08E090ED070A80ED060A6F
:101CF00090ED090A80ED080A00BF00BF70470000A0
:101D00009A99193E0000000010B5024801F082F9CE
:101D100010BD0000FC05002010B5024801F07AF962
:101D200010BD00003C05002010B5024801F072F91A
:101D300010BD00005C06002010B5024801F06AF9F1
:101D400010BD00009C0500200146087810381823BB
:101D5000B0FBF3F20848805CC865032A05D908681F
:101D60006FF30900001D886503E008686FF3090040
:101D70008865886D704700006A9F00080146002052
:101D80008A6A8B69CBB932B1012A0DD0022A03D0FD
:101D9000032A10D10EE000BFCB6A03F08073B3F1C9
:101DA000807F00D1012007E0CB6AB3F1C07F00D172
:101DB000012001E000E000BF34E08B69B3F5005F73
:101DC0001AD132B1012A07D0022A03D0032A11D135
:101DD0000AE000BF01200EE0CB6A03F08073B3F18C
:101DE000807F00D1012006E0CB6AB3F1C07F00D133
:101DF000012000E000BF15E032B1012A05D0022A1F
:101E000004D0032A0CD103E000BF00BF012008E08A
:101E1000CB6A03F08073B3F1807F00D1012000E032
:101E200000BF00BF7047704710B50346140644EA70
:101E3000012444EA030010BD72B600BFFEE7F0EED5
:101E4000400AF5EEC00AF1EE10FA02D2B1EE600AD5
:101E50007047B0EE600AFBE70A880287D1F80220DB
:101E60000263704700EE100AB8EEC00A9FED041A34
:101E7000C0EE010AB0EE080A20EE800A70470000AA
:101E800000F8FF454A780B7842EA032213B2038137
:101E9000CA788B7842EA032213B283804A790B799D
:101EA00042EA032212B242808B79C380704700005D
:101EB00000EE100AB8EE400A9FED041AC0EE010AC7
:101EC0009FED030A20EE800A7047000000F8FF45EE
:101ED0000000B44300EE100AB8EE400A9FED061A67
:101EE000C0EE010AB0EE000A20EE800ADFED030A20
:101EF00020EE200A7047000000F8FF45DC0F494043
:101F000000B50146B1F90200FFF7ACFF81ED060A0A
:101F100091ED060AD1ED040A20EE200A81ED070AB0
:101F2000CA884A848A880A848A8CCA8408898884F0
:101F3000888CFFF7BDFF81ED0B0A888CFFF7CAFF85
:101F400081ED0A0ACA8C888C101AB0F5805F03DD17
:101F5000088E401C02B20A86CA8C888C101A10F5B2
:101F6000805F03DA088E401E02B20A864A6B0A645A
:101F700091ED0E0A81ED110A91ED0F0A81ED120A21
:101F8000B1F93000C0EB4032888C02444C20405AFA
:101F9000121A4A6391ED0B0AB1F9300000EE900A73
:101FA000F8EEE00A9FED171A00EE810AD1ED150A4E
:101FB00030EE600A81ED0F0A91ED0A0AB1F93000A6
:101FC00000EE900AF8EEE00AB0EE001A60EE810A28
:101FD0009FED0D1A00EE810AD1ED140A30EE600A71
:101FE00081ED0E0A087D58B9888E82B24C2042528B
:101FF00091ED0F0A81ED150A91ED0E0A81ED140A9B
:1020000000BD00000000B443DC0F494030B503467A
:1020100013B94FF6FF7030BD09E013F8014B82EAA7
:102020000400C0B2054D35F8100080EA2222081ED7
:10203000A1F10101F1D11046EDE700008CA00008EC
:1020400030B5034605E013F8010B80EA02040448AA
:10205000025D081EA1F10101F5D1104630BD00005E
:102060008B9F0008254890ED181AF0EE410A24488D
:10207000407801EE100AF8EE411A9FED221A9FED0A
:10208000222A02EE211AB0EE410A30EEC01A1C4894
:1020900080ED011A90ED011ADFED1B1AB4EEE11A82
:1020A000F1EE10FA07DD90ED011ADFED181A31EEAE
:1020B000611A80ED011A124890ED011ADFED141A31
:1020C000B4EEE11AF1EE10FA07D290ED011ADFED4D
:1020D0000F1A31EE211A80ED011A094890ED011A0C
:1020E0000C4880ED001A0648407A012804D09FED84
:1020F0000A1A034880ED011A704700008C10002076
:10210000B80F0020C3F53C42000034430000B44344
:10211000000034C3680000200000000010B52DED61
:10212000028BD948406918B90120BDEC028B10BD63
:10213000D64890ED320AD64880ED000AD54800789E
:1021400065281EDA9FEDD40AD44880ED000A9FED81
:10215000D40AD44880ED000A9FEDD30AD34880ED1D
:10216000000A9FEDD30AD34880ED000A9FEDD20A02
:10217000D24880ED000A9FEDD20AD24880ED000AD5
:102180001DE09FEDD10AC54880ED000A9FEDCF0A02
:10219000C44880ED000A9FEDCE0AC44880ED000AD5
:1021A0009FEDCC0AC34880ED000A9FEDCB0AC348DF
:1021B00080ED000A9FEDC90AC24880ED000AB548CB
:1021C000D0F84B0000EE100AB448D0ED000A30EE13
:1021D000600AC34880ED000AAE48D0F84F0000EE18
:1021E000100AB048D0ED000A30EE600ABD4880ED1C
:1021F000000ABB48D0ED000A60EEA00AB94890ED95
:10220000001AD0ED001A41EE210AB0EE600A03F088
:10221000CDFAB54880ED000A9E48D0F84B0000EE9C
:10222000100AA248D0ED000A30EE600AAC4880EDFA
:10223000000A9848D0F84F0000EE100A9D48D0EDF3
:10224000000A30EE600AA74880ED000AA448D0EDED
:10225000000A60EEA00AA34890ED001AD0ED001A23
:1022600041EE210AB0EE600A03F0A0FA9F4880ED2B
:10227000000A8848D0F84B0000EE100A8F48D0EDD5
:10228000000A30EE600A964880ED000A8148D0F8D6
:102290004F0000EE100A8B48D0ED000A30EE600AC5
:1022A000904880ED000A8E48D0ED000A60EEA00A4A
:1022B0008C4890ED001AD0ED001A41EE210AB0EEE4
:1022C000600A03F073FA8A4880ED000A87480068C4
:1022D00007F0D0FD41EC180B9FED860B53EC102B53
:1022E00007F096FA19D38048006807F0C3FD41EC67
:1022F000180B9FED800B53EC102B07F089FA0CD3D1
:102300007B48006807F0B6FD41EC180B9FED790B98
:1023100053EC102B07F07CFA03D2012077490870A8
:1023200002E00020754908705748C169006A81427F
:1023300005D0022072490860052072490870524891
:10234000416A806A814205D002206D4948600520BB
:102350006C4948704C48C1680069814205D0022030
:1023600067498860052067498870674890ED000AD2
:102370006648D0ED000A30EE600A10EE101A0846EA
:1023800007F078FD41EC180BB0EE480AF0EE680A51
:1023900005F00EFA00EE100AB8EEC00ADFED5C0A96
:1023A000B4EEE00AF1EE10FA0BDD574890ED000AAA
:1023B000564880ED000A02205149C8600A20514960
:1023C000C870334890ED000A5248D0ED000A30EE54
:1023D000600AF6EE000AB4EEE00AF1EE10FA0EDC46
:1023E0002B4890ED000A4B48D0ED000A30EE600A11
:1023F000FEEE000AB4EEE00AF1EE10FA0BD2244829
:1024000090ED000A434880ED000A02203C498861B3
:102410000A203C4988711C480078022803D1012019
:102420003D49087002E000203B4908703A480078B6
:102430003A490978884205D00220314908610520CF
:10244000304908712D48007835490978884205D00F
:1024500002202B49486105202A4948712E480078FE
:102460002E490870254800782D490870002406E0A0
:10247000234850F82400022800D156E6641C072C9B
:10248000F6DB002051E60000F4120020B80F002017
:1024900070000020D40E00207B1498412002002000
:1024A0006666EE402C0200209A994D4124020020DD
:1024B0001F857341300200203D0A27412802002079
:1024C000A47061413402002014AE1F41D7A308411B
:1024D000EC518241D7A3903F48E194419A99194029
:1024E000A0000020A40000209400002098000020FC
:1024F0009C000020000000000000D03F9000002061
:10250000DC1300207C000020680000206C0000200C
:102510000AD7233C740000207800002079000020B6
:102520009100002010B5024692F82030012B01D016
:10253000022B06D1106840690843146860610020CE
:1025400010BD506A40F4802050620120F8E7F0B5D9
:1025500004460D461E4694F8207020688368A868DB
:1025600000B900E000BF012F01D0022F7DD103F0A0
:10257000806030B903F0006018B903F08050002883
:102580007ED0C3F30161012088403060A86860B943
:10259000B5F800C0E86840EA4C5C206800F5C070FF
:1025A00000EB0110C0F800C00FE0D5E901C040EA1F
:1025B000CC00D5F80CC040EA0C00D4F800C00CF5F3
:1025C000C07C0CEB011CCCF80000D5F810C02068D2
:1025D00000F5C07000EB0110C0F804C0287D012890
:1025E0000ED1206800F5C07000EB0110406840F487
:1025F000807C206800F5C07000EB0110C0F804C0BA
:10260000D079000692F806C040EA0C4092F805C066
:1026100040EA0C2092F804C040EA0C00D4F800C054
:102620000CF5C07C0CEB011CCCF80C00D07800063B
:1026300092F802C040EA0C4092F801C040EA0C2037
:1026400092F800C040EA0C00D4F800C00CF5C07C41
:102650000CEB011CCCF80800206800F5C07000EB02
:102660000110006840F0010C01E00FE008E0206874
:1026700000F5C07000EB0110C0F800C00020F0BDF4
:10268000606A40F4001060620120F8E7606A40F47C
:10269000802060620120F2E7F0B504460A46216816
:1026A00094F82050012D01D0022D7ED1424901F530
:1026B0000071086840F001000860086820F47C5050
:1026C00008600868566A40EA06200860107D00F03D
:1026D0001F06012000FA06F3C8699843C861A1F5F6
:1026E0000071D069C8B9D1F80C029843C1F80C0246
:1026F000908880B2968940EA064601F510705769C5
:1027000040F83760108880B2168940EA064601F525
:102710001070576900EBC7004660D069012819D1D5
:10272000D1F80C021843C1F80C02908880B21688C8
:1027300040EA064601F51070576940F83760908905
:1027400080B2168940EA064601F51070576900EB21
:10275000C7004660906928B9D1F804029843C1F8CF
:10276000040204E0D1F804021843C1F8040210691D
:1027700028B9D1F814029843C1F8140204E0D1F842
:1027800014021843C1F81402106A012804D1D1F8C8
:102790001C021843C1F81C02D1F8000220F001000D
:1027A000C1F800020020F0BDFFE7606A40F480201D
:1027B00060620120F7E7000000640040704770B5D8
:1027C000044694F82050012D01D0022D7DD151B93D
:1027D0002068C06800F0030080B9606A40F400100F
:1027E0006062012070BD2068006900F0030028B914
:1027F000606A40F4001060620120F3E7206800F591
:10280000D87000EB0110006800F004009060906840
:1028100040B9206800F5D87000EB01100068400D49
:10282000106007E0206800F5D87000EB0110006828
:10283000C0085060206800F5D87000EB01100068F7
:1028400000F00200D060206800F5D87000EB0110A5
:10285000406800F00F00082802D30820106108E04B
:10286000206800F5D87000EB0110406800F00F0000
:102870001061206800F5D87000EB0110406800F48A
:102880007F40000A9061206800F5D87000EB0110CD
:102890004068000C5061206800F5D87000EB011012
:1028A00080681870206800F5D87000EB011080680F
:1028B00000F47F40000A5870206800F5D87000EBE3
:1028C0000110806800F47F0000E03CE0000C98708C
:1028D000206800F5D87000EB01108068000ED870F9
:1028E000206800F5D87000EB0110C06818712068EE
:1028F00000F5D87000EB0110C06800F47F40000ABA
:102900005871206800F5D87000EB0110C06800F421
:102910007F00000C9871206800F5D87000EB011062
:10292000C068000ED87131B92068C06840F020003E
:102930002668F06005E02068006940F02000266805
:10294000306100204EE7606A40F480206062012020
:1029500048E70146002091F82020012A01D0022AF0
:1029600011D10B689B6803F0806303B1401C0B68B6
:102970009B6803F0006303B1401C0B689B6803F085
:10298000805303B1401C70472DE9F05F04460025D9
:10299000206846692068D0F804902068876820681D
:1029A000D0F80CA02068D0F810B02068D0F81880BB
:1029B00006F00100002855D007F00100C0B1012049
:1029C0002168886007F0020018B1204600F01BFB68
:1029D0000EE007F0040010B145F4006508E007F0D0
:1029E000080010B145F4805502E0204600F00AFBD3
:1029F00007F48070C8B14FF480702168886007F4D4
:102A0000007018B1204600F000FB0EE007F4806073
:102A100010B145F4005508E007F4006010B145F42A
:102A2000804502E0204600F0EFFA07F48030C8B19C
:102A30004FF480302168886007F4003018B12046D8
:102A400000F0E5FA0EE007F4802010B145F40045EF
:102A500008E007F4002010B145F4803502E020467C
:102A600000F0D4FA06F0080038B10AF0100020B1E6
:102A700045F4007510202168C86006F0040040B1DC
:102A80000AF0080028B108202168C860204600F03C
:102A90002DFA06F0020038B12068C06800F003008B
:102AA00010B1204600F024FA06F0400038B10BF0D7
:102AB000100020B145F4806510202168086106F0FF
:102AC000200040B10BF0080028B1082021680861FF
:102AD000204600F039FA06F0100038B1206800698D
:102AE00000F0030010B1204600F030FA06F4003088
:102AF00040B109F0100028B110202168486020463C
:102B000000F050FA06F4803040B109F0080028B116
:102B1000082021684860204600F07AFA06F4004058
:102B200088B309F0040078B306F4807020B108F08F
:102B3000010008B145F0010506F4007020B108F06D
:102B4000020008B145F0020506F4806020B108F0EB
:102B5000040008B145F0040506F40060A0B108F0D7
:102B6000700088B108F07000402817D006DC1028EB
:102B70000BD020280CD0302819D10CE0502810D0D0
:102B8000602814D110E01DE019E045F008050FE0C1
:102B900045F010050CE045F0200509E045F0400542
:102BA00006E045F0800503E045F4807500E000BFD5
:102BB00000BF2068806920F07000216888610420CF
:102BC000216848602DB1606A284360622046FFF7A3
:102BD000F5FDBDE8F09F70B504460CB9012070BD4D
:102BE00094F8200010B9204600F0B0F82068006882
:102BF00040F001002168086000F0A2FC05460DE0ED
:102C000000F09EFC401B0A2808D9606A40F400309E
:102C10006062052084F820000120E0E72068406819
:102C200000F001000028EBD02068006820F00200CE
:102C30002168086000F084FC05460DE000F080FC8F
:102C4000401B0A2808D9606A40F400306062052001
:102C500084F820000120C2E72068406800F00200EC
:102C60000028EBD1207E012806D12068006840F0C2
:102C700080002168086005E02068006820F080007E
:102C800021680860607E012806D12068006840F055
:102C900040002168086005E02068006820F04000DE
:102CA00021680860A07E012806D12068006840F0F5
:102CB00020002168086005E02068006820F02000FE
:102CC00021680860E07E012806D12068006820F0B5
:102CD00010002168086005E02068006840F01000DE
:102CE00021680860207F012806D12068006840F034
:102CF00008002168086005E02068006820F00800EE
:102D000021680860607F012806D12068006840F0D3
:102D100004002168086005E02068006820F00400D5
:102D200021680860D4E90201084321690843616908
:102D300008436168491E08432168C8610020606239
:102D4000012084F82000002049E7000010B586B07B
:102D50000446142101A8FDF7A9FB5E4920688842BA
:102D600051D15D480068401C5B4908600846006816
:102D700001280FD100BF002000905848006840F0A3
:102D80000070564908600846006800F00070009026
:102D900000BF00BF00BF00200090504810380068FE
:102DA00040F008004D49103908600846006800F0FE
:102DB0000800009000BF00BF032001900220029095
:102DC00000200390032004900920059001A94448A5
:102DD00000F0B6FA00220221132000F03FFC13207D
:102DE00000F028FC00220221142000F037FC1420FF
:102DF00000F020FC00220221152000F02FFC1520FD
:102E000000F018FC64E037492068884260D100BFB8
:102E1000002000903148006840F080602F49086031
:102E20000846006800F08060009000BF00BF2A489C
:102E30000068401C284908600846006801280FD136
:102E400000BF002000902548006840F00070234932
:102E500008600846006800F00070009000BF00BFE6
:102E600000BF002000901D481038006840F00200AC
:102E70001A49103908600846006800F00200009006
:102E800000BF00BF6020019002200290002003904C
:102E9000032004900920059001A9134800F050FA7E
:102EA000002202213F2000F0D9FB3F2000F0C2FBAE
:102EB00000220221402000F0D1FB402000F0BAFBAC
:102EC00000220221412000F0C9FB412000F0B2FBAA
:102ED00006B010BD006400400000002040380240F1
:102EE000000C0240006800400004024070470000EF
:102EF00010B504461049206888420CD10F4BA3F14D
:102F00001C0200212046FFF75AFC0C482038816A39
:102F1000001D88470FE00A49206888420BD1094B01
:102F2000A3F11C0200212046FFF749FC0548203888
:102F3000816A001D884710BD00640040BC14002059
:102F400000680040E81400207047000010B50446F7
:102F50001049206888420CD10F4BA3F11C020121BB
:102F60002046FFF72CFC0C482038816A001D88475A
:102F70000FE00A49206888420BD1094BA3F11C02DB
:102F800001212046FFF71BFC05482038816A001DFF
:102F9000884710BD00640040BC1400200068004059
:102FA000E8140020704770B5044694F8200001280A
:102FB00022D1022084F820002068006820F001005F
:102FC0002168086000F0BCFA05460DE000F0B8FA90
:102FD000401B0A2808D9606A40F40030606205206E
:102FE00084F82000012070BD2068406800F00100D6
:102FF0000028EBD16062F6E7606A40F4002060626E
:103000000120F0E77047704770477047704770477E
:1030100070470000F8B50446002000908C48006816
:103020004FF41651B0FBF1F7A56D2E6894F85C10C3
:1030300008208840304098B12068006800F0040003
:1030400070B12068006820F004002168086094F8DE
:103050005C1008208840A860606D40F00100606549
:1030600094F85C1001208840304068B120684069C5
:1030700000F0800040B194F85C1001208840A86006
:10308000606D40F00200606594F85C100420884098
:10309000304068B12068006800F0020040B194F848
:1030A0005C1004208840A860606D40F004006065FA
:1030B00094F85C1010208840304078B32068006895
:1030C00000F0080050B394F85C1010208840A8600D
:1030D0002068006800F4802080B12068006800F457
:1030E000002028B9206CC8B12046216C884715E023
:1030F000A06C98B12046A16C88470FE0206800685A
:1031000000F4807028B92068006820F00800216869
:103110000860206C10B12046216C884794F85C1040
:10312000202088403040002865D02068006800F0EA
:10313000100000285FD094F85C1020208840A86020
:1031400094F83500052828D12068006820F0160082
:10315000216808602068406920F08000216848618B
:10316000206C08B9A06C28B12068006820F0080025
:103170002168086094F85C103F208840A860012016
:1031800084F8350000BF002084F8340000BF206DB3
:1031900010B12046216D8847F8BD2068006800F412
:1031A000802080B12068006800F4002028B9606C9D
:1031B00010B12046616C88471DE0E06BD8B1204615
:1031C000E16B884717E02068006800F4807068B9F8
:1031D0002068006820F0100021680860012084F851
:1031E000350000BF002084F8340000BFE06B10B150
:1031F0002046E16B8847606D38B3606D00F00100D8
:10320000F0B1052084F835002068006820F0010046
:103210002168086000BF0098401C0090B84200D9A7
:1032200005E02068006800F001000028F3D100BF2D
:10323000012084F8350000BF002084F8340000BF6E
:10324000E06C10B12046E16C884700BFA4E70000A5
:10325000100000202DE9F0410446002500F070F92F
:10326000074614B90120BDE8F081606A00B100BFD3
:10327000022084F8350000BF002084F8340000BF2D
:103280002068006820F00100216808600AE000F072
:1032900057F9C01B052805D920206065032084F854
:1032A0003500E0E72068006800F001000028EED15A
:1032B0002068056821480540D4E901010843E16818
:1032C00008432169084361690843A1690843E1692A
:1032D0000843216A08430543606A042803D1D4E9FE
:1032E0000B0108430543206805602068456925F007
:1032F0000705606A0543606A04280DD1A06A05438A
:10330000E06A48B12046FEF739FD28B140206065EB
:10331000012084F83500A6E7206845612046FEF7C5
:1033200013FD064694F85C103F208840B0600020F2
:103330006065012084F83500002094E73F8010F09C
:10334000F8B502460B460025002400200021D6E0F7
:10335000012606FA01F51E6806EA0504AC4274D19E
:103360001E7906F00306012E04D01E7906F003062E
:10337000022E13D190684F000326BE40B0434F0089
:10338000DE68BE4030439060506801268E40B043F6
:103390001E79C6F300168E40304350601E7906F049
:1033A0000306032E09D0D0684F000326BE40B04369
:1033B0004F009E68BE403043D0601E7906F0030681
:1033C000022E13D1CF0802F1200656F827004E072F
:1033D000F70E0F26BE40B0434F07FF0E1E69BE40DA
:1033E0003043CF0802F1200646F8270010684F004E
:1033F0000326BE40B0431E7906F003064F00BE40D0
:10340000304310605E6806F44036002E76D000BF70
:10341000002600963C4E366846F480463A4F3E60A1
:103420003E46366806F48046009600BF00BF374E21
:103430008F0856F827008E07370F0F26BE40B0437F
:10344000334EB24202D1002624E057E0314EB24260
:1034500001D101261EE0304EB24201D1022619E010
:103460002E4EB24201D1032614E02D4EB24201D1BC
:1034700004260FE02B4EB24201D105260AE02A4E67
:10348000B24201D1062605E0284EB24201D10726FC
:1034900000E008268F073F0FBE4030431B4E8F08C9
:1034A00046F82700224E3068A0435E6806F4801676
:1034B00006B120431E4E3060361D3068A0435E6862
:1034C00006F4001606B12043194E361D3060184E22
:1034D000361F3068A0435E6806F4003606B120430C
:1034E000134E361F3060361F3068A0435E6806F406
:1034F000803606B120430E4E083E3060491C10292C
:10350000FFF426AFF8BD00004438024008380140FF
:10351000000002400004024000080240000C02408B
:10352000001002400014024000180240001C02403B
:10353000083C01400AB1816101E00B0483617047DE
:10354000014800687047000004000020034800683C
:1035500003490978084401490860704704000020C5
:103560000C00002010B50D48006840F400700B49B5
:1035700008600846006840F48060086008460068FB
:1035800040F480700860032000F0A6F80F2000F0DF
:1035900007F800F02BF8002010BD0000003C0240AE
:1035A00070B504460E4800784FF47A71B1FBF0F024
:1035B0000C490968B1FBF0F5284600F093FD08B10D
:1035C000012070BD102C07D200222146501E00F0B1
:1035D00045F80548046001E00120F2E70020F0E72B
:1035E0000C000020100000200800002008B500BFDB
:1035F000002000900E48006840F480400C490860AC
:103600000846006800F48040009000BF00BF00BF83
:1036100000200090081F006840F08050091F0860DB
:103620000846006800F08050009000BF00BF08BD51
:10363000443802400146084600280DDB00BF00BFA9
:1036400000F01F0301229A4043099B0003F1E0238D
:10365000C3F8002100BF00BF00BF70472DE9F05F35
:1036600080460D461646002702F0AAFD0746394659
:103670002A46334601F00700C0F1070ABAF1040FE9
:1036800002D94FF0040A01E0C0F1070AD14600F167
:10369000040ABAF1070F02D24FF0000A01E0A0F1CC
:1036A000030AD4464FF0010A0AFA09FAAAF1010AFC
:1036B0000AEA020A0AFA0CFA4FF0010B0BFA0CFBA9
:1036C000ABF1010B0BEA030B4AEA0B04214640461F
:1036D00002F07EFDBDE8F09F00BF00F00702064B40
:1036E00019684FF6FF031940044B0B4343EA0221CC
:1036F000014B196000BF70470CED00E00000FA05B7
:10370000F8B5044600250026207800F0010020B915
:10371000207800F0040004282FD100205B4988663F
:10372000FFF70EFF054606E0FFF70AFF401B0228E1
:1037300001D90320F8BD56480068C0F3C0600028D6
:10374000F2D160688101207A41EA007050498431E9
:10375000086001204D498866FFF7F2FE054606E045
:10376000FFF7EEFE401B022801D90320E2E748489C
:103770000068C0F3C0600028F2D0207800F002009A
:1037800002287DD100BF00200090414840300068F1
:1037900040F080503E49403108600846006800F023
:1037A0008050009000BF00BF3A48006840F480702D
:1037B00038490860FFF7C4FE054606E0FFF7C0FE83
:1037C000401B022801D90320B4E73248006800F406
:1037D00080700028F2D02E487030006800F44076E7
:1037E0004EB3A08900F44070B04224D02848703015
:1037F000006820F440760120274908600020086016
:10380000234870300660006800F0010098B1FFF7AF
:1038100097FE054608E0FFF793FE401B41F2883112
:10382000884201D9032085E7194870300068C0F349
:1038300040000028EFD000BFA08900F44070B0F530
:10384000407F0CD112480830006820F4F810134A69
:10385000E168114008430E490831086007E00C4850
:103860000830006820F4F810094908310860084859
:1038700070300068A189C1F30B010843044900E0DE
:1038800002E07031086000BF002053E700004742AB
:103890000038024000700040400E4742FFFCFF0F1E
:1038A00070B504460D460CB9012070BD584800683B
:1038B00000F00700A84209D255490D70084600687B
:1038C00000F00700A84201D00120EEE7207800F0C8
:1038D000020002281DD1207800F00400042805D140
:1038E0004C48006840F4E0504A490860207800F0F5
:1038F0000800082805D14748006840F46040454961
:1039000008604448006820F0F000A168084341497D
:103910000860207800F00100A8B36068012807D192
:103920003C4808380068C0F34040B8B90120BCE703
:103930006068022802D06068032807D1354808383B
:103940000068C0F3406048B90120AEE7314808384C
:103950000068C0F3400008B90120A6E72D480068C0
:1039600020F00300616808432A490860FFF7E8FD7A
:10397000064609E0FFF7E4FD801B41F288318842EA
:1039800002D9032091E707E02248006800F00C000C
:103990006168B0EB810FEDD11D48006800F00700B1
:1039A000A84209D91A490D700846006800F00700BE
:1039B000A84201D0012078E7207800F00400042814
:1039C00007D11448006820F4E050E1680843114929
:1039D0000860207800F00800082808D10D48006829
:1039E00020F46040216940EAC1000A49086000F003
:1039F0003FF808490968C1F30311074A515CC84000
:103A00000649086006480068FFF7CAFD00204CE739
:103A1000003C024008380240729F0008100000205D
:103A200008000020014800687047000010000020D6
:103A300000B5FFF7F7FF04490968C1F38221034A83
:103A4000515CC84000BD000008380240829F000859
:103A500000B5FFF7E7FF04490968C1F34231034AA3
:103A6000515CC84000BD000008380240829F000839
:103A70002DE9F047002400250026A14625480068CE
:103A800000F00C0020B1042805D008283AD105E048
:103A9000DFF8849039E0DFF8849036E01D48001F9D
:103AA000006800F03F041B48001F006800F480001D
:103AB00078B11A481749091F0968C1F38811A0FB9A
:103AC00001700146224600233846FCF7EDFB05460F
:103AD0000EE011480F49091F0968C1F38811A0FBC6
:103AE00001700146224600233846FCF7DDFB0546FF
:103AF0000848001F0068C0F30140401C4600B5FBA9
:103B0000F6F902E0DFF8109000BF00BF4846BDE8BC
:103B1000F0870000083802400024F400001BB700C2
:103B2000F8B504460CB90120F8BD207800F001007A
:103B3000002874D0F948006800F00C0004280DD06B
:103B4000F648006800F00C00082813D1F348001F65
:103B5000006800F48000B0F5800F0BD1EF48083802
:103B60000068C0F34040002859D06068002856D152
:103B70000120D9E700BF6068B0F5803F08D1E74871
:103B80000838006840F48030E449083908601EE0D5
:103B90006068B0F5A02F0DD1E0480838006840F407
:103BA0008020DE49083908600846006840F480300B
:103BB00008600CE0D9480838006820F48030D74904
:103BC000083908600846006820F48020086000BFBB
:103BD000606890B1FFF7B4FC054606E0FFF7B0FC63
:103BE000401B642801D903209EE7CC4808380068B0
:103BF000C0F340400028F1D011E0FFF7A1FC0546DA
:103C000006E0FFF79DFC401B642801D903208BE7E9
:103C1000C24808380068C0F340400028F1D120783D
:103C200000F0020002285FD1BC48006800F00C00E0
:103C300058B1BA48006800F00C0008281CD1B748F9
:103C4000001F006800F48000B0B9B448083800686C
:103C5000C0F3400020B1E068012801D0012063E7F3
:103C6000AE480838006820F0F800216940EAC10039
:103C7000AA490839086037E0E06800B30120A84984
:103C80000860FFF75DFC054606E0FFF759FC401BA6
:103C9000022801D9032047E7A04808380068C0F38C
:103CA00040000028F1D09D480838006820F0F80056
:103CB000216940EAC10099490839086014E00020F0
:103CC00097490860FFF73CFC054606E0FFF738FC23
:103CD000401B022801D9032026E7904808380068D5
:103CE000C0F340000028F1D1207800F00800082837
:103CF0002CD16069A8B101208A490860FFF720FC37
:103D0000054606E0FFF71CFC401B022801D90320F2
:103D10000AE782486C300068C0F340000028F1D008
:103D200014E000207F490860FFF70AFC054606E022
:103D3000FFF706FC401B022801D90320F4E6774870
:103D40006C300068C0F340000028F1D1207800F00A
:103D50000400042870D1002770483830006800F053
:103D6000805090B900BF002000906C483830006847
:103D700040F080506949383108600846006800F01A
:103D80008050009000BF00BF01276748006800F422
:103D90008070B0B96448006840F48070624908607F
:103DA000FFF7CEFB054606E0FFF7CAFB401B0228E3
:103DB00001D90320B8E65C48006800F48070002850
:103DC000F2D000BFA068012808D1544868300068CC
:103DD00040F001005149683108601DE0A0680528E5
:103DE0000DD14E486830006840F004004B496831FE
:103DF00008600846006840F0010008600CE0474891
:103E00006830006820F001004449683108600846C5
:103E1000006820F00400086000BFA068A8B1FFF7A8
:103E20008FFB054609E0FFF78BFB401B41F2883111
:103E3000884202D9032077E626E0384868300068D7
:103E4000C0F340000028EED013E0FFF779FB0546F1
:103E500008E0FFF775FB401B41F28831884201D929
:103E6000032061E62D4868300068C0F34000002858
:103E7000EFD1012F07D129483830006820F0805059
:103E800026493831086000BFA069002845D0234882
:103E9000006800F00C0008285DD0A069022845D118
:103EA00000201F490866FFF74BFB054606E0FFF7B9
:103EB00047FB401B022801D9032035E61748083884
:103EC0000068C0F340600028F1D1D4E9070108433D
:103ED000616A40EA81110122A06AC2EB500041EA06
:103EE00000412C20005D41EA00600C49091F086078
:103EF00001200B490866FFF723FB054606E0FFF7A4
:103F00001FFB401B022801D903200DE60348083897
:103F10000068C0F340600028F1D049E00838024052
:103F200000004742800E47420070004000202149B7
:103F30000866FFF705FB054606E0FFF701FB401B9F
:103F4000022801D90320EFE51B480068C0F3406058
:103F50000028F2D12CE0A069012800D1E4E5164840
:103F6000001D0668A069012820D006F48001E069E0
:103F700081421BD106F03F01206A814216D147F6EB
:103F8000C0703040616AB0EB811F0FD106F4403140
:103F90000122A06AC2EB5000B1EB004F06D106F03F
:103FA00070612C20005DB1EB006F01D00120BBE5FA
:103FB0000020B9E5000047420038024070B50446D1
:103FC00001250CB9012070BD607F20B90020207749
:103FD000204600F04DF8022060772068C068C0F3EA
:103FE000001000283CD100BFCA202168486253203D
:103FF0002168486200BF204601F05EF90546EDB930
:1040000020688068194908402168886021696068D3
:10401000084361690843216889680843216888600A
:104020002168E068086120680169208941EA004050
:1040300021680861204601F064F905465DB92068F1
:10404000006C20F48020216808642068006CA1695D
:1040500008432168086400BFFF202168486200E02F
:1040600000250DB9012060772846ACE7BFFF8FFF20
:104070001FB504460020009001900290039009496A
:10408000206888420CD1022000900002039068460C
:10409000FFF736FB08B1FDF7CFFE012002490860AB
:1040A0001FBD0000002800403C0E474270B504468A
:1040B00000250B482168C860FFF742FA054607E073
:1040C000FFF73EFA401BB0F57A7F01D9032070BD9F
:1040D0002068C06800F020000028F1D00020F6E73A
:1040E0005F7F010070B504462546681EB0F1807FF1
:1040F00001D301200FE0681E4FF0E02148610F213D
:104100004FF0FF3002F064F800204FF0E0218861AA
:1041100007200861002070BD7047704730B5024627
:104120000B4600BF92F83C00012801D1022030BDAF
:10413000012082F83C0000BF022082F83D00106898
:1041400044681068816824F070041868044310689B
:104150004460184D1068A8421BD01068B0F1804F21
:1041600017D0154D1068A84213D0144D1068A842FE
:104170000FD0134D1068A8420BD0124D1068A84202
:1041800007D0114D1068A84203D0104D1068A84206
:1041900005D121F080015868014310688160012039
:1041A00082F83D0000BF002082F83C0000BF00BF45
:1041B000BDE700000000014000040040000800408E
:1041C000000C004000040140004001400018004085
:1041D00010B504460CB9012010BD94F83D0028B973
:1041E000002084F83C00204600F026F8022084F8E5
:1041F0003D00211D206801F09FFB012084F846004E
:1042000000BF84F83E0001213F20015540200155A8
:104210004120015500BF00BF012084F84200432027
:104220000155442001554520015500BF012084F867
:104230003D000020D0E7000038B504461949206849
:10424000884218D100BF002000901748006840F055
:104250000200154908600846006800F0020000905E
:1042600000BF00BF002201211D20FFF7F7F91D202C
:10427000FFF7E0F915E00D492068884211D100BF31
:10428000002000900848001D006840F48030064976
:10429000091D08600846006800F48030009000BFE7
:1042A00000BF38BD000400404038024000400140DB
:1042B000014691F83D00012801D0012070470220FD
:1042C00081F83D000868C06840F001000B68D860C4
:1042D0001A4B086898421BD00868B0F1804F17D07D
:1042E000174B0868984213D0164B086898420FD0B5
:1042F000154B086898420BD0144B0868984207D0B9
:10430000134B0868984203D0124B086898420CD1AE
:104310000868806800F00702062A0CD00868006868
:1043200040F001000B68186005E00868006840F084
:1043300001000B6818600020C0E700000000014089
:104340000004004000080040000C00400004014050
:1043500000400140001800402DE9F04104460D46A0
:10436000002700BF94F83C00012802D10220BDE8DC
:10437000F081012084F83C0000BF022084F83D0059
:104380002068866826F0770626F47F4620688660D7
:104390002868502833D00CDC202850D004DC0028BA
:1043A0004BD0102851D149E0302849D040284CD179
:1043B00039E060282DD0702807D0B0F5805F03D099
:1043C000B0F5005F41D10DE041E0D5E902136A6824
:1043D000206801F025FB2068866846F07706206893
:1043E000866034E0D5E902136A68206801F018FBA2
:1043F0002068806840F480402168886027E0EA688F
:104400006968206801F020FB5021206801F013FB4F
:104410001DE0EA686968206801F029FB60212068D6
:1044200001F009FB13E0EA686968206801F00CFB01
:104430004021206801F0FFFA09E000BF00BF00BF83
:104440002968206801F0F7FA01E0012700BF00BFEA
:10445000012084F83D0000BF002084F83C0000BF2C
:10446000384684E7704770B504462068C568206800
:10447000066906F00200022819D105F002000228A0
:1044800015D1401F216808610120207720688069CC
:1044900000F0030018B12046FFF7E4FF05E02046D6
:1044A00000F097F8204600F095F80020207706F0FD
:1044B0000400042819D105F00400042815D1C043D4
:1044C00021680861022020772068806900F440702C
:1044D00018B12046FFF7C6FF05E0204600F079F846
:1044E000204600F077F80020207706F00800082822
:1044F00019D105F00800082815D1C04321680861CA
:10450000042020772068C06900F0030018B120461D
:10451000FFF7A8FF05E0204600F05BF8204600F01A
:1045200059F80020207706F01000102819D105F066
:104530001000102815D1C043216808610820207799
:104540002068C06900F4407018B12046FFF78AFF68
:1045500005E0204600F03DF8204600F03BF8002042
:10456000207706F0010048B105F0010030B16FF08E
:10457000010021680861204600F02EF806F0800056
:10458000802809D105F08000802805D1C04321682A
:1045900008612046FFF7C0FD06F04000402809D121
:1045A00005F04000402805D1C0432168086120463D
:1045B00000F074F806F02000202809D105F0200052
:1045C000202805D1C043216808612046FFF7A5FDDA
:1045D00070BD70477047000010B504462B49206835
:1045E000884252D12A490888FCF7DCFC2848008818
:1045F000052190FBF1F201FB120008B9FDF7FCF96F
:1046000023480088142190FBF1F201FB12001128CD
:1046100001D102F089FD1E480088052190FBF1F2CE
:1046200001FB1200012805D11A48FDF769FC194861
:1046300001F044FD164800880A2190FBF1F201FBCD
:104640001200042803D104F057FD00F02BFF10489E
:104650000088642190FBF1F201FB1200072801D1D0
:1046600001F02CFC0A480088642190FBF1F201FB68
:104670001200392804D101F03DFC0748FDF7AAF8E3
:10468000034801F01DFA04F0DDFD10BD00040040F8
:10469000A40300208C100020F4120020704710B5F5
:1046A00004460CB9012010BDA06900B100E000BFB4
:1046B00094F8410028B9002084F84000204600F01A
:1046C00029F8242084F841002068C06820F40050B4
:1046D0002168C860204601F095FA2068006920F43E
:1046E0009040216808612068406920F02A00216814
:1046F00048612068C06840F400502168C86000200C
:104700006064202084F8410084F842000020606347
:1047100000BFC8E710B586B00446142101A8FBF716
:10472000C5FE9049206888427ED100BF00200090DD
:104730008D48006840F010008B490860084600680A
:1047400000F01000009000BF00BF00BF00200090EC
:1047500085481438006840F0020083491439086025
:104760000846006800F00200009000BF00BF00BFD4
:10477000002000900846006840F0010008600846EC
:10478000006800F00100009000BF00BF8020019091
:10479000022002900020039003200490072005903F
:1047A00001A97248FEF7CCFD4FF400700190022081
:1047B000029000200390032004900720059001A997
:1047C0006B48FEF7BDFD6B486B4908604FF0006019
:1047D0004860002168488160C1604FF480610161D8
:1047E000002141618161C1614FF4403101620021CA
:1047F0004162FEF72FFD08B1FDF71EFB00BF5E48CA
:10480000E063846300BF5B4830305C4908604FF070
:10481000006048604021594881600021C1604FF428
:1048200080610161002100E01AE041618161C161A4
:104830004FF48031016200214162FEF70BFD08B1A7
:10484000FDF7FAFA00BF4D48A063846300BF002261
:1048500001212520FEF702FF2520FEF7EBFE7FE079
:104860004749206888427BD100BF002000903E4825
:10487000006840F020003C4908600846006800F0ED
:104880002000009000BF00BF00BF0020009036480D
:104890001438006840F04000334914390860084675
:1048A000006800F04000009000BF00BF4FF484405B
:1048B0000190022002900020039003200490082021
:1048C000059001A92F48FEF73BFD2A4860382E4984
:1048D00008608005486000212B488160C1604FF46A
:1048E000806101610021416181614FF48071C1618A
:1048F0004902016200214162FEF7ACFC08B1FDF7FC
:104900009BFA00BF2048E063846300BF1948183059
:104910001E4908604FF02060486040211B488160BC
:104920000021C1604FF4806101610021416181611A
:10493000C1614FF48031016200214162FEF78AFCBF
:1049400008B1FDF779FA00BF1048A063846300BF87
:10495000002211464720FEF781FE4720FEF76AFE3F
:1049600006B010BD0010014044380240000402406F
:1049700000000240886402403C0500209C050020A5
:104980000014014000180240FC0500205C060020D5
:104990002DE9F84F04460E46174699464FF0000A97
:1049A00094F84100202850D106B117B90120BDE884
:1049B000F88F00206064212084F84100FEF7C0FDDC
:1049C0008246A784E784A068B0F5805F04D120699F
:1049D00010B90025B04602E035464FF000081EE051
:1049E0005346002280212046CDF8009001F020FAA5
:1049F00020B1202084F841000320D8E745B9B8F859
:104A00000000C0F308002168486008F1020803E0D4
:104A10002878216848606D1CE08C401EE084E08CA2
:104A20000028DDD15346002240212046CDF80090D9
:104A300001F0FEF920B1202084F841000320B6E700
:104A4000202084F841000020B1E70220AFE700BF3A
:104A5000FEE7000038B504460020009000252B48F2
:104A600021680160217901716D1D60190088009035
:104A7000AD1CBDF8000040F20222811A904214D011
:104A800008DC01281FD0032816D0A0F2012000283E
:104A900039D104E001292CD0052934D11FE0611956
:104AA0000D221B48FBF79BFC2EE0611910221848D1
:104AB0000D30FBF794FC27E06119202214481930CF
:104AC000FBF78DFC20E060191149403102680A6053
:104AD00042684A6002890A81807A887214E061190A
:104AE0000B4839300A6802608A888280897981712E
:104AF00000BF601906494B3102680A6042684A608B
:104B00008068886000E000BF00BF38BD160000204C
:104B1000D40E002010B504464FF488702349088055
:104B200023480078488022480078652802D140F266
:104B3000651088801E480078012803D140F20110DA
:104B40001A4988801A480078672803D140F2671014
:104B50001649888016480078682803D14FF4B4704D
:104B60001249888012480078692803D140F2691000
:104B70000E4988800E480078032803D140F20310C4
:104B80000A4988800A480078042803D14FF48270CB
:104B90000649888006480078052803D140F20510B0
:104BA00002498880204603F015FF10BDF81300204D
:104BB000D40E002010B504464FF4827023490880BB
:104BC00023480078488022480078652802D140F2C6
:104BD000651088801E480078012803D140F201103A
:104BE0001A4988801A480078672803D140F2671074
:104BF0001649888016480078682803D14FF4B470AD
:104C00001249888012480078692803D140F269105F
:104C10000E4988800E480078032803D140F2031023
:104C20000A4988800A480078042803D14FF482702A
:104C30000649888006480078052803D140F205100F
:104C400002498880204602F05BFE10BD2B14002034
:104C5000D40E002010B50F480F49086003204860AB
:104C600000210D488160C1604FF4802101614FF443
:104C7000E001416100210176012141768176002128
:104C8000C17601774177FDF7A6FF08B1FDF7D4F8AB
:104C900010BD000000640040AC03002010B50F48B8
:104CA0000F4908600320486000210D488160C16001
:104CB0004FF4802101614FF4E00141610021017650
:104CC0000121417681760021C17601774177FDF798
:104CD00082FF08B1FDF7B0F810BD00000068004089
:104CE000D403002008B500BF0020009016480068DB
:104CF00040F48000144908600846006800F4800011
:104D0000009000BF00BF002211463920FEF7A6FC2C
:104D10003920FEF78FFC002211464420FEF79EFC4E
:104D20004420FEF787FC002211464520FEF796FC42
:104D30004520FEF77FFC002211464620FEF78EFC40
:104D40004620FEF777FC08BD3038024000B587B03A
:104D5000142102A8FBF7AAFB00BF002001903548F0
:104D6000006840F00200334908600846006800F01F
:104D70000200019000BF00BF00BF00200190084664
:104D8000006840F0400008600846006800F04000FD
:104D9000019000BF00BF00BF0020019008460068DE
:104DA00040F0010008600846006800F00100019032
:104DB00000BF00BF00BF002001900846006840F01F
:104DC000080008600846006800F00800019000BF75
:104DD00000BF00BF002001900846006840F48070CA
:104DE00008600846006800F48070019000BF00BFB2
:104DF00000BF002001900846006840F08000086075
:104E00000846006800F08000019000BF00BF00224B
:104E100080210948FEF78EFB80200290012003903C
:104E200000200490059002A90348FEF789FA07B014
:104E300000BD0000303802400020024010B50A4892
:104E40000A490860002048607C210848816040F6DB
:104E50007F41C1600021016141618161FFF7AEF8CE
:104E600008B1FCF7E9FF10BD00280040FC0300205A
:104E700000B587B000200390049005900690019043
:104E800002901548154908605320486000211348D6
:104E9000816040F2E731C1600021016180218161C0
:104EA000FFF796F908B1FCF7C7FF4FF48050039065
:104EB00003A90A48FFF750FA08B1FCF7BDFF00202C
:104EC0000190029001A90548FFF728F908B1FCF705
:104ED000B3FF07B000BD0000000400401C04002028
:104EE0001FB5002000900190029003900F481049D8
:104EF000086040F2E730486000210D488160A7213A
:104F0000C1600021016180218161FFF761F908B171
:104F1000FCF792FF4FF48050009069460448FFF779
:104F20001BFA08B1FCF788FF1FBD000000400140DC
:104F30006404002010B50B480B4908604FF4E130C1
:104F40004860002108488160C16001610C21416115
:104F500000218161C161FFF7A2FB08B1FCF76CFF82
:104F600010BD000000100140AC04002010B50B483B
:104F70000B4908604FF4E130486000210848816027
:104F8000C16001610C21416100218161C161FFF7B4
:104F900086FB08B1FCF750FF10BD00000014014073
:104FA000F404002000BFFEE700BFFEE710B52DEDC2
:104FB000028B0446B0EE408AF0EE608A94F86D00F1
:104FC00000F0800078B1204602F006FB7620005DFC
:104FD00048B19FED610A10EE100A60639FED5E0A12
:104FE000BDEC028B10BD18EE100A606118EE900A3D
:104FF0002060206800EE100A606900EE900A30EE32
:10500000600A10EE100AE061E06900EE100AB5EEE9
:10501000C00AF1EE10FA03DDE06900EE100A04E0C8
:10502000E06900EE100AB1EE400AA06C00EE900AB2
:10503000B4EEE00AF1EE10FA7EDDA06800EE100A90
:10504000E06900EE900A20EE200A10EE100A60627D
:10505000E06800EE100AE06900EE900A20EE200AF7
:1050600010EE100A2063E06900EE100A206A00EEDC
:10507000900A70EE600A206900EE100A20EE800AA5
:1050800010EE100AE06294F86D0000F0040010B118
:10509000204602F078FB94F86D0000F0200010B17B
:1050A000204602F055F994F86D0000F0010010B1AF
:1050B000204602F0EFF994F86D0000F0020010B104
:1050C000204602F0D5F994F86D0000F0400010B1D0
:1050D000204602F0B5F9A06A00EE100A206B00EE3F
:1050E000900A30EE200A10EE100AA062606A00EE0C
:1050F000100AA06A00EE900A70EE200AE06A00EE44
:10510000100A30EE800A10EE100A606394F86D0009
:1051100000F0100010B1204602F022FA204602F002
:1051200037FA204602F00CFB6069A061606BA06357
:10513000E06AE063E06900E004E02062606B00EE9A
:10514000100A4DE79FED040A10EE100A6063606BD1
:1051500000EE100A44E700000000000070B50446AD
:105160000D461646054844F8770F0548606054F828
:105170007739324629462046984770BD997600080F
:105180000D77000870470000B7EE001AF0EE410AF4
:10519000B7EE001AB0EE410A3048007C10B1012889
:1051A0005AD12FE02D4890ED321AF3EE0E1AB4EEDC
:1051B000E11AF1EE10FA1FD290ED321AF2EE0E1A49
:1051C00031EE611AF2EE0E1A81EE212AB0EE420A99
:1051D000B5EEC00AF1EE10FA03D29FED211AB0EE3F
:1051E000410AB7EE001AB4EEC10AF1EE10FA03DD7F
:1051F000B7EE001AB0EE410A20EE801A174880ED93
:10520000051A29E01748B0F8150001EE100AB8EEAB
:10521000411AF3EE041AB4EEE11AF1EE10FA15D2C7
:105220001048B0F8150001EE100AB8EE411AF3EE7E
:10523000041A81EE212AB0EE420AB5EEC00AF1EE60
:1052400010FA03D29FED061AB0EE410A20EE801A42
:10525000024880ED051A00BF00BF7047B80F00205C
:1052600000000000D40E0020124890F8C100012870
:105270001BD1104890ED320AF3EE0E0AB4EEE00AAC
:10528000F1EE10FA03DD00200A49087410E0094825
:1052900090ED320AF2EE040AB4EEE00AF1EE10FAF2
:1052A00006DD00200349087402E00120014908746A
:1052B00070470000B80F002070B504460026002596
:1052C0002068C06800F04000C8B92068C06840F09D
:1052D00080002168C860FEF733F9064608E0FEF753
:1052E0002FF9801BB0F57A7F02D904206077012561
:1052F0002068C06800F0400008B9012DEFD12846B1
:1053000070BD70B5044600252068C06820F080009C
:105310002168C8602068806800F0200030B920460D
:10532000FEF7C4FE10B1042060770125284670BD49
:1053300010B5494B1B685B6943F04003464C246839
:105340006361454B1B685B6943F08003424C2468F2
:105350006361414B1B68DB6843F010033E4C2468DB
:10536000E3603E4B1B681B6823F001033B4C246841
:10537000236007E0394B1B681B6823F00103374C9F
:1053800024682360354B1B681B6803F00103002B66
:10539000F0D1324B1B68324CA34205D94FF40013B5
:1053A0002F4C4C3C23601BE02C4B1B682D4CA34224
:1053B00005D94FF400132A4C503C236010E0274BD2
:1053C0001B68284C603CA34205D94FF40013254CC0
:1053D000B83CE36004E04FF40013224CB83CA360F7
:1053E000214B1E4C2468A360204B1C4C2468E360B6
:1053F0001A4C24682361194B1B685A60174B1B68B1
:105400001B6843F48023154C24682360134B1B68EE
:105410001B6843F00103114C24682360144B1B6884
:105420001B6823F00103124C2468236007E0104B33
:105430001B681B6823F001030D4C246823600C4B90
:105440001B681B6803F00103002BF0D1064B084CCE
:105450002468A36010BD0000F4040020FC050020B7
:1054600058640240B860024004140140BC060020A9
:105470005C06002010B54FF400720649A1F50070DB
:10548000FFF756FF4FF480620349044802F0B9F970
:1054900010BD0000BC080020D40A0020BC0A002077
:1054A0007047000010B50C4890F8400000090B4907
:1054B000087000F029F8094809490968C0F8011086
:1054C00008490988A0F8051008230246F12106487A
:1054D000FCF7A0F810BD0000D40E0020D802002078
:1054E0006000002064000020AC03002007B52DED13
:1054F000020BBDF80C100180BDF81010418000991E
:10550000416005B000BD0000114890ED000AB5EE05
:10551000C00AF1EE10FA0DD10E48C06B00EE100A71
:10552000B5EEC00AF1EE10FA04D19FED0B0A08485F
:1055300080ED000A0748C06B00EE100AB5EEC00A05
:10554000F1EE10FA03D00348C06B014908607047C0
:1055500060000020D40E00203333734170B52DED70
:10556000088B04460025D4ED130AF8EEE00AB0EEED
:10557000600AFCF764FCBDEEC00A10EE105AD4EDD0
:105580001C0AF8EEE00AB0EE600AFCF758FCF0EEF8
:10559000400A00EE105AB8EEC00AF4EEC00AF1EE6E
:1055A00010FA0BDDD4ED1C0AF8EEE00AB0EE600A4A
:1055B000FCF745FCBDEEC00A10EE105AD4ED250AEA
:1055C000F8EEE00AB0EE600AFCF739FCF0EE400AB3
:1055D00000EE105AB8EEC00AF4EEC00AF1EE10FA6E
:1055E0000BDDD4ED250AF8EEE00AB0EE600AFCF718
:1055F00026FCBDEEC00A10EE105AD4ED2E0AF8EECD
:10560000E00AB0EE600AFCF71AFCF0EE400A00EE89
:10561000105AB8EEC00AF4EEC00AF1EE10FA0BDD33
:10562000D4ED2E0AF8EEE00AB0EE600AFCF707FCB3
:10563000BDEEC00A10EE105A00EE105AB8EEC00AC5
:10564000DFED570AB4EEE00AF1EE10FA7DDD2846F0
:1056500004F0B3F841EC190B94ED130AB8EEC00A4C
:10566000DFED4F0A20EE200A10EE101A084604F073
:1056700001FC41EC1B0B9FED4B0B53EC102B04F08A
:1056800003F941EC1A0B53EC192B03F00FFF41EC1B
:10569000180B04F063F8E064284604F08EF841EC3F
:1056A000190B94ED1C0AB8EEC00ADFED3D0A20EE9E
:1056B000200A10EE101A084604F0DCFB41EC1B0B2C
:1056C0009FED380B53EC102B04F0DEF841EC1A0B75
:1056D00053EC192B03F0EAFE41EC180B04F03EF8F2
:1056E0002067284604F069F841EC190B94ED250A6F
:1056F000B8EEC00ADFED2A0A20EE200A10EE101ADA
:10570000084604F0B7FB41EC1B0B9FED260B53EC56
:10571000102B04F0B9F841EC1A0B53EC192B03F0E1
:10572000C5FE41EC180B04F019F8C4F894002846A3
:1057300004F043F841EC190B94ED2E0AB8EEC00AC0
:10574000DFED170A20EE200A00E019E010EE101A33
:10575000084604F08FFB41EC1B0B9FED120B53EC42
:10576000102B04F091F841EC1A0B53EC192B03F0B9
:105770009DFE41EC180B03F0F1FFC4F8B8000BE0FC
:10578000E16CE164216F2167D4F89410C4F894109F
:10579000D4F8B810C4F8B810BDEC088B70BD000088
:1057A0000000E143000000000000F03FB0EE401AAE
:1057B000B5EEC01AF1EE10FA02D89FED140A704748
:1057C000B0EE000AC1EE000A9FED110A21EE002A98
:1057D00000BFF0EE411A50EEA01AB0EE000A60EEE3
:1057E000802A81EEA20A30EEC00AF0EE400AF4EE02
:1057F000C21AF1EE10FAECDCB1EE420AF4EEC01A75
:10580000F1EE10FAE5D3B0EE600AD8E70000000030
:105810006F12833AF0EE400A20EEA01AB0EE410A71
:105820007047000010B5084890F8C10028B901225F
:1058300080210648FDF77EFE04E000228021034817
:10584000FDF778FE10BD0000B80F002000200240D8
:1058500010B5FDF77BFE10BD00B593B0302107A851
:10586000FAF724FE142102A8FAF720FE00BF002058
:1058700001902648006840F080502449086008469E
:10588000006800F08050019000BF00BF00BF002002
:1058900001901F48006840F480401D490860084698
:1058A000006800F48040019000BF00BF0A2007900C
:1058B00001200A9010200B9001200C9002200D90E6
:1058C00000210E9108210F91A82110910221119120
:1058D0000421129107A8FEF723F908B1FCF7ACFAEE
:1058E0000F20029002200390002004904FF4A0505B
:1058F00005904FF480500690052102A8FDF7D0FFD7
:1059000008B1FCF799FA13B000BD0000403802401E
:10591000007000400348006840F4700001490860CE
:105920007047000088ED00E010B50248FEF79BFDCF
:1059300010BD00001C04002010B502682D4B9842D9
:105940000ED0B0F1804F0BD02B4B984208D02B4B90
:10595000984205D02A4B984202D02A4B984203D154
:1059600022F070024B681A43224B984220D0B0F1CB
:10597000804F1DD0204B98421AD0204B984217D010
:105980001F4B984214D01F4B984211D01E4B984287
:105990000ED01E4B98420BD01D4B984208D01D4B89
:1059A000984205D01C4B984202D01C4B984203D120
:1059B00022F44072CB681A4322F080034C6943EA18
:1059C000040202608B68C3620B688362094B9842D1
:1059D00002D00C4B984201D10B6903630123436150
:1059E000036903F001031BB1036923F001030361A1
:1059F00010BD00000000014000040040000800400D
:105A0000000C0040000401400040014000440140FF
:105A10000048014000180040001C004000200040E9
:105A200030B50C46816821F47F4142EA03252543C5
:105A30002943816030BD0A46816821F0700142F03F
:105A4000070319438160704730B50B461446026A5C
:105A5000056A25F001050562816921F0F00141EA3E
:105A6000041122F00A021A438161026230BD30B58E
:105A70000B461446026A056A25F010050562816925
:105A800021F4704141EA043122F0A00242EA0312FB
:105A90008161026230BD000010B500F05FFBFBF7D2
:105AA000A5FEFBF7E7FDFBF7B5FFFFF7E3FC0022E0
:105AB00080210248FDF73EFD10BD0000002002409D
:105AC0000188491C01800188B1F57A7F04DB00213F
:105AD00001804188491C418001884288C2EB021242
