:020000040800F2
:10000000481B002069020008014D0008B74700089E
:10001000FD4C000899130008595D0008000000001D
:10002000000000000000000000000000F95100087E
:10003000771E000800000000DD4E00086155000832
:10004000830200088302000883020008830200087C
:10005000830200088302000883020008830200086C
:10006000830200088302000883020008830200085C
:10007000830200088302000883020008830200084C
:100080008302000883020008830200087514000838
:100090005514000865140008830200088302000854
:1000A000830200088302000883020008830200081C
:1000B0008302000839560008830200088302000802
:1000C00083020008830200088302000883020008FC
:1000D00083020008830200088302000883020008EC
:1000E00083020008830200088302000883020008DC
:1000F00083020008830200088302000883020008CC
:1001000083020008830200088302000883020008BB
:1001100083020008830200088302000883020008AB
:1001200083020008591D00088302000883020008AA
:100130008302000883020008830200080D150008EE
:10014000ED140008FD140008830200088302000873
:10015000691D0008791D0008891D00083D5C000824
:10016000830200088302000883020008830200085B
:1001700083020008830200088302000800000000D8
:10018000830200088302000800F002F800F05CF827
:100190000AA090E8000C82448344AAF10107DA45E2
:1001A00001D100F051F8AFF2090EBAE80F0013F0D8
:1001B000010F18BFFB1A43F001031847249D0000EC
:1001C000449D00000A444FF0000C10F8013B13F06E
:1001D000070408BF10F8014B1D1108BF10F8015BA0
:1001E000641E05D010F8016B641E01F8016BF9D193
:1001F00013F0080F1EBF10F8014BAD1C0C1B09D1EA
:100200006D1E58BF01F801CBFAD505E014F8016B5B
:1002100001F8016B6D1EF9D59142D6D370470000ED
:100220000023002400250026103A28BF78C1FBD8FF
:10023000520728BF30C148BF0B6070471FB509F097
:10024000D2FB1FBD10B510BD00F0A1F91146FFF79C
:10025000F5FF07F0BDF900F0BFF903B4FFF7F2FFB7
:1002600003BC00F0C3F90000094880470948004773
:10027000FEE7FEE7FEE7FEE7FEE7FEE7FEE7FEE756
:10028000FEE7FEE704480549054A064B70470000B3
:10029000255600088901000848150020481B002049
:1002A000481700204817002053EA020C00F069802C
:1002B0002DE9F04B4FF00006002B1FBFB3FA83F57A
:1002C00003FA05F424FA05F65E4012BF1643B2FAAB
:1002D00082F502FA05F4C5F120051EBF22FA05FCDD
:1002E00044EA0C04203556EA044C4FEA144418BF83
:1002F000641C4FF000084FF00009904271EB030CB2
:1003000039D3002919BFB1FA81F701FA07F6B0FA1B
:1003100080F700FA07F6C7F120071EBF20FA07FC96
:1003200046EA0C062037B6FBF4FCA7EB0507103FA6
:1003300007F01F0BCBF120060CFA0BFB2CFA06F68C
:1003400044BFB3460026202FA4BF5E464FF0000BEB
:100350005BEA060C08BF4FF0010B19EB0B09ABFB76
:10036000027C48EB0608C01B06FB02CC0BFB03CC4F
:1003700071EB0C01C1E70B46024641464846BDE819
:10038000F08B13B54FF000004FF00001AFF3008089
:10039000BDE81C40704740EA0103024630B59B07A8
:1003A00010D14FF0013400E008C208C91D1B9D4365
:1003B00015EAC41FF8D013F0FF0102F8011B0DD09D
:1003C0001B0AF8E711F8013B002B02F8013B05D0AE
:1003D00011F8013B002B02F8013BF3D130BD032A99
:1003E00040F2308010F0030C00F0158011F8013B52
:1003F000BCF1020F624498BF11F801CB00F8013B39
:1004000038BF11F8013BA2F1040298BF00F801CBFC
:1004100038BF00F8013B11F0030300F07C80083A7C
:10042000C0F0088051F8043B083A51F804CBA0E82A
:100430000810F5E7121D5CBF51F8043B40F8043B7F
:10044000AFF30080D20724BF11F8013B11F801CBB4
:1004500048BF11F8012B24BF00F8013B00F801CB85
:1004600048BF00F8012B70474FF000020429C0F08C
:10047000128010F0030C00F01B80CCF1040CBCF1D6
:10048000020F18BF00F8012BA8BF20F8022BA1EB28
:100490000C0100F00DB85FEAC17C24BF00F8012B0D
:1004A00000F8012B48BF00F8012B70474FF0000205
:1004B00000B5134694469646203922BFA0E80C505A
:1004C000A0E80C50B1F12001BFF4F7AF090728BF35
:1004D000A0E80C5048BF0CC05DF804EB890028BFB1
:1004E00040F8042B08BF704748BF20F8022B11F0DA
:1004F000804F18BF00F8012B704770477047704756
:1005000010B500F03FF8006810BD10B5044600F0CB
:1005100039F8046010BD10B5203AC0F00B80B1E886
:100520001850203AA0E81850B1E81850A0E8185028
:10053000BFF4F5AF5FEA027C24BFB1E81850A0E831
:10054000185044BF18C918C0BDE810405FEA827C4B
:1005500024BF51F8043B40F8043B08BF7047D20762
:1005600028BF31F8023B48BF11F8012B28BF20F803
:10057000023B48BF00F8012B70470000004870475D
:10058000E414002000487047E414002070477546CA
:10059000FFF7F4FFAE4605006946534620F007001A
:1005A000854618B020B5FFF76DFEBDE820404FF03E
:1005B00000064FF000074FF000084FF0000B21F04D
:1005C0000701AC46ACE8C009ACE8C009ACE8C0091A
:1005D000ACE8C0098D46704710B50446AFF3008003
:1005E0002046BDE81040FFF738BE00000149182042
:1005F000ABBEFEE72600020090ED0E0A80ED0F0A6A
:1006000090ED170A80ED180A90ED200A80ED210A7E
:1006100090ED290A80ED2A0AD0ED0D0A90ED100A1E
:10062000B8EEC00A30EE800A80ED0E0AD0ED160A50
:1006300090ED190AB8EEC00A30EE800A80ED170A74
:10064000D0ED1F0A90ED220AB8EEC00A30EE800A03
:1006500080ED200AD0ED280A90ED2B0AB8EEC00AF2
:1006600030EE800A80ED290A017A39B390ED100A44
:10067000B8EEC00ADFED6E0A30EE200A80ED0E0AF9
:1006800090ED190AB8EEC00ADFED6A0A30EE200AD2
:1006900080ED170A90ED220AB8EEC00ADFED660A77
:1006A00030EE200A80ED200A90ED2B0AB8EEC00A49
:1006B000DFED620A30EE200A80ED290A90ED0E0A85
:1006C000DFED5F0AB4EEE00AF1EE10FA07DD90ED1F
:1006D0000E0ADFED5B0A30EE600A80ED0E0A90ED47
:1006E0000E0AB5EEC00AF1EE10FA07D290ED0E0A2E
:1006F000DFED530A30EE200A80ED0E0A90ED170A66
:10070000DFED4F0AB4EEE00AF1EE10FA07DD90EDEE
:10071000170ADFED4B0A30EE600A80ED170A90ED04
:10072000170AB5EEC00AF1EE10FA07D290ED170ADB
:10073000DFED430A30EE200A80ED170A90ED200A23
:10074000DFED3F0AB4EEE00AF1EE10FA07DD90EDBE
:10075000200ADFED3B0A30EE600A80ED200A90EDC2
:10076000200AB5EEC00AF1EE10FA07D290ED200A89
:10077000DFED330A30EE200A80ED200A90ED290AE1
:10078000DFED2F0AB4EEE00AF1EE10FA07DD90ED8E
:10079000290ADFED2B0A30EE600A80ED290A90ED80
:1007A000290AB5EEC00AF1EE10FA07D290ED290A37
:1007B000DFED230A30EE200A80ED290A90ED120ABF
:1007C000BDEEC00AB8EEC00AF7EE000A20EE200A1D
:1007D000BDEEC00A80ED130A90ED1B0ABDEEC00A03
:1007E000B8EEC00AF7EE000A20EE200ABDEEC00AFD
:1007F00080ED1C0A90ED240ABDEEC00AB8EEC00AD6
:10080000F7EE000A20EE200ABDEEC00A80ED250AB0
:1008100090ED2D0ABDEEC00AB8EEC00AF7EE000A50
:1008200020EE200ABDEEC00A80ED2E0A70470000BF
:1008300000F9DF4500FB9F4500FA3F4500F87F4483
:1008400000F8FF4510B52DED108B86B0044694EDF1
:10085000060A20EE000AD4ED080A94ED081A00EE0C
:10086000810A10EE101A084609F04CF841EC1D0BF5
:10087000B0EE4D0AF0EE6D0A05F076FEB0EE40CA1D
:10088000F0EE60CA51EC1C0B08F072FA08EE900A08
:1008900094ED0A0ADFEDFB0A20EE200AB0EE409A42
:1008A000207802280FD1F84890ED1A0AD4ED010AF9
:1008B00030EE200A9FEDF51AC0EE010A9FEDF40A12
:1008C00060EE80AA09E094ED010ADFEDF00A80EE07
:1008D000201A9FEDEF0A61EE00AA94ED060A10EED1
:1008E000101A084609F00EF841EC1E0B94ED080AA8
:1008F00010EE101A084609F005F841EC1D0BB0EE99
:100900004E1AF0EE6E1AB0EE4D0AF0EE6D0A05F0DA
:100910006BFCB0EE40FAF0EE60FA1AEE900A08F0C6
:10092000F1FF41EC1C0B53EC1F2B08F053FACDE9FF
:1009300004019DED040B51EC100B08F019FA08EEC0
:10094000100A05E09FEDD20A38EE400AB0EE408A68
:100950009FEDD00AB4EEC08AF1EE10FAF2DC05E0A9
:100960009FEDCB0A38EE000AB0EE408A9FEDCA0A2E
:10097000B4EEC08AF1EE10FAF2D318EE100A08F0C5
:10098000C1FF41EC1D0BB0EE4D0AF0EE6D0A05F013
:1009900087FDB0EE40CAF0EE60CA51EC1C0B08F0C7
:1009A000E7F90BEE900A18EE100A08F0ABFF41ECE5
:1009B0001D0BB0EE4D0AF0EE6D0A05F00DFDB0EE28
:1009C00040CAF0EE60CA51EC1C0B08F0D1F90BEEF6
:1009D000100AB5EEC08AF1EE10FA08DDB0EE6B0A2F
:1009E00001F055FAB0EE49AA08EE80AA09E0B0EE8F
:1009F0006B0A01F04CFAB1EE400AB0EE49AA08EEDB
:100A000080AA9FEDA60AB4EEC08AF1EE10FA0FD2CA
:100A10009FEDA30AB4EEC08AF1EE10FA08DDB0EE45
:100A20004B0A01F034FAF0EE499A48EE809A09E058
:100A3000B0EE4B0A01F02BFAB1EE400AF0EE499A03
:100A400048EE809A19EE900A08F05CFFCDE90201A9
:100A50001AEE100A08F056FFCDE900019DED021BC9
:100A60009DED000B05F0C0FBB0EE40CAF0EE60CA91
:100A700051EC1C0B08F070F99FED8A0B53EC102B16
:100A8000CDE904019DED040B51EC100B08F056FA72
:100A900041EC1D0B9FED850B53EC102B08F04EFA2B
:100AA00041EC1E0B9FED830B53EC102B08F034FC34
:100AB00041EC1F0B08F05CF96063B0EE690A04F0CA
:100AC00031FDF0EE401AB0EE4A0A04F02BFD31EE93
:100AD000800A84ED110A94ED110A10EE101A0846EE
:100AE00008F010FF41EC1D0BB0EE4D0AF0EE6D0A60
:100AF00005F03AFDB0EE40CAF0EE60CA51EC1C0BB6
:100B000008F036F96064B5EEC08AF1EE10FA0ADD3D
:100B1000B0EE6B0A01F0BBF9F0EE490A48EE800A2C
:100B2000B0EE60AA0BE0B0EE6B0A01F0B0F9F1EEA6
:100B3000400AB0EE490A08EEA00AB0EE40AA9FEDC6
:100B4000570AB4EEC08AF1EE10FA11D29FED540AA2
:100B5000B4EEC08AF1EE10FA0ADDB0EE4B0A01F0F5
:100B600096F9F0EE490A58EE800AF0EE609A0BE032
:100B7000B0EE4B0A01F08BF9F1EE400AB0EE490AF3
:100B800018EEA00AF0EE409A19EE900A08F0BAFEAC
:100B900041EC1C0B1AEE100A08F0B4FE41EC1E0BDF
:100BA000B0EE4C1AF0EE6C1AB0EE4E0AF0EE6E0A91
:100BB00005F01AFBB0EE40DAF0EE60DA51EC1D0BF6
:100BC00008F0CAF89FED370B53EC102BCDE900016C
:100BD0009DED000B51EC100B08F0B0F941EC1F0B30
:100BE0009FED320B53EC102B08F0A8F99FED310B61
:100BF00053EC102BCDE902019DED020B51EC100BD3
:100C000008F08AFBCDE904019DED040B51EC100BBB
:100C100008F0AEF8A065B0EE690A04F083FCF0EECF
:100C2000401AB0EE4A0A04F07DFC31EE800A84EDF1
:100C30001A0A94ED1A0A10EE101A084608F062FE1D
:100C400041EC1D0BB0EE4D0AF0EE6D0A05F08CFC88
:100C5000B0EE40CAF0EE60CA51EC1C0B08F088F808
:100C6000A066B5EEC08AF1EE10FA27DDB0EE6B0A91
:100C700001F00DF9F0EE490A58EE800AB0EE60AAD4
:100C800028E00000713D1E427C1000200000B443AB
:100C9000DC0FC940DC0F4940DC0F49C0DC0FC93F05
:100CA000DC0FC9BF00000080FB21094000000000EC
:100CB000000000400000000000FFBF40B0EE6B0AE3
:100CC00001F0E5F8F1EE400AB0EE490A18EEA00A8C
:100CD000B0EE40AA1FED0F0AB4EEC08AF1EE10FA92
:100CE00011D21FED110AB4EEC08AF1EE10FA0ADD3E
:100CF000B0EE4B0A01F0CBF8F0EE490A58EE800A4C
:100D0000F0EE609A0BE0B0EE4B0A01F0C0F8F1EEA5
:100D1000400AB0EE490A18EEA00AF0EE409A19EE29
:100D2000900A08F0EFFD41EC1C0B1AEE100A08F0D7
:100D3000E9FD41EC1D0BB0EE4C1AF0EE6C1AB0EE72
:100D40004D0AF0EE6D0A05F04FFAB0EE40EAF0EE13
:100D500060EA51EC1E0B07F0FFFF41EC1F0B1FED8B
:100D60002F0B53EC102B08F0E9F81FED300B53EC70
:100D7000102BCDE900019DED000B51EC100B08F09C
:100D8000DDF81FED340B53EC102BCDE902019DED86
:100D9000020B51EC100B08F0BFFACDE904019DEDF8
:100DA000040B51EC100B07F0E3FFE067B0EE690AAB
:100DB00004F0B8FBF0EE401AB0EE4A0A04F0B2FBC1
:100DC00031EE800A84ED230A94ED230A10EE101A06
:100DD000084608F097FD41EC1E0BB0EE4E0AF0EE0F
:100DE0006E0A05F0C1FBB0EE40CAF0EE60CA51ECED
:100DF0001C0B07F0B1FF41EC1D0B07F0B9FF8C2174
:100E00000851B5EEC08AF1EE10FA0ADDB0EE6B0AB9
:100E100001F03DF8F0EE490A58EE800AB0EE60AA03
:100E20000BE0B0EE6B0A01F032F8F1EE400AB0EEE2
:100E3000490A18EEA00AB0EE40AA1FED680AB4EE07
:100E4000C08AF1EE10FA11D21FED6B0AB4EEC08A1F
:100E5000F1EE10FA0ADDB0EE4B0A01F018F8F0EEF0
:100E6000490A48EE800AF0EE609A0BE0B0EE4B0AB9
:100E700001F00DF8F1EE400AB0EE490A08EEA00AC2
:100E8000F0EE409A19EE900A08F03CFDCDE9000121
:100E90001AEE100A08F036FD41EC1D0B9DED001B0B
:100EA000B0EE4D0AF0EE6D0A05F09EF9B0EE40CAC4
:100EB000F0EE60CA51EC1C0B07F04EFF1FED870BE4
:100EC00053EC102BCDE902019DED020B51EC100B00
:100ED00008F034F841EC1E0B1FED8C0B53EC102B7B
:100EE00008F02CF841EC1F0B1FED8E0B53EC102B70
:100EF00008F012FACDE904019DED040B51EC100B42
:100F000007F036FFA0210851B0EE690A04F00AFB91
:100F1000F0EE401AB0EE4A0A04F004FB31EE800A0B
:100F200084ED2C0A94ED2C0A10EE101A084608F0F5
:100F3000E9FC41EC1D0BB0EE4D0AF0EE6D0A05F038
:100F400013FBB0EE40CAF0EE60CA51EC1C0B07F088
:100F50000FFFB021085194ED110ADFED110A20EEC8
:100F6000200A84ED120A94ED1A0ADFED0D0A20EE34
:100F7000200A84ED1B0A94ED230ADFED090A20EE16
:100F8000200A84ED240A94ED2C0ADFED050A20EEF8
:100F9000200A84ED2D0A06B0BDEC108B10BD0000B8
:100FA0004276F43F70B504460C2094FBF0F100FB50
:100FB0001140002867D1DB480078D0B1D94890F8BB
:100FC0005100B0B9D8480021016041600121D548E5
:100FD00080F85110014691F850000122002100F0E4
:100FE0004BFF05460823D04A2946D04800F026FB8F
:100FF00049E0CC480078C8B9CA4890F85100A8B177
:10100000C948002101604160C64880F8511001467E
:1010100091F850000022114600F02EFF05460823EB
:10102000C14A2946C14800F009FB2CE0C048D0ED78
:10103000090AB0EE600ABB48B0F84C0002B2B948E9
:10104000D0ED0E0AFDEEE00A10EE900A01B2B648AD
:1010500004F008F9B34A92ED050ADFEDB60A20EE76
:10106000200ABDEEC00A10EE102A91B2AD4A92F8E5
:101070005000032200F000FF05460823AA4A294633
:10108000AA4800F0DBFA0C2094FBF0F100FB1140C1
:10109000032867D1A3480078D0B1A24890F8750022
:1010A000B0B9A54800210160416001219D4880F848
:1010B0007510014691F874000122002100F0DCFE59
:1010C000054608239C4A2946984800F0B7FA49E0AB
:1010D00094480078C8B9934890F87500A8B196482C
:1010E0000021016041608F4880F87510014691F839
:1010F00074000022114600F0BFFE054608238E4A08
:1011000029468A4800F09AFA2CE08948D0ED0A0A6C
:10111000B0EE600A8348B0F8700002B28148D0EDAA
:10112000170AFDEEE00A10EE900A01B2824804F0C0
:1011300099F87C4A92ED050ADFED7E0A20EE200A3E
:10114000BDEEC00A10EE102A91B2764A92F87400F1
:10115000032200F091FE05460823774A294673488A
:1011600000F06CFA0C2094FBF0F100FB1140062813
:1011700067D16C480078D0B16A4890F89900B0B94E
:101180006E480021016041600121664880F8991095
:10119000014691F898000122002100F06DFE0546FD
:1011A0000823664A2946614800F048FA49E05D484C
:1011B0000078C8B95B4890F89900A8B15F48002151
:1011C00001604160574880F89910014691F89800F5
:1011D0000022114600F050FE05460823574A2946D2
:1011E000524800F02BFA2CE05148D0ED0B0AB0EE3B
:1011F000600A4C48B0F8940002B24A48D0ED200A88
:10120000FDEEE00A10EE900A01B24C4804F02AF814
:10121000444A92ED050ADFED470A20EE200ABDEEB2
:10122000C00A10EE102A91B23E4A92F898000322AA
:1012300000F022FE05460823404A29463B4800F0BC
:10124000FDF90C2094FBF0F100FB1140092867D157
:1012500034480078D0B1334890F8BD00B0B9384870
:1012600000210160416001212E4880F8BD10014637
:1012700091F8BC000122002100F0FEFD0546082384
:101280002F4A2946294800F0D9F949E02548007835
:10129000C8B9244890F8BD00A8B1294800210160D0
:1012A0004160204880F8BD10014691F8BC00002242
:1012B000114600F0E1FD05460823214A29461B4856
:1012C00000F0BCF92CE01A48D0ED0C0AB0EE600A30
:1012D0001448B0F8B80002B21248D0ED290AFDEE69
:1012E000E00A10EE900A01B2154803F0BBFF0D4A68
:1012F00092ED050ADFED0F0A20EE200ABDEEC00ACE
:1013000010EE102A91B2074A92F8BC00032200F0B6
:10131000B3FD054608230A4A2946044800F08EF921
:1013200070BD0000A80F002088030020E403002007
:10133000B01200200000C842900300209803002053
:10134000A003002070B505460C4600260DB1022C06
:1013500000D870BDA11E06480288284600F07EFE17
:101360000646A01E2E54310A601E295400BFF0E725
:101370001400002070B505460C4600260DB1022C65
:1013800000D870BD611EFF22284600F081FE06468F
:10139000601E2E5400BFF4E700BFFEE710B5044600
:1013A0002068B0F5A97F13D005DC672822D0B0F5FE
:1013B000A87F41D106E0B0F5AA7F0FD0A0F20620A9
:1013C000D0BB11E004F11C011D4800F05BFB33E0D1
:1013D00004F11C011A4800F011FA2DE004F11C017F
:1013E000174800F061FD27E004F11C01154800F0EA
:1013F00071FD21E01448E169C0F8C410216AC0F809
:10140000C81090ED320ADFED110A20EE200A80EDBF
:10141000320A0F48008800EE100AB8EE400A0A4867
:1014200080ED340A0A48408800EE100AB8EE400AFF
:10143000054880ED330A00BF00BF00BF00BF10BDEC
:10144000E41200207C100020A80F00200000C842F9
:10145000B403002010B5024801F04AF910BD0000A5
:10146000BC03002010B5024801F042F910BD000095
:10147000BC03002010B5024801F03AF910BD00008D
:10148000BC03002000BF00BF01791A2906D01B2928
:101490000DD01C2914D01D2924D11AE01249C2698B
:1014A0000A61097B41F001010F4A11731AE00E49EC
:1014B000C2694A61097B41F002010B4A117311E0D4
:1014C0000949C2698A61097B41F00401064A117326
:1014D00008E00549C269CA61097B41F00801024A76
:1014E000117300BF00BF7047B012002010B5024852
:1014F00001F0FEF810BD0000E403002010B5024822
:1015000001F0F6F810BD0000E403002010B5024819
:1015100001F0EEF810BD0000E403002030B58BB000
:1015200004460D4601200690002001900290039091
:1015300004900790012009900890002005903149FF
:10154000206888422CD13048046085620E200A90C1
:1015500040F2FF7340F206220021204605F030FDE4
:1015600040F2FF734FF4A8720C21204605F028FDCD
:1015700040F2FF734FF4A9721421204605F020FDBC
:1015800040F2FF734FF4AA721821204605F018FDAF
:1015900040F2FF7367222021204605F011FD20E074
:1015A0001A49206888421CD11948046085620F20BE
:1015B0000A90FF231A227A21204605F001FDFF231D
:1015C0001B228221204605F0FBFCFF231C228E21DA
:1015D000204605F0F5FCFF231D229621204605F04C
:1015E000EFFC01A9204600F00BFF204601F08FFB25
:1015F0000221204600F04AFE1021204600F046FE5F
:101600000BB030BD006400408C1400200068004026
:10161000B8140020F0B587B006460C4617461D46A4
:101620000194002002900390049005956B463A4681
:1016300001A9304600F03FFE07B0F0BDF0B587B01D
:1016400006460C4617461D460294002001900420D1
:10165000039000200490059500BF304601F02DF85E
:101660000028FAD06B463A4601A9304600F023FE26
:1016700007B0F0BD10B504490448FFF74FFF044917
:101680000448FFF74BFF10BD9D130008BC0300206A
:1016900085140008E403002070B52DED068B484842
:1016A000406918B90120BDEC068B70BD45494888DA
:1016B00007F0E2FD41EC180B4249888807F0DCFD99
:1016C00041EC1A0B9FED400B53EC102B07F024FE5E
:1016D00041EC190B53EC182B07F01CFF01D2012031
:1016E00000E000203A4908703A4890ED320ADFEDF8
:1016F0003A0A20EE200ABDEEC00A384880ED000A02
:101700002F4890ED0C0AB1EE400ADFED330A20EECF
:10171000200ABDEEC00A324880ED000A284890ED4C
:101720000C0AD0ED0D0A30EE600A10EE101A0846D1
:1017300008F0E8F841EC190BB0EE490AF0EE690A3E
:1017400005F0BEFE054607F080FD41EC180B9FED4D
:10175000250B53EC102B07F0DDFE0AD2184890ED54
:101760000C0A80ED0D0A02202049C860052020499E
:10177000C8701A4909681F4A1268881A002801DBD4
:10178000014600E04142142909DD14480068194966
:1017900008600220154988610520154988710C48A8
:1017A000007815490870002406E0104850F824001D
:1017B000022800D177E7641C072CF6DB002072E7D3
:1017C000E4120020E40E0020666666666666D63F78
:1017D0006E000020A80F002000007A447C0000204A
:1017E000780000209A9999999999C93FB0130020DF
:1017F00070000020800000206F0000200A78027036
:101800004A7842608A78C260CA78C2610A794262C4
:101810004A7942618A790AB1012200E0002280F807
:101820002C20704742688260C2680261C26902620D
:10183000426A8262426982617047000001201C494D
:1018400008704870087200200874012081F8C000F8
:101850000220C8609FED170A084680ED010AB7EE26
:10186000000A80ED050A4FF4F451016441F62201AB
:10187000416641F66251C0F888104FF4D671C0F845
:10188000AC10012180F8511080F8751080F8991083
:1018900080F8BD101A2180F850101B2180F87410B8
:1018A0001C2180F898101D2180F8BC1070470000A2
:1018B000A80F00200000000000B52548406808B1CE
:1018C000012000E00020234948702148C06808B189
:1018D000012000E000201F49487208464078012896
:1018E0001CD11B4890ED0F0AB1EE400A084680ED6E
:1018F000070A174890ED100AB1EE400A084680ED3D
:10190000090A134890ED110AB1EE400AF2EE040AFA
:1019100080EE201A084680ED0B1A15E00C4890ED79
:101920000F0A0C4880ED070A094890ED100A094893
:1019300080ED090A064890ED110AF2EE040A80EEE5
:10194000201A044880ED0B1A024800F0E3F800BDAD
:10195000E4120020A80F002010B53748007837495E
:1019600008700846007830B1012813D0022825D02D
:1019700003285ED100E000BF9FED310A2F4880EDC3
:10198000060A9FED2F0A80ED080A9FED2D0A80EDD3
:101990000A0A4EE02948407A012809D105F048FB9F
:1019A000FFEE000A20EE200A244880ED0A0A04E037
:1019B0009FED230A214880ED0A0A3AE01F4890ED86
:1019C000060AB5EEC00AF1EE10FA17D190ED080A3A
:1019D000B5EEC00AF1EE10FA10D1174890F82C00BD
:1019E000012805D1B1EE000A144880ED0A0A1FE073
:1019F000B9EE000A114880ED0A0A19E00E4890F885
:101A00002C0001280AD1B0EE080A0C4880ED0A0A21
:101A1000BBEE0E0A0B4880ED1A0A09E0B8EE080A80
:101A2000064880ED0A0AB3EE0E0A064880ED1A0A4F
:101A300000BF00BF10BD0000E4120020A80F00206E
:101A4000000000007C10002010B5FFF735FF00F00B
:101A500031FBFFF781FF024800F036F810BD0000AF
:101A6000A80F0020002007E0B2EE040A044901EBB1
:101A7000800181ED000A401C0428F5DB704700005E
:101A8000D41200204A780B7842EA032212B200EE08
:101A9000102AB8EEC00A80ED0F0ACA788B7842EAA5
:101AA000032212B200EE102AB8EEC00A80ED100A2E
:101AB0004A790B7942EA032212B200EE102AB8EEFC
:101AC000C00A80ED110A704710B5044694ED060A6D
:101AD000B5EEC00AF1EE10FA10D194ED080AB5EE99
:101AE000C00AF1EE10FA09D194ED0A0AB5EEC00A67
:101AF000F1EE10FA02D10120207201E000202072E4
:101B00002046FEF79FFE2046FEF776FD204603F0B6
:101B1000E1FB10BDC268002A7DD0012A02D0022A52
:101B20007AD1BCE0322190ED070AB5EEC00AF1EEA1
:101B300010FA06D190ED060AB5EEC00AF1EE10FAE1
:101B40004DD090ED070AD0ED060AB4EEE00AF1EEB2
:101B500010FA1DDD90ED070AD0ED060A70EE600A5E
:101B600000EE101AB8EEC00AF4EEC00AF1EE10FA58
:101B70000ADDD0ED060A00EE101AB8EEC00A30EE0B
:101B8000800A80ED060A03E090ED070A80ED060A60
:101B900090ED070AD0ED060AB4EEE00AF1EE10FA75
:101BA0001DD290ED060AD0ED070A70EE600A00EE35
:101BB000101AB8EEC00AF4EEC00AF1EE10FA0ADD0F
:101BC000D0ED060A00EE101AB8EEC00A30EEC00AD8
:101BD00080ED060A03E090ED070A80ED060A90ED1D
:101BE000090AB5EEC00AF1EE10FA06D190ED080A26
:101BF000B5EEC00AF1EE10FA50D090ED090AD0ED22
:101C0000080AB4EEE00AF1EE10FA20DD90ED090AC0
:101C1000D0ED080A01E08FE097E070EE600A00EE78
:101C2000101AB8EEC00AF4EEC00AF1EE10FA0ADD9E
:101C3000D0ED080A00EE101AB8EEC00A30EE800AA5
:101C400080ED080A03E090ED090A80ED080A90EDA6
:101C5000090AD0ED080AB4EEE00AF1EE10FA1DD23E
:101C600090ED080AD0ED090A70EE600A00EE101A35
:101C7000B8EEC00AF4EEC00AF1EE10FA0ADDD0EDBB
:101C8000080A00EE101AB8EEC00A30EEC00A80ED65
:101C9000080A03E090ED090A80ED080A55E090ED8E
:101CA000070AB5EEC00AF1EE10FA1AD0DFED280AE5
:101CB000B0EE600AD0ED070A90ED061A70EEC10A88
:101CC00060EE800AFDEEE00A10EE901A90ED061A22
:101CD00000EE901AF8EEE00A71EE200AC0ED060A56
:101CE00003E09FED1C0A80ED060A90ED090AB5EEAF
:101CF000C00AF1EE10FA1AD0DFED150AB0EE600A54
:101D0000D0ED090A90ED081A70EEC10A60EE800A63
:101D1000FDEEE00A10EE901A90ED081A00EE901A0F
:101D2000F8EEE00A71EE200AC0ED080A03E09FED2C
:101D3000090A80ED080A08E090ED070A80ED060A1E
:101D400090ED090A80ED080A00BF00BF704700004F
:101D50009A99193E0000000010B5024801F00EF8F3
:101D600010BD00000C06002010B5024801F006F876
:101D700010BD00004C05002010B5024800F0FEFF29
:101D800010BD00006C06002010B5024800F0F6FF00
:101D900010BD0000AC05002001460878103818235B
:101DA000B0FBF3F20848805CC865032A05D90868CF
:101DB0006FF30900001D886503E008686FF30900F0
:101DC0008865886D70470000FA9900080146002078
:101DD0008A6A8B69CBB932B1012A0DD0022A03D0AD
:101DE000032A10D10EE000BFCB6A03F08073B3F179
:101DF000807F00D1012007E0CB6AB3F1C07F00D122
:101E0000012001E000E000BF34E08B69B3F5005F22
:101E10001AD132B1012A07D0022A03D0032A11D1E4
:101E20000AE000BF01200EE0CB6A03F08073B3F13B
:101E3000807F00D1012006E0CB6AB3F1C07F00D1E2
:101E4000012000E000BF15E032B1012A05D0022ACE
:101E500004D0032A0CD103E000BF00BF012008E03A
:101E6000CB6A03F08073B3F1807F00D1012000E0E2
:101E700000BF00BF7047704710B50346140644EA20
:101E8000012444EA030010BD72B600BFFEE7F0EE85
:101E9000400AF5EEC00AF1EE10FA02D2B1EE600A85
:101EA0007047B0EE600AFBE70A880287D1F802208B
:101EB0000263704700EE100AB8EEC00A9FED041AE4
:101EC000C0EE010AB0EE080A20EE800A704700005A
:101ED00000F8FF454A780B7842EA032213B20381E7
:101EE000CA788B7842EA032213B283804A790B794D
:101EF00042EA032212B242808B79C380704700000D
:101F000000EE100AB8EE400A9FED041AC0EE010A76
:101F10009FED030A20EE800A7047000000F8FF459D
:101F20000000B44300EE100AB8EE400A9FED061A16
:101F3000C0EE010AB0EE000A20EE800ADFED030ACF
:101F400020EE200A7047000000F8FF45DC0F4940F2
:101F500000B50146B1F90200FFF7ACFF81ED060ABA
:101F600091ED060AD1ED040A20EE200A81ED070A60
:101F7000CA884A848A880A848A8CCA8408898884A0
:101F8000888CFFF7BDFF81ED0B0A888CFFF7CAFF35
:101F900081ED0A0ACA8C888C101AB0F5805F03DDC7
:101FA000088E401C02B20A86CA8C888C101A10F562
:101FB000805F03DA088E401E02B20A864A6B0A640A
:101FC00091ED0E0A81ED110A91ED0F0A81ED120AD1
:101FD000B1F93000C0EB4032888C02444C20405AAA
:101FE000121A4A6391ED0B0AB1F9300000EE900A23
:101FF000F8EEE00A9FED171A00EE810AD1ED150AFE
:1020000030EE600A81ED0F0A91ED0A0AB1F9300055
:1020100000EE900AF8EEE00AB0EE001A60EE810AD7
:102020009FED0D1A00EE810AD1ED140A30EE600A20
:1020300081ED0E0A087D58B9888E82B24C2042523A
:1020400091ED0F0A81ED150A91ED0E0A81ED140A4A
:1020500000BD00000000B443DC0F494030B503462A
:1020600013B94FF6FF7030BD09E013F8014B82EA57
:102070000400C0B2054D35F8100080EA2222081E87
:10208000A1F10101F1D11046EDE700001C9B000811
:1020900030B5034605E013F8010B80EA020404485A
:1020A000025D081EA1F10101F5D1104630BD00000E
:1020B0001B9A0008254890ED181AF0EE410A2448B2
:1020C000407801EE100AF8EE411A9FED221A9FEDBA
:1020D000222A02EE211AB0EE410A30EEC01A1C4844
:1020E00080ED011A90ED011ADFED1B1AB4EEE11A32
:1020F000F1EE10FA07DD90ED011ADFED181A31EE5E
:10210000611A80ED011A124890ED011ADFED141AE0
:10211000B4EEE11AF1EE10FA07D290ED011ADFEDFC
:102120000F1A31EE211A80ED011A094890ED011ABB
:102130000C4880ED001A0648407A012804D09FED33
:102140000A1A034880ED011A704700007C10002035
:10215000A80F00200000BCC1000034430000B443BD
:10216000000034C3640000200000000010B52DED15
:10217000028B3E48406918B90120BDEC028B10BDAE
:102180003A48C169006A814205D002203849086096
:102190000520384908703548416A806A814205D077
:1021A0000220334948600520324948702F48C168F1
:1021B0000069814205D002202D49886005202D4903
:1021C00088702D4890ED000A2C48D0ED000A30EEC2
:1021D000600A10EE101A084607F094FB41EC180B49
:1021E000B0EE480AF0EE680A05F06AF900EE100A4F
:1021F000B8EEC00ADFED220AB4EEE00AF1EE10FA02
:102200000BDD1D4890ED000A1C4880ED000A0220FD
:102210001749C8600A201749C87014480078022876
:1022200003D101201749087002E000201549087009
:102230001448007814490978884205D002200C49D6
:10224000086105200B4908710E4800780E49087096
:10225000002406E0064850F82400022800D18CE74C
:10226000641C072CF6DB002087E70000E412002046
:10227000CC130020700000206400002068000020C3
:10228000CDCCCC3D6C0000206D00002010B5024686
:1022900092F82030012B01D0022B06D11068406942
:1022A000084314686061002010BD506A40F480202B
:1022B00050620120F8E7F0B504460D461E4694F83A
:1022C000207020688368A86800B900E000BF012F73
:1022D00001D0022F7DD103F0806030B903F000609F
:1022E00018B903F0805000287ED0C3F301610120AB
:1022F00088403060A86860B9B5F800C0E86840EA76
:102300004C5C206800F5C07000EB0110C0F800C004
:102310000FE0D5E901C040EACC00D5F80CC040EA96
:102320000C00D4F800C00CF5C07C0CEB011CCCF800
:102330000000D5F810C0206800F5C07000EB011057
:10234000C0F804C0287D01280ED1206800F5C070B7
:1023500000EB0110406840F4807C206800F5C070FC
:1023600000EB0110C0F804C0D079000692F806C056
:1023700040EA0C4092F805C040EA0C2092F804C0F4
:1023800040EA0C00D4F800C00CF5C07C0CEB011C3A
:10239000CCF80C00D078000692F802C040EA0C405D
:1023A00092F801C040EA0C2092F800C040EA0C000C
:1023B000D4F800C00CF5C07C0CEB011CCCF8080074
:1023C000206800F5C07000EB0110006840F0010CBF
:1023D00001E00FE008E0206800F5C07000EB01109C
:1023E000C0F800C00020F0BD606A40F400106062D8
:1023F0000120F8E7606A40F4802060620120F2E783
:10240000F0B504460A46216894F82050012D01D009
:10241000022D7ED1424901F50071086840F00100AB
:102420000860086820F47C5008600868566A40EA32
:1024300006200860107D00F01F06012000FA06F358
:10244000C8699843C861A1F50071D069C8B9D1F8CD
:102450000C029843C1F80C02908880B2968940EA39
:10246000064601F51070576940F83760108880B251
:10247000168940EA064601F51070576900EBC7005F
:102480004660D069012819D1D1F80C021843C1F86F
:102490000C02908880B2168840EA064601F510705A
:1024A000576940F83760908980B2168940EA06463D
:1024B00001F51070576900EBC7004660906928B9B4
:1024C000D1F804029843C1F8040204E0D1F80402F0
:1024D0001843C1F80402106928B9D1F814029843CE
:1024E000C1F8140204E0D1F814021843C1F8140230
:1024F000106A012804D1D1F81C021843C1F81C024B
:10250000D1F8000220F00100C1F800020020F0BD67
:10251000FFE7606A40F4802060620120F7E7000076
:1025200000640040704770B5044694F82050012DB7
:1025300001D0022D7DD151B92068C06800F00300A0
:1025400080B9606A40F400106062012070BD2068AC
:10255000006900F0030028B9606A40F4001060626E
:102560000120F3E7206800F5D87000EB0110006847
:1025700000F004009060906840B9206800F5D870C1
:1025800000EB01100068400D106007E0206800F5C6
:10259000D87000EB01100068C0085060206800F59A
:1025A000D87000EB0110006800F00200D0602068D5
:1025B00000F5D87000EB0110406800F00F0008280B
:1025C00002D30820106108E0206800F5D87000EB05
:1025D0000110406800F00F001061206800F5D8700D
:1025E00000EB0110406800F47F40000A9061206811
:1025F00000F5D87000EB01104068000C50612068B5
:1026000000F5D87000EB011080681870206800F5A4
:10261000D87000EB0110806800F47F40000A587009
:10262000206800F5D87000EB0110806800F47F008E
:1026300000E03CE0000C9870206800F5D87000EBDA
:1026400001108068000ED870206800F5D87000EB8B
:102650000110C0681871206800F5D87000EB0110F7
:10266000C06800F47F40000A5871206800F5D870F7
:1026700000EB0110C06800F47F00000C9871206826
:1026800000F5D87000EB0110C068000ED87131B9A8
:102690002068C06840F020002668F06005E02068EF
:1026A000006940F020002668306100204EE7606A33
:1026B00040F480206062012048E70146002091F844
:1026C0002020012A01D0022A11D10B689B6803F057
:1026D000806303B1401C0B689B6803F0006303B187
:1026E000401C0B689B6803F0805303B1401C70478B
:1026F0002DE9F05F04460025206846692068D0F87F
:102700000490206887682068D0F80CA02068D0F872
:1027100010B02068D0F8188006F00100002855D0CD
:1027200007F00100C0B101202168886007F00200B5
:1027300018B1204600F01BFB0EE007F0040010B1BA
:1027400045F4006508E007F0080010B145F4805535
:1027500002E0204600F00AFB07F48070C8B14FF495
:1027600080702168886007F4007018B1204600F07E
:1027700000FB0EE007F4806010B145F4005508E05E
:1027800007F4006010B145F4804502E0204600F0F7
:10279000EFFA07F48030C8B14FF4803021688860C8
:1027A00007F4003018B1204600F0E5FA0EE007F417
:1027B000802010B145F4004508E007F4002010B176
:1027C00045F4803502E0204600F0D4FA06F0080017
:1027D00038B10AF0100020B145F4007510202168CE
:1027E000C86006F0040040B10AF0080028B10820D3
:1027F0002168C860204600F02DFA06F0020038B1CA
:102800002068C06800F0030010B1204600F024FAF0
:1028100006F0400038B10BF0100020B145F480659F
:1028200010202168086106F0200040B10BF008007C
:1028300028B1082021680861204600F039FA06F026
:10284000100038B12068006900F0030010B1204684
:1028500000F030FA06F4003040B109F0100028B161
:10286000102021684860204600F050FA06F48030BD
:1028700040B109F0080028B10820216848602046CE
:1028800000F07AFA06F4004088B309F0040078B347
:1028900006F4807020B108F0010008B145F0010590
:1028A00006F4007020B108F0020008B145F00205FE
:1028B00006F4806020B108F0040008B145F004057A
:1028C00006F40060A0B108F0700088B108F0700054
:1028D000402817D006DC10280BD020280CD0302838
:1028E00019D10CE0502810D0602814D110E01DE060
:1028F00019E045F008050FE045F010050CE045F043
:10290000200509E045F0400506E045F0800503E0BC
:1029100045F4807500E000BF00BF2068806920F0AA
:102920007000216888610420216848602DB1606AC8
:10293000284360622046FFF7F5FDBDE8F09F70B5C3
:1029400004460CB9012070BD94F8200010B920464F
:1029500000F0B0F82068006840F0010021680860CD
:1029600000F0A2FC05460DE000F09EFC401B0A288A
:1029700008D9606A40F400306062052084F82000C5
:102980000120E0E72068406800F001000028EBD05B
:102990002068006820F002002168086000F084FCD4
:1029A00005460DE000F080FC401B0A2808D9606A4B
:1029B00040F400306062052084F820000120C2E766
:1029C0002068406800F002000028EBD1207E01283A
:1029D00006D12068006840F080002168086005E0AA
:1029E0002068006820F0800021680860607E01286F
:1029F00006D12068006840F040002168086005E0CA
:102A00002068006820F0400021680860A07E01284E
:102A100006D12068006840F020002168086005E0C9
:102A20002068006820F0200021680860E07E01280E
:102A300006D12068006820F010002168086005E0D9
:102A40002068006840F0100021680860207F01289D
:102A500006D12068006840F008002168086005E0A1
:102A60002068006820F0080021680860607F012865
:102A700006D12068006840F004002168086005E085
:102A80002068006820F0040021680860D4E9020191
:102A9000084321690843616908436168491E084386
:102AA0002168C86100206062012084F820000020B5
:102AB00049E7000010B586B00446142101A8FDF7CF
:102AC000F5FC5E492068884251D15D480068401C91
:102AD0005B4908600846006801280FD100BF00204C
:102AE00000905848006840F0007056490860084659
:102AF000006800F00070009000BF00BF00BF002021
:102B0000009050481038006840F008004D491039D6
:102B100008600846006800F00800009000BF00BF91
:102B200003200190022002900020039003200490D3
:102B30000920059001A9444800F0B6FA00220221BC
:102B4000132000F03FFC132000F028FC002202219B
:102B5000142000F037FC142000F020FC0022022199
:102B6000152000F02FFC152000F018FC64E0374918
:102B70002068884260D100BF002000903148006882
:102B800040F080602F4908600846006800F08060CF
:102B9000009000BF00BF2A480068401C2849086018
:102BA0000846006801280FD100BF0020009025488A
:102BB000006840F00070234908600846006800F093
:102BC0000070009000BF00BF00BF002000901D48B3
:102BD0001038006840F002001A49103908600846B1
:102BE000006800F00200009000BF00BF602001906C
:102BF00002200290002003900320049009200590F9
:102C000001A9134800F050FA002202213F2000F0F1
:102C1000D9FB3F2000F0C2FB00220221402000F03F
:102C2000D1FB402000F0BAFB00220221412000F03D
:102C3000C9FB412000F0B2FB06B010BD00640040AB
:102C40000000002040380240000C024000680040B4
:102C5000000402407047000010B504461049206887
:102C600088420CD10F4BA3F11C0200212046FFF734
:102C70005AFC0C482038816A001D88470FE00A4939
:102C8000206888420BD1094BA3F11C020021204689
:102C9000FFF749FC05482038816A001D884710BDB0
:102CA00000640040AC14002000680040D8140020EC
:102CB0007047000010B504461049206888420CD1C6
:102CC0000F4BA3F11C0201212046FFF72CFC0C48FE
:102CD0002038816A001D88470FE00A492068884231
:102CE0000BD1094BA3F11C0201212046FFF71BFC6D
:102CF00005482038816A001D884710BD00640040E7
:102D0000AC14002000680040D8140020704770B553
:102D1000044694F82000012822D1022084F82000E3
:102D20002068006820F001002168086000F0BCFA0B
:102D300005460DE000F0B8FA401B0A2808D9606A81
:102D400040F400306062052084F82000012070BD4E
:102D50002068406800F001000028EBD16062F6E7CF
:102D6000606A40F4002060620120F0E7704770471D
:102D7000704770477047704770470000F8B50446C9
:102D8000002000908C4800684FF41651B0FBF1F71A
:102D9000A56D2E6894F85C1008208840304098B1EA
:102DA0002068006800F0040070B12068006820F01E
:102DB00004002168086094F85C1008208840A8602E
:102DC000606D40F00100606594F85C10012088405F
:102DD000304068B12068406900F0800040B194F84C
:102DE0005C1001208840A860606D40F002006065C2
:102DF00094F85C1004208840304068B12068006876
:102E000000F0020040B194F85C1004208840A860F3
:102E1000606D40F00400606594F85C1010208840FC
:102E2000304078B32068006800F0080050B394F890
:102E30005C1010208840A8602068006800F48020A2
:102E400080B12068006800F4002028B9206CC8B167
:102E50002046216C884715E0A06C98B12046A16CF3
:102E600088470FE02068006800F4807028B9206867
:102E7000006820F0080021680860206C10B120462E
:102E8000216C884794F85C1020208840304000284E
:102E900065D02068006800F0100000285FD094F82A
:102EA0005C1020208840A86094F83500052828D1BF
:102EB0002068006820F016002168086020684069DA
:102EC00020F0800021684861206C08B9A06C28B10E
:102ED0002068006820F008002168086094F85C1001
:102EE0003F208840A860012084F8350000BF002002
:102EF00084F8340000BF206D10B12046216D884752
:102F0000F8BD2068006800F4802080B12068006867
:102F100000F4002028B9606C10B12046616C88472D
:102F20001DE0E06BD8B12046E16B884717E02068D0
:102F3000006800F4807068B92068006820F0100014
:102F400021680860012084F8350000BF002084F863
:102F5000340000BFE06B10B12046E16B8847606D24
:102F600038B3606D00F00100F0B1052084F8350041
:102F70002068006820F001002168086000BF009808
:102F8000401C0090B84200D905E02068006800F0BD
:102F900001000028F3D100BF012084F8350000BFF4
:102FA000002084F8340000BFE06C10B12046E16CD2
:102FB000884700BFA4E70000100000202DE9F04181
:102FC0000446002500F070F9074614B90120BDE859
:102FD000F081606A00B100BF022084F8350000BFB4
:102FE000002084F8340000BF2068006820F0010051
:102FF000216808600AE000F057F9C01B052805D9D0
:1030000020206065032084F83500E0E72068006830
:1030100000F001000028EED1206805682148054035
:10302000D4E901010843E168084321690843616963
:103030000843A1690843E1690843216A084305433D
:10304000606A042803D1D4E90B01084305432068D2
:1030500005602068456925F00705606A0543606AD8
:1030600004280DD1A06A0543E06A48B12046FEF766
:10307000ADFE28B140206065012084F83500A6E748
:10308000206845612046FEF787FE064694F85C10EE
:103090003F208840B06000206065012084F8350042
:1030A000002094E73F8010F0F8B502460B4600255B
:1030B000002400200021D6E0012606FA01F51E6852
:1030C00006EA0504AC4274D11E7906F00306012E0F
:1030D00004D01E7906F00306022E13D190684F002B
:1030E0000326BE40B0434F00DE68BE4030439060D0
:1030F000506801268E40B0431E79C6F300168E40FC
:10310000304350601E7906F00306032E09D0D068C4
:103110004F000326BE40B0434F009E68BE40304380
:10312000D0601E7906F00306022E13D1CF0802F1FB
:10313000200656F827004E07F70E0F26BE40B04374
:103140004F07FF0E1E69BE403043CF0802F1200634
:1031500046F8270010684F000326BE40B0431E7992
:1031600006F003064F00BE40304310605E6806F470
:103170004036002E76D000BF002600963C4E3668C2
:1031800046F480463A4F3E603E46366806F4804636
:10319000009600BF00BF374E8F0856F827008E07F5
:1031A000370F0F26BE40B043334EB24202D1002645
:1031B00024E057E0314EB24201D101261EE0304EEC
:1031C000B24201D1022619E02E4EB24201D10326AD
:1031D00014E02D4EB24201D104260FE02B4EB24234
:1031E00001D105260AE02A4EB24201D1062605E0A9
:1031F000284EB24201D1072600E008268F073F0F74
:10320000BE4030431B4E8F0846F82700224E3068E0
:10321000A0435E6806F4801606B120431E4E30605F
:10322000361D3068A0435E6806F4001606B12043E0
:10323000194E361D3060184E361F3068A0435E6848
:1032400006F4003606B12043134E361F3060361F99
:103250003068A0435E6806F4803606B120430E4E07
:10326000083E3060491C1029FFF426AFF8BD00006D
:103270004438024008380140000002400004024087
:1032800000080240000C02400010024000140240FE
:1032900000180240001C0240083C01400AB1816154
:1032A00001E00B048361704701480068704700002B
:1032B00004000020034800680349097808440149D4
:1032C00008607047040000200C00002010B50D4875
:1032D000006840F400700B4908600846006840F43C
:1032E000806008600846006840F480700860032031
:1032F00000F0A6F80F2000F007F800F02BF80020EF
:1033000010BD0000003C024070B504460E48007835
:103310004FF47A71B1FBF0F00C490968B1FBF0F59C
:10332000284600F093FD08B1012070BD102C07D293
:1033300000222146501E00F045F80548046001E0D7
:103340000120F2E70020F0E70C0000201000002030
:103350000800002008B500BF002000900E4800685B
:1033600040F480400C4908600846006800F4804042
:10337000009000BF00BF00BF00200090081F006841
:1033800040F08050091F08600846006800F0805037
:10339000009000BF00BF08BD443802400146084607
:1033A00000280DDB00BF00BF00F01F0301229A4080
:1033B00043099B0003F1E023C3F8002100BF00BFD5
:1033C00000BF70472DE9F05F80460D461646002786
:1033D00002F07EFD074639462A46334601F00700D3
:1033E000C0F1070ABAF1040F02D94FF0040A01E054
:1033F000C0F1070AD14600F1040ABAF1070F02D260
:103400004FF0000A01E0A0F1030AD4464FF0010A90
:103410000AFA09FAAAF1010A0AEA020A0AFA0CFAF5
:103420004FF0010B0BFA0CFBABF1010B0BEA030B9A
:103430004AEA0B042146404602F052FDBDE8F09FE7
:1034400000BF00F00702064B19684FF6FF03194052
:10345000044B0B4343EA0221014B196000BF704744
:103460000CED00E00000FA05F8B504460025002642
:10347000207800F0010020B9207800F00400042832
:103480002FD100205B498866FFF70EFF054606E056
:10349000FFF70AFF401B022801D90320F8BD564858
:1034A0000068C0F3C0600028F2D160688101207A12
:1034B00041EA007050498431086001204D49886616
:1034C000FFF7F2FE054606E0FFF7EEFE401B02287E
:1034D00001D90320E2E748480068C0F3C060002833
:1034E000F2D0207800F0020002287DD100BF002039
:1034F000009041484030006840F080503E494031E3
:1035000008600846006800F08050009000BF00BFCF
:103510003A48006840F4807038490860FFF7C4FEFC
:10352000054606E0FFF7C0FE401B022801D9032034
:10353000B4E73248006800F480700028F2D02E48CA
:103540007030006800F440764EB3A08900F44070FB
:10355000B04224D028487030006820F44076012022
:103560002749086000200860234870300660006822
:1035700000F0010098B1FFF797FE054608E0FFF75D
:1035800093FE401B41F28831884201D9032085E730
:10359000194870300068C0F340000028EFD000BF29
:1035A000A08900F44070B0F5407F0CD1124808307B
:1035B000006820F4F810134AE168114008430E49EE
:1035C0000831086007E00C480830006820F4F81063
:1035D000094908310860084870300068A189C1F3C2
:1035E0000B010843044900E002E07031086000BFAD
:1035F000002053E7000047420038024000700040BE
:10360000400E4742FFFCFF0F70B504460D460CB953
:10361000012070BD5848006800F00700A84209D298
:1036200055490D700846006800F00700A84201D017
:103630000120EEE7207800F0020002281DD120785A
:1036400000F00400042805D14C48006840F4E05024
:103650004A490860207800F00800082805D147484A
:10366000006840F46040454908604448006820F024
:10367000F000A168084341490860207800F001008B
:10368000A8B36068012807D13C4808380068C0F337
:103690004040B8B90120BCE76068022802D06068E9
:1036A000032807D1354808380068C0F3406048B99E
:1036B0000120AEE7314808380068C0F3400008B97F
:1036C0000120A6E72D48006820F003006168084348
:1036D0002A490860FFF7E8FD064609E0FFF7E4FD28
:1036E000801B41F28831884202D9032091E707E02C
:1036F0002248006800F00C006168B0EB810FEDD14A
:103700001D48006800F00700A84209D91A490D7049
:103710000846006800F00700A84201D0012078E7C1
:10372000207800F00400042807D11448006820F431
:10373000E050E168084311490860207800F0080073
:10374000082808D10D48006820F46040216940EA4B
:10375000C1000A49086000F03FF808490968C1F350
:103760000311074A515CC8400649086006480068D2
:10377000FFF7CAFD00204CE7003C02400838024039
:10378000029A00081000002008000020014800688C
:10379000704700001000002000B5FFF7F7FF044954
:1037A0000968C1F38221034A515CC84000BD000092
:1037B00008380240129A000800B5FFF7E7FF0449F5
:1037C0000968C1F34231034A515CC84000BD0000A2
:1037D00008380240129A00082DE9F047002400251D
:1037E0000026A1462548006800F00C0020B10428FE
:1037F00005D008283AD105E0DFF8849039E0DFF8F9
:10380000849036E01D48001F006800F03F041B480C
:10381000001F006800F4800078B11A481749091F9A
:103820000968C1F38811A0FB0170014622460023FC
:103830003846FCF739FD05460EE011480F49091FCF
:103840000968C1F38811A0FB0170014622460023DC
:103850003846FCF729FD05460848001F0068C0F3FC
:103860000140401C4600B5FBF6F902E0DFF810907D
:1038700000BF00BF4846BDE8F0870000083802409E
:103880000024F400001BB700F8B504460CB9012071
:10389000F8BD207800F00100002874D0F9480068D5
:1038A00000F00C0004280DD0F648006800F00C0071
:1038B000082813D1F348001F006800F48000B0F519
:1038C000800F0BD1EF4808380068C0F34040002853
:1038D00059D06068002856D10120D9E700BF606840
:1038E000B0F5803F08D1E7480838006840F48030E0
:1038F000E449083908601EE06068B0F5A02F0DD1DA
:10390000E0480838006840F48020DE490839086043
:103910000846006840F4803008600CE0D948083858
:10392000006820F48030D7490839086008460068EC
:1039300020F48020086000BF606890B1FFF7B4FCFD
:10394000054606E0FFF7B0FC401B642801D90320C0
:103950009EE7CC4808380068C0F340400028F1D00A
:1039600011E0FFF7A1FC054606E0FFF79DFC401BB8
:10397000642801D903208BE7C24808380068C0F3E7
:1039800040400028F1D1207800F0020002285FD1E9
:10399000BC48006800F00C0058B1BA48006800F05C
:1039A0000C0008281CD1B748001F006800F48000F4
:1039B000B0B9B44808380068C0F3400020B1E068EE
:1039C000012801D0012063E7AE480838006820F0E4
:1039D000F800216940EAC100AA490839086037E0C7
:1039E000E06800B30120A8490860FFF75DFC0546C8
:1039F00006E0FFF759FC401B022801D9032047E7E6
:103A0000A04808380068C0F340000028F1D09D4865
:103A10000838006820F0F800216940EAC10099499F
:103A20000839086014E0002097490860FFF73CFC63
:103A3000054606E0FFF738FC401B022801D90320A9
:103A400026E7904808380068C0F340000028F1D10C
:103A5000207800F0080008282CD16069A8B1012066
:103A60008A490860FFF720FC054606E0FFF71CFCCA
:103A7000401B022801D903200AE782486C30006805
:103A8000C0F340000028F1D014E000207F49086016
:103A9000FFF70AFC054606E0FFF706FC401B02287C
:103AA00001D90320F4E677486C300068C0F3400089
:103AB0000028F1D1207800F00400042870D10027FC
:103AC00070483830006800F0805090B900BF002086
:103AD00000906C483830006840F0805069493831B7
:103AE00008600846006800F08050009000BF00BFEA
:103AF00001276748006800F48070B0B96448006826
:103B000040F4807062490860FFF7CEFB054606E08E
:103B1000FFF7CAFB401B022801D90320B8E65C4826
:103B2000006800F480700028F2D000BFA06801286F
:103B300008D154486830006840F0010051496831AC
:103B400008601DE0A06805280DD14E486830006867
:103B500040F004004B49683108600846006840F0B6
:103B6000010008600CE047486830006820F0010060
:103B70004449683108600846006820F00400086085
:103B800000BFA068A8B1FFF78FFB054609E0FFF76B
:103B90008BFB401B41F28831884202D9032077E633
:103BA00026E0384868300068C0F340000028EED0B6
:103BB00013E0FFF779FB054608E0FFF775FB401BB4
:103BC00041F28831884201D9032061E62D486830EE
:103BD0000068C0F340000028EFD1012F07D1294829
:103BE0003830006820F0805026493831086000BF26
:103BF000A069002845D02348006800F00C00082880
:103C00005DD0A069022845D100201F490866FFF752
:103C10004BFB054606E0FFF747FB401B022801D996
:103C2000032035E6174808380068C0F340600028D4
:103C3000F1D1D4E907010843616A40EA8111012208
:103C4000A06AC2EB500041EA00412C20005D41EA2D
:103C500000600C49091F086001200B490866FFF746
:103C600023FB054606E0FFF71FFB401B022801D996
:103C700003200DE6034808380068C0F340600028C0
:103C8000F1D049E00838024000004742800E474228
:103C900000700040002021490866FFF705FB05463B
:103CA00006E0FFF701FB401B022801D90320EFE5E6
:103CB0001B480068C0F340600028F2D12CE0A069E6
:103CC000012800D1E4E51648001D0668A069012816
:103CD00020D006F48001E06981421BD106F03F014B
:103CE000206A814216D147F6C0703040616AB0EB5D
:103CF000811F0FD106F440310122A06AC2EB5000AF
:103D0000B1EB004F06D106F070612C20005DB1EBE5
:103D1000006F01D00120BBE50020B9E5000047425B
:103D20000038024070B5044601250CB9012070BD71
:103D3000607F20B900202077204600F04DF8022057
:103D400060772068C068C0F3001000283CD100BF35
:103D5000CA202168486253202168486200BF20467B
:103D600001F056F90546EDB9206880681949084008
:103D70002168886021696068084361690843216897
:103D800089680843216888602168E06808612068C4
:103D90000169208941EA004021680861204601F05C
:103DA0005CF905465DB92068006C20F4802021682C
:103DB00008642068006CA16908432168086400BF9A
:103DC000FF202168486200E000250DB901206077DE
:103DD0002846ACE7BFFF8FFF1FB5044600200090C8
:103DE0000190029003900949206888420CD102207A
:103DF0000090000203906846FFF736FB08B1FEF71B
:103E000043F80120024908601FBD0000002800405F
:103E10003C0E474270B5044600250B482168C86037
:103E2000FFF742FA054607E0FFF73EFA401BB0F500
:103E30007A7F01D9032070BD2068C06800F020009F
:103E40000028F1D00020F6E75F7F010070B504463E
:103E50002546681EB0F1807F01D301200FE0681E67
:103E60004FF0E02148610F214FF0FF3002F038F8A9
:103E700000204FF0E021886107200861002070BD1C
:103E80007047704730B502460B4600BF92F83C00C1
:103E9000012801D1022030BD012082F83C0000BF82
:103EA000022082F83D00106844681068816824F0A0
:103EB00070041868044310684460184D1068A842E4
:103EC0001BD01068B0F1804F17D0154D1068A84274
:103ED00013D0144D1068A8420FD0134D1068A8429B
:103EE0000BD0124D1068A84207D0114D1068A8429F
:103EF00003D0104D1068A84205D121F08001586808
:103F0000014310688160012082F83D0000BF00205D
:103F100082F83C0000BF00BFBDE700000000014088
:103F20000004004000080040000C00400004014074
:103F3000004001400018004010B504460CB90120B3
:103F400010BD94F83D0028B9002084F83C002046BC
:103F500000F026F8022084F83D00211D206801F0C1
:103F600073FB012084F8460000BF84F83E00012165
:103F70003F200155402001554120015500BF00BFA1
:103F8000012084F84200432001554420015545207A
:103F9000015500BF012084F83D000020D0E700005B
:103FA00038B5044619492068884218D100BF00205E
:103FB00000901748006840F0020015490860084664
:103FC000006800F00200009000BF00BF0022012145
:103FD0001D20FFF7F7F91D20FFF7E0F915E00D4967
:103FE0002068884211D100BF002000900848001DC1
:103FF000006840F480300649091D086008460068E2
:1040000000F48030009000BF00BF38BD00040040C5
:104010004038024000400140014691F83D0001282F
:1040200001D001207047022081F83D000868C06877
:1040300040F001000B68D8601A4B086898421BD00A
:104040000868B0F1804F17D0174B0868984213D01A
:10405000164B086898420FD0154B086898420BD051
:10406000144B0868984207D0134B0868984203D055
:10407000124B086898420CD10868806800F007026B
:10408000062A0CD00868006840F001000B68186030
:1040900005E00868006840F001000B681860002027
:1040A000C0E700000000014000040040000800409C
:1040B000000C004000040140004001400018004096
:1040C0002DE9F04104460D46002700BF94F83C005E
:1040D000012802D10220BDE8F081012084F83C00D3
:1040E00000BF022084F83D002068866826F077062D
:1040F00026F47F46206886602868502833D00CDC80
:10410000202850D004DC00284BD0102851D149E0A1
:10411000302849D040284CD139E060282DD0702873
:1041200007D0B0F5805F03D0B0F5005F41D10DE05E
:1041300041E0D5E902136A68206801F0F9FA2068C5
:10414000866846F077062068866034E0D5E9021379
:104150006A68206801F0ECFA2068806840F48040CA
:104160002168886027E0EA686968206801F0F4FA4D
:104170005021206801F0E7FA1DE0EA6869682068CC
:1041800001F0FDFA6021206801F0DDFA13E0EA6831
:104190006968206801F0E0FA4021206801F0D3FA54
:1041A00009E000BF00BF00BF2968206801F0CBFA1A
:1041B00001E0012700BF00BF012084F83D0000BFDF
:1041C000002084F83C0000BF384684E7704770B593
:1041D00004462068C5682068066906F002000228C7
:1041E00019D105F00200022815D1401F216808618D
:1041F000012020772068806900F0030018B1204674
:10420000FFF7E4FF05E0204600F097F8204600F0B5
:1042100095F80020207706F00400042819D105F055
:104220000400042815D1C0432168086102202077CA
:104230002068806900F4407018B12046FFF7C6FF7F
:1042400005E0204600F079F8204600F077F80020DD
:10425000207706F00800082819D105F00800082882
:1042600015D1C04321680861042020772068C06907
:1042700000F0030018B12046FFF7A8FF05E0204634
:1042800000F05BF8204600F059F80020207706F097
:104290001000102819D105F01000102815D1C043C6
:1042A00021680861082020772068C06900F4407008
:1042B00018B12046FFF78AFF05E0204600F03DF8E0
:1042C000204600F03BF80020207706F0010048B1BE
:1042D00005F0010030B16FF001002168086120464F
:1042E00000F02EF806F08000802809D105F080004B
:1042F000802805D1C043216808612046FFF7C0FD32
:1043000006F04000402809D105F04000402805D1C2
:10431000C04321680861204600F074F806F02000D0
:10432000202809D105F02000202805D1C0432168AC
:1043300008612046FFF7A5FD70BD7047704700007B
:1043400010B504462B492068884252D12A49088872
:10435000FCF728FE28480088052190FBF1F201FBBC
:10436000120008B9FDF770FB23480088142190FB68
:10437000F1F201FB1200112801D102F05DFD1E488F
:104380000088052190FBF1F201FB1200012805D104
:104390001A48FDF7DDFD194801F018FD16480088A0
:1043A0000A2190FBF1F201FB1200042803D104F072
:1043B000EBFB00F023FF10480088C82190FBF1F2CE
:1043C00001FB1200072801D101F000FC0A48008817
:1043D000C82190FBF1F201FB12006B2804D101F01F
:1043E00011FC0748FDF71EFA034801F0F1F904F04B
:1043F00071FC10BD00040040B40300207C100020BC
:10440000E4120020704710B504460CB9012010BD1D
:10441000A06900B100E000BF94F8410028B9002075
:1044200084F84000204600F029F8242084F8410058
:104430002068C06820F400502168C860204601F060
:1044400069FA2068006920F49040216808612068BA
:10445000406920F02A00216848612068C06840F463
:1044600000502168C86000206064202084F841006A
:1044700084F842000020606300BFC8E710B586B032
:104480000446142101A8FCF711F8904920688842DD
:104490007ED100BF002000908D48006840F01000E1
:1044A0008B4908600846006800F01000009000BFCB
:1044B00000BF00BF0020009085481438006840F01D
:1044C00002008349143908600846006800F00200C1
:1044D000009000BF00BF00BF0020009008460068A9
:1044E00040F0010008600846006800F001000090FC
:1044F00000BF00BF802001900220029000200390A6
:10450000032004900720059001A97248FEF7CCFD16
:104510004FF40070019002200290002003900320CD
:1045200004900720059001A96B48FEF7BDFD6B487C
:104530006B4908604FF00060486000216848816066
:10454000C1604FF480610161002141618161C161FD
:104550004FF44031016200214162FEF72FFD08B1A6
:10456000FDF792FC00BF5E48E063846300BF5B48D8
:1045700030305C4908604FF0006048604021594885
:1045800081600021C1604FF480610161002100E081
:104590001AE041618161C1614FF480310162002103
:1045A0004162FEF70BFD08B1FDF76EFC00BF4D4800
:1045B000A063846300BF002201212520FEF702FFD3
:1045C0002520FEF7EBFE7FE04749206888427BD13B
:1045D00000BF002000903E48006840F020003C49A9
:1045E00008600846006800F02000009000BF00BF8F
:1045F00000BF0020009036481438006840F04000AA
:104600003349143908600846006800F04000009003
:1046100000BF00BF4FF484400190022002900020B0
:104620000390032004900820059001A92F48FEF76D
:104630003BFD2A4860382E4908608005486000210B
:104640002B488160C1604FF48061016100214161AC
:1046500081614FF48071C1614902016200214162B0
:10466000FEF7ACFC08B1FDF70FFC00BF2048E0638B
:10467000846300BF194818301E4908604FF020605D
:10468000486040211B4881600021C1604FF4806177
:104690000161002141618161C1614FF4803101629A
:1046A00000214162FEF78AFC08B1FDF7EDFB00BF77
:1046B0001048A063846300BF002211464720FEF724
:1046C00081FE4720FEF76AFE06B010BD00100140D3
:1046D0004438024000040240000002408864024066
:1046E0004C050020AC0500200014014000180240D9
:1046F0000C0600206C0600202DE9F84F04460E46FB
:10470000174699464FF0000A94F84100202850D1EE
:1047100006B117B90120BDE8F88F002060642120A0
:1047200084F84100FEF7C0FD8246A784E784A068B4
:10473000B0F5805F04D1206910B90025B04602E0D1
:1047400035464FF000081EE05346002280212046E7
:10475000CDF8009001F0F4F920B1202084F8410058
:104760000320D8E745B9B8F80000C0F30800216875
:10477000486008F1020803E02878216848606D1C51
:10478000E08C401EE084E08C0028DDD153460022FE
:1047900040212046CDF8009001F0D2F920B1202030
:1047A00084F841000320B6E7202084F8410000206F
:1047B000B1E70220AFE700BFFEE7000038B50446CE
:1047C00000200090002527482168016021790171AF
:1047D0006D1D601900880090AD1CBDF8000040F20E
:1047E0000222811A904211D005DC012815D0A0F2D6
:1047F000012090BB04E0012925D005292ED118E025
:1048000061190D221848FBF7EAFD28E06119102212
:1048100015480D30FBF7E3FD21E0601912490268ED
:104820000A6242684A6202890A85807A81F82A000F
:1048300015E060190C49193102680A6082888A8083
:104840008079887100BF601907492B3102680A60BE
:1048500042684A608068886001E0FFE700BF00BFEF
:1048600038BD000016000020E40E002010B50446FC
:104870004FF48870234908802348007848802248F4
:104880000078652802D140F2651088801E480078C3
:10489000012803D140F201101A4988801A48007893
:1048A000672803D140F267101649888016480078BF
:1048B000682803D14FF4B4701249888012480078F8
:1048C000692803D140F269100E4988800E480078AB
:1048D000032803D140F203100A4988800A4800786F
:1048E000042803D14FF48270064988800648007876
:1048F000052803D140F2051002498880204603F0C4
:1049000023FD10BDE8130020E40E002010B504467E
:104910004FF4827023490880234800784880224859
:104920000078652802D140F2651088801E48007822
:10493000012803D140F201101A4988801A480078F2
:10494000672803D140F2671016498880164800781E
:10495000682803D14FF4B470124988801248007857
:10496000692803D140F269100E4988800E4800780A
:10497000032803D140F203100A4988800A480078CE
:10498000042803D14FF482700649888006480078D5
:10499000052803D140F2051002498880204602F024
:1049A00037FE10BD1B140020E40E002010B50F4888
:1049B0000F4908600320486000210D488160C160F4
:1049C0004FF4802101614FF4E00141610021017643
:1049D0000121417681760021C17601774177FDF78B
:1049E000AEFF08B1FDF750FA10BD000000640040B2
:1049F000BC03002010B50F480F4908600320486031
:104A000000210D488160C1604FF4802101614FF4A5
:104A1000E00141610021017601214176817600218A
:104A2000C17601774177FDF78AFF08B1FDF72CFACF
:104A300010BD000000680040E403002008B500BF7E
:104A4000002000901648006840F480001449086077
:104A50000846006800F48000009000BF00BF0022FC
:104A600011463920FEF7AEFC3920FEF797FC0022F4
:104A700011464420FEF7A6FC4420FEF78FFC0022DE
:104A800011464520FEF79EFC4520FEF787FC0022DC
:104A900011464620FEF796FC4620FEF77FFC08BD37
:104AA0003038024000B587B0142102A8FBF7FEFCA5
:104AB00000BF002001903548006840F002003349F3
:104AC00008600846006800F00200019000BF00BFC7
:104AD00000BF002001900846006840F040000860D8
:104AE0000846006800F04000019000BF00BF00BF12
:104AF000002001900846006840F001000860084668
:104B0000006800F00100019000BF00BF00BF00205E
:104B100001900846006840F00800086008460068F8
:104B200000F00800019000BF00BF00BF002001900E
:104B30000846006840F4807008600846006800F489
:104B40008070019000BF00BF00BF002001900846A8
:104B5000006840F0800008600846006800F08000AF
:104B6000019000BF00BF002280210948FEF796FB9C
:104B7000802002900120039000200490059002A95B
:104B80000348FEF791FA07B000BD0000303802403C
:104B90000020024010B50A480A4908600020486019
:104BA0007C210848816040F67F41C160002101619D
:104BB00041618161FFF7B6F808B1FDF765F910BDF5
:104BC000002800400C04002000B587B000200390AE
:104BD00004900590069001900290154815490860D0
:104BE0005320486000211348816040F2E731C160E2
:104BF0000021016180218161FFF79EF908B1FDF775
:104C000043F94FF48050039003A90A48FFF758FA7C
:104C100008B1FDF739F900200190029001A905487B
:104C2000FFF730F908B1FDF72FF907B000BD00001C
:104C3000000400402C0400201FB5002000900190CB
:104C4000029003900F481049086040F2E730486036
:104C500000210D488160A721C160002101618021F0
:104C60008161FFF769F908B1FDF70EF94FF4805043
:104C7000009069460448FFF723FA08B1FDF704F9EC
:104C80001FBD0000004001407404002010B50B4817
:104C90000B4908604FF4E13048600021084881600A
:104CA000C16001610C21416100218161C161FFF797
:104CB000AAFB08B1FDF7E8F810BD000000100140A4
:104CC000BC04002010B50B480B4908604FF4E130DC
:104CD0004860002108488160C16001610C21416188
:104CE00000218161C161FFF78EFB08B1FDF7CCF8AF
:104CF00010BD0000001401400405002000BFFEE7C5
:104D000000BFFEE710B52DED028B0446B0EE408AE1
:104D1000F0EE608A94F86D0000F0800078B12046D3
:104D200002F0E2FA7620005D48B19FED610A10EED4
:104D3000100A60639FED5E0ABDEC028B10BD18EE99
:104D4000100A606118EE900A2060206800EE100AD8
:104D5000606900EE900A30EE600A10EE100AE06121
:104D6000E06900EE100AB5EEC00AF1EE10FA03DDBC
:104D7000E06900EE100A04E0E06900EE100AB1EE0E
:104D8000400AA06C00EE900AB4EEE00AF1EE10FAD0
:104D90007EDDA06800EE100AE06900EE900A20EEC9
:104DA000200A10EE100A6062E06800EE100AE06966
:104DB00000EE900A20EE200A10EE100A2063E0694F
:104DC00000EE100A206A00EE900A70EE600A206978
:104DD00000EE100A20EE800A10EE100AE06294F84D
:104DE0006D0000F0040010B1204602F054FB94F86E
:104DF0006D0000F0200010B1204602F031F994F867
:104E00006D0000F0010010B1204602F0CBF994F8DB
:104E10006D0000F0020010B1204602F0B1F994F8E4
:104E20006D0000F0400010B1204602F091F9A06A38
:104E300000EE100A206B00EE900A30EE200A10EE11
:104E4000100AA062606A00EE100AA06A00EE900AE2
:104E500070EE200AE06A00EE100A30EE800A10EED2
:104E6000100A606394F86D0000F0100010B1204645
:104E700002F0FEF9204602F013FA204602F0E8FAAA
:104E80006069A061606BA063E06AE063E06900E0D4
:104E900004E02062606B00EE100A4DE79FED040A0B
:104EA00010EE100A6063606B00EE100A44E7000029
:104EB0000000000070B504460D461646054844F84B
:104EC000770F0548606054F8773932462946204606
:104ED000984770BDA97300081D7400087047000052
:104EE000B7EE001AF0EE410AB7EE001AB0EE410A32
:104EF0003048007C10B101285AD12FE02D4890EDA8
:104F0000321AF3EE0E1AB4EEE11AF1EE10FA1FD2D5
:104F100090ED321AF2EE0E1A31EE611AF2EE0E1A1E
:104F200081EE212AB0EE420AB5EEC00AF1EE10FA87
:104F300003D29FED211AB0EE410AB7EE001AB4EE8B
:104F4000C10AF1EE10FA03DDB7EE001AB0EE410A25
:104F500020EE801A174880ED051A29E01748B0F8AE
:104F6000150001EE100AB8EE411AF3EE041AB4EE81
:104F7000E11AF1EE10FA15D21048B0F8150001EE62
:104F8000100AB8EE411AF3EE041A81EE212AB0EEAF
:104F9000420AB5EEC00AF1EE10FA03D29FED061AEE
:104FA000B0EE410A20EE801A024880ED051A00BFDB
:104FB00000BF7047A80F002000000000E40E002092
:104FC000124890F8C10001281BD1104890ED320A18
:104FD000F3EE0E0AB4EEE00AF1EE10FA03DD002063
:104FE0000A49087410E0094890ED320AF2EE040A0A
:104FF000B4EEE00AF1EE10FA06DD00200349087471
:1050000002E001200149087470470000A80F002049
:1050100070B50446002600252068C06800F04000F6
:10502000C8B92068C06840F080002168C860FEF7F9
:105030003BF9064608E0FEF737F9801BB0F57A7FAA
:1050400002D90420607701252068C06800F0400084
:1050500008B9012DEFD1284670BD70B50446002572
:105060002068C06820F080002168C86020688068DF
:1050700000F0200030B92046FEF7CCFE10B104202D
:1050800060770125284670BD10B5494B1B685B69E8
:1050900043F04003464C24686361454B1B685B69E1
:1050A00043F08003424C24686361414B1B68DB681A
:1050B00043F010033E4C2468E3603E4B1B681B68C2
:1050C00023F001033B4C2468236007E0394B1B6845
:1050D0001B6823F00103374C24682360354B1B68A1
:1050E0001B6803F00103002BF0D1324B1B68324CDC
:1050F000A34205D94FF400132F4C4C3C23601BE016
:105100002C4B1B682D4CA34205D94FF400132A4C9D
:10511000503C236010E0274B1B68284C603CA342A6
:1051200005D94FF40013254CB83CE36004E04FF47C
:105130000013224CB83CA360214B1E4C2468A36092
:10514000204B1C4C2468E3601A4C24682361194BE3
:105150001B685A60174B1B681B6843F48023154C6F
:1051600024682360134B1B681B6843F00103114C38
:1051700024682360144B1B681B6823F00103124C46
:105180002468236007E0104B1B681B6823F00103B1
:105190000D4C246823600C4B1B681B6803F0010353
:1051A000002BF0D1064B084C2468A36010BD000012
:1051B000040500200C06002058640240B86002403C
:1051C00004140140CC0600206C06002010B54FF4FA
:1051D00000720649A1F50070FFF756FF4FF4806298
:1051E0000349044802F095F910BD0000CC080020E6
:1051F000E40A0020CC0A00207047000010B51448D3
:1052000090F8200000091349087000F039F812489E
:1052100090ED000ADFED110A20EE200ABCEEC00A74
:1052200010EE100A000A0B4948700B4890ED000A76
:10523000DFED0A0A20EE200ABCEEC00A10EE100ACA
:10524000887008230A46F1210548FCF7E3F910BDF0
:10525000E40E0020E8020020600000200000C842A8
:10526000BC03002007B52DED020BBDF80C1001802A
:10527000BDF8101041800099416005B000BD0000EC
:10528000114890ED000AB5EEC00AF1EE10FA0DD10A
:105290000E48C06900EE100AB5EEC00AF1EE10FA31
:1052A00004D19FED0B0A084880ED000A0748C06949
:1052B00000EE100AB5EEC00AF1EE10FA03D0034872
:1052C000C06901490860704760000020E40E0020BA
:1052D0003333734170B52DED088B04460025D4EDB2
:1052E000130AF8EEE00AB0EE600AFCF7D0FDBDEE5E
:1052F000C00A10EE105AD4ED1C0AF8EEE00AB0EE27
:10530000600AFCF7C4FDF0EE400A00EE105AB8EE59
:10531000C00AF4EEC00AF1EE10FA0BDDD4ED1C0A5F
:10532000F8EEE00AB0EE600AFCF7B1FDBDEEC00A8F
:1053300010EE105AD4ED250AF8EEE00AB0EE600A3D
:10534000FCF7A5FDF0EE400A00EE105AB8EEC00AD8
:10535000F4EEC00AF1EE10FA0BDDD4ED250AF8EEFA
:10536000E00AB0EE600AFCF792FDBDEEC00A10EE56
:10537000105AD4ED2E0AF8EEE00AB0EE600AFCF7FF
:1053800086FDF0EE400A00EE105AB8EEC00AF4EEC8
:10539000C00AF1EE10FA0BDDD4ED2E0AF8EEE00AA9
:1053A000B0EE600AFCF773FDBDEEC00A10EE105AB5
:1053B00000EE105AB8EEC00ADFED570AB4EEE00A6C
:1053C000F1EE10FA7DDD284603F03FFF41EC190BAA
:1053D00094ED130AB8EEC00ADFED4F0A20EE200A62
:1053E00010EE101A084604F08DFA41EC1B0B9FEDED
:1053F0004B0B53EC102B03F08FFF41EC1A0B53ECCB
:10540000192B03F09BFD41EC180B03F0EFFEE06459
:10541000284603F01AFF41EC190B94ED1C0AB8EE74
:10542000C00ADFED3D0A20EE200A10EE101A0846F1
:1054300004F068FA41EC1B0B9FED380B53EC102B7A
:1054400003F06AFF41EC1A0B53EC192B03F076FDC5
:1054500041EC180B03F0CAFE2067284603F0F5FE66
:1054600041EC190B94ED250AB8EEC00ADFED2A0ACB
:1054700020EE200A10EE101A084604F043FA41EC20
:105480001B0B9FED260B53EC102B03F045FF41EC5B
:105490001A0B53EC192B03F051FD41EC180B03F0E0
:1054A000A5FEC4F89400284603F0CFFE41EC190B8A
:1054B00094ED2E0AB8EEC00ADFED170A20EE200A9E
:1054C00000E019E010EE101A084604F01BFA41EC57
:1054D0001B0B9FED120B53EC102B03F01DFF41EC47
:1054E0001A0B53EC192B03F029FD41EC180B03F0B8
:1054F0007DFEC4F8B8000BE0E16CE164216F216728
:10550000D4F89410C4F89410D4F8B810C4F8B810B3
:10551000BDEC088B70BD00000000E14300000000FE
:105520000000F03FF0EE400A20EEA01AB0EE410A73
:105530007047000010B5084890F8C10028B9012252
:1055400080210648FDF7AAFE04E0002280210348DE
:10555000FDF7A4FE10BD0000A80F002000200240AF
:1055600010B5FDF7A7FE10BD00B593B0302107A818
:10557000FAF79CFF142102A8FAF798FF00BF002059
:1055800001902648006840F0805024490860084691
:10559000006800F08050019000BF00BF00BF0020F5
:1055A00001901F48006840F480401D49086008468B
:1055B000006800F48040019000BF00BF0A200790FF
:1055C00001200A9010200B9001200C9002200D90D9
:1055D00000210E9108210F91A82110910221119113
:1055E0000421129107A8FEF74FF908B1FCF74CFC13
:1055F0000F20029002200390002004904FF4A0504E
:1056000005904FF480500690052102A8FDF7FCFF9D
:1056100008B1FCF739FC13B000BD0000403802406F
:10562000007000400348006840F4700001490860C1
:105630007047000088ED00E010B50248FEF7C7FD96
:1056400010BD00002C04002010B502682D4B9842BC
:105650000ED0B0F1804F0BD02B4B984208D02B4B83
:10566000984205D02A4B984202D02A4B984203D147
:1056700022F070024B681A43224B984220D0B0F1BE
:10568000804F1DD0204B98421AD0204B984217D003
:105690001F4B984214D01F4B984211D01E4B98427A
:1056A0000ED01E4B98420BD01D4B984208D01D4B7C
:1056B000984205D01C4B984202D01C4B984203D113
:1056C00022F44072CB681A4322F080034C6943EA0B
:1056D000040202608B68C3620B688362094B9842C4
:1056E00002D00C4B984201D10B6903630123436143
:1056F000036903F001031BB1036923F00103036194
:1057000010BD0000000001400004004000080040FF
:10571000000C0040000401400040014000440140F2
:105720000048014000180040001C004000200040DC
:1057300030B50C46816821F47F4142EA03252543B8
:105740002943816030BD0A46816821F0700142F032
:10575000070319438160704730B50B461446026A4F
:10576000056A25F001050562816921F0F00141EA31
:10577000041122F00A021A438161026230BD30B581
:105780000B461446026A056A25F010050562816918
:1057900021F4704141EA043122F0A00242EA0312EE
:1057A0008161026230BD000010B500F05FFBFCF7C4
:1057B00045F8FBF75FFFFCF755F9FFF707FD0022FF
:1057C00080210248FDF76AFD10BD00000020024064
:1057D0000188491C01800188B1F57A7F04DB002132
:1057E00001804188491C418001884288C2EB021235
:1057F00001EB82014160704710B52448B0F81500F4
:1058000000EE100AB8EE400AF2EE040AB4EEE00A26
:10581000F1EE10FA16DD1D48B0F8150000EE100A82
:10582000B8EE400AF2EE040A30EE600ADFED180A24
:1058300080EE201AB3EE040A21EE000A154880ED2E
:10584000000A04E09FED140A124880ED000A0F4898
:10585000408900EE100AB8EE400A0E48D0ED000A6A
:1058600030EE200A0D4880ED000A0D480B4909680A
:10587000016001460548D0F81100486008230A4637
:1058800066210848FBF7C6FE10BD0000E40E0020AC
:10589000000048425C00002000000000580000208A
:1058A00080030020BC03002000BF00BF02680C3250
:1058B00052E8002F22F4907102680C3242E8001383
:1058C000002BF3D100BF00BF00BF0268143252E8C2
:1058D000002F22F001010268143242E80013002B6D
:1058E000F3D100BF016B01290ED100BF00BF0268D8
:1058F0000C3252E8002F22F0100102680C3242E80C
:105900000013002BF3D100BF202180F842100021AA
:10591000016370472DE9F84F04462068006920F4C0
:105920004050E1680843216808612169A068084384
:1059300061690843E169084300902068C06849F242
:105940000C618843009908432168C8602068406959
:1059500020F44070A16908432168486176492068B5
:10596000884203D075492068884203D1FDF724FF9F
:10597000814602E0FDF710FF8146E069B0F5004F77
:105980006CD102206168A0FB015003461920A9FBDD
:10599000007001462A463846FAF786FC6421B0FBBF
:1059A000F1F04FEA001A02206168A0FB01510B469A
:1059B0001920A9FB00712A463846FAF775FC834680
:1059C00002206168A0FB015003461920A9FB007169
:1059D0002A463846FAF768FC6421B0FBF1F000EB88
:1059E000C00101EB0010ABEB8000322101EBC000E5
:1059F0006421B0FBF1F000F0F8000AEB400A02204D
:105A00006168A0FB015003461920A9FB0070014604
:105A10002A463846FAF748FC834602206168A0FB14
:105A2000015003461920A9FB00712A463846FAF7AF
:105A30003BFC6421B0FBF1F000EBC00101EB001076
:105A4000ABEB8000322101EBC0006421B0FBF1F030
:105A500000F007005044216888606AE00420616813
:105A6000A0FB015003461920A9FB007001462A46FD
:105A70003846FAF719FC824604206168A0FB015001
:105A800003461920A9FB007001462A463846FAF75A
:105A90000BFC6421B0FBF1F000EBC00101EB001046
:105AA000AAEB8000322101EB00106421B0FBF1F081
:105AB00000F0F00A04206168A0FB01700346192081
:105AC000A9FB00513A462846FAF7EEFB6421B0FBE9
:105AD000F1F00AEB001A04206168A0FB01510B46AB
