:020000040800F2
:10000000100F0020ED0100081B2E000845260008F7
:10001000192E0008EF0400085D3B000800000000F6
:10002000000000000000000000000000152F000884
:10003000B505000800000000ED2E0008C5350008D9
:10004000070200080702000807020008070200086C
:10005000070200080702000807020008070200085C
:10006000070200080702000807020008070200084C
:10007000070200080702000807020008070200083C
:10008000210500087D050008070200080702000896
:10009000F1040008FD040008070200080702000838
:1000A00007020008353600080702000807020008AA
:1000B000070200084136000807020008070200088E
:1000C00007020008070200080702000807020008EC
:1000D00007020008070200080702000807020008DC
:1000E00007020008070200080702000800000000DD
:1000F0000000000000000000000000000000000000
:1001000000000000000000000702000807020008CD
:10011000070200080702000807020008070200089B
:10012000070200080702000807020008070200088B
:10013000070200080000000000000000070200089D
:100140000905000815050008070200080702000855
:1001500000F002F800F03AF80AA090E8000C82449F
:100160008344AAF10107DA4501D100F02FF8AFF27C
:10017000090EBAE80F0013F0010F18BFFB1A43F085
:10018000010318472471000044710000103A24BF95
:1001900078C878C1FAD8520724BF30C830C144BFEC
:1001A00004680C607047000000230024002500262E
:1001B000103A28BF78C1FBD8520728BF30C148BFCA
:1001C0000B6070471FB51FBD10B510BD00F05AF988
:1001D0001146FFF7F7FF04F095F800F078F903B443
:1001E000FFF7F2FF03BC00F07BF9000009488047ED
:1001F00009480047FEE7FEE7FEE7FEE7FEE7FEE709
:10020000FEE7FEE7FEE7FEE704480549054A064B20
:100210007047000031360008510100081009002025
:10022000100F0020100B0020100B002053EA020CCE
:1002300000F069802DE9F04B4FF00006002B1FBF46
:10024000B3FA83F503FA05F424FA05F65E4012BF0B
:100250001643B2FA82F502FA05F4C5F120051EBF75
:1002600022FA05FC44EA0C04203556EA044C4FEA15
:10027000144418BF641C4FF000084FF0000990426E
:1002800071EB030C39D3002919BFB1FA81F701FAD8
:1002900007F6B0FA80F700FA07F6C7F120071EBF8D
:1002A00020FA07FC46EA0C062037B6FBF4FCA7EB65
:1002B0000507103F07F01F0BCBF120060CFA0BFBD4
:1002C0002CFA06F644BFB3460026202FA4BF5E4694
:1002D0004FF0000B5BEA060C08BF4FF0010B19EB67
:1002E0000B09ABFB027C48EB0608C01B06FB02CCEB
:1002F0000BFB03CC71EB0C01C1E70B4602464146F8
:100300004846BDE8F08B13B54FF000004FF00001F8
:10031000AFF30080BDE81C407047032A40F23080F4
:1003200010F0030C00F0158011F8013BBCF1020F36
:10033000624498BF11F801CB00F8013B38BF11F8B7
:10034000013BA2F1040298BF00F801CB38BF00F8CE
:10035000013B11F0030300F02580083AC0F008804B
:1003600051F8043B083A51F804CBA0E80810F5E72F
:10037000121D5CBF51F8043B40F8043BAFF3008012
:10038000D20724BF11F8013B11F801CB48BF11F887
:10039000012B24BF00F8013B00F801CB48BF00F857
:1003A000012B704710B5203AC0F00B80B1E818500F
:1003B000203AA0E81850B1E81850A0E81850BFF44F
:1003C000F5AF5FEA027C24BFB1E81850A0E81850EE
:1003D00044BF18C918C0BDE810405FEA827C24BF42
:1003E00051F8043B40F8043B08BF7047D20728BFD0
:1003F00031F8023B48BF11F8012B28BF20F8023B1F
:1004000048BF00F8012B70474FF0000200B51346BB
:1004100094469646203922BFA0E80C50A0E80C5024
:10042000B1F12001BFF4F7AF090728BFA0E80C50D5
:1004300048BF0CC05DF804EB890028BF40F8042BCE
:1004400008BF704748BF20F8022B11F0804F18BF3B
:1004500000F8012B704770477047704710B500F0E7
:1004600009F8006810BD10B5044600F003F80460F8
:1004700010BD000000487047AC08002000487047DD
:10048000AC0800207546FFF7F9FFAE460500694647
:10049000534620F00700854618B020B5FFF7B4FE9C
:1004A000BDE820404FF000064FF000074FF0000875
:1004B0004FF0000B21F00701AC46ACE8C009ACE8F6
:1004C000C009ACE8C009ACE8C0098D46704710B55A
:1004D0000446AFF300802046BDE81040FFF77FBE22
:1004E00001491820ABBEFEE7260002007047FEE778
:1004F000014800F035BA00006C000020014800F00F
:100500002FBA00006C000020014800F029BA00005A
:1005100094000020014800F023BA0000940000205D
:1005200010B5104800F04FFD01281AD00E4801F018
:10053000A3FF0C480D4A01684FF40010914202D904
:100540000B49086002E009498039486000210948E8
:1005500002F09AF8BDE810405A220749024802F01A
:1005600061B810BDF0010020A80100208000024009
:10057000040402407C0800204C010020014800F0E7
:1005800025BD00003402002030B590F84050012411
:10059000AC40C56B6C60046863604368102B04D08A
:1005A000036899600068C26030BD03689A600068A3
:1005B000C16030BD704772B6FEE7000010B503465B
:1005C0001046002B01D0084C0AE04FF6FF7010BD1A
:1005D00013F8012B4240D2B234F8122082EA1020E4
:1005E000491E4A1CF4D110BD1870000810B5054C06
:1005F00003E010F8013B5340E25C491E4B1CF8D16C
:10060000104610BD186F000890F82020012A07D06E
:10061000022A05D0416A41F48021416201207047DD
:10062000006842690A43426100207047F0B590F8C3
:1006300020500468A468012D07D0022D05D0416A1E
:1006400041F4802141620120F0BD04F0806504F096
:100650000066354301D1E50053D5C4F3016401259B
:10066000A5401D608B684FF4C0759BB1CE6805EB4B
:10067000041733434E6843EAC6030668F3514FF448
:10068000C273076803EB04130E69FE50097D01294C
:1006900009D00DE00E88CB6805EB041743EA4653FA
:1006A0000668F351EBE70168CE5846F48076CE50E9
:1006B0001179D379567941EA036193791B0443EAAE
:1006C000062319434FF4C676036806EB04169951C6
:1006D0001178D37841EA0361937852781B0443EA96
:1006E000022211434FF4C473026803EB0413D15088
:1006F000006805EB0411425842F00102425000200C
:10070000F0BD416A41F4001141620120F0BD0000DA
:1007100010B590F82020012A07D0022A05D0416A9E
:1007200041F480214162012010BD3C4800F5007079
:10073000026842F001020260026822F47C52026008
:1007400002684B6A42EA032202600A7D02F01F033C
:1007500001229A40C3699343C361A0F50070CB693D
:10076000B3B9D0F80C329343C0F80C328C894B6883
:1007700064F31F434C6900EBC404C4F840320C8995
:100780000B6864F31F434C6900EBC404C4F84432A3
:10079000CB69012B16D1D0F80C321343C0F80C32C0
:1007A0000C884B6864F31F434C6900EBC404C4F825
:1007B00040320C89CB6864F31F434C6900EBC404DE
:1007C000C4F844328B697BB1D0F804321343C0F8CB
:1007D00004320B6973B1D0F814321343C0F81432E9
:1007E000096A01290CD010E0D0F804329343C0F814
:1007F0000432EEE7D0F814329343C0F81432EFE736
:10080000D0F81C121143C0F81C12D0F8001221F0CD
:100810000101C0F80012002010BD0000006400407B
:10082000704770B590F82040012C07D0022C05D0FD
:10083000416A41F480214162012070BD21B1046808
:100840002469A4072AD003E00468E468A4071FD041
:100850004FF4D874056804EB01142D5905F0040514
:1008600095600DB305682D59ED08556005682C5944
:1008700004F00204D4604FF4DA74056804EB011448
:100880002E5906F00F06082E13D30825156114E023
:10089000416A41F400114162012070BD416A41F496
:1008A00000114162012070BD05682D596D0D156064
:1008B000DCE72D5905F00F05156105682D59C5F3C5
:1008C0000725956105682C59240C54614FF4DC729E
:1008D000046802EB0112A4581C700468A458240A8E
:1008E0005C700468A458240C9C700468A258120E12
:1008F000DA704FF4DE72046802EB0112A4581C7126
:100900000468A458240A5C710468A458240C9C71DF
:100910000468A258120EDA7131B10068016941F021
:1009200020010161002070BD0068C16841F0200114
:10093000C160F7E70246002092F82010012901D09B
:1009400002290CD111688A68520100D501208A68F9
:10095000120100D5401C8968C90000D5401C7047B1
:100960002DE9F05F0546002428684669D0F8049018
:100970008768D0F80CA0D0F810B0D0F81880F10734
:1009800048D0F90714D001218160B80703D5284663
:1009900000F0F0FA0CE0780702D54FF4006407E0AD
:1009A000380702D54FF4805402E0284600F0E1FAFF
:1009B000F80516D529684FF480708860B80503D50E
:1009C000284600F0D9FA0CE0780502D544F400542A
:1009D00007E0380502D544F4804402E0284600F0E0
:1009E000CAFAF80316D529684FF480308860B80336
:1009F00003D5284600F0C2FA0CE0780302D544F48F
:100A0000004407E0380302D544F4803402E028466D
:100A100000F0B3FA300707D55FEACA6004D544F4A2
:100A2000007429681020C86070074FF0080707D5C8
:100A30005FEA0A7004D52868C760284600F0D4F938
:100A4000B00706D52868C068800702D0284600F0A5
:100A5000CDF9700607D55FEACB6004D544F4806415
:100A6000296810200861B00607D55FEA0B7004D52D
:100A700028680761284600F003FAF00606D52868C2
:100A80000069800702D0284600F0FCF9B00308D5C1
:100A90005FEAC96005D5296810204860284600F043
:100AA0003BFAF00307D55FEA097004D52868476070
:100AB000284600F064FA300446D55FEA497040D514
:100AC000F00504D55FEAC87001D044F00104B00518
:100AD00004D55FEA887001D544F00204700504D59E
:100AE0005FEA487001D544F00404300529D518F0B8
:100AF000700F26D008F07000402815D006DC1028B2
:100B000009D020280AD0302816D10AE050280ED06B
:100B1000602811D10EE044F008040DE044F0100408
:100B20000AE044F0200407E044F0400404E044F00C
:100B3000800401E044F480742868816921F0700128
:100B40008161296804204860002C05D0686A204330
:100B500068622846FFF764FEBDE8F09F70B5044662
:100B6000002C03D094F8200010B104E0012070BDE7
:100B7000204600F09DF82068016841F00101016005
:100B800000F0EEFC054605260CE000F0E9FC401BF9
:100B90000A2807D9606A40F40030606284F8206057
:100BA000012070BD20684068C007EED02068016851
:100BB00021F00201016000F0D3FC05460CE000F0DA
:100BC000CFFC401B0A2807D9606A40F400306062FD
:100BD00084F82060012070BD206840688007EED452
:100BE000207E01283FD02068016821F0800101604B
:100BF000607E01283DD02068016821F0400101603D
:100C0000A07E01283BD02068016821F0200101600E
:100C1000E07E012839D02068016841F010010160B0
:100C2000207F012837D02068016821F00801016089
:100C3000607F012835D02068016821F0040101603F
:100C4000D4E902010843D4E904121143084361685E
:100C5000491E08432168C86100206062012084F8B1
:100C60002000002070BD2068016841F08001016013
:100C7000BEE72068016841F040010160C0E72068DC
:100C8000016841F020010160C2E72068016821F09D
:100C900010010160C4E72068016841F008010160AB
:100CA000C6E72068016841F004010160C8E7000060
:100CB000F0B585B000210191029103910491026881
:100CC0004448434F444C016802250326491C434BCA
:100CD000BA423DD10160012907D1D86940F00070C6
:100CE000D861D86900F000700090986940F0080061
:100CF0009861986900F0080000904FF480700190AE
:100D000001A9204600F02CFB4FF4007101910295DF
:100D1000049601A9204600F023FB3149486820F4DD
:100D2000C04040F0E06040F480404860002211463E
:100D3000142000F083FC142000F072FC0022114605
:100D4000152000F07BFC152000F06AFC05B0F0BD1A
:100D5000244FBA42FAD1DA6942F08062DA61DA6984
:100D600002F0806200920160012907D1D86940F049
:100D70000070D861D86900F000700090986940F068
:100D800008009861986900F0080000904FF48050C6
:100D9000019001A9204600F0E3FA4FF400510191BF
:100DA0000295049601A9204600F0DAFA00221146C5
:100DB000402000F043FC402000F032FC00221146AD
:100DC000412000F03BFC412000F02AFCBEE700007F
:100DD0000064004000000020000C014000100240B0
:100DE00000000140006800407047000030B589B045
:100DF00004461C48844224D16B4602AA0021FFF716
:100E000010FD02986A4681B2174801F05BFD174851
:100E100001F0EEFD164801F0EBFD144D0298B43DD3
:100E2000D5F85C1188420CD1694605F5AE7002F028
:100E30008BFF10480068C5F814010F480068C5F81A
:100E400018010E4884420BD16B4602AA0021FFF71D
:100E5000E8FC0498042803D16946039804F010FDC7
:100E600009B030BD6C000020E80400202C030020F5
:100E7000940400201400002018000020940000209A
:100E80007047000030B589B004461C48844224D124
:100E90006B4602AA0121FFF7C4FC02986A4681B2A0
:100EA000174801F00FFD174801F0A2FD164801F0A8
:100EB0009FFD144D0298B43DD5F85C1188420CD1C9
:100EC000694605F5AE7002F03FFF10480068C5F8AE
:100ED00014010F480068C5F818010E4884420BD170
:100EE0006B4602AA0121FFF79CFC0498042803D159
:100EF0006946039804F0C4FC09B030BD6C000020C2
:100F0000E80400202C03002094040020140000209A
:100F10001800002094000020704770B5044694F833
:100F20002000012805D0606A40F4002060620120A2
:100F300070BD022084F820002068016821F00101C2
:100F4000016000F00DFB05460DE000F009FB401BC1
:100F50000A2808D9606A40F400306062052084F8ED
:100F60002000012070BD20684068C007EDD160629C
:100F700070BD704770477047704770477047704743
:100F800010B590F821100022022905D004218163B8
:100F900080F82020012010BD01680B6823F00E03AB
:100FA0000B6001680B6823F001030B6090F8403080
:100FB000C46B012101FA03F3636080F8211080F80B
:100FC0002020104610BD90F8210070472DE9F05FF9
:100FD000C16B0A6801680B68046C4FF0040E0EFACE
:100FE00004FE9A4D9A4E9B4FDFF86CC2DFF86C827C
:100FF000DFF86C92DFF86CA2DFF86CB21EEA020F29
:101000007BD05FEA437E78D50A68920603D40A68EB
:1010100022F004020A60DFF848E24FF480620168BF
:101020000EF1140E1301140271452DD9A94201D1FC
:10103000042225E0B14201D1402221E0B9421FD073
:10104000614501D11A461BE0414501D1224617E016
:10105000494502D14FF4800212E0514501D10422EA
:101060000EE0594501D140220AE07F4D1435A942D6
:1010700006D07D4A2832914201D11A4600E022462C
:101080007849091F0A6032E0A94201D104222BE00D
:10109000B14201D1402227E0B94225D0614501D1BA
:1010A0001A4621E0414501D122461DE0494502D1C1
:1010B0004FF4800218E0714502D14FF0806213E0D6
:1010C000514501D104220FE0594501D140220BE0E6
:1010D000654D1435A94207D0634A2832914202D1A6
:1010E0001A4601E009E02246584908394A60C16AB7
:1010F00000296FD0BDE8F05F08474FF0020E0EFAEE
:1011000004FE1EEA020F74D05FEA837E7FD50A6870
:10111000920606D40A6822F00A020A60012180F8C9
:101120002110DFF83CE14FF4007201680EF1140E5B
:101130001301140271452DD9A94201D1022225E0E3
:10114000B14201D1202221E0B9421FD0614501D135
:101150001A461BE0414501D1224617E0494502D11C
:101160004FF4001212E0514501D102220EE0594520
:1011700001D120220AE03C4D1435A94206D03A4A5A
:101180002832914201D11A4600E022463549091F12
:101190000A6033E0A94201D102222CE0B14201D120
:1011A000202228E0B94226D0614501D11A4622E02A
:1011B000414501D122461EE0494502D14FF40012BB
:1011C00019E0714502D14FF0007214E0514502D18F
:1011D000022210E038E0594501D120220BE0224DD7
:1011E0001435A94207D0204A2832914202D11A462A
:1011F00001E00CE02246154908394A60002180F8D8
:101200002010816A00291FD0BDE8F05F084708253B
:10121000A540154218D01A0716D50A6822F00E020A
:101220000A6090F84020C36B012101FA02F25A6073
:10123000816380F82110002180F82010016B0029C3
:1012400002D0BDE8F05F0847BDE8F09F080002400B
:101250001C0002403000024044000240580002409E
:101260006C000240080402401C04024030B5002813
:101270000DD01B4B0168142299420AD2194B0B4422
:10128000B3FBF2F292000264174AC2630BE0012042
:1012900030BD134B5B420B44B3FBF2F2920002648D
:1012A0000F4A083AC2630222001D42770A6843F6D9
:1012B000F0739A43D0E900342343D0E902452C432C
:1012C0002343046923434469234384692343134329
:1012D0000B6000214163012242770177002030BD7D
:1012E00008040240F8FFFDBF0000024070B504464C
:1012F000002594F8200001280CD0012084F820005B
:1013000094F821600020012E06D084F820000225E8
:10131000284670BD022070BD022684F82160A063BB
:101320002068066826F0010606602046FFF72CF9C3
:10133000E06A28B12068016841F00E01016009E00F
:101340002068016821F0040101602068016841F013
:101350000A0101602068016841F001010160D7E7DE
:101360002DE9F84F00240023DFF8C4914FF00F0857
:10137000A9F1040B09F1040AABF1040ED1E0012735
:10138000A7403A40BA4275D1DFF8A8C14D68A5EB35
:101390000C0665452BD00DDC032D34D005DC35B3B0
:1013A000012D19D0022D2FD11BE0112D16D0122D99
:1013B0002AD119E0B6F5881F19D006DCB6F5803FB2
:1013C00015D0B6F5801F1FD111E0B6F5001F0ED065
:1013D000B6F5041F18D10AE0CB6815E0CB681B1DD9
:1013E00012E0CB6808330FE0CB680C330CE08B685D
:1013F00023B1012B04D00823476105E0042303E057
:101400000823076100E00023FF2A01D8054601E018
:1014100000F1040502D84FEA840603E0A4F10806AF
:101420004FEA86062F6808FA06FC27EA0C0703FA3B
:1014300006F647EA06072F604D68ED0070D53E4D71
:10144000AE6946F00106AE61AD6905F00105009593
:101450003A4D24F003067719BE68A5072D0F08FA48
:1014600005FC26EA0C06DFF8D8C0604503D14FF032
:10147000000C17E054E0DFF8CCC0604502D14FF01B
:10148000010C0FE0DFF8C0C0604502D14FF0020C44
:1014900008E0DFF8B8C0604502D14FF0030C01E06E
:1014A0004FF0040C0CFA05FC4CEA060CC7F808C017
:1014B0004D68ED0205D5D9F800501543C9F8005024
:1014C00004E0D9F800509543C9F800504D68AD02CA
:1014D00005D5DAF800501543CAF8005004E0DAF8F0
:1014E00000509543CAF800504D68AD0305D5DBF8B0
:1014F00000501543CBF8005004E0DBF80050954352
:10150000CBF800504D68ED0305D5DEF800501543CB
:10151000CEF8005004E0DEF800509543CEF80050BD
:10152000641C0A6832FA04F57FF429AFBDE8F88F2D
:1015300008040140000011100010024000000140AA
:1015400000080140000C014000100140001401405F
:10155000002A01D001617047090401617047000051
:10156000014880687047000004000020024881683C
:1015700002781144816070470400002010B50748CC
:10158000016841F010010160032000F077F80F209E
:1015900000F006F800F026F8002010BD0020024000
:1015A00070B504460D4D4FF47A712878B1FBF0F018
:1015B0000B490968B1FBF0F000F0B2FB08B1012063
:1015C00070BD102C07D200222146501E00F036F8C4
:1015D0006C60002070BD012070BD00000400002080
:1015E0001000002008B50C48816941F001018161BB
:1015F000816901F001010091C16941F08051C1612F
:10160000C06900F0805000900449486820F0E06014
:1016100040F00070486008BD00100240000001402A
:10162000002809DB00F01F020121914040098000E1
:1016300000F1E020C0F8001170470000F0B40D4642
:101640000D4B1B68C3F30223C3F10704042C00D91C
:101650000424191D072901D2002300E0DB1E012606
:1016600006FA04F1491E294099409E40761E164014
:101670003143F0BC02F0BFBA0CED00E000F007010E
:10168000054A10684FF6FF03184040EA012003495D
:1016900008431060704700000CED00E00000FA0500
:1016A0002DE9F04704460D46002C17D0DFF83081B5
:1016B000D8F8000000F00700A84211D2D8F80000C6
:1016C00020F007002843C8F80000D8F8000000F018
:1016D0000700A84204D00120BDE8F0870120FBE705
:1016E0002068404E810712D5400703D5706840F44A
:1016F000E06070602078000703D5706840F46050A7
:1017000070607068A16820F0F00008437060207875
:10171000C0072CD06068012806D0022809D03168A3
:1017200089070BD40120D7E73168890306D401204B
:10173000D2E73168890101D40120CDE7716821F039
:10174000030101437160FFF70BFF074641F288393F
:1017500006E0FFF705FFC01B484501D90320BBE7A2
:101760007068616800F00C00B0EB810FF1D1D8F81F
:10177000000000F00700A8420ED9D8F8000020F0C1
:1017800007002843C8F80000D8F8000000F0070060
:10179000A84201D001209FE72078400705D5706856
:1017A000E16820F4E060084370602078000706D507
:1017B0007068216920F4605040EAC100706000F058
:1017C0003FF87168084AC1F30311515CC8400749EA
:1017D000086007480068FFF7E3FE00207CE7000090
:1017E0000020024000100240006F0008100000209E
:1017F0000800002001480068704700001000002029
:1018000000B5FFF7F7FF04494968044AC1F3022114
:10181000515CC84000BD000000100240106F00087D
:1018200000B5FFF7E7FF04494968044AC1F3C22144
:10183000515CC84000BD000000100240106F00085D
:101840002DE9F0411D4B59681D4801F00C02042A96
:101850002ED0082A2CD11B48C1F38342845CC803D4
:1018600028D5D86A174900F00F000E31085CD96AF4
:10187000C90316D5D96AC1F30312521CD96AC1F340
:101880000321891CA2FB0023A1FB04170C4D002699
:10189000A1FB050C07FB05C501FB0651FEF7C6FCC5
:1018A00003E007496143B1FBF0F00D2C00D1400883
:1018B000BDE8F08104486043FAE7000000100240F0
:1018C00000127A00E26E000800093D002DE9F84F91
:1018D0000446002C0ED02078F84DC0075ED0686812
:1018E000C0F3810001280BD06868C0F38100022892
:1018F00003D00CE00120BDE8F88F6868C00306D56E
:10190000286880034AD5A068A8BB0120F3E7A06837
:10191000B0F5803F11D0A8B1B0F5A02F1BD028683A
:1019200020F480302860286820F480202860A06897
:1019300030B3FFF715FE06461EE0286840F48030FD
:101940002860F4E7286820F480302860286820F4B4
:1019500080202860EBE7286840F480202860286811
:1019600040F480302860E2E7FFF7FAFD801B64282E
:1019700002D90320BFE711E028688003F4D50DE009
:10198000FFF7EEFD064606E0FFF7EAFD801B642840
:1019900001D90320AFE728688003F5D42078C84E2A
:1019A00080074FF0010A4FF0000746D5686810F035
:1019B0000C0F07D06868C0F38100022812D1686854
:1019C000C0030FD42868800704D56069012801D0BE
:1019D000012090E72868A16920F0F80040EAC100E2
:1019E00028602AE06069C0B1C6F800A0FFF7B8FD22
:1019F000804607E0FFF7B4FDA0EB0800022801D9FC
:101A0000032078E728688007F4D52868A16920F0CA
:101A1000F80040EAC10028600FE03760FFF7A0FD42
:101A2000804607E0FFF79CFDA0EB0800022801D9E3
:101A3000032060E728688007F4D42078000727D5C2
:101A4000A048E169A1B1C0F800A0FFF789FD804678
:101A500007E0FFF785FDA0EB0800022801D903206D
:101A600049E7686A8007F4D5012001F041FA0FE0E8
:101A70000760FFF775FD804607E0FFF771FDA0EBFB
:101A80000800022801D9032035E7686A8007F4D4EA
:101A9000207840077AD54FF00008E869C00009D4E3
:101AA000E86940F08050E861E86900F080500090FB
:101AB0004FF00108DFF810B2DBF80000C00515D4C4
:101AC000DBF8000040F48070CBF80000FFF748FD21
:101AD000814607E0FFF744FDA0EB0900642801D927
:101AE000032008E7DBF80000C005F3D520690128D2
:101AF00012D0B0B105281DD0286A20F0010028625C
:101B0000286A20F004002862206941F2883B30B343
:101B1000FFF726FD81461EE0286A40F0010028629A
:101B2000F2E7286A20F001002862286A20F0040009
:101B30002862E9E7286A40F004002862286A40F039
:101B400001002862E0E7FFF70BFDA0EB0900584514
:101B500001D90320CFE6286A8007F4D50FE0FFF70C
:101B6000FFFC814608E0FFF7FBFCA0EB09005845AD
:101B700002D90320BFE609E0286A8007F3D4B8F150
:101B8000010F03D1E86920F08050E861E06A78B382
:101B90006968C90309D56968C1F38101022904D1C3
:101BA000E96AC90301D50120A5E6022808D0E86A40
:101BB00020F48030E862B766FFF7D2FC804641E04F
:101BC0002868C00007D5E86A616B00F0F000884221
:101BD00001D001208FE6B766FFF7C2FC804608E01F
:101BE000FFF7BEFCA0EB0800642802D9032082E6C0
:101BF0002BE028680001F3D4E86A616B20F0F00064
:101C00000843E862E86A216B20F470600843E862E8
:101C1000C6F868A0FFF7A4FC804607E0FFF7A0FC29
:101C2000A0EB0800642801D9032064E628680001BD
:101C3000F4D50AE0FFF794FCA0EB0800642801D972
:101C4000032058E628680001F4D4206AF0B36968DC
:101C5000C1F38101022950D0022804D03766FFF772
:101C60007FFC044645E03766FFF77AFC074606E04E
:101C7000FFF776FCC01B022801D903203BE6286849
:101C80008001F5D4606AB0F5803F09D1E86A6168E7
:101C90000843E862E86AE16820F00F000843E86260
:101CA000D4E909010843696821F4741108436860A4
:101CB000C6F860A0FFF754FC04460FE00010024095
:101CC00000004242800442420070004026E0FFF7DC
:101CD00047FC001B022801D903200CE6286880017C
:101CE000F5D51BE0FFF73CFC001B022801D90320BF
:101CF00001E628688001F5D410E001280CD068685E
:101D0000626A00F48031914204D1A16A00F470103B
:101D1000884203D00120EEE50120ECE50020EAE551
:101D200010B5401EB0F1807F01D3012010BD4FF0EF
:101D3000E02460610F21601701F05DFF0020A061C9
:101D400007202061002010BD7047704710B590F843
:101D50003C20012A22D0012280F83C20CA680023BE
:101D60008C6822F4407222434C6822F48062224341
:101D70000C6822F4006222430C6922F48052224350
:101D80004C6922F400522243C96922F480420A437A
:101D900001684A6480F83C30002010BD022010BD6C
:101DA00070B590F83C20012A28D0012680F83C60CC
:101DB000022280F83D2002685368946823F0700581
:101DC0000B682B4353600E4B02689A420BD0B2F162
:101DD000804F08D00B4B9A4205D00B4B9A4202D051
:101DE0000A4B9A4204D124F0800349681943916058
:101DF0003C30467000210170002070BD022070BD93
:101E0000002C01400004004000080040000C00408D
:101E100010B50446002C03D094F83D0010B107E043
:101E2000012010BD002084F83C00204600F016F888
:101E3000022084F83D00211D206801F007FC0120EC
:101E40003D3460726070A070E07020716071A071AC
:101E5000E07120722070002010BD000008B50068FD
:101E6000154A1649904211D1886940F40060886192
:101E7000886900F400600090002211461920FFF7E5
:101E8000DDFBBDE808401920FFF7CABB0C4A9042B1
:101E900011D1C86940F00200C861C86900F00200B1
:101EA0000090002211461D20FFF7C8FBBDE8084046
:101EB0001D20FFF7B5BB08BD002C014000100240FB
:101EC0000004004090F83D10012901D00120704726
:101ED000022180F83D100168CA6842F00102CA6020
:101EE00000680F4988420BD0B0F1804F08D00D49EF
:101EF000884205D00C49884202D00C49884209D159
:101F0000816801F00701062908D0016841F001014C
:101F1000016003E0016841F00101016000207047A9
:101F2000002C01400004004000080040000C00406C
:101F300070B50446002594F83C00012817D001260E
:101F400084F83C60022084F83D002068826822F01A
:101F5000770222F47F4282600868502838D00DDC76
:101F6000202853D005DC90B3102811D14EE0022078
:101F700070BD30284AD040280AD13DE0602831D0D9
:101F800070280CD0B0F5805F03D0B0F5005F12D0A0
:101F900001253C34667000202070284670BDCB6857
:101FA000D1E90121206801F09AFB2068816841F0A5
:101FB00077018160EDE7CB68D1E90121206801F06C
:101FC0008EFB2068816841F480418160E1E71DE07B
:101FD000CA684968206801F04BFC5021206801F074
:101FE00088FBD6E7CA684968206801F052FC602186
:101FF000206801F07EFBCCE7CA684968206801F0E0
:1020000037FC4021206801F074FBC2E722680146DA
:10201000104601F06EFBBCE7704770B504462068BF
:1020200001694FF00005C943890716D4C168C94347
:10203000890712D4E91E0161012020772068806998
:10204000800703D02046FFF7E7FF05E0204600F0B9
:10205000C1F8204600F051F9257720680169C9438D
:10206000490718D4C168C943490714D46FF0040163
:102070000161022020772068806910F4407F03D03E
:102080002046FFF7C9FF05E0204600F0A3F82046F0
:1020900000F033F9257720680169C943090717D48F
:1020A000C168C943090713D46FF008010161042016
:1020B00020772068C069800703D02046FFF7ACFF77
:1020C00005E0204600F086F8204600F016F9257756
:1020D00020680169C943C90618D4C168C943C90643
:1020E00014D46FF010010161082020772068C069C6
:1020F00010F4407F03D02046FFF78EFF05E0204616
:1021000000F068F8204600F0F8F8257720680169AB
:10211000C943C90708D1C168C943C90704D1891E89
:102120000161204600F080F920680169C943090671
:1021300009D4C168C943090605D46FF08001016163
:102140002046FFF701FE20680169C943490609D40A
:10215000C168C943490605D46FF0400101612046BA
:1021600000F088F920680169C94389060BD4C16869
:10217000C943890607D46FF0200101612046BDE8FC
:102180007040FFF7E2BD70BD00B585B00021019140
:1021900002910391049100680B49884212D10B48C7
:1021A000816941F004018161806900F004000090C0
:1021B0004FF4C060019002200290049001A90448ED
:1021C000FFF7CEF805B000BD002C01400010024022
:1021D00000080140704770B504460D46002694F88B
:1021E0003C0001280FD0012084F83C006AB1042A89
:1021F0001FD0082A32D00C2A44D00126002084F8AF
:102200003C00304670BD022070BD2946206801F0B8
:1022100079FA2068816941F008018161206881694B
:1022200021F004018161206881692A69114381617B
:10223000E4E72946206801F095FA2068816941F4B5
:10224000006181612068816921F480618161206879
:1022500081692A6941EA02218161CFE72946206824
:1022600001F0B2FA2068C16941F00801C16120683B
:10227000C16921F00401C1612068C1692A69114363
:10228000C161BBE72946206801F0CEFA2068C16928
:1022900041F40061C1612068C16921F48061C161BC
:1022A0002068C1692A6941EA0221C161A6E710B527
:1022B0000446002C03D094F83D0010B107E0012043
:1022C00010BD002084F83C00204600F015F80220E4
:1022D00084F83D00211D206801F0B8F901203D344B
:1022E00060726070A070E07020716071A071E07128
:1022F00020722070002010BD7047704710B5044652
:10230000002909D004290AD008290BD094F84100EB
:1023100001280AD0012010BD94F83E00F8E794F897
:102320003F00F5E794F84000F2E7022051B304299A
:102330002BD008292CD084F841000122206801F01C
:10234000C1F918492068884203D1426C42F4004226
:102350004264206888420BD0B0F1804F08D0124907
:10236000884205D01149884202D01149884212D1D1
:10237000816801F00701062911D0016841F00101CF
:1023800001600CE084F83E00D7E784F83F00D4E712
:1023900084F84000D1E7016841F0010101600020AC
:1023A00010BD0000002C0140000400400008004067
:1023B000000C004030B504460D4600222946206836
:1023C00001F080F9174941F2111320689A108842F0
:1023D00009D1016A194206D1016A114203D1416C47
:1023E00021F4004141642068016A194206D1016A62
:1023F000114203D1016821F00101016001203DB1CA
:10240000042D08D0082D09D084F84100002030BDEB
:1024100084F83E00FAE784F83F00F7E784F84000CC
:10242000F4E70000002C014010B500680E49884216
:1024300019D100F071FD00F0AFFD0C4801F045FE30
:102440000B4A506800EB4001C1EBC013116801EB6F
:10245000C3039360491C1160B1F57A7F03D1002159
:102460001160401C506010BD00040040D0070020E7
:10247000140000207047704710B50446206840697A
:10248000C0F3C01094F84110212911D180B1206807
:10249000143050E8001F21F0800140E80012002AAB
:1024A000F5D1A06B08B1FEF76BFD204601F0A1FA53
:1024B00020684069C0F3801094F84210222911D19D
:1024C00080B12068143050E8001F21F0400140E83E
:1024D0000012002AF5D1E06B08B1FEF751FD20464D
:1024E00001F060FA002010BD704770B50446002C62
:1024F00004D094F84100002510B106E0012070BD21
:1025000084F84050204600F023F8242084F841004D
:102510002068C16821F40051C160204601F078FABA
:102520002068016921F4904101612068416921F02E
:102530002A0141612068C16841F40051C1606564AD
:10254000202084F8410084F842006563002070BDBB
:102550002DE9F04186B004460025029503950495C7
:1025600005952B49206888424FD12A48C16941F41A
:102570000031C161C16901F400310191816941F00B
:1025800004018161806900F0040001900420029040
:1025900002200390032005901F4E02A93046FEF74B
:1025A000DFFE082002900395049502A93046FEF74D
:1025B000D7FE1B4E194830607560B5608027F76004
:1025C00035617561B5614FF40058C6F81C8030461E
:1025D000FEF74CFE08B1FDF7EEFFE66374620F48AC
:1025E0000F4E14304436306010207060B560F760D4
:1025F00035617561B561C6F81C803046FEF736FE60
:1026000008B1FDF7D8FFA663746206B0BDE8F0819B
:102610000044004000100240000801406C000240ED
:10262000F001002090F84230202B01D002207047AA
:1026300021B11AB10023036301F046BA01207047AB
:102640007047704740F68C250E4C20791A2803D12C
:102650000A20294601F006FC20791B2803D1092015
:10266000294601F0FFFB20791C2803D108202946C8
:1026700001F0F8FB20791D28E7D10720294601F059
:10268000F1FBE2E7780200202DE9F84F4B482D22BC
:1026900049490090FDF741FE0025DFF820B1DFF841
:1026A0002081ABF12D0BD94609F15C0A1BF805001E
:1026B000A52874D10BEB05040521204601F070FA22
:1026C00001286CD1A079617941EA0027A07861786E
:1026D00041EA0026A7F5007001381CD1204606F11A
:1026E000090101F03DFAB0B114F8070F89F85E0056
:1026F000607889F85F006088A9F86000A088A9F870
:102700006200E088A9F864002089A9F86600608961
:10271000E41FA9F86A00A7F5007002382AD1204604
:1027200006F1090101F01CFA20B334F8070FA9F8EB
:102730006C006088A9F86E006268C9F87020208972
:10274000A9F87400E089E41FA9F8760098F8000061
:10275000401CC0B288F80000052802D1002088F88B
:1027600000001046D8F8041004F0D0F8DAF814008D
:10277000C8F80400A7F50070073810D1204606F10C
:10278000090101F0EDF950B1607A89F878000B4841
:10279000D4F80A105330016001208AF81D00074860
:1027A0002D222D380099FDF7B8FD6D1C2DB22D2D71
:1027B000FFF67CAFBDE8F88F4C0100202108002017
:1027C00064000020074B064A1A60C0F88C110648C6
:1027D00000214160082202618160C160017570477B
:1027E0008944000824000020780600207CB50646B5
:1027F0000C461546002D03D00021012D31D000E0FC
:1028000001210022114327D06E3434F81A1C080A23
:102810008DF800008DF80110608A000A8DF8020022
:10282000A07C8DF80300E08F000A8DF8040094F876
:102830003E008DF80500B4F86A00000A8DF8060025
:1028400094F86A008DF80700D4F81E0133686E3CD6
:102850006A464FF4007198472DB10021022D2ED009
:1028600002E00122CEE701210020014326D004F539
:10287000907434F81C1C080A8DF800008DF80110C3
:10288000208A000A8DF80200207C8DF80300A08FBA
:10289000000A8DF8040094F83C008DF80500B4F8A7
:1028A0006800000A8DF8060094F868008DF80700AB
:1028B0003368E06E6A4640F2FF1198477CBD012004
:1028C000D3E7000010B5054CD0F88C31636000F000
:1028D00007F808B1012010BD002010BD2400002021
:1028E00010B5C9B2002904D00023082902D9012457
:1028F00001E001230024234301D0012010BD5378BF
:10290000147843EA042301EB410404EBC10100EB1A
:1029100081046380D078917840EA0120A0805079CA
:10292000117940EA0120E08090792072608800F0FF
:1029300013F82061608800F01FF8E060B4F9060029
:1029400000F034F804F016F8A061A088A082207A84
:10295000E061002010BD000010B504F05FF80449EC
:1029600003F012FFBDE81040024904F09FB80000D8
:1029700000F8FF450000B44310B504F04FF80849D3
:1029800003F002FF03F060FE064A074B03F04CFB26
:10299000012204F03AFABDE8104003F07DB80000CF
:1029A00000F8FF451F85EB51B81E094010B504F033
:1029B0001DF86FF00D0104F056FABDE81040014912
:1029C00004F074B80000A04110B503F03DFE4FF0D4
:1029D0003332034B03F028FBBDE8104003F05CB832
:1029E0003333D33F0B46828C017B806800F096B86E
:1029F00010B50446204600F013F8074800686061EF
:102A000006480068A061B4F92C0003F0EFFF2169CB
:102A100003F0BAFEE06310BD14000020180000208F
:102A20002DE9F0410446207BA16800EB400202EB57
:102A3000C000022202EB80028D5E2585042202EB9B
:102A400080028F5EA785062202EB80000E5EE6857F
:102A5000304603F096FA4FF033321D4B03F0E4FAA0
:102A600003F060FA8046A063304603F0BFFF6FF0CA
:102A70000D0104F0F8F9174904F018F82065B4F9CD
:102A80002A00281A10F5805F02DC616B491C616323
:102A9000B0F5805F02DB606B401E6063606B05EB2E
:102AA00040302063384603F0A1FF2669314603F029
:102AB0006BFEE063404603F099FF314603F0F6FFFA
:102AC000616804F0FBF8E0646585BDE8F081000012
:102AD0003333D33F0000A0410A7B02738A688260CF
:102AE0000B6903614B6843600B680360096810461B
:102AF000FFF768BE70B5044608461546A084FFF788
:102B000055FF2062FFF760FF216903F0CFFFE0610E
:102B100029462046BDE87040FFF764BF30B40C4D35
:102B2000D0F88C416C6001EB410404EBC10400EB74
:102B300084042285002B09D10522B1FBF2F1491C46
:102B4000CAB20146284630BCFFF750BE30BC7047C1
:102B50002400002010B50F480D4901600421416098
:102B600000218160C1604FF480220261D200426185
:102B70000176012242768176C17601774177FDF7B1
:102B8000EDFF002803D0BDE81040FDF714BD10BDD7
:102B9000006400406C00002010B50F480D49016032
:102BA0000421416000218160C1604FF40032026164
:102BB000520142610176012242768276C176017726
:102BC0004177FDF7CBFF002803D0BDE81040FDF7AB
:102BD000F2BC10BD006800409400002008B50D480C
:102BE000416941F001014161406900F0010000903C
:102BF000002211461020FEF721FD1020FEF710FDE7
:102C0000002211461120FEF719FDBDE808401120F1
:102C1000FEF706BD0010024010B586B000200290FD
:102C20000390049005901648816941F0200181616C
:102C3000816901F020010191816941F00401816104
:102C4000816901F004010191816941F0080181610C
:102C5000806900F0080001900A4C00220321204600
:102C6000FEF776FC032102910121039102210491D8
:102C7000059102A92046FEF773FB06B010BD0000C7
:102C800000100240000C014010B596B000241294D0
:102C9000139414941594109411941C2109A8FDF711
:102CA000B3FB202101A8FDF7AFFB2D482B490160A4
:102CB00047214160846040F2E731C16004614461B2
:102CC00080218161FFF7A4F808B1FDF774FC4FF48F
:102CD0008050129012A92248FFF72AF908B1FDF797
:102CE0006AFC1F48FFF7E3FA08B1FDF764FC109493
:102CF000119410A91A48FFF753F808B1FDF75BFCCF
:102D0000602009900A940B940C940D940E940F94E7
:102D1000042209A91248FFF75EFA08B1FDF74BFC3F
:102D2000082209A90E48FFF756FA08B1FDF743FC3F
:102D3000019402940394049405944FF40050069077
:102D4000089401A90648FFF701F808B1FDF733FC24
:102D50000348FFF719FA16B010BD0000002C01401F
:102D6000BC00002010B586B00024029403940494A3
:102D7000059400940194144812490160482141606F
:102D800084604FF47A71C16004618461FFF740F898
:102D900008B1FDF710FC4FF48050029002A90A48D8
:102DA000FFF7C6F808B1FDF706FC009401946946E8
:102DB0000548FEF7F5FF002801D0FDF7FCFB06B043
:102DC00010BD0000000400400401002010B5114CAB
:102DD0000F4820604FF4E13060600020A060E060A8
:102DE00020610C216161A061E0612046FFF77DFB5D
:102DF00008B1FDF7E0FB2068C16841F01001C16037
:102E000004495A22BDE810405C390248FFF70ABC69
:102E100000440040A8010020FEE7FEE770B504462C
:102E2000B4F92250002D16D0A06A081A454394F830
:102E300026000541A162204600F01CF82844B4F9A0
:102E40001410814201DA084608E0B4F916108142F4
:102E500004DD084602E0204600F00CF800B270BD28
:102E6000018881804188C180018C4184002181607A
:102E70008162704770B5B0F91440B0F91650B0F9DE
:102E800004604E43B0F90630002B0BD04B438268F0
:102E9000D118002909DA002A0CDD002B0ADD6FF0B9
:102EA000004107E0002181600FE0002A02DA002BD8
:102EB00000DA0D49C2688A4201DA826005E00269DF
:102EC0008A4201DD826000E08160827F8168007F4C
:102ED000114106418A19A24201DD224602E0AA42BE
:102EE00000DA2A4610B270BD010000807047000071
:102EF00008B507494FF4FA520968B1FBF2F14143B2
:102F0000009100BF0098411E0091FAD208BD000058
:102F1000100000207047000010B517490022887982
:102F2000002820D0D1E9033000EB4004C4EBC010EE
:102F300003EBC000114B6FF07C041B68C31A1048F0
:102F40000068604303EBC00010F57A7F00DA4A7234
:102F5000094800F0BDF8084800F0CCFABDE8104080
:102F6000054800F097B8C1F83822C1F8D020BDE874
:102F70001040014800F08EB87802002014000020B4
:102F80001800002010B5034800F0BAF8BDE8104062
:102F900002F04EBC78020020014802F093BB000012
:102FA000780200202DE9F0410746B7F5000F02DA5C
:102FB0000020BDE8F0814FF0FF31384603F053FFA9
:102FC00005461349384603F071FD064686F0004475
:102FD0002946284603F06AFD394603F06FFE804615
:102FE0000121284603F03FFF0146404603F0CCFB99
:102FF000294603F058FE05463146404603F022FEBE
:10300000E6D32046414603F01DFEE1D32846D0E733
:103010006F12833A0021064A52F83130834201D1BF
:1030200000207047491C0429F6DB0320704700008C
:10303000A806002010B5C0210248FDF7E5F90020E0
:1030400010BD0000E00600200021074A02EBC1038A
:103050001B79834202D152F831007047491C042980
:10306000F4DB002070470000A80600200021084A79
:1030700052F8313023B1491C0429F9DB0120704793
:1030800042F8310002EBC10100790871002070475D
:10309000A806002010B504462046FFF7BBFF08B184
:1030A000032010BDD4F8D00003F064FC01B200226C
:1030B00004F1B400FFF71EFDD4F8380203F05AFC07
:1030C00001B2002204F50770FFF714FD002010BDC7
:1030D00010B50446607A002808D140F6CE20208042
:1030E000002060800221054800F0E7FF204600F044
:1030F000D0F9204600F0C8F8002010BDD00700200D
:103100002DE9F04192B0044620212A48FDF77CF9D0
:10311000204600F063F94FF07E50606126480F9022
:10312000264F0D9701258DF8385000260C96DFF8B4
:103130009080CDF82C800BA904F1B400FFF7CCFCF3
:1031400020480890069702208DF81C000596CDF8BF
:10315000108004A904F50770FFF7BEFC40F6CE20EE
:10316000208004F5AE70074600F0CAFD8DF80450CB
:103170008DF805608DF808600C200090694638468F
:1031800000F0F8FDA802C4F80801052084F80C013D
:103190008002C4F810011C2020716571A5712046C1
:1031A000FFF764FF18B1012012B0BDE8F0810020E4
:1031B000FAE70000A806002000002041E8040020F3
:1031C0006C0000202CA0994110B50446F034D4F8CE
:1031D0008C00E065174909686166A26E891AD4F807
:1031E0009020801AB0FBF1F0206803F0C3FBA065CB
:1031F000F03C04F5AE7000F0C7FDA034D4F8B40084
:10320000C4F8B800206D03F0B5FB2060206E03F019
:10321000B1FBA060D4F8BC0104F5B4746060206D0B
:1032200003F0A8FB2060206E03F0A4FBA060002048
:1032300010BD00001C000020D0F84C21D0F8101167
:10324000B2FBF1F301FB1322C0F8242190F81C31EA
:10325000002B02D18A1AC0F8242100F5CA7050F858
:10326000702CC2EB4232B2FBF1F140F8701C50F806
:103270004C1C40F8741C816F0165416FC164C16FC3
:1032800041650020704700002DE9F04704462046C4
:10329000FFF7C0FE10B10320BDE8F087B4F9840148
:1032A00094F905104843B4F98611411A04F5DA700F
:1032B000FFF7B4FDC4F8FC01207A41F6FF7638B17F
:1032C000B4F91800B4F91C10411AE07980B35AE03F
:1032D00094F90550681E03F089FB4FF0FF3739461B
:1032E00003F0C1FDDFF8EC80414603F0DFFB8246CE
:1032F000B4F91800B4F91C10401A03F077FB8146AA
:10330000514603F0DBFC03F035FB002801DB0146EE
:1033100001E0C0F10001A6EB010201DB014601E082
:10332000C0F100018A4204DD002806DA404204E0D0
:103330001DE0002800DA4042301A03F057FB26490E
:10334000884201DD6842607194F90500401E03F077
:103350004DFB394603F087FD414603F0A7FB0146CC
:10336000484603F0ABFC03F005FB0146ADE7701ADD
:10337000884203DAA1F5F851FF3904E08819424286
:10338000914200DA014604F12000FFF747FD608317
:10339000B4F91E10411A04F14C00FFF73FFD44F848
:1033A000940F00F009FF01F085FDD4F8680103F0E7
:1033B0001DFB54F8805C294603F078FBC4F8A40197
:1033C000206803F013FB294603F070FBE063002044
:1033D00062E7000000F07F4500F0FF4470B504464E
:1033E00004F1200058210546FDF70EF8582104F598
:1033F000C470FDF709F807202C3424F80C0C0620C3
:1034000020820121A182002060834FF4FA62228190
:103410004FF6300262814FF4C8722284A1870521E1
:1034200061840221E18741F27072A2864EF6900219
:10343000E2864FF4C862E262524222634822A4F854
:103440008821A4F8A4111422A4F88A21A4F8A611B2
:10345000A4F8A801A4F8AE014FF47A50A4F89C0196
:103460004CF28010A4F89E014FF47A70C4F89401D5
:103470004042C4F898012C3C2846FFF7F1FC04F1C7
:103480004C00FFF7EDFC04F5DA70BDE87040FFF783
:10349000E7BC018801834188A0F8841100207047AF
:1034A000B0F824118183B0F82011C183B0F8E01185
:1034B000A0F8861100207047002902D0012905D10B
:1034C00002E00021C17101E00121C17100207047BB
:1034D000002902D0012905D102E00021017201E09A
:1034E0000121017200207047018000207047418057
:1034F000002070472DE9F04104462046FFF78AFD81
:1035000010B10320BDE8F0812046FFF75DFE2046A4
:10351000FFF792FE2046FFF7C3FF274E274D6FF0BF
:103520007C0230684FF47A7700EB4001C1EBC010A9
:10353000296801EBC000D4F8C810411AD4F8CC00B7
:10354000504301EBC000B84203D902211C4800F0EF
:10355000B4FD30686FF07C0200EB4001C1EBC0109D
:10356000296801EBC000D4F83012411AD4F83402B3
:10357000504301EBC000B84203D90221104800F0CB
:103580009CFD30686FF07C0200EB4001C1EBC01085
:10359000296801EBC000D4F81411411AD4F81801BD
:1035A000504301EBC000B84203D90221044800F0A7
:1035B00084FD0020A6E70000180000201400002071
:1035C000D0070020FDF7D2BF70B594B0382106A80F
:1035D000FCF71AFF142101A8FCF716FF0125069538
:1035E00028040890002409940B95079402260E964F
:1035F0000F904FF4E0101090119406A8FEF766F9B2
:1036000008B1FCF7D8FF0F200190029603944FF405
:10361000806004900594022101A8FEF741F808B1EA
:10362000FCF7C9FF0148056714B070BD00004242B5
:10363000704700000148FEF7F0BC0000BC0000200D
:103640000148FEF7EABC000004010020F0B5026862
:10365000184C194D194E1A4F4FF0804CA04207D00C
:10366000604505D0A84203D0B04201D0B84203D192
:1036700022F070034A681A43A04207D0604505D083
:10368000A84203D0B04201D0B84203D122F4407323
:10369000CA681A434B6922F080021A4302608A68A2
:1036A000C2620A688262A04201D1096901630121F4
:1036B0004161F0BD002C01400004004000080040C2
:1036C000000C004010B501F01F0101238B40046A7B
:1036D0009C430462036A8A401343036210BD10B521
:1036E000846824F47F4442EA03220A43224382602E
:1036F00010BD826822F070020A4342F00701816027
:103700007047000030B5026A036A23F001030362C8
:103710004368846924F0700424F003050C682C438A
:1037200022F002058A682A430D4DA84206D122F0F4
:103730000802CD6845EA020525F0040209D123F408
:10374000807323F400734D6945EA03058B6943EAEE
:1037500005034360846149684163026230BD000033
:10376000002C014030B5036A026A22F010020262A6
:103770004268846924F4E04424F440740D6844EA07
:10378000052423F020038D6843EA05130D4DA8425C
:1037900006D123F08003CD6843EA051323F04003EC
:1037A00009D122F4806222F400624D6942EA850266
:1037B0008D6942EA850242608461496881630362DF
:1037C00030BD0000002C014030B5026A036A23F4CA
:1037D000807303624368C46924F0700424F0030515
:1037E0000C682C4322F400728D6842EA05220D4DCC
:1037F000A84206D122F40062CD6842EA052222F4F2
:10380000806209D123F4805323F400534D6943EAC5
:1038100005138D6943EA05134360C4614968C163B8
:10382000026230BD002C014030B5036A026A22F406
:10383000805202624268C46924F4E04424F4407473
:103840000D6844EA052423F400538D6843EA0533E8
:10385000064DA84204D122F480424D6942EA851205
:103860004260C46149680164036230BD002C0140BC
:1038700010B5036A046A24F001040462846924F028
:10388000F00444EA021423F00A020A43846102624B
:1038900010BD10B5036A046A24F010040462846940
:1038A00024F4704444EA023223F0A00343EA0111F5
:1038B0008261016210BD70B5446A20684069C0F33E
:1038C000C01094F841100025212904D118B1E584D5
:1038D000204600F08EF820684069C0F3801094F80C
:1038E0004210222904D118B1E585204600F05AF88B
:1038F000606C40F0100060642046FEF7F5FD70BD7E
:1039000010B50146486A096809684FF00003890646
:103910002ED4C38501680C3151E8002F22F4807247
:1039200041E80024002CF5D10168143151E8002F42
:1039300022F0010241E80024002CF5D10168143185
:1039400051E8002F22F0400241E80024002CF5D17C
:10395000202180F84210016B012909D101680C3146
:1039600051E8002F22F0100241E80024002CF5D18C
:103970004363016B012902D0FEF762FE10BD818D09
:10398000FEF779FD10BD10B5406A01214163016B5E
:10399000012902D0FEF755FE10BD818D4908FEF7C2
:1039A0006AFD10BD01680C3151E8002F22F49072BD
:1039B00041E80023002BF5D10168143151E8002FB4
:1039C00022F0010241E80023002BF5D1016B01290F
:1039D00009D101680C3151E8002F22F0100241E8B2
:1039E0000023002BF5D1202180F842100021016333
:1039F000704701680C3151E8002F22F0C00241E805
:103A00000023002BF5D1202180F8411070470000E1
:103A100070B5044620680169E26821F44051114301
:103A20000161A16820690143606901432068C2689F
:103A300041F20C639A430A43C26020684169A2695B
:103A400021F44071114341611E492068884202D12E
:103A5000FDF7E6FE01E0FDF7D3FE00EBC00101EB50
:103A60000010616864228900B0FBF1F3B3FBF2F34C
:103A70006FF018067343B0FBF1F5B0FBF1F605EB00
:103A80008305322303EB0515B5FBF2F5B6FBF2F621
:103A900005F0F00505EB0615B0FBF1F6B0FBF1F013
:103AA000B0FBF2F06FF01801484306EB800003EB27
:103AB0000010B0FBF2F0216800F00F00284488608D
:103AC00070BD00000038014037B582B0044613468F
:103AD000039AA262A38500206064222184F8421028
:103AE000E56B1B49A962E56B1A49E962E56B1A4966
:103AF0002963E16B48632168E06B091DFDF7F6FB64
:103B00002068016840680190206948B120680C3045
:103B100050E8001F41F4807140E80012002AF5D1FE
:103B20002068143050E8001F41F0010140E8001205
:103B3000002AF5D12068143050E8001F41F0400100
:103B400040E80012002AF5D105B0002030BD000089
:103B50000139000887390008B7380008FEE700007F
:103B600030B505460C46002D01D0022C01D80020AE
:103B700030BD0A48A11E02882846FCF71FFD2919FE
:103B8000C2B211F8023C9A4206D111F8011CB1EB05
:103B9000102F01D1012030BD002030BD6000002079
:103BA00030B505460C46002D01D0022C01D800206E
:103BB00030BDFF22611E2846FCF718FD291911F8B7
:103BC000011C814201D1012030BD002030BD4900DF
:103BD00050EAC12018BF04204A0D18BF40F0010070
:103BE00040F2FF72B2EB515F08BF40F002000128C3
:103BF00008BF052070470907090E002804DB00F103
:103C0000E02080F80014704700F00F0000F1E02081
:103C100080F8141D70472DE9F0414F1E00EBC701DD
:103C20000446D1E9000115461E4637F006020DD0C4
:103C30002A46334602F0F8F97F1E04EBC703D3E9A6
:103C4000002301F05BFF37F00602F1D1022F25D0EF
:103C5000042F13D0062F18BFBDE8F0812A46334643
:103C600002F0E2F9D4E90A2301F048FF2A4633467C
:103C700002F0DAF9D4E9082301F040FF2A4633467E
:103C800002F0D2F9D4E9062301F038FF2A46334680
:103C900002F0CAF9D4E9042301F030FF2A46334682
:103CA00002F0C2F9D4E9022301F028FF2A46334684
:103CB00002F0BAF9D4E90023BDE8F04101F01EBFDB
:103CC000002213461046014901F0D4BF0000F03F26
:103CD00001F014BF002213461046114601F0CABF7E
:103CE00040F2013200204FF0E04103F08EB80000B6
:103CF000024A0020110703F088B8000001FDFFFF11
:103D0000074A064911600749C16007480021416020
:103D1000082202618160C160017570479D440008FE
:103D2000300000206C000020900600201CB50246E8
:103D3000D1E90403CDE900030888146883B2C86898
:103D40006A461946A0471CBDAFF300800A6882612D
:103D50004968C161817E012903D0C07E40B1012044
:103D60007047016A4162D0F81B1001620020704761
:103D7000002070470A7902714A7942710A7A027208
:103D8000096801600020704782B00A4AC16851602A
:103D90000421017401784174012181740099C0F8F3
:103DA00013109DF80410C1750146104602B0FFF7CC
:103DB000BDBF000030000020401A904201D2002018
:103DC00070470120704730B40A46D0E903310468D7
:103DD0001846A44630BC604730B40A46D0E90331E7
:103DE00044681846A44630BC6047083000F0AFB9BC
:103DF0000FB410B504461C2203A92046FCF7D2FAE2
:103E000040206077044820610448E0600448A060D6
:103E100010BC5DF814FB00001D4400082944000894
:103E20006D44000810B58CB00B480A9008220B496D
:103E30000068836AADF81830C06AADF81A0008A8A7
:103E400019C88DE819000392DDE906230448FFF73D
:103E5000CFFF0CB010BD0000BC00002000512502B7
:103E6000D0070020024A136898621068C163704747
:103E7000BC00002038B5044669462046FFF7B5FF70
:103E8000206A00990D1A142229460020FFF794FF9A
:103E9000C0B1142229464FF4C870FFF78DFFB0B1AE
:103EA000142229464FF46170FFF786FFA0B1142257
:103EB000294640F21450FFF77FFF002801D140202F
:103EC000607738BD0321204600F0BCF838BD0821DA
:103ED000204600F0B7F838BD0121204600F0E4F894
:103EE00038BD38B5044669462046FFF77EFF206A94
:103EF00000990D1A142229460020FFF75DFFC0B17A
:103F0000142229464FF49670FFF756FFB0B11422E1
:103F100029464FF42F70FFF74FFFA0B11422294616
:103F20004FF47A70FFF748FF002801D140206077F6
:103F300038BD0321204600F085F838BD0821204611
:103F400000F080F838BD0121204600F0ADF838BD02
:103F500038B5044669462046FFF747FF206A0099B6
:103F60000D1A142229460020FFF726FFC0B11422A3
:103F700029464FF49670FFF71FFFB0B1142229466F
:103F80004FF41670FFF718FFA0B1142229464FF422
:103F90007A70FFF711FF002801D14020607738BD0B
:103FA0000721204600F04EF838BD0421204600F0DD
:103FB00049F838BD0121204600F076F838BD38B503
:103FC000044669462046FFF710FF206A00990D1A43
:103FD000142229460020FFF7EFFEF8B114222946EB
:103FE0004FF49670FFF7E8FEE8B1142229464FF42B
:103FF000FA70FFF7E1FED8B1142229464FF4617040
:10400000FFF7DAFEC8B11422294640F21450FFF738
:10401000D3FE002801D14020607738BD032120461F
:1040200000F010F838BD0521204600F00BF838BD2F
:104030000A21204600F006F838BD0121204600F094
:1040400033F838BD70B50446084600F10B01182955
:1040500001D3022070BD01F094FF02460B460F48C9
:104060000F4900F03BFA00220E4B01F0DDFF01F09A
:1040700013FD0546A1882068B0FBF1F002F0CEFCEC
:10408000294602F081FB02F091FC81B2E18004F14B
:104090000800BDE87040FFF79FBE00006379D99229
:1040A0008FF3F03F00807B40002903D0012901D02D
:1040B000022070470830FFF786BE427F8A4202D94D
:1040C0004177002070470120704770B50446607F3B
:1040D000A17F88420AD0402808D000212046FFF75F
:1040E000E3FF04F120012046FFF77FFE627F052AEF
:1040F00020D005DC6AB1012A17D0022A04D122E0BF
:10410000062A1CD0402A0AD00125607FA077E8B299
:1041100070BD01212046FFF7C7FF0546F5E70121E5
:104120002046FFF7C1FF0546EFE72046FFF747FFB0
:104130000546EAE72046FFF7D4FE0546E5E72046B8
:10414000FFF798FEE1E72046FFF702FFDDE7826810
:104150000846104730B5039C002505604560856022
:10416000C560E5071CD05D0945EA42120260C9003E
:1041700041EAC3214160610702D54FF4FF61C1608C
:10418000610606D540F2FF718160C16841F4784153
:10419000C160E10603D5816841F47841816030BD9A
:1041A000A207FCD54901016041606107F7D54FF6D0
:1041B000E0718160C16030BD2DE9F04F87B0DFF85C
:1041C00020A1DAF8FC0101F0DCFECDE9051004467F
:1041D0000D46444A444B01F027FF22462B4601F08E
:1041E00023FF04460D46BAF9480201F0CAFE834691
:1041F00006460F463D4A3E4B049101F015FF3246FC
:104200003B4601F011FF0F46DDE904910646D84612
:10421000384A394B069801F007FF42464B4601F0F9
:1042200003FF32463B4601F069FC22462B4601F073
:1042300065FC4FF02042314B01F060FC01F02CFC9A
:10424000DFF8BCB0CBF820000390DAF8940001F05E
:1042500098FECDE9011004460D46224A224B01F09A
:10426000E3FE22462B4601F0DFFE04460D46BAF976
:10427000E00001F086FE824606460F461B4A1C4BB4
:10428000009101F0D1FE32463B4601F0CDFE0F46D3
:10429000DDE900910646D046164A174B029801F018
:1042A000C3FE42464B4601F0BFFE32463B4601F09C
:1042B00025FC22462B4601F021FC4FF020420F4BFB
:1042C00001F01CFC01F0E8FBCBF81C000146039850
:1042D00002F0E6F9CBF8180007B0BDE8F08F000057
:1042E00078020020FCAFED507880833E3352157188
:1042F0003F82803E9C78ADDA49C0C03EC64BF13F5C
:10430000A0070020FDF73AF9FFF75EF9FEF784FCFD
:10431000FEF764FCFEF71EFCFEF73EFCFEF722FDF6
:10432000FEF7B2FCFEF752FD00F030F81248FCF741
:10433000F4FD1248FCF7F1FD02210F48FCF764F987
:1043400002210E48FCF760F910210B48FCF75CF9DC
:1043500010210A48FCF758F9FFF764FDFEF712FE3A
:1043600001210748FFF7A9FE0648FDF7ABFD08212C
:104370000548FDF7C3FFFEE76C0000209400002015
:10438000D007002004010020BC00002070B5A0B0C0
:1043900001241E9400251B951C951D941A95062634
:1043A00000231A4640F2012116A80096FFF7D2FE1C
:1043B00000231A4640F2022116A80096FFF7CAFE13
:1043C00016A91448FCF7A4F914940720119012952B
:1043D0001394109400231A460C210CA80096FFF7A2
:1043E000B9FE0CA90B48FCF793F90A9408950994B7
:1043F00006950F2007900520002300901A461C21E7
:1044000002A8FFF7A7FE02A90348FCF781F920B034
:1044100070BD00006C0000209400002010B5044620
:10442000FDF79EF8206010BD0368DA6203230029BF
:104430000AD004290ED0082912D0B2FBF3F100688B
:1044400049000164C8B27047B2FBF3F1006849004B
:104450004163F7E7B2FBF3F1006849008163F1E7DC
:10446000B2FBF3F100684900C163EBE710B5002A25
:1044700003D0012A04D0022010BDFDF73FFF01E068
:10448000FDF798FFC0B210BD024B1960024B014905
:10449000FCF7CCB87806002020000020024B196001
:1044A000024B0149FCF7C2B8900600202C00002006
:1044B00070B504461546074841602046FCF73AFAB5
:1044C0000028FAD02A462046BDE87040024B014938
:1044D000FCF7ACB8C80600203C0000202DE9F04DE8
:1044E0001D460C4698B0174621F0004123F00043CA
:1044F000002814BF4FF0010C4FF0000C0CEB440CE3
:10450000FE4A0CEB02064FEA620C66452BD33E00D6
:1045100018BF012606EB45061644F94A964222D3F7
:10452000F84A53EA070C02D0944205D148B918B0B2
:1045300000201146BDE8F08D002808BF4FF0000CA8
:1045400001D04FF0010C0CEB440212F5001F0AD809
:10455000002F14BF4FF0010C4FF0000C0CEB450284
:1045600012F5001F07D918B03A462B462146BDE880
:10457000F04DFFF7ADBB0022DFF88CA3002CB8BFD5
:10458000534526DADFF884C36345A8BF022220DA48
:10459000DFF870C39C451CDCDFF874C30CEB235CB4
:1045A000BCF1140F08DDCCF1340627FA06FC0CFA36
:1045B00006F6BE420DD108E05FB9CCF1140623FA2D
:1045C00006FC0CFA06F69E4203D10CF00102C2F181
:1045D000020251EA000C19D1002D17DA002C18BF85
:1045E000022A01D0012A07D00220FBF73CFF18B0B5
:1045F000BDE8F04DFFF764BB0220FBF734FFFFF787
:104600005FFB18B081F00041BDE8F08DB7F1000C00
:104610006CD1534525D104F1804212F5801201BFBF
:1046200000280020B74918B008BFBDE8F08DB54894
:10463000884207DC002DA1BF6046294618B0BDE8BE
:10464000F08D07E0281E05DA80F0004118B06046C2
:10465000BDE8F08DAF497944D1E9000118B0BDE85B
:10466000F08DDFF8A0C2634525D1002D1FDA19B106
:10467000514512D1D8B909E0002840F0EC82A24A95
:10468000214618B062F31E01BDE8F08D00202146DE
:1046900018B060F31E01BDE8F08D08DA18B02346AB
:1046A000BDE8F04D02460020614601F0E3BA18B0C3
:1046B0002146BDE8F08D514518DAB5F1804F0DD097
:1046C000A5F1005CBCF1FF5C10D1B4F1000C0DDB76
:1046D00018B06146BDE8F04D00F08EBD234618B01D
:1046E0000246BDE8F04D194601F09EBC060024F0DC
:1046F000004C3BD1D9B1514533D1002C06DD002D02
:10470000A1BF0020514618B0BDE8F08D002C01DD9E
:10471000002D1BDB002C13DA002D11DB012A4FF0DA
:10472000000014BF78497C4918B0BDE8F08D022A1A
:1047300018BF002C0AD0012A08D1002C06DA0AE0A2
:10474000002CB8BF002D11DA012A04D0002018B0C7
:104750000146BDE8F08D18B000204FF00041BDE8E3
:10476000F08DA1F14050B0F17F601AD0012000EB34
:10477000E47050EA020421D0624C521E4FF0000B4C
:10478000104304BF4FF0000B644C654883427CDD4E
:10479000644A654893421FDD884217DB002D25DB04
:1047A00037E0002C00DA4AB1022A0CBF01204FF09A
:1047B000FF3018B0BDE8F04D01F0E3BB0120FBF77E
:1047C00052FE18B0BDE8F04DFFF784BA4D4A8A4258
:1047D00002DC002D0ADC1CE0814202DA002D18DA2E
:1047E00004E0484B994220DD002D12DD0220FBF74A
:1047F0003AFEFFF775FA05460E4600225346584624
:10480000214601F011FC18B066F31E012846BDE8F0
:10481000F08D0220FBF727FEFFF76AFA0A462146D1
:1048200018B062F31E01BDE8F08D002230466146EB
:1048300001F020FE80460E466FF0010202F0E5FA1C
:104840004FF05532394B01F023FD4246334601F01B
:10485000EBFB0022364B01F01BFD824642463346FD
:1048600004911046194601F0DFFB5246049B01F00B
:10487000DBFB8A4600904FF0C0422E4B404631464B
:1048800001F0D2FB2C4A2B4B00E027E0CDE90601DA
:104890005146009801F0C8FB82460191274A284BF7
:1048A0004046314601F0C0FB5246019B01F0E2FD5B
:1048B00082460B4602460591DDE9060101F01EF92C
:1048C000DDE9062300268846304601F0D3FD524636
:1048D000059B01F0DDFC024600F07EB90020B1F539
:1048E000801F07DA35223046614602F08EFA06460E
:1048F0006FF0340000EB215024E00000FFFF1F00A8
:10490000FFFF0F000000F03F0000F07F0000404379
:1049100001FCFFFF462C00000000F0FF0000F0BF8C
:104920000000E0410000F043FFFFEF3F5555D53F49
:104930000000E03F4715F73FFE822B6544DF5DF83E
:104940000BAE543EA0F2FF300190C1F3130040F0D3
:104950007F6141F040510291FE498842D8BF00205A
:1049600004DDFD498142C8BF012001DD0D9008E052
:1049700000200D900198401C01900298A0F5801035
:1049800002900299F54878440B910D9900EBC10013
:10499000D0E900230F9330460A920B9901F06AFD8B
:1049A000CDE90601DDE90A2130460F9B01F0A6F8AA
:1049B00002460B460020EA4901F05CF905910246E7
:1049C0000B460090DDE9060101F02EFB1490E5484E
:1049D0008A464FF0000878440299006812904FF020
:1049E000005040EA61010D980F9B01EB804000F5FB
:1049F000002109910A9A129801F03CFD32460B9B66
:104A000001F046FC4246534601F00EFB0646029179
:104A100040465146099B129A01F006FBDDE9062348
:104A200001F036FC3246029B01F024FD059B009A02
:104A300001F0FAFA0091149A049053461046194670
:104A400001F0F2FA06460246C7480B4602910621DB
:104A50007844FFF7E0F8CDE90510029B3246104696
:104A6000194601F0E1FADDE9053201F0DDFA0591C0
:104A70000646534640461946149A01F03FF8009BFB
:104A8000049A01F0D1FA3246059B01F037F8CDE9DE
:104A90000510424653461046194601F0C5FA002259
:104AA000B24B02910A9001F029F8DDE9053201F0DC
:104AB00025F80E464246AD4B404601F0DBFC029B1A
:104AC0000A9A01F0D7FCDDE9053201F0E1FB42462C
:104AD00002910A9033461046514601F0A5FACDE9FD
:104AE00006015346149A02990A9801F09DFA8A46E3
:104AF0000290334642460099049801F095FA5346D5
:104B0000029A00F0FBFF82460B4602460591DDE962
:104B1000060100F0F3FFDDE9062300208846064683
:104B200001F0A8FC5246059B01F0B2FB82460991B8
:104B30004FF060428E4B3046414601F075FA0490CA
:104B400006918C4A8A4B5046099901F06DFA8246CB
:104B50000291894A894B3046414601F065FA524636
:104B6000029B00F0CBFF864B7B440D9A03EBC20304
:104B7000D3E9002300F0C2FF0E900791019801F0E5
:104B800000FA0591DDE9061382460E9A049800F0BA
:104B9000B5FF7C4A7A440D9B02EBC303D3E90023A3
:104BA0000093029200F0AAFF5246059B00F0A6FF78
:104BB0000026884652463046059B01F05BFC009B70
:104BC000029A01F057FC069B049A01F053FC079BE4
:104BD0000E9A01F05DFB024600200B46029038461B
:104BE000294601F021FA824601912B4638461946A2
:104BF000029A01F03FFC3246434601F015FA524654
:104C0000019B00F07BFF07468A4632464346294611
:104C1000029801F009FA05460E463A46534600F05E
:104C20006DFF594A8846914221DBA8EB020353EA03
:104C3000000210D12A46334601F01CFCCDE90401E4
:104C4000524A534B3846514600F058FFDDE90423E1
:104C500001F0E8FA21D20220FBF705FCFFF740F84B
:104C60000A46214618B062F31E01BDE8F08D494B9B
:104C700028F000429A4210D3474A08EB020353EA55
:104C800000027FF4C6AD2A46334601F0F3FB3A46F4
:104C9000534601F0C7FA7FF6BCAD0022019228F01E
:104CA00000403E493E4A01EB2051824223DA481C33
:104CB0004FF4801121FA00F040443A4AC0F30A51FF
:104CC0007A44394BA1F2FF31CB4020EA0303C0F311
:104CD000130040F48010C1F11401C8401268019023
:104CE000B8F1000FBCBF404201902846314601F0A8
:104CF000C1FB05460E462A4633463846514600F06B
:104D0000FDFE4FF000084246284B4046059101F059
:104D10008BF9CDE90601264A264B4046059901F05C
:104D200083F9009102902A4633464046059901F0E6
:104D3000A1FB3A46534601F0ABFA1F4A1F4B01F064
:104D400073F9009B029A00F0D9FE07468846024696
:104D50000B4635E08E9803007AB60B008E280000D3
:104D60000000F03FC6280000F427000000000840C3
:104D700009C7EE3FFD033ADCF5015B14E02F3EBEB0
:104D8000CC2600009026000000009040FE822B659B
:104D90004715973C00CC904000346F3F01FCFFFF6B
:104DA0000000E03FDC250000FFFF0F00432EE63F40
:104DB000396CA80C615C20BEEF39FAFE422EE63F4A
:104DC000DDE9060100F09AFEDDE9062305460E4600
:104DD00001F050FB3A46434601F05AFA0F462A4684
:104DE000334600901046194601F01EF982460246ED
:104DF0002E4888460B4605217844FEF70CFF5246A4
:104E0000434601F011F92A46334601F041FA804643
:104E10008A463B4628463146009A01F005F93B4652
:104E2000009A00F06BFE0691009000224FF0804344
:104E30004046514601F01EFB0F460C904246534639
:104E40002846314601F0F0F83B460C9A00F012FF7C
:104E5000069B009A01F00EFB2A46334601F00AFB3E
:104E60000022134B01F014FA054601980E4601EB9F
:104E700000510815002810DC28463146019A01F03F
:104E8000C4FFFEF7A4FE042808BFFEF731FF284642
:104E90003146019A01F0B9FF05460B4618B02A4683
:104EA00058462146BDE8F04D01F0BEB87C24000014
:104EB0000000F03F2DE9FE4FC04CD4F818A0276841
:104EC0005146384601F060FC054620612946E069FC
:104ED00001F0ECFD6062226A29461046029201F060
:104EE000E5FD8346A062B648B0F94862304601F05D
:104EF00048F889468046B34AB34B01F095F800F074
:104F0000CBFDB249086044464D4640464946B04A4A
:104F1000B04B01F089F822462B4601F085F800F0ED
:104F2000BBFD594601F0CAFEAB4901F0B9FBA749E8
:104F30004860A348D0F8FC41304601F022F8894689
:104F40000546A34AA34B01F06FF82A464B4601F0F1
:104F50006BF800F0A1FD06463846514601F014FCFE
:104F6000029A0146104601F0A1FD0146304601F0CB
:104F7000A5FE994901F094FB01F066FBDFF85C8225
:104F8000974B424601F050F80F4606468D4A8E4B2D
:104F90002846494601F048F800F07EFD014601F040
:104FA00085FD01F051FB32463B4601F063FA002CCF
:104FB00028DD864C00F070FDFDF7F4FF216801F05C
:104FC0007DFE01F041FB4246864B00F053FE00F0AF
:104FD00063FD0646A0607A4DD5F8FC0101F006FDA0
:104FE000314601F02FFD37D97F49A068884204DDA2
:104FF0004FF47A50C5F8FC012EE001F0BBFCC5F877
:10500000FC0129E0714C00F047FDFDF7CBFF0146A4
:10501000206880F0004001F051FE01F015FB42468F
:10502000704B00F027FE00F037FD0646A060644D8F
:10503000D5F8FC0101F0DAFC314601F003FE0BD992
:105040006A49A068884203D96948C5F8FC0103E0B1
:1050500001F090FCC5F8FC01DFF86491B9F9E000BB
:1050600000F08FFF8346574A574B019100F0DCFF59
:1050700000F012FDDFF854A1CAF80C0000904F4870
:10508000406A01F0E1FA019D06460F465C4658462B
:1050900029464F4A4F4B00F0C7FF22462B4600F0EF
:1050A000C3FF32463B4601F0E5F94FF02042514B39
:1050B00000F024FD00F0F0FCCAF81000D9F89410BC
:1050C00000293CDD01F0C0FA4246454B00F0ACFF40
:1050D0000D4600990446084601F0E8FC01F0B4FAD8
:1050E00022462B4601F0C6F900F0D6FCFDF75AFF28
:1050F000DAF80C1001F0E2FD01F0A6FA4246394B55
:1051000000F0B8FD00F0C8FC0446CAF81400D9F855
:10511000940001F06BFC214601F094FC08D932495F
:10512000DAF81400884205DD4FF47A50C9F894008B
:10513000BDE8FE8F01F01EFCC9F89400F8E701F00D
:1051400083FA4246264B00F06FFF0D460099044655
:10515000084601F0ABFC01F077FA22462B4601F03D
:1051600089F900F099FCFDF71DFF0146DAF80C0003
:1051700080F0004001F0A2FD01F066FA4246194BB2
:1051800000F078FD00F088FC0446CAF81400D9F855
:10519000940001F02BFC214601F054FDC8D91349BD
:1051A000DAF81400884203D91148C9F89400BFE71F
:1051B00001F0E0FBC9F89400BAE70000A007002066
:1051C000780200209C78ADDA49C0C03E480000203B
:1051D000FCAFED507880833E355E8A3F33521571C7
:1051E0003F82A03E3F82903E00007A4600007AC691
:1051F00080C1FFFFC64BF13F2DE9F04106460F4647
:1052000001F052F8041E0D4618BF0120284320F07B
:105210000040C0F17F6000F1E040C00F0ED0301CB4
:1052200018BF0120384320F00040C0F17F6000F13A
:10523000E040C00F04BF0120FBF715F920462946C6
:10524000BDE8F0810FB42DE9F04188B007468846EB
:105250009DF842109DF84340DDF845000690DDF8CA
:10526000490007900025049505958DF81010BDF8AC
:105270001800ADF81400BDF81A00ADF81200404651
:1052800000F0C1FA0290059800902A461748049B46
:10529000029900F084FA0646049505958DF81040B1
:1052A000BDF81C00ADF81400BDF81E00ADF81200EA
:1052B0002146404600F0A7FA0290059800902A4641
:1052C0000A48049B029900F06AFA46EA0020ADF809
:1052D00042001F208DF844000E2210A93846FBF72B
:1052E0001CF808B0BDE8F0015DF814FBE0060020F2
:1052F0000FB410B51F218DF814100A4A08E001EB15
:10530000410404AB02EBC4040B44247A5C71491CD5
:105310000829F4DB0E2204A9FAF7FFFF10BC5DF8A0
:1053200014FB0000E00600200FB470B505461F20F6
:105330008DF81C00BDF81A00002813D0002406A820
:105340002044417919B14179144800F011FA641CE4
:10535000082CF4DB0E2206A92846FAF7DEFF70BC03
:105360005DF814FB08240D4EBDF81A10C4F10800B6
:1053700080F00202114206D000EB400006EBC000B4
:105380001821FBF741F8641EE4B2002CECD10E2288
:1053900006A92846FAF7C1FFE1E70000E006002071
:1053A0000FB430B58DB005460C469DF84A200A92E0
:1053B0009DF84B100B91012A06D0022A12D0032A25
:1053C0001ED0042A39D12AE007911C2204F13001B1
:1053D0006846FAF7E7FF20340FCC00F040F8CDE93B
:1053E00008012AE007911C2204F15C016846FAF7E3
:1053F000D9FF4C340FCC00F032F8CDE908011CE0A5
:1054000007911C2204F5CC716846FAF7CBFF04F52E
:10541000C4740FCC00F023F8CDE908010DE007912A
:105420001C2204F5E2716846FAF7BCFF04F5DA7451
:105430000FCC00F014F8CDE908010898CDF84D0024
:105440000998CDF851001F208DF84C000E2212A9AA
:105450002846FAF762FF0DB030BC5DF814FB0FB4BC
:105460001FB51198002202920392099901910A999D
:10547000009101280ED0022815D003281CD0042842
:105480002BD0002002900390DDE9020104B010BC93
:105490005DF814FBBDF82C00ADF80800BDF82E0037
:1054A000ADF80A00F0E7BDF81C00ADF80800BDF843
:1054B0003400ADF80A00E7E7BDF81E00ADF80800BB
:1054C000BDF83600ADF80A00BDF80400ADF80C00D8
:1054D000BDF80000ADF80E00D6E7BDF83A00ADF813
:1054E0000800BDF83E00ADF80A00CDE70FB470B576
:1054F00006460D461F208DF81C000DF11A00C4B29F
:1055000021782846FDF7E4FF61782846FDF7D4FFAF
:105510000020A8710E2206A93046FAF7FEFE70BCE4
:105520005DF814FB0FB470B506460D461F208DF8CC
:105530001C000DF11A00C4B221782846FDF7C8FFFF
:1055400061782846FDF7B8FF0120A8710E2206A950
:105550003046FAF7E2FE70BC5DF814FB0FB41FB5DD
:10556000044608469DF8223002939DF823200392BA
:10557000DDF825100091DDF829100191012B06D0EE
:10558000022B09D0032B0CD0042B15D10FE0694658
:10559000203000F01CF80FE069464C3000F017F89E
:1055A0000AE0694600F5C47000F011F804E06946AD
:1055B00000F5DA7000F00BF81F208DF824000E22A1
:1055C00008A92046FAF7A9FE1FBC5DF814FB1CB51C
:1055D000002400940194012A09D0022A0CD0032A45
:1055E0000FD0042A16D00020009001901CBD0A881C
:1055F00082824988C1821CBD0A8882804988818351
:105600001CBD0A88C2804A88C2838A888281C98870
:1056100001821CBD0A8842844988C1841CBD0000E7
:105620000FB47CB506460C4603208DF82400DDF847
:1056300025000090DDF829000190BDF8220001F05E
:10564000EDF90F4901F0A0F860610E4D0198286056
:10565000BDF800102046FDF747FFBDF802102046B8
:10566000FDF745FF0020CDF82900A869CDF82500F9
:105670000E2208A93046FAF750FE7CBC5DF814FBF8
:105680000000C842A0070020002101EB410200EB0E
:10569000C202127C22B1491C0829F6DB082070479F
:1056A000C8B27047002202EB420300EBC3031B7C2D
:1056B0008B4201D101207047521C082AF3DB0820DD
:1056C000704700002DE9FF4100798DF801001E2090
:1056D0008DF804000024244E244D04EB440106EB15
:1056E000C100037C23B14288012A05D0521E4280AA
:1056F000287802281DD029E0077917B936F831201B
:105700009AB12A788068EC460CEB4218007888F849
:1057100005000CEB4200837027B936F83100401EBB
:1057200026F83100521C2A70E2E71821FAF76CFEC5
:10573000DEE70E486946083000F0A0F90020CDF8F9
:105740000500CDF80900ADF802002870641C082C93
:10575000C3DB2878002804D004486946083000F0EC
:105760008DF904B0BDE8F081E0060020380000208B
:1057700010B5002202EB420300EBC3031B7C8B42FB
:1057800008D102EB420100EBC1001821FAF73CFE00
:10579000002010BD521C082AECDB052010BD0FB400
:1057A000F0B505462846FFF76FFF0446082C28D0C1
:1057B0009DF820102846FFF775FFBDF82210012341
:1057C0000A4608280FD000EB400005EBC00006ACED
:1057D0000830F0CCF0C01838418002B903710420C1
:1057E000F0BC5DF814FB04EB440005EBC00006AC14
:1057F0000830F0CCF0C01838418002B903710020A5
:10580000EEE70320ECE7012907D0022908D003299D
:1058100008D0042909D00020704700F5C3707047F4
:105820001C30704700F515707047EC307047000071
:10583000094808490160094941600948002101609F
:1058400041600822026104228260C1600175FDF797
:10585000F1BB0000B144000840000020940000208B
:10586000C80600201FB51368CDF805305268CDF882
:105870000920CDF801100E226946FAF74EFD1FBD32
:1058800000B58BB00A46014603A8FFF7EBFF03A85B
:105890000FC8CDE90923CDE907019DF81D00FDF7EB
:1058A000D3FB72490A687249CA60724A12680A6177
:1058B00001224A7268B19DF820000B2859D00BDCF8
:1058C00000287CD001287BD0032869D00A2809D180
:1058D00038E002200BB000BD0C2872D0112803D094
:1058E000122818D00220F5E79DF81D00FDF7ACFB4B
:1058F000014609980090BDF82800ADF80400DDE9E4
:10590000072303A8FFF74CFD03A80FC8CDE909231F
:10591000CDE90701A3E09DF81D00FDF795FB0146C9
:1059200009980090BDF82800ADF80400DDE90723D0
:1059300003A8FFF713FE03A80FC8CDE90923CDE99B
:1059400007018CE09DF81D00FDF77EFB01460998DC
:105950000090BDF82800ADF80400DDE9072303A896
:10596000FFF770FC03A80FC8CDE90923CDE90701B3
:1059700075E09DF81D00FDF767FB01460998009052
:10598000BDF82800ADF80400DDE9072303A8FFF700
:10599000CBFC03A80FC8CDE90923CDE907015EE0E0
:1059A0009DF81D00FDF750FB014609980090BDF8D9
:1059B0002800ADF80400DDE9072303A802E00AE0AF
:1059C00020E036E0FFF72CFE03A80FC8CDE909233D
:1059D000CDE9070143E09DF81D00FDF735FB0146C9
:1059E00009980090BDF82800ADF80400DDE9072310
:1059F00003A8FFF77BFD03A80FC8CDE90923CDE974
:105A000007012CE09DF81D00FDF71EFB01460998DB
:105A10000090BDF82800ADF80400DDE9072303A8D5
:105A2000FFF780FD03A80FC8CDE90923CDE90701E1
:105A300015E09DF81D00FDF707FB01460998009051
:105A4000BDF82800ADF80400DDE9072303A8FFF73F
:105A50004FFC03A80FC8CDE90923CDE9070107A929
:105A6000054800F00BF8002034E700001400002087
:105A700078020020180000204000002038B50C46B5
:105A800061788DF80010D0E90053621D1846009926
:105A9000A847207038BD000021F00042A2F16052FA
:105AA000B2F5801F01F0004328BFD2F17F6C0BD903
:105AB0005FEA001C43EAC20242EB507018BF704715
:105AC00028BF20F001007047B2F5801FBCBF184608
:105AD00070474FEA410C1CF5001F02D2084601F046
