:020000040800F2
:10000000E83A0020690200085D8D000801730008CD
:10001000598D0008250A000861F60008000000005C
:1000200000000000000000000000000001C4000803
:10003000951A000800000000A591000803C40008FC
:10004000830200088302000883020008830200087C
:10005000830200088302000883020008830200086C
:1000600083020008AF1B0008B91B000883020008C8
:100070004910000883020008830200088302000878
:10008000830200088302000883020008D10A0008E6
:10009000C10A00088302000883020008C31B00088D
:1000A000D5C4000883020008830200088302000808
:1000B00083020008E5C400088302000883020008E8
:1000C00083020008830200088302000883020008FC
:1000D000830200088302000883020008E5D10008BB
:1000E00083020008830200088302000883020008DC
:1000F00083020008830200088302000883020008CC
:1001000083020008830200088302000883020008BB
:1001100083020008830200088302000883020008AB
:10012000830200085910000869100008011900082E
:10013000830200088302000883020008A10B000864
:10014000910B00088302000883020008618D0008FB
:1001500083020008111900088302000829D300084F
:10016000830200088302000883020008830200085B
:1001700083020008830200088302000800000000D8
:10018000830200088302000800F002F800F05CF827
:100190000AA090E8000C82448344AAF10107DA45E2
:1001A00001D100F051F8AFF2090EBAE80F0013F0D8
:1001B000010F18BFFB1A43F0010318473C3C010034
:1001C0005C3C01000A444FF0000C10F8013B13F0B6
:1001D000070408BF10F8014B1D1108BF10F8015BA0
:1001E000641E05D010F8016B641E01F8016BF9D193
:1001F00013F0080F1EBF10F8014BAD1C0C1B09D1EA
:100200006D1E58BF01F801CBFAD505E014F8016B5B
:1002100001F8016B6D1EF9D59142D6D370470000ED
:100220000023002400250026103A28BF78C1FBD8FF
:10023000520728BF30C148BF0B6070471FB513F08D
:1002400062FB1FBD10B510BD00F07CF91146FFF731
:10025000F5FF12F02BFB00F09AF903B4FFF7F2FF61
:1002600003BC00F09DF90000094880470948004799
:10027000FEE7FEE7FEE7FEE7FEE7FEE7FEE7FEE756
:10028000FEE7FEE704480549054A064B70470000B3
:10029000C1C4000889010008E8340020E83A0020C1
:1002A000E8360020E836002053EA020C00F06980AE
:1002B0002DE9F04B4FF00006002B1FBFB3FA83F57A
:1002C00003FA05F424FA05F65E4012BF1643B2FAAB
:1002D00082F502FA05F4C5F120051EBF22FA05FCDD
:1002E00044EA0C04203556EA044C4FEA144418BF83
:1002F000641C4FF000084FF00009904271EB030CB2
:1003000039D3002919BFB1FA81F701FA07F6B0FA1B
:1003100080F700FA07F6C7F120071EBF20FA07FC96
:1003200046EA0C062037B6FBF4FCA7EB0507103FA6
:1003300007F01F0BCBF120060CFA0BFB2CFA06F68C
:1003400044BFB3460026202FA4BF5E464FF0000BEB
:100350005BEA060C08BF4FF0010B19EB0B09ABFB76
:10036000027C48EB0608C01B06FB02CC0BFB03CC4F
:1003700071EB0C01C1E70B46024641464846BDE819
:10038000F08B13B54FF000004FF00001AFF3008089
:10039000BDE81C407047032A40F2308010F0030C87
:1003A00000F0158011F8013BBCF1020F624498BFC8
:1003B00011F801CB00F8013B38BF11F8013BA2F165
:1003C000040298BF00F801CB38BF00F8013B11F0E0
:1003D000030300F02580083AC0F0088051F8043B80
:1003E000083A51F804CBA0E80810F5E7121D5CBFED
:1003F00051F8043B40F8043BAFF30080D20724BF20
:1004000011F8013B11F801CB48BF11F8012B24BFB3
:1004100000F8013B00F801CB48BF00F8012B704702
:1004200010B5203AC0F00B80B1E81850203AA0E88F
:100430001850B1E81850A0E81850BFF4F5AF5FEAC3
:10044000027C24BFB1E81850A0E8185044BF18C976
:1004500018C0BDE810405FEA827C24BF51F8043B1D
:1004600040F8043B08BF7047D20728BF31F8023B71
:1004700048BF11F8012B28BF20F8023B48BF00F805
:10048000012B70474FF000020429C0F0128010F0D9
:10049000030C00F01B80CCF1040CBCF1020F18BF60
:1004A00000F8012BA8BF20F8022BA1EB0C0100F0F3
:1004B0000DB85FEAC17C24BF00F8012B00F8012BC6
:1004C00048BF00F8012B70474FF0000200B51346FB
:1004D00094469646203922BFA0E80C50A0E80C5064
:1004E000B1F12001BFF4F7AF090728BFA0E80C5015
:1004F00048BF0CC05DF804EB890028BF40F8042B0E
:1005000008BF704748BF20F8022B11F0804F18BF7A
:1005100000F8012B704770477047704710B500F026
:1005200009F8006810BD10B5044600F003F8046037
:1005300010BD000000487047883400200048704714
:10054000883400207546FFF7F9FFAE46050069467E
:10055000534620F00700854618B020B5FFF792FEFD
:10056000BDE820404FF000064FF000074FF00008B4
:100570004FF0000B21F00701AC46ACE8C009ACE835
:10058000C009ACE8C009ACE8C0098D46704710B599
:100590000446AFF300802046BDE81040FFF75DBE83
:1005A00001491820ABBEFEE726000200704700009C
:1005B000B7EE000A80ED000A9FED060A80ED010A01
:1005C0009FED040A80ED020A9FED020A80ED030A06
:1005D00070470000000000002DE9F0412DED028B76
:1005E0000646B0EE408A0C4615461F4695ED023A87
:1005F000F0EE432A95ED013AB0EE432A95ED003A2C
:10060000F0EE431A94ED023AB0EE431A94ED013A3B
:10061000F0EE430A94ED003AB0EE430A9FED064A2D
:10062000DFED053A9FED043A304607F041FFBDEC9F
:10063000028BBDE8F08100000000000030B50546E7
:100640000C46002D0DD0022C0BD94FF6FF72A11EC7
:10065000284601F031FF291901F8020C000A01F8BF
:10066000010C30BD10B501221021024803F0DCFD61
:1006700010BD00000000024010B500221021024809
:1006800003F0D2FD10BD00000000024070470000E2
:1006900010B501221146024803F0C6FD10BD00004E
:1006A0000004024010B500220121024803F0BCFD05
:1006B00010BD00000004024010B543781B021BB2BD
:1006C0000478234300EE103AB8EEC01A1C4BD3ED69
:1006D000001A21EE211A81ED001AC3781B021BB209
:1006E0008478234300EE103AB8EEC01A144BD3EDD1
:1006F000001A21EE211A81ED011A43791B021BB267
:100700000479234300EE103AB8EEC01A0C4BD3ED37
:10071000001A21EE211A81ED021A037A1B04C47912
:1007200043EA04238479234300EE903AB8EE601A3A
:10073000DFED041A21EE211A82ED001A10BD00002F
:100740000000002000401C42704710B504462046BF
:1007500011F024FB10BD10B50446204611F046FBF5
:1007600010BD00004278120212B203781A4300EE64
:10077000102AF8EEC00A144A92ED001A60EE810ABF
:10078000C1ED000AC278120212B283781A4300EE59
:10079000102AF8EEC00A0C4A92ED001A60EE810AA7
:1007A000C1ED010A4279120212B203791A4300EE36
:1007B000102AF8EEC00A044A92ED001A60EE810A8F
:1007C000C1ED020A704700000400002010B50024AB
:1007D000FFF75CFFFFF7B8FF10F0F2FD10B144F037
:1007E000800402E010F052FD044310F0E1FF10B16C
:1007F00044F0400402E010F061FF0443204610BDC5
:100800002DE9FC4105460E46174600200090019058
:10081000FFF732FF922000F0D1F80622694612203D
:1008200000F0ACF8FFF71EFF9DF80100000200B2D7
:100830009DF8001040EA010400EE104AB8EEC00A2C
:100840004C48D0ED000A20EE200A86ED000A9DF803
:100850000300000200B29DF8021040EA010400EE1D
:10086000104AB8EEC00A4348D0ED000A20EE200A34
:1008700086ED010A9DF80500000200B29DF8041003
:1008800040EA010400EE104AB8EEC00A3948D0ED43
:10089000000A20EE200A86ED020AFFF703FF082275
:1008A0006946002000F06AF8FFF7F2FE9DF80000AC
:1008B0000F2838D19DF80300000200B29DF8021005
:1008C00040EA010400EE104AB8EEC00A2A48D0ED12
:1008D000000A20EE200A85ED000A9DF805000002BE
:1008E00000B29DF8041040EA010400EE104AB8EE90
:1008F000C00A2148D0ED000A20EE200A85ED010A49
:100900009DF80700000200B29DF8061040EA0104BD
:1009100000EE104AB8EEC00A1748D0ED000A20EEEB
:10092000200A85ED020AFFF7A7FEA22000F046F894
:1009300002226946222000F021F8FFF793FE9DF87D
:100940000000C0009DF8011040EA6114B4F5806F0A
:1009500002DBA4F5006004B200EE104AF8EEC00A13
:10096000B4EE001AB3EE070A00EE810A87ED000A22
:10097000BDE8FC81000000200400002070B50646A0
:100980000C46154646F0800000F018F806E05520A9
:1009900000F014F82070641C681EC5B2002DF6D15A
:1009A00070BD70B504460D4644F0800000F006F8B6
:1009B000552000F003F8287070BD000001B582B02A
:1009C0004FF47A70012301AA02A90090024805F0B1
:1009D0001BFB9DF804000EBDE807002010B5024681
:1009E0001378DB00547843EA6410B0F5806F02DBC3
:1009F000A0F5006318B200EE100AF8EEC00AB4EEDB
:100A0000001AB3EE070A00EE810A81ED000A10BD5C
:100A100070B505460C462846FFF7D0FF2046FFF785
:100A2000CDFF70BD00BFFEE710B504462068A0F200
:100A30000120A0B1012802D0042830D11FE004F128
:100A40001C01194807F01EF9184841881848C0F8D9
:100A50003411164801881648C0F838111FE004F117
:100A60001C01144807F00EF9104841881048C0F8DE
:100A7000C8120E4801880E48C0F8CC120FE004F1ED
:100A80001C010D4801F0F4FB084841880B48C0F8F0
:100A90000C13064801880948C0F8101300BF00BFB6
:100AA00000BF00BF10BD0000700D00207E030020BD
:100AB000480C0020040F002068120020740F002052
:100AC00010B5024802F013FD10BD000044070020DD
:100AD00010B5024802F00BFD10BD000044070020D5
:100AE00010B5044640F253122068811A90422BD070
:100AF00005DCF12829D0A0F2511018BB23E0AE2963
:100B00000FD0B32935D104F11C011C4801F0B0FB12
:100B10001B48418819488161194801881748C161FB
:100B200027E004F11C01174807F0ACF8144841888D
:100B300014482C3881631248018812482C38C1634C
:100B40000121817515E014E013E0207F41B20E48C9
:100B50000177A17F607F41EA002000EE100AB8EE25
:100B6000C00ADFED0A0A80EE201A074880ED081A55
:100B700000BF00BF00BF00BF10BD0000740F002009
:100B80007E0300204C160020F81500200000C8420B
:100B900010B5024802F0ABFC10BD00006C0700204D
:100BA00010B5024802F0A3FC10BD00006C07002045
:100BB00030B58BB004460D46012006900020019010
:100BC0000290039004900790012009900890002063
:100BD00005903149206888421DD130480460856203
:100BE0000E200A9040F2FF7340F2012200212046BD
:100BF00011F04DF840F2FF7340F202220821204626
:100C000011F045F840F2FF7340F20522142120460E
:100C100011F03DF82FE02249206888422BD121486D
:100C2000046085620F200A9040F2FF7340F20622B2
:100C30007821204611F02BF840F2FF7340F2012298
:100C40008021204611F023F840F2FF7340F2511248
:100C50008C21204611F01BF840F2FF7340F2531232
:100C60009421204611F013F840F2FF73F1229C21E9
:100C7000204611F00CF801A9204602F0DBFA2046CC
:100C800002F033FF0221204602F01AFA102120461A
:100C900002F016FA0BB030BD00640040E0170020EF
:100CA000006800400C180020F0B587B006460C46DE
:100CB00017461D460194002002900390049005956C
:100CC0006B463A4601A9304602F00FFA07B0F0BD74
:100CD00004284FF0000070470020704710B5002234
:100CE000044905480CF03AFD044903480CF028FD7E
:100CF000002010BD1425002038180020141D0020ED
:100D000070B505460C46284621680EF0ABFC18B1BC
:100D10002846216810F0F2FF294604480CF010FD27
:100D200002480CF0DDFC002070BD000038180020E7
:100D30000020704710B50A460849D1F8BC12D1F816
:100D40001412002901D0012010BD014603480CF007
:100D500005FDBDE8104001480CF098BD3818002092
:100D600010B504490448FFF723FF04490448FFF77E
:100D70001FFF10BD290A000844070020E10A0008EF
:100D80006C07002010B5044608231E4A40F2FF11EC
:100D90001D48FFF789FF08231C4A40F2FF111C4839
:100DA000FFF782FF08231B4A99011748FFF77CFFD2
:100DB000052094FBF0F100FB114001280DD1082320
:100DC000154A4FF4A8711248FFF76EFF0823134A23
:100DD0004FF4A9710E48FFF767FF052094FBF0F16F
:100DE00000FB1140022806D108230D4A4FF4AA71D6
:100DF0000748FFF759FF08230A4A99010448FFF7FB
:100E000053FF10BDFC0300204407002054040020C1
:100E10006C07002004040020AC040020B40400206F
:100E2000BC0400205C040020012003490874002059
:100E30004874087070470000180C002000B500F0DE
:100E400063F800F001F800BD2B480021016041600B
:100E50002A48016041602A4890ED010ABDEEC00AAF
:100E600010EE100A000A24490870254890ED010A86
:100E7000BDEEC00A10EE100A4870214890ED020A3B
:100E8000BDEEC00A10EE100A000A88701C4890EDF2
:100E9000020ABDEEC00A10EE100AC870184890EDA4
:100EA000030ABDEEC00A10EE100A000A08711448C9
:100EB00090ED030ABDEEC00A10EE100A487110480A
:100EC00000780E4908700E48407C48700C48007C41
:100ED00088700B48007DC8700948007E087108487A
:100EE000407E487107480649498B01800449C96919
:100EF000C0F8021070470000AC040020B4040020C9
:100F0000180C0020BC04002014480078B0B101285F
:100F100005D0022802D003281ED101E000BF00BF87
:100F20000F48D0F82E000D4948600D48D0F8320027
:100F300088600B48D0F83600C8600DE09FED090AC4
:100F4000064880ED010A9FED070A80ED020A9FED39
:100F5000050A80ED030A00BF00BF7047180C00208F
:100F60007415002000000000324890F83A0010B1DB
:100F700001285CD12AE02F48C07A012810D12E48E0
:100F800090F8E80501280BD001202B4981F8E805ED
:100F900002202A490870002029490870274908764C
:100FA0002448C07A032810D1234890F8E805032884
:100FB0000BD00220204981F8E80501201F49087064
:100FC00000201F4908701D49087630E01948007D4F
:100FD000C0F3401050BB1748407D00F0010028B31B
:100FE0001848408978B9144890F8E80501280AD0D3
:100FF0000120114981F8E8050220104908704FF4DA
:10100000C870104948810F48408978B90A4890F85B
:10101000E80501280AD10220074981F8E8050120E6
:10102000064908704FF4C8700649488100BF00BFE8
:101030007047000074150020740F0020180C002069
:10104000F81500206015002010B5024802F0EEFDF2
:1010500010BD0000F80A002010B5024802F0E6FDBD
:1010600010BD0000580B002010B5FE48C06C006891
:10107000FD49884276D9FC4854380068F949C96C62
:101080000968FA4A914201D1202169E0F549C96C09
:101090000968F54A483A914201D1202160E0F149BE
:1010A000C96C0968F14A6032914201D1202157E0B0
:1010B000EC49C96C0968EC4A1832914201D12021EF
:1010C0004EE0E849C96C0968E84A1832914201D1FA
:1010D000C91445E0E349C96C0968E34A303A9142D2
:1010E00001D1C9143CE0DF49C96C0968DF4A783294
:1010F000914201D1C91433E0DA49C96C0968DA4A6E
:101100003032914201D1C9142AE0D649C96C09682C
:10111000D64A3032914202D14FF4001120E0D14939
:10112000C96C0968D04A183A914202D14FF40011B3
:1011300016E0CC49C96C0968CC4A9032914202D180
:101140004FF400110CE0C749C96C0968C64A48321F
:10115000914203D14FF4001102E003E04FF000612F
:10116000084070E1BF48C06C0068C049A83188429F
:1011700076D9BD4858380068BA49C96C0968BB4A75
:10118000914201D1202169E0B649C96C0968B64A8B
:10119000483A914201D1202160E0B249C96C096806
:1011A000B24A6032914201D1202157E0AD49C96C69
:1011B0000968AD4A1832914201D120214EE0A94977
:1011C000C96C0968A94A1832914201D1C91445E095
:1011D000A449C96C0968A44A303A914201D1C914A2
:1011E0003CE0A049C96C0968A04A7832914201D11B
:1011F000C91433E09B49C96C09689B4A303291425B
:1012000001D1C9142AE09749C96C0968974A30325C
:10121000914202D14FF4001120E09249C96C096853
:10122000914A183A914202D14FF4001116E08D49CB
:10123000C96C09688D4A9032914202D14FF4001175
:101240000CE08849C96C0968874A4832914203D149
:101250004FF4001102E003E04FF000610840F2E0BB
:101260008048C06C006881494831884276D97F48FF
:10127000103840687B49C96C09687C4A914201D1A9
:10128000202169E07749C96C0968774A483A914258
:1012900001D1202160E07349C96C0968734A60324A
:1012A000914201D1202157E06E49C96C09686E4A0C
:1012B0001832914201D120214EE06A49C96C096877
:1012C0006A4A1832914201D1C91445E06549C96C96
:1012D0000968654A303A914201D1C9143CE061493C
:1012E000C96C0968614A7832914201D1C91433E06E
:1012F0005C49C96C09685C4A3032914201D1C91419
:101300002AE05849C96C0968584A3032914202D1E2
:101310004FF4001120E05349C96C0968524A183A49
:10132000914202D14FF4001116E04E49C96C096890
:101330004E4A9032914202D14FF400110CE04949DB
:10134000C96C0968484A4832914203D14FF40011F0
:1013500002E003E04FF00061084074E043481038B9
:1013600000684049C96C0968404A914201D1202176
:1013700068E03C49C96C09683B4A483A914201D14E
:1013800020215FE03749C96C0968384A60329142D0
:1013900001D1202156E03349C96C0968324A18321C
:1013A000914201D120214DE02E49C96C09682F4A94
:1013B0001832914201D1C91444E02A49C96C096824
:1013C000294A303A914201D1C9143BE02549C96C00
:1013D0000968264A7832914201D1C91432E0214984
:1013E000C96C0968204A3032914201D1C91429E000
:1013F0001C49C96C09681D4A3032914202D14FF430
:1014000000111FE01749C96C0968174A183A914240
:1014100002D14FF4001115E01249C96C0968134A52
:101420009032914202D14FF400110BE00D49C96C8A
:1014300009680D4A4832914202D14FF4001101E08F
:101440004FF00061084000286FD00648C06C00686B
:10145000054988427BD90348C06C0068034988422B
:1014600008D105E0E80700205864024010600240FF
:10147000202068E0FE48C06C0068FE49884201D127
:10148000202060E0FA48C06C0068FB49884201D126
:10149000202058E0F648C06C0068F6496031884268
:1014A00001D120204FE0F248C06C0068F249483971
:1014B000884201D1C01446E0ED48C06C0068ED4997
:1014C0001831884201D1C0143DE0E948C06C006881
:1014D000E9491831884201D1C01434E0E448C06CB5
:1014E0000068E4497831884201D1C0142BE0E0481B
:1014F000C06C0068E0493039884202D14FF40010D6
:1015000021E0DB48C06C0068DA493031884202D102
:101510004FF4001017E0D648C06C0068D64930314F
:10152000884204D14FF400100DE0DFE10FE0D04815
:10153000C06C0068CF499031884202D14FF400104E
:1015400001E04FF00060CB49091F08606AE1C8481C
:10155000C06C0068C8494831884274D9C448C06C1E
:101560000068C5496039884201D1202066E0C04842
:10157000C06C0068BF49884201D120205EE0BC48B1
:10158000C06C0068BC49884201D1202056E0B848B0
:10159000C06C0068B7496031884201D120204DE01D
:1015A000B348C06C0068B4494839884201D1C014BE
:1015B00044E0AF48C06C0068AE491831884201D1A0
:1015C000C0143BE0AA48C06C0068AB49183188429F
:1015D00001D1C01432E0A648C06C0068A54978313A
:1015E000884201D1C01429E0A148C06C0068A2491A
:1015F0003039884202D14FF400101FE09C48C06C83
:1016000000689C493031884202D14FF4001015E047
:101610009748C06C006898493031884202D14FF435
:1016200000100BE09248C06C0068924990318842EB
:1016300002D14FF4001001E04FF000608D490839ED
:101640000860EFE0FFE78A48C06C00688A491839F3
:10165000884274D98648C06C0068874960398842DE
:1016600001D1202066E08248C06C00688149884230
:1016700001D120205EE07E48C06C00687E4988422F
:1016800001D1202056E07A48C06C00687949603169
:10169000884201D120204DE07548C06C0068764931
:1016A0004839884201D1C01444E07148C06C0068D8
:1016B00070491831884201D1C0143BE06C48C06CBD
:1016C00000686D491831884201D1C01432E0684881
:1016D000C06C006867497831884201D1C01429E0A4
:1016E0006348C06C006864493039884202D14FF4C5
:1016F00000101FE05E48C06C00685E4930318842CF
:1017000002D14FF4001015E05948C06C00685A49E6
:101710003031884202D14FF400100BE05448C06CC5
:10172000006854499031884202D14FF4001001E022
:101730004FF0006050497039C86073E0FFE74C48D3
:10174000C06C00684C496039884201D1202066E0B5
:101750004748C06C00684749884201D120205EE0BC
:101760004348C06C00684449884201D1202056E0BB
:101770003F48C06C00683F496031884201D1202059
:101780004DE03B48C06C00683B494839884201D174
:10179000C01444E03648C06C0068364918318842AD
:1017A00001D1C0143BE03248C06C006832491831A6
:1017B000884201D1C01432E02D48C06C00682D4928
:1017C0007831884201D1C01429E02948C06C0068F2
:1017D00029493039884202D14FF400101FE02448D3
:1017E000C06C006823493031884202D14FF40010A8
:1017F00015E01F48C06C00681F493031884202D193
:101800004FF400100BE01A48C06C00681949903181
:10181000884202D14FF4001001E04FF000601649F9
:10182000703988601548007800F0020078B11348DC
:10183000007820F00200114908700846007840F056
:1018400004000870012211460D4802F0EDFC0D481D
:10185000007800F00200E0B10A48007820F00200B1
:10186000084908700846007840F0040008700BE052
:10187000E8070020106402407060024085000020EC
:10188000000402408600002001221021184802F0C6
:10189000CBFC1848007800F0020078B115480078B9
:1018A00020F00200134908700846007840F0040058
:1018B0000870012210210E4802F0B6FC10F066FEFE
:1018C0000D48007800F0040080B10B48007820F04B
:1018D0000400094908700846007840F008000870C4
:1018E0000648006840F001000449086010BD00008F
:1018F000000002408700002085000020103C0140CD
:1019000010B5024802F092F910BD0000A0080020B6
:1019100010B5024802F08AF910BD0000B80B002093
:101920000146087810381823B0FBF3F20848805CB1
:10193000C865032A05D908686FF30900001D88658A
:1019400003E008686FF309008865886D7047000040
:10195000283A0108014600208A6A8B69CBB932B166
:10196000012A0DD0022A03D0032A10D10EE000BFB5
:10197000CB6A03F08073B3F1807F00D1012007E0D0
:10198000CB6AB3F1C07F00D1012001E000E000BFCD
:1019900034E08B69B3F5005F1AD132B1012A07D068
:1019A000022A03D0032A11D10AE000BF01200EE071
:1019B000CB6A03F08073B3F1807F00D1012006E091
:1019C000CB6AB3F1C07F00D1012000E000BF15E079
:1019D00032B1012A05D0022A04D0032A0CD103E037
:1019E00000BF00BF012008E0CB6A03F08073B3F1B1
:1019F000807F00D1012000E000BF00BF70470000E1
:101A000010B502F017FC1E4C6168401AA06002F08D
:101A100011FC60601B485A21017001218170C17066
:101A200000234360184991ED780AB1EE400A10EEA8
:101A3000102A8260A1F5806191EDBB0AB1EE400AE7
:101A400010EE101AC160DFF844C09CF81CC080F88A
:101A500001C04FF6FF7CA0F810C02238D0F8224019
:101A6000046043608260C160A0F810C01221FEF7DC
:101A7000E5FDBDE8104012210548FFF75BB9000005
:101A800018050020362D002074130020F8150020C2
:101A9000142D0020704700002848008820B12748F6
:101AA0000088401E254908802448408820B12348EA
:101AB0004088401E214948802048808820B11F4826
:101AC0008088401E1D4988801C48C08820B11B4862
:101AD000C088401E1949C8801848408920B117485D
:101AE0004089401E154948811448C08920B11348D7
:101AF000C089401E1149C8811048808920B10F4813
:101B00008089401E0D4988810C48C08920B10B484E
:101B1000C089401E0949C8810848008A20B1074889
:101B2000008A401E054908820448408A20B10348C3
:101B3000408A401E0149488270470000601500201D
:101B400010B502464B880B808B884B80CB888B80EE
:101B50000B89CB804B890B818B894B81CB898B8106
:101B60000B8ACB814B8A0B824A82B1F90030B1F9E2
:101B700002402344B1F904402344B1F90640234410
:101B8000B1F908402344B1F90A402344B1F90C40AB
:101B90002344B1F90E402344B1F910402344B1F974
:101BA000124023440A2493FBF4F318B210BD10B57D
:101BB000082002F031FA10BD10B5102002F02CFA06
:101BC00010BD10B5202002F027FA10BD72B600BF7C
:101BD000FEE7000010B57B494888C11700EB117182
:101BE0000911A0EB011141BB7748D0F81610D0F8CD
:101BF0001A0000EB4002C2EBC01001EBC0007149BB
:101C00004988411A6F48008800EB4002C2EBC010BF
:101C1000A1EBC00010F57A7F0FD26B4800218182C2
:101C2000016041608160C16001610020674981F805
:101C3000E805674908706749087062494888C11714
:101C400000EB11710911A0EB011101291CD16148B0
:101C5000D0F83411D0F8380100EB4002C2EBC010CC
:101C600001EBC00057494988401A5649098801EBE1
:101C70004102C2EBC111A0EBC10010F57A7F03D283
:101C8000012155480FF0ACFF4E494888C11700EBC1
:101C900011710911A0EB011102291CD14D48D0F896
:101CA000C812D0F8CC0200EB4002C2EBC01001EB2E
:101CB000C00044494988411A4248008800EB40026C
:101CC000C2EBC010A1EBC00010F57A7F03D2012156
:101CD00041480FF085FF3B494888C11700EB11715F
:101CE0000911A0EB011103291FD13C48816BC06B86
:101CF00000EB4002C2EBC01001EBC0003149498843
:101D0000411A3048008800EB4002C2EBC010A1EB42
:101D1000C00010F57A7F08D201212F480FF060FF34
:101D200000212E4881750AF0C7FD26494888C11751
:101D300000EB11710911A0EB011104291CD12348FA
:101D4000D0F80C13D0F8100300EB4002C2EBC01027
:101D500001EBC0001B494988411A1A48008800EB72
:101D60004002C2EBC010A1EBC00010F57A7F03D295
:101D7000012119480FF034FF12494888C11700EBC0
:101D800011710911A0EB011105291AD10F488169C0
:101D9000C06900EB4002C2EBC01001EBC000094972
:101DA0004988401A0749098801EB4102C2EBC11179
:101DB000A0EBC10010F57A7F03D2012106480FF095
:101DC0000FFF10BD7E03002074150020740F00204B
:101DD000180C0020480C0020BC1700202016002002
:101DE0001A4890F83A0010B101282CD100E02AE0FE
:101DF0001648407DC0F3800020B3154890F8E805F0
:101E000002280CD11348007C48B91348808930B9A6
:101E10004FF4C8701049888101200E4908740C489D
:101E200090F8E80502280DD10A48007C012809D164
:101E30000948808930B94FF4C8700749888100206B
:101E40000449087400BF00BF7047000074150020EB
:101E5000740F0020180C0020601500201648007830
:101E6000E8B101280ED0022823D141F6DC601249E6
:101E700088804EF22410A1F89801084680880F4906
:101E8000488316E041F2A8600B4988804EF658104E
:101E9000A1F89801084680880849488309E0002095
:101EA00005498880A1F8980108468088034948833D
:101EB00000BF00BF70470000480C0020180C002035
:101EC00010B53348B0F9040001EE100AB8EEC11A9B
:101ED000F0EE410A2E4890ED5E1AB0EE410A801DE8
:101EE00007F076F82A48B0F9980101EE100AB8EE2A
:101EF000C11AF0EE410A264890EDC31AB0EE410A2D
:101F000000F5CD7007F064F82148D0F8420000EEEB
:101F1000100A204805F07AFE1D48D0F8D60100EEE0
:101F2000100A1D4805F072FE1948007820B10128FA
:101F300016D0022829D114E01548B0F80403000A8D
:101F400016490870124890F8040348701048B0F819
:101F50007001000A88700E4890F87001C87014E093
:101F600000BF0B48B0F80403000A0C490870084889
:101F700090F8040348700648B0F87001000A8870B1
:101F8000034890F87001C87000BF00BF10BD00008A
:101F9000480C0020700D0020040F002004040020D5
:101FA000002015E0154901EB800191ED000A13496D
:101FB000421C01EB820181ED000A114901EB800115
:101FC00091ED000A0E4901EB820181ED000A401CEF
:101FD0000428E7DB0B48B0F9440100EE100AB8EE24
:101FE000C00A084880ED610AB0F9D80200EE100A74
:101FF000B8EEC00A034880EDC60A7047CC0D002039
:10200000600F0020480C002010B500201049087017
:10201000DFED100AB7EE000A40F202210E4805F08B
:1020200047FEDFED0C0AB7EE000A40F201210A4834
:1020300005F03EFE312209490548801D07F09EF853
:10204000312207490448723007F098F810BD0000AB
:10205000480C00209A99993E700D00203C01002008
:102060007401002010B5274805F050FE264805F001
:102070004DFEFFF795FF052122485C3010F04EFC25
:10208000224880ED5E0A052100F5467010F046FCFE
:102090001E4880EDC30A90ED5E0A1D4880ED000ADF
:1020A0001A4890EDC30AB1EE400A1A4880ED000AC2
:1020B000164890ED4F0A80ED5F0A90EDB40A80ED6E
:1020C000C40AB0F9460100EE100AB8EEC00A0F4883
:1020D00080ED600AB0F9DA0200EE100AB8EEC00A2C
:1020E0000A4880EDC50A90ED5E0AD0EDC30A30EED5
:1020F000600ABDEEC00A10EE100A40B203494870F3
:1021000010BD0000700D0020040F0020480C0020BE
:10211000AC010020B001002010B5FFF7A3FFFFF7CE
:102120009DFEFFF7CDFE0DF019FB0DF05FFB10BD1E
:10213000414890F83A0010B101287BD12BE03F488C
:1021400090F8E80530B33C48C07A032822D13A48D9
:10215000807A01281ED13A48808858B939480078D9
:1021600040B1002037490870374948614FF4C870C2
:10217000334988803248808860B932480078012825
:1021800008D001202F4908702F4948614FF4C870CA
:102190002B4988804EE02848007DC0F3401008BBE2
:1021A0002548C07CF0B12648808858B92548007879
:1021B00040B1002023490870234948614FF4C8709A
:1021C0001F4988801E48808860B91E480078012811
:1021D00008D001201B4908701B4948614FF4C870A2
:1021E000174988801448007DC0F3401008B3124896
:1021F000C07CF0B11248808858B91248007840B1CC
:10220000002010490870104948614FF4C8700C490B
:1022100088800B48808860B90A480078022808D076
:10222000022008490870084948614FF4C870044901
:10223000888000BF00BF704774150020740F002015
:1022400060150020480C0020180C00200180704709
:1022500000EE100AB8EEC00A9FED041AC0EE010AA3
:10226000B0EE080A20EE800A7047000000F8FF4533
:102270004A780B7842EA032213B24381CA788B78FA
:1022800042EA032213B2C3804A790B7942EA03225D
:1022900012B282808B7903817047818180ED040ABC
:1022A000002303757047000000EE100AB8EE400AE4
:1022B0009FED041AC0EE010A9FED030A20EE800A8A
:1022C0007047000000F8FF450000B44300EE100A1C
:1022D000B8EE400A9FED061AC0EE010AB0EE000A01
:1022E00020EE800ADFED030A20EE200A704700008E
:1022F00000F8FF45C3F5484010B50446B4F90400A2
:10230000FFF7A6FF84ED080A94ED080AD4ED040A4D
:1023100020EE200A84ED090A2189E187B4F906003C
:1023200004F12A01FFF70CFC20854420015B4620C4
:102330000153608981B2442001534421085BFFF7B7
:10234000B3FF84ED130A4421085BFFF7BFFF84ED60
:10235000120A4620015B4420005B081AB0F5805F3A
:1023600005DD5020005B401C01B250200153462087
:10237000015B4420005B081A10F5805F05DA5020ED
:10238000005B401E01B250200153616D216694ED47
:10239000160A84ED190A94ED170A84ED1A0A207DB5
:1023A00098BBB4F95000C0EB40314420005B0144BD
:1023B000616594ED130AB4F9500000EE900AF8EE4E
:1023C000E00A9FED381A00EE810A84ED170A94EDB9
:1023D000120AB4F9500000EE900AF8EEE00AB0EEEE
:1023E000001A60EE810A9FED301A00EE810A84ED3A
:1023F000160A5420005BA4F86C0094ED170A84EDD3
:102400001D0A94ED160A84ED1C0A207D012832D1A4
:10241000B4F95000C0EB40314420005B0144B4F8F3
:102420006C00091A616594ED130AB4F9500000EECE
:10243000900AF8EEE00A9FED1B1A00EE810AD4ED37
:102440001D0A30EE600A84ED170A94ED120AB4F901
:10245000500000EE900AF8EEE00AB0EE001A60EECE
:10246000810A9FED111A00EE810AD4ED1C0A30EEAC
:10247000600A84ED160A616D206E081A00EE100ADB
:10248000B8EEC00A9FED091AC0EE010A9FED080AD6
:1024900020EE800ADFED070A20EE200A84ED100A04
:1024A00010BD00000000B443C3F5484000F8FF45EC
:1024B00000007A440000704200280FD0491E0BD360
:1024C000DFF820C010F8013B5340DBB23CF813307A
:1024D00083EA1222491EF5D2104670474FF6FF706C
:1024E00070470000483A010870B50B480168001DAC
:1024F0000568001D0068084400280CD0074C08221D
:10250000A11C05F025FB04F112012846BDE870402E
:10251000042205F01DBB70BD107AFF1FFC040020D3
:1025200010B52DED048B3F4890EDBB0AD0EDB30AFA
:1025300030EE600A10EE101A084611F073F941EC03
:10254000190BB0EE490AF0EE690A0DF0D1FBB0EEBE
:10255000408AF0EE608A9FED340B53EC102B51EC67
:10256000180B10F067FF04D231480089401C304935
:1025700008819FED300A2B4880EDB30A06F014FE67
:102580002D49A1F8F602274890EDB31AF0EE410A62
:1025900090EDBB1AB0EE410A00F50F7006F018FD81
:1025A000204890ED9E0AB1EE400A80EDB40A90ED0D
:1025B000B41AF0EE410A90EDBC1AB0EE410A00F5F3
:1025C000D67006F005FD174890ED7A0ABDEEC00AF8
:1025D00010EE100A01B21348FFF738FE1648B0F8A3
:1025E000F412B0F8F602084400B21349A1F8F4025C
:1025F0000846B0F9F40246F2A811884203DD084605
:102600000D49A1F8F4020C48B0F9F4020B498842D4
:1026100004DA49F658600849A1F8F402BDEC048BCD
:1026200010BD000068120020000000000000E03F24
:102630006015002000000000740F0020589EFFFF6E
:1026400010B56F4800786E494978884249D02421F6
:102650006B48001DFDF738FF6A4890EDBB0A6848DB
:1026600080ED020A684890EDBB0A654880ED010ADA
:102670004FF4107163488C30FDF726FF4FF4107152
:1026800061488C30FDF720FF25226049604806F044
:1026900075FD25225F495B488C3006F06FFD2522D1
:1026A0005D495E4806F06AFD25225D495848903034
:1026B00006F064FD25225B495B4806F05FFD25229C
:1026C0005A4951488C3006F059FD252258494D4849
:1026D000B83806F053FD252256495348903006F08D
:1026E0004DFD4748007810B101285AD15AE04648BC
:1026F00090F8E80501281CD002281BD0032832D10D
:102700004D48D0F81E0000EE100AF1EE080A80EEE7
:10271000201A3D4880EDB51A4748D0F8260000EE53
:10272000100AF1EE000A80EE201A364880EDB51A44
:1027300024E000BF4048D0F81E0000EE100AF2EE80
:10274000020A80EE201A304880EDB51A3A48D0F8D7
:10275000260000EE100AF1EE080A80EE201A294841
:1027600080EDB51A0AE09FED350A274880EDB50ADD
:102770009FED320A234880EDB50A00BF00BF224812
:1027800090EDB30AD0EDB50A30EE200A80EDB30A21
:102790001C4890EDB30AD0EDB50A30EE200A80ED6A
:1027A000B30A26E0184890F8E805012810D002285E
:1027B0000FD003281AD1124890ED010A124880ED7B
:1027C000B30A0F4890ED020A0E4880EDB30A0EE0FE
:1027D00000BF0B4890ED010A0B4880EDB30A084892
:1027E00090ED020A074880EDB30A00E000BF00BF89
:1027F00000BF00BF024800780149487010BD0000CA
:10280000F815002068120020740F0020EC01002051
:1028100084130020B40100205C020020A4140020D6
:1028200024020020CC0200209010002094020020FE
:102830003C03002004030020741500200000000069
:1028400010B59FED2B0A01212A48FFF726FD9FEDC9
:10285000280A02212848FFF720FD0021264880F899
:10286000EA150020244981F8E805B7EE000A21485E
:1028700080EDB70AB0EE000A084680EDB70A0021E5
:1028800080F80813017580F8CC1500201A4981F8EA
:10289000D802252219491A4806F070FC2522194948
:1028A00014488C3006F06AFC25221749174806F0B8
:1028B00065FC252216491248903006F05FFC25225F
:1028C0001449154806F05AFC252214490A488C3050
:1028D00006F054FC252212490648B83806F04EFC92
:1028E000252210490C48903006F048FC10BD00002D
:1028F0002DB23D3F68120020740F0020EC01002033
:1029000084130020B40100205C020020A4140020E5
:1029100024020020CC02002090100020940200200D
:102920003C030020040300201C4890F8E80502281E
:1029300002D1002119480175184890F8E9050228CC
:1029400011D1164890F8E80503280CD1012113484D
:1029500001759FED130A80EDB30A9FED120A00F591
:102960003D7080EDB30A0D4890F8E90503280FD1BA
:102970000A4890F8E80502280AD1084890ED1F0A95
:1029800080EDB30A9FED060A00F53D7080EDB30AB5
:10299000024890F8E81580F8E9157047740F002098
:1029A00000000000333357C110B58F4890EDB30AD3
:1029B000DFED8E0AB4EEE00AF1EE10FA03D29FEDDD
:1029C0008B0A80EDB30A884890EDB30ADFED880AE0
:1029D000B4EEE00AF1EE10FA03DD9FED850A80ED1A
:1029E000B30A844890F8CC0510B101286BD135E0CA
:1029F0007D4890EDB31AF0EE410A90EDBB1AB0EEAF
:102A0000410A00F50F7006F0E3FA774890ED9E0A50
:102A1000B1EE400A80EDB40A90EDB41AF0EE410A2E
:102A200090EDBC1AB0EE410A00F5D67006F0D0FA6F
:102A30006D4890ED7A0ABDEEC00A10EE100A01B2A0
:102A40006948FFF703FC6B48B0F8F412B0F8F602DF
:102A5000084400B26749A1F8F40234E0624890EDFE
:102A6000B31AF0EE410A90EDBB1AB0EE410A00F540
:102A70008E7006F0ADFA5C4890ED560A80EDB40A0F
:102A800090EDB41AF0EE410A90EDBC1AB0EE410A96
:102A90008C3006F09DFA574890EDEF0AB1EE400AEF
:102AA000BDEEC00A10EE100A01B24F48FFF7CEFB90
:102AB0005048B0F8F412B0F8F602084400B24D499C
:102AC000A1F8F40200BF00BF08E04A4890EDB30A45
:102AD000DFED490A30EE600A80EDB30A454890ED1B
:102AE000B30AD0EDBA0A30EE600ADFED430AB4EE65
:102AF000E00AF1EE10FAE8DC08E03E4890EDB30A97
:102B0000DFED3D0A30EE200A80EDB30A394890ED42
:102B1000B30AD0EDBA0A30EE600ADFED380AB4EE3F
:102B2000E00AF1EE10FAE8D390F8D80210B10128CB
:102B300057D12BE02F4890EDB31AF0EE410A90EDFB
:102B4000BA1AB0EE410A00F50F7006F041FA2948B2
:102B500090ED9E0A80EDB40A90EDB41AF0EE410AB1
:102B600090EDBC1AB0EE410A00F5D67006F030FACE
:102B7000204890ED7A0AB1EE400ABDEEC00A10EE90
:102B8000100A01B21B48FFF761FB2AE0194890EDDB
:102B9000B31AF0EE410A90EDBA1AB0EE410A00F510
:102BA0008E7006F015FA134890ED560A80EDB40ABF
:102BB00090EDB41AF0EE410A90EDBC1AB0EE410A65
:102BC0008C3006F005FA0B4890ED320AB1EE400A5F
:102BD000BDEEC00A10EE100A01B20648FFF736FB40
:102BE00000BF00BF10BD00006812002000001EC220
:102BF00000009441740F00200000B4430000B4C3EF
:102C0000144890F8E80505281CD2DFE800F003041A
:102C1000050F060000BF00BF00BF00200D4981F86E
:102C2000D80200210B4880F8CC150BE0012109489F
:102C300001750120074981F8D8020121054880F873
:102C4000CC1500BF00BF034890F8E81580F8E915DF
:102C500070470000740F0020154890F8E805F0B1A7
:102C600014480021016041601148B0F8F40240426C
:102C7000000A104908700E4890F8F402404248706B
:102C80000D48002101604160094800884042000A67
:102C900009498870064800784042C87006E0054837
:102CA00000210160416004480160416070470000FC
:102CB000740F0020FC0300205404002010B5C0480D
:102CC000FFF71AFBBF4890ED010AF7EE000A20EE6D
:102CD000200ADFEDBD0A80EE201A9FEDBC0A21EE2E
:102CE000000ABB4880EDDD0ABA48D0ED000A9FED2E
:102CF000BA0ABFEE001A01EE200AB54880EDDF0ADD
:102D000090EDD40AAE48D0EDB70A80EE201A80EDDF
:102D1000BA1A07E0AE48B0F8D805401C01B2AC487A
:102D2000A0F8D815A64890EDBA0AA948B0F9D80578
:102D300000EE900AF8EEE00A9FEDA41A00EEC10A38
:102D4000DFEDA60AB4EEE00AF1EE10FAE2DC07E0ED
:102D50009F48B0F8D805401E01B29D48A0F8D8158C
:102D6000974890EDBA0A9A48B0F9D80500EE900A53
:102D7000F8EEE00A9FED951A00EEC10ADFED980A21
:102D8000B4EEE00AF1EE10FAE2D3914890F8CC05E7
:102D9000E8B1012828D18A4890EDBA0A8C48B0F9E8
:102DA000D80500EE900AF8EEE00A9FED881A00EED2
:102DB000C10A834880EDBB0A8548B0F91C0300EEC8
:102DC000100AB8EEC00A7E4880EDBC0A0CE08048CC
:102DD00090EDDD0A7A4880EDBB0A7D4890EDDF0A70
:102DE000774880EDBC0A00BF00BF754890EDBB0A74
:102DF0007C4880ED070A7648FFF77EFA744890ED2C
:102E0000200A80ED210A6F4890ED000AF1EE400A99
:102E10009FED6D1A80EE810ADFED6C0A20EE200A2C
:102E20006B4880ED200A90ED200AD0ED210A30EEAB
:102E3000600ADFED6A0AB4EEE00AF1EE10FA06DD90
:102E4000B0F87800401E00B26149A1F878006048EF
:102E500090ED200AD0ED210A30EE600ADFED600A25
:102E6000B4EEE00AF1EE10FA06D2B0F87800401C99
:102E700000B25749A1F87800554890ED200AB0F902
:102E8000780000EE900AF8EEE00A9FED501A00EE8E
:102E9000810A5448407C00EE900AF8EE600A9FEDEB
:102EA0004F1A00EE810A4A4880ED1F0A4948D0EDCA
:102EB000020A9FED4D0ABFEE001A01EE200A4448B7
:102EC00080ED220AD0ED170A90EDB71A80EE810A44
:102ED0004448407C00EE900AF8EE600A9FED3F1AED
:102EE00000EE810A3A4880EDBA0A07E03848B0F8A7
:102EF000E402401C00B23649A1F8E402344890EDE7
:102F0000BA0AB0F9E40200EE900AF8EEE00A9FED8A
:102F10002F1A00EEC10ADFED310AB4EEE00AF1EE3D
:102F200010FAE3DC07E02A48B0F8E402401E00B2E1
:102F30002749A1F8E402264890EDBA0AB0F9E40264
:102F400000EE900AF8EEE00A9FED201A00EEC10AAA
:102F5000DFED230AB4EEE00AF1EE10FAE3D31C48E9
:102F600090F8D802D8B1012827D1194890EDBA0AB3
:102F7000B0F9E40200EE900AF8EEE00A9FED131AB1
:102F800000EEC10A124880EDBB0AB0F9280000EE3D
:102F9000100AB8EEC00A0E4880EDBC0A0DE00C48DD
:102FA00090ED200A80EDBB0A90ED220A80EDBC0A6C
:102FB00090ED1F0A80EDBA0A00BF00BF10BD0000EF
:102FC0006812002038070020D00FC9400000B44329
:102FD000740F0020040700207F6ABC3C00003443CB
:102FE000000034C3180C0020EC51B83D10B52F4838
:102FF00090F8EA0530B1012817D0022824D0032820
:103000004DD136E04FF4FA60294908810420274960
:1030100081F8E805FFF7F4FD0121244880F8EA155E
:10302000022124480EF0DCFD39E021480089401ED1
:103030001F490881FFF774FA1D480089642802D1EE
:1030400001201D4908702AE00321184880F8EA157C
:103050000020174908810220144981F8E805012160
:103060001248017580F80813032112480EF0B8FDCC
:1030700015E00E4890F8E80580B1104840880A2114
:1030800090FBF1F201FB1200012805D1FFF74CFC87
:10309000FFF7B6FDFFF7D4FAFFF786FC00BF00BFCD
:1030A000FFF7DAFDFFF70AFE10BD0000740F0020E5
:1030B00060150020BC170020180C00207E030020A3
:1030C00010B5024692F82030012B01D0022B06D118
:1030D00010684069084314686061002010BD506AA0
:1030E00040F4802050620120F8E7F0B504460D4618
:1030F0001E4694F8207020688368A86800B900E034
:1031000000BF012F01D0022F7DD103F0806030B9C4
:1031100003F0006018B903F0805000287ED0C3F39C
:103120000161012088403060A86860B9B5F800C02E
:10313000E86840EA4C5C206800F5C07000EB0110C4
:10314000C0F800C00FE0D5E901C040EACC00D5F8D6
:103150000CC040EA0C00D4F800C00CF5C07C0CEBAD
:10316000011CCCF80000D5F810C0206800F5C07034
:1031700000EB0110C0F804C0287D01280ED12068A2
:1031800000F5C07000EB0110406840F4807C2068BE
:1031900000F5C07000EB0110C0F804C0D079000643
:1031A00092F806C040EA0C4092F805C040EA0C20B4
:1031B00092F804C040EA0C00D4F800C00CF5C07CC2
:1031C0000CEB011CCCF80C00D078000692F802C081
:1031D00040EA0C4092F801C040EA0C2092F800C08E
:1031E00040EA0C00D4F800C00CF5C07C0CEB011CCC
:1031F000CCF80800206800F5C07000EB01100068F2
:1032000040F0010C01E00FE008E0206800F5C0701C
:1032100000EB0110C0F800C00020F0BD606A40F46F
:10322000001060620120F8E7606A40F4802060626C
:103230000120F2E7F0B504460A46216894F82050D0
:10324000012D01D0022D7ED1424901F5007108689F
:1032500040F001000860086820F47C5008600868AD
:10326000566A40EA06200860107D00F01F06012023
:1032700000FA06F3C8699843C861A1F50071D069E6
:10328000C8B9D1F80C029843C1F80C02908880B2FA
:10329000968940EA064601F51070576940F8376094
:1032A000108880B2168940EA064601F51070576909
:1032B00000EBC7004660D069012819D1D1F80C0293
:1032C0001843C1F80C02908880B2168840EA06467E
:1032D00001F51070576940F83760908980B21689FF
:1032E00040EA064601F51070576900EBC7004660DA
:1032F000906928B9D1F804029843C1F8040204E0A7
:10330000D1F804021843C1F80402106928B9D1F8B1
:1033100014029843C1F8140204E0D1F814021843CF
:10332000C1F81402106A012804D1D1F81C02184314
:10333000C1F81C02D1F8000220F00100C1F800021F
:103340000020F0BDFFE7606A40F480206062012049
:10335000F7E7000000640040704770B5044694F839
:103360002050012D01D0022D7DD151B92068C068B7
:1033700000F0030080B9606A40F400106062012030
:1033800070BD2068006900F0030028B9606A40F44D
:10339000001060620120F3E7206800F5D87000EBB0
:1033A0000110006800F004009060906840B9206847
:1033B00000F5D87000EB01100068400D106007E0C8
:1033C000206800F5D87000EB01100068C00850605C
:1033D000206800F5D87000EB0110006800F00200D2
:1033E000D060206800F5D87000EB0110406800F054
:1033F0000F00082802D30820106108E0206800F5BB
:10340000D87000EB0110406800F00F0010612068D8
:1034100000F5D87000EB0110406800F47F40000A0E
:103420009061206800F5D87000EB01104068000C36
:103430005061206800F5D87000EB011080681870AA
:10344000206800F5D87000EB0110806800F47F4020
:10345000000A5870206800F5D87000EB01108068F1
:1034600000F47F0000E03CE0000C9870206800F55C
:10347000D87000EB01108068000ED870206800F54D
:10348000D87000EB0110C0681871206800F5D87082
:1034900000EB0110C06800F47F40000A58712068FA
:1034A00000F5D87000EB0110C06800F47F00000C3C
:1034B0009871206800F5D87000EB0110C068000E0C
:1034C000D87131B92068C06840F020002668F060EB
:1034D00005E02068006940F0200026683061002087
:1034E0004EE7606A40F480206062012048E72DE9E1
:1034F000F05F04460025206846692068D0F80490F3
:10350000206887682068D0F80CA02068D0F810B038
:103510002068D0F8188006F00100002855D007F088
:103520000100C0B101202168886007F0020018B1D5
:10353000204600F00AFB0EE007F0040010B145F44D
:10354000006508E007F0080010B145F4805502E07E
:10355000204600F0F9FA07F48070C8B14FF480708B
:103560002168886007F4007018B1204600F0EFFA77
:103570000EE007F4806010B145F4005508E007F450
:10358000006010B145F4804502E0204600F0DEFA0C
:1035900007F48030C8B14FF480302168886007F4A8
:1035A000003018B1204600F0D4FA0EE007F4802075
:1035B00010B145F4004508E007F4002010B145F4CF
:1035C000803502E0204600F0C3FA06F0080038B16A
:1035D0000AF0100020B145F4007510202168C86081
:1035E00006F0040040B10AF0080028B10820216864
:1035F000C860204600F01CFA06F0020038B12068CE
:10360000C06800F0030010B1204600F013FA06F085
:10361000400038B10BF0100020B145F48065102057
:103620002168086106F0200040B10BF0080028B1C5
:10363000082021680861204600F028FA06F01000F2
:1036400038B12068006900F0030010B1204600F096
:103650001FFA06F4003040B109F0100028B1102024
:1036600021684860204600F03FFA06F4803040B1FF
:1036700009F0080028B1082021684860204600F0C1
:1036800069FA06F4004088B309F0040078B306F440
:10369000807020B108F0010008B145F0010506F482
:1036A000007020B108F0020008B145F0020506F4F0
:1036B000806020B108F0040008B145F0040506F46C
:1036C0000060A0B108F0700088B108F070004028D8
:1036D00017D006DC10280BD020280CD0302819D1A8
:1036E0000CE0502810D0602814D110E01DE019E043
:1036F00045F008050FE045F010050CE045F0200509
:1037000009E045F0400506E045F0800503E045F49A
:10371000807500E000BF00BF2068806920F0700065
:10372000216888610420216848602DB1606A2843BF
:1037300060622046FFF710FEBDE8F09F70B50446BA
:103740000CB9012070BD94F8200010B9204600F09B
:10375000AFF82068006840F001002168086000F0C0
:1037600069FD05460DE000F065FD401B0A2808D9FB
:10377000606A40F400306062052084F82000012077
:10378000E0E72068406800F001000028EBD02068E6
:10379000006820F002002168086000F04BFD05463B
:1037A0000DE000F047FD401B0A2808D9606A40F48C
:1037B00000306062052084F820000120C2E7206804
:1037C000406800F002000028EBD1207E012806D1DD
:1037D0002068006840F080002168086005E02068EB
:1037E000006820F0800021680860607E012806D112
:1037F0002068006840F040002168086005E020680B
:10380000006820F0400021680860A07E012806D1F1
:103810002068006840F020002168086005E020680A
:10382000006820F0200021680860E07E012806D1B1
:103830002068006820F010002168086005E020681A
:10384000006840F0100021680860207F012806D140
:103850002068006840F008002168086005E02068E2
:10386000006820F0080021680860607F012806D108
:103870002068006840F004002168086005E02068C6
:10388000006820F0040021680860D4E902010843C0
:1038900021690843616908436168491E084321683A
:1038A000C86100206062012084F82000002049E700
:1038B00010B586B00446142101A8FCF705FE564950
:1038C0002068884249D155480068401C5349086027
:1038D0000846006801280FD100BF00200090504822
:1038E000006840F000704E4908600846006800F02B
:1038F0000070009000BF00BF00BF0020009048484B
:103900001038006840F00800454910390860084642
:10391000006800F00800009000BF00BF0320019085
:1039200002200290002003900320049009200590BB
:1039300001A93C4800F07EFB00220121132000F089
:10394000D7FF132000F0C0FF00220121142000F057
:10395000CFFF142000F0B8FF5CE0334920688842B4
:1039600058D100BF002000902D48006840F08060D2
:103970002B4908600846006800F08060009000BF96
:1039800000BF26480068401C2449086008460068BB
:1039900001280FD100BF002000902148006840F0AE
:1039A00000701F4908600846006800F00070009031
:1039B00000BF00BF00BF0020009019481038006809
:1039C00040F002001649103908600846006800F00F
:1039D0000200009000BF00BF602001900220029012
:1039E00000200390032004900920059001A90F48AE
:1039F00000F020FB002201213F2000F079FF3F2052
:103A000000F062FF00220121402000F071FF402001
:103A100000F05AFF06B010BD0064004024010020F1
:103A200040380240000C02400068004000040240A0
:103A30007047000010B504461049206888420CD138
:103A40000F4BA3F11C0200212046FFF786FC0C4817
:103A50002038816A001D88470FE00A4920688842A3
:103A60000BD1094BA3F11C0200212046FFF775FC86
:103A700005482038816A001D884710BD0064004059
:103A800000180020006800402C180020704700003B
:103A900010B504461049206888420CD10F4BA3F1A1
:103AA0001C0201212046FFF758FC0C482038816A8F
:103AB000001D88470FE00A49206888420BD1094B56
:103AC000A3F11C0201212046FFF747FC05482038DE
:103AD000816A001D884710BD006400400018002066
:103AE000006800402C180020704770B5044694F818
:103AF0002000012822D1022084F8200020680068DC
:103B000020F001002168086000F094FB05460DE0FC
:103B100000F090FB401B0A2808D9606A40F400308E
:103B20006062052084F82000012070BD2068406894
:103B300000F001000028EBD16062F6E7606A40F413
:103B4000002060620120F0E77047704770477047BF
:103B500070477047704770B50446A56D00F06AFB6A
:103B6000064694F83500022808D08020606500BF22
:103B7000002084F8340000BF012070BD2068006878
:103B800020F01600216808602068406920F080005D
:103B900021684861206C08B9A06C28B120680068D1
:103BA00020F00800216808602068006820F001000B
:103BB0002168086010E000F03DFB801B05280BD950
:103BC00020206065032084F8350000BF002084F8C1
:103BD000340000BF0320D0E72068006800F0010037
:103BE0000028E8D194F85C103F208840A8600120AC
:103BF00084F8350000BF002084F8340000BF00BF07
:103C0000BBE7014691F83500022803D080204865C3
:103C100001207047052081F835000868006820F011
:103C200001000A6810600020F3E70000F8B50446C0
:103C3000002000908C4800684FF41651B0FBF1F75B
:103C4000A56D2E6894F85C1008208840304098B12B
:103C50002068006800F0040070B12068006820F05F
:103C600004002168086094F85C1008208840A8606F
:103C7000606D40F00100606594F85C1001208840A0
:103C8000304068B12068406900F0800040B194F88D
:103C90005C1001208840A860606D40F00200606503
:103CA00094F85C1004208840304068B120680068B7
:103CB00000F0020040B194F85C1004208840A86035
:103CC000606D40F00400606594F85C10102088403E
:103CD000304078B32068006800F0080050B394F8D2
:103CE0005C1010208840A8602068006800F48020E4
:103CF00080B12068006800F4002028B9206CC8B1A9
:103D00002046216C884715E0A06C98B12046A16C34
:103D100088470FE02068006800F4807028B92068A8
:103D2000006820F0080021680860206C10B120466F
:103D3000216C884794F85C1020208840304000288F
:103D400065D02068006800F0100000285FD094F86B
:103D50005C1020208840A86094F83500052828D100
:103D60002068006820F0160021680860206840691B
:103D700020F0800021684861206C08B9A06C28B14F
:103D80002068006820F008002168086094F85C1042
:103D90003F208840A860012084F8350000BF002043
:103DA00084F8340000BF206D10B12046216D884793
:103DB000F8BD2068006800F4802080B120680068A9
:103DC00000F4002028B9606C10B12046616C88476F
:103DD0001DE0E06BD8B12046E16B884717E0206812
:103DE000006800F4807068B92068006820F0100056
:103DF00021680860012084F8350000BF002084F8A5
:103E0000340000BFE06B10B12046E16B8847606D65
:103E100038B3606D00F00100F0B1052084F8350082
:103E20002068006820F001002168086000BF009849
:103E3000401C0090B84200D905E02068006800F0FE
:103E400001000028F3D100BF012084F8350000BF35
:103E5000002084F8340000BFE06C10B12046E16C13
:103E6000884700BFA4E70000340100202DE9F0419D
:103E70000446002500F0DEF9074614B90120BDE82C
:103E8000F081606A00B100BF022084F8350000BFF5
:103E9000002084F8340000BF2068006820F0010092
:103EA000216808600AE000F0C5F9C01B052805D9A3
:103EB00020206065032084F83500E0E72068006872
:103EC00000F001000028EED1206805682148054077
:103ED000D4E901010843E1680843216908436169A5
:103EE0000843A1690843E1690843216A084305437F
:103EF000606A042803D1D4E90B0108430543206814
:103F000005602068456925F00705606A0543606A19
:103F100004280DD1A06A0543E06A48B12046FDF7A8
:103F200019FD28B140206065012084F83500A6E71E
:103F3000206845612046FDF7F3FC064694F85C10C6
:103F40003F208840B06000206065012084F8350083
:103F5000002094E73F8010F070B5044600F06AF945
:103F600006462546681C10B104480078054400BF89
:103F700000F060F9801BA842FAD370BD3001002028
:103F800010B50446102C11D11D48007840F00100F6
:103F90001B4908701B48007840F00100194908705F
:103FA0001948007858B30EF0F1FA28E0202C0BD114
:103FB0001648007840F00100144908701248007853
:103FC000E8B10EF0E3FA1AE0082C18D11048007896
:103FD00040F001000E4908700846007800F001002A
:103FE000087060B10846007820F0010008700846AB
:103FF000007840F00200087006480EF011FC10BD79
:104000008600002087000020890000208500002015
:10401000880000208C06002010B504460448006883
:10402000204020B1024804602046FFF7A9FF10BDE0
:10403000143C0140F8B502460B4600250024002040
:104040000021D6E0012606FA01F51E6806EA0504FD
:10405000AC4274D11E7906F00306012E04D01E79FD
:1040600006F00306022E13D190684F000326BE40CF
:10407000B0434F00DE68BE40304390605068012678
:104080008E40B0431E79C6F300168E403043506018
:104090001E7906F00306032E09D0D0684F000326D0
:1040A000BE40B0434F009E68BE403043D0601E7992
:1040B00006F00306022E13D1CF0802F1200656F8AF
:1040C00027004E07F70E0F26BE40B0434F07FF0EE6
:1040D0001E69BE403043CF0802F1200646F8270093
:1040E00010684F000326BE40B0431E7906F0030659
:1040F0004F00BE40304310605E6806F44036002E2C
:1041000076D000BF002600963C4E366846F48046C6
:104110003A4F3E603E46366806F48046009600BF41
:1041200000BF374E8F0856F827008E07370F0F262F
:10413000BE40B043334EB24202D1002624E057E0E5
:10414000314EB24201D101261EE0304EB24201D1C1
:10415000022619E02E4EB24201D1032614E02D4E64
:10416000B24201D104260FE02B4EB24201D1052606
:104170000AE02A4EB24201D1062605E0284EB2429C
:1041800001D1072600E008268F073F0FBE403043CD
:104190001B4E8F0846F82700224E3068A0435E6809
:1041A00006F4801606B120431E4E3060361D30687E
:1041B000A0435E6806F4001606B12043194E361D72
:1041C0003060184E361F3068A0435E6806F4003633
:1041D00006B12043134E361F3060361F3068A043AF
:1041E0005E6806F4803606B120430E4E083E30600D
:1041F000491C1029FFF426AFF8BD000044380240E6
:10420000083801400000024000040240000802405B
:10421000000C02400010024000140240001802404E
:10422000001C0240083C01400AB1816101E00B041E
:104230008361704701480068704700002801002032
:1042400070B504460CB9012070BD94F83D0028B942
:10425000002084F83C00204600F05EFA242084F818
:104260003D002068006820F0010021680860206897
:10427000006840F40040216808602068006820F46D
:1042800000402168086001F0E3FA05465C49606877
:10429000884206D85B48854201D2012007E0002011
:1042A00005E05948854201D2012000E000200128A4
:1042B00000D1C9E75548B5FBF0F62068406820F00A
:1042C0003F003043216848604D496068884201D80A
:1042D000701C07E04FF4967070434FF47A71B0FB96
:1042E000F1F0401C2168096A21F03F010843216870
:1042F000086243496068884214D8681E61684900B2
:10430000B0FBF1F0401CC0F30B00042801D20420E4
:104310003DE0681E61684900B0FBF1F0401CC0F34D
:104320000B0034E0A06838B9681E616801EB4101F8
:10433000B0FBF1F0401C0AE0681E616801EBC102AD
:1043400002EB0111B0FBF1F0401C40F48040C0F3DF
:104350000B0008B901201AE0A06848B9681E61681E
:1043600001EB4101B0FBF1F0401CC0F30B000CE08D
:10437000681E616801EBC10202EB0111B0FBF1F0B4
:10438000401CC0F30B0040F4804040F40040216822
:10439000C9694CF6FF72914308432168C861D4E9AA
:1043A000070108432168096821F0C001084321681A
:1043B0000860D4E9031008432168896848F2FF3295
:1043C0009143084321688860D4E9050108432168C6
:1043D000C96821F0FF0108432168C86020680068AF
:1043E00040F001002168086000202064202084F84B
:1043F0003D000020206384F83E0000BF24E7000059
:10440000A086010080841E0000093D0040420F008C
:104410002DE9FC5F04460F4690469946DDE90CAB5A
:104420000E9EFFF707FF054694F83D00202870D147
:1044300019230122B5492046009503F033F810B145
:104440000220BDE8FC9F00BF94F83C00012801D188
:104450000220F6E7012084F83C0000BF20680068D5
:1044600000F0010028B92068006840F001002168D0
:1044700008602068006820F400602168086022203D
:1044800084F83D00402084F83E0000202064C4F8F9
:1044900024A0A4F82AB0608D20859D48E0624B4698
:1044A000424639462046CDE9006502F04BFF08B18F
:1044B0000120C6E7208D88B900BF00200190206848
:1044C0004069019020688069019000BF00BF2068AA
:1044D000006840F400702168086040E0208D0128E9
:1044E00018D12068006820F480602168086000BF4F
:1044F0000020019020684069019020688069019047
:1045000000BF00BF2068006840F4007021680860A8
:1045100025E0F8E0208D022816D12068006820F4FC
:104520008060216808602068006840F400602168AD
:10453000086000BF00200190206840690190206859
:104540008069019000BF0AE000BF00200190206850
:104550004069019020688069019000BF00BFC3E0FE
:10456000208D03287ED8208D012815D12A4631467A
:10457000204603F073F808B1012062E72068006963
:10458000616A0870606A401C6062208D401E208550
:10459000608D401E6085A7E0208D02282AD1334619
:1045A00000225C492046009502F07CFF08B1012002
:1045B00047E72068006840F40070216808602068C0
:1045C0000069616A0870606A401C6062208D401E4C
:1045D0002085608D401E608520680069616A0870D2
:1045E000606A401C6062208D401E2085608D401EE8
:1045F000608579E03346002246492046009502F066
:1046000051FF08B101201CE72068006820F4806099
:104610002168086020680069616A0870606A401C4F
:104620006062208D401E2085608D401E608533466F
:10463000002238492046009502F034FF08B10120DD
:10464000FFE62068006840F4007021680860206878
:104650000069616A0870606A401C6062208D401EBB
:10466000208500E010E0608D401E608520680069B4
:10467000616A0870606A401C6062208D401E20855F
:10468000608D401E60852FE02A463146204602F0AC
:10469000E5FF08B10120D4E620680069616A08706E
:1046A000606A401C6062208D401E2085608D401E27
:1046B000608520684069C0F38000A8B1208D032880
:1046C00005D12068006820F48060216808602068B7
:1046D0000069616A0870606A401C6062208D401E3B
:1046E0002085608D401E6085208D00287FF438AFC6
:1046F000202084F83D00002084F83E0000BF84F8AC
:104700003C0000BF9DE602209BE600000200100076
:104710000000FFFF0400010010B586B0044614211C
:1047200001A8FBF7D1FE2A49206888424DD100BF7D
:10473000002000902748006840F0040025490860E8
:104740000846006800F00400009000BF00BF00BFF2
:10475000002000900846006840F00100086008460C
:10476000006800F00100009000BF00BF48150190F4
:104770001220029001200390032004900420059051
:1047800001A91548FFF756FC4FF4807001901220E4
:10479000029001200390032004900420059001A9B9
:1047A0000E48FFF747FC00BF00200090094810307A
:1047B000006840F4000007491031086008460068AE
:1047C00000F40000009000BF00BF06B010BD000064
:1047D000005C004030380240000802400000024007
:1047E0000348006803490978084401490860704794
:1047F000280100203001002010B50D48006840F469
:1048000000700B4908600846006840F4806008604A
:104810000846006840F480700860032000F0A6F8A5
:104820000F2000F007F800F02BF8002010BD00006A
:10483000003C024070B504460E4800784FF47A718F
:10484000B1FBF0F00C490968B1FBF0F5284601F026
:10485000FBFC08B1012070BD102C07D200222146BC
:10486000501E00F045F80548046001E00120F2E721
:104870000020F0E730010020340100202C0100204E
:1048800008B500BF002000900E48006840F480404A
:104890000C4908600846006800F48040009000BFA2
:1048A00000BF00BF00200090081F006840F080504B
:1048B000091F08600846006800F08050009000BFA3
:1048C00000BF08BD443802400146084600280DDB01
:1048D00000BF00BF00F01F0301229A4043099B0064
:1048E00003F1E023C3F8002100BF00BF00BF704701
:1048F0002DE9F05F80460D46164600270AF0BAFF04
:10490000074639462A46334601F00700C0F1070A38
:10491000BAF1040F02D94FF0040A01E0C0F1070A0E
:10492000D14600F1040ABAF1070F02D24FF0000A93
:1049300001E0A0F1030AD4464FF0010A0AFA09FA8D
:10494000AAF1010A0AEA020A0AFA0CFA4FF0010B6C
:104950000BFA0CFBABF1010B0BEA030B4AEA0B045D
:10496000214640460AF08EFFBDE8F09F00BF00F0F0
:104970000702064B19684FF6FF031940044B0B431F
:1049800043EA0221014B196000BF70470CED00E0C3
:104990000000FA0570470246106841620020704727
:1049A000F0B5034615461868446A21B944EA054043
:1049B0001E68B06219E01868806A04EB1044002297
:1049C00008E0186800F5827050F8220004EB1044EB
:1049D000501CC2B2481E9042F3D844EA05471868FA
:1049E00000F582704E1E40F826700020F0BDD0F811
:1049F000E00409F0CFBA01EBC10200EB8202D0F86B
:104A0000E004126A09F0F0B901EBC10200EB820286
:104A1000D0F8E004D2F8602209F054BAD0F8E004EB
:104A200009F0BABA2DE9F04104460D4605F08000C0
:104A3000802808D105F00F0000EBC00104F114003C
:104A400000EB810607E005F00F0000EBC00104F564
:104A5000157000EB8106314620680AF0C3FB07465B
:104A60003846BDE8F08170B504460E4606F0800079
:104A700080280AD106F00F0000EBC00104F11400F9
:104A800000EB81050120687009E006F00F0000EBE3
:104A9000C00104F5157000EB81050020687006F078
:104AA0000F00287000BF94F89404012801D102205F
:104AB00070BD012084F8940400BF2946206809F0E5
:104AC00025FF00BF002084F8940400BF00BFEFE77B
:104AD00070B504460E4606F00F002179884201D9D0
:104AE000012070BD06F0800080280AD106F00F007A
:104AF00000EBC00104F1140000EB81050120687097
:104B000009E006F00F0000EBC00104F5157000EBA2
:104B10008105002068700020A87006F00F00287042
:104B200000BF94F89404012801D10220D9E70120A4
:104B300084F8940400BF294620680AF0E5F800BF15
:104B4000002084F8940400BF00BFCAE7024601F0C9
:104B50000F0000EBC00302F5157000EB8300406905
:104B600070472DE9F04705460E4690461F464FF028
:104B7000000906F0800080280AD106F00F0000EB43
:104B8000C00105F1140000EB81040120607009E010
:104B900006F00F0000EBC00105F5157000EB810475
:104BA0000020607006F00F002070C4F808802771A4
:104BB000607808B120786083022F01D100206071F5
:104BC00000BF95F89404012802D10220BDE8F087C7
:104BD000012085F8940400BF2146286809F0AAFD49
:104BE00000BF002085F8940400BF4846EEE72DE999
:104BF000F04105460E461746984606F00F0000EBBA
:104C0000C00105F5157000EB8104E760C4F8108061
:104C100000206061607006F00F002070A879012804
:104C200000D1E761AA79214628680AF001F900203D
:104C3000BDE8F08170B504460D4605F00F002179FE
:104C4000884201D9012070BD05F0800080280AD17A
:104C500005F00F0000EBC00104F1140000EB810629
:104C60000120707007E005EBC50104F5157000EB3D
:104C70008106002070700120B07005F00F003070C8
:104C800000BF94F89404012801D10220DBE7012041
:104C900084F8940400BF314620680AF07CF805F0DF
:104CA0000F0028B9A17904F29C42206809F0F4FFB2
:104CB00000BF002084F8940400BF00BFC3E72DE9C3
:104CC000F04105460E461746984606F00F0000EBE9
:104CD000C00105F1140000EB8104E760C4F8108006
:104CE000002060610120607006F00F002070A8793C
:104CF000012800D1E761AA79214628680AF098F8CE
:104D00000020BDE8F0812DE9FE4F0446D4F800B044
:104D10005E4620680AF048FB002874D120680AF03B
:104D200082FB08B9BDE8FE8F40F608008059C0F349
:104D30000D20C4F8D40420680AF075FB00F00200CE
:104D4000022805D12068406900F00200216848610E
:104D500020680AF068FB00F01000102845D1206898
:104D6000806920F0100021688861DBF8209009F04C
:104D70000F0000EBC00104F5157000EB810AC9F3C8
:104D8000434002281AD147F6F07009EA000030B318
:104D9000C9F30A125846DAF80C100AF049FBC9F3B5
:104DA0000A11DAF80C000844CAF80C00C9F30A1119
:104DB000DAF814000844CAF8140010E0C9F34340BC
:104DC00006280CD1082204F29C4158460AF030FB18
:104DD000C9F30A11DAF814000844CAF8140020686C
:104DE000806940F010002168886120680AF01BFB90
:104DF00000F40020B0F5002F7BD1002520680AF0D8
:104E0000E2FA029072E0E1E2029800F0010000286C
:104E100068D0E9B220680AF0F9FA804608F001008B
:104E200048B1012106F5306000EB4510816029464C
:104E3000204603F0CFFF08F00800082809D1082118
:104E400006F5306000EB451081602946204603F0EE
:104E50008FFF08F01000102805D1102106F53060F2
:104E600000EB4510816008F00200022824D1DBF835
:104E7000140000F08000802807D140F6040080591B
:104E800040F4806140F60400815105EBC50104F552
:104E9000157000EB810A9AF80300012806D1002062
:104EA0008AF80300E9B2204600F096FA022106F5DE
:104EB000306000EB4510816008F02000202805D10B
:104EC000202106F5306000EB4510816008F40050A9
:104ED000B0F5005F06D14FF4005106F5306000EBED
:104EE000451081606D1C02984008029002980028CD
:104EF0008AD120680AF097FA00F48020B0F5802F5C
:104F00007DD120680AF055FA029000259AE00298B7
:104F100000F00100002873D0E9B220680AF05DFAC1
:104F2000804608F00100F0B305F00F010120884031
:104F3000019040F634008159019821EA000040F6C2
:104F400034018851012106F5106000EB45108160A5
:104F5000A079012824D105EBC50104F1140000EB70
:104F6000810005EBC502C16804F1140000EB82006A
:104F70008068014405EBC50204F1140000EB8200D7
:104F8000C1606DB905EBC50104F1140000EB8100AF
:104F9000006928B904F29C420121206809F07CFED6
:104FA000E9B2204600E001E0FFF725FD08F0080027
:104FB000082805D1082106F5106000EB4510816036
:104FC00008F01000102805D1102106F5106000EB44
:104FD0004510816008F04000402805D1402106F5C9
:104FE000106000EB4510816008F0020002281DD11E
:104FF000294658460AF09BF905EBC50101E025E07A
:105000001CE004F1140000EB810A9AF80300012867
:1050100006D100208AF80300E9B2204600F0D8F952
:10502000022106F5106000EB4510816008F0800059
:10503000802803D12946204603F06EFF6D1C02989C
:1050400040080290029800287FF461AF20680AF0BF
:10505000EAF900F00040B0F1004F1CD140F6040026
:10506000805920F0010140F60400815194F8CC04ED
:10507000012807D1002084F8CC0400212046FFF746
:1050800089FC02E0204600F0B4FA2068406900F094
:1050900000402168486120680AF0C5F900F400600A
:1050A000B0F5006F0ED140F60800805900F0010005
:1050B00010B1204600F0ECFA2068406900F400606E
:1050C0002168486120680AF0AEF900F48050B0F51C
:1050D000805F7ED140F60400805920F0010140F647
:1050E00004008151102120680AF021F9002732E0E4
:1050F0004FF67F3106F5106000EB4710816006F532
:10510000106000EB4710006820F4001106F51060F5
:1051100000EB471001604FF67F3106F5306000EB81
:105120004710816006F5306000EB4710006820F4FE
:10513000001106F5306000EB4710016006F53060A5
:1051400000EB4710006840F0006106F5306000EBAE
:10515000471001607F1C2079B842C9D840F61C0076
:10516000805940F0011140F61C008151E07B70B184
:10517000D6F8840840F00B01C6F8841840F64400C5
:10518000805940F00B0140F6440081510FE040F699
:105190001400805942F22B01084340F61401885153
:1051A000081F805940F00B014FF401608151D6F87F
:1051B000000820F4FE60C6F80008A17904F29C42C1
:1051C000206809F069FD2068406900F4805021687A
:1051D00000E000E0486120680AF025F900F4005082
:1051E000B0F5005F17D1206809F00CFB20680AF0C9
:1051F000C8F8E07100F026FB0090E2792068009981
:105200000AF098F9204600F0DDF92068406900F4C2
:1052100000502168486120680AF005F900F0080094
:10522000082808D1204600F0E8F92068406900F01D
:1052300008002168486120680AF0F5F800F0800055
:10524000802818D1DBF8180020F08000CBF8180077
:1052500001250DE005EBC50104F5157000EB81009B
:10526000C078012803D1E9B22046FFF7DBFB6D1CB3
:105270002079A842EED820680AF0D5F800F4801012
:10528000B0F5801F2DD1012522E006F5106000EB5E
:105290004510D0F8009005EBC50104F1140000EBB7
:1052A00081000079012812D109F00040B0F1004FCF
:1052B0000DD1012105EBC50204F1140000EB8200C1
:1052C000C170E8B240F080012046FFF7ABFB6D1CD7
:1052D0002079A842D9D82068406900F4801021685C
:1052E000486120680AF09FF800F40010B0F5001F34
:1052F00044D1012538E006F5306000EB4510D0F8C8
:10530000009005EBC50104F5157000EB81000079F4
:10531000012828D109F00040B0F1004F23D109F451
:10532000803094F8D41401F0010188421BD101218E
:1053300005EBC50204F5157000EB8200C170DBF8C7
:10534000180040F08000CBF81800DBF8140000F0E3
:10535000800040B940F60400805940F4007140F6E6
:105360000400815103E06D1C2079A842C3D800BF1E
:105370002068406900F400102168486120680AF044
:1053800052F800F08040B0F1804F08D12046FFF77E
:105390002EFB2068406900F0804021684861206849
:1053A0000AF041F800F0040004280FD12068D0F87A
:1053B000049009F00400042802D12046FFF72EFBD8
:1053C0002068406840EA09002168486000BFA9E4FD
:1053D000D0F8E00408F034BED0F8E00408F045BE90
:1053E000F8B504460CB90120F8BD266894F8950478
:1053F00028B9002084F89404204600F0A1F8032086
:1054000084F89504B6F1A04F01D10021A171206864
:1054100009F03AFC207C8DF8000094E80F0009F0B8
:1054200005FA20B1022084F895040120DCE7002170
:1054300020680AF02DF820B1022084F8950401209C
:10544000D2E7002531E0012105EBC50204F114008B
:1054500000EB8200417005EBC50104F1140000F877
:10546000215005EBC50100EB81004583002105EBD0
:10547000C50204F1140000EB8200017105EBC502C6
:1054800004F1140000EB8200816005EBC50204F119
:10549000140000EB8200C16005EBC50204F11400AA
:1054A00000EB82000161681CC5B22079A842CADC09
:1054B00000252AE0002105EBC50204F5157000EB7C
:1054C0008200417005EBC50104F5157000F821500C
:1054D000002105EBC50200EB8200017105EBC5025E
:1054E00004F5157000EB8200816005EBC50204F540
:1054F000157000EB8200C16005EBC50204F5157064
:1055000000EB82000161681CC5B22079A842D1DCA1
:10551000207C8DF8000094E80F0009F0C1FA20B15A
:10552000022084F8950401205EE7002060740120C9
:1055300084F89504206809F0A1FA002054E70000DF
:1055400000B587B000210291039104910591069165
:105550000068B0F1A04F2BD11648016841F001015D
:105560000160006800F0010001904FF4C05002900B
:1055700002200390032005900A20069002A90E48FD
:10558000FEF758FD0D48016841F0800101600C48AC
:10559000016841F480410160006800F4804001909E
:1055A000002211464320FFF7A3F94320FFF78CF9AF
:1055B00007B000BD303802400000024034380240DD
:1055C0004438024070B504460125E07900280ED029
:1055D000022801D0FCF7FAFA2946D4F8E00408F0D2
:1055E000B5FDD4F8E004BDE8704008F068BD0025C2
:1055F000F2E7D0F8E00408F092BDD0F8E00408F03B
:1056000098BD70B504460D4600BF94F89404012877
:1056100001D1022070BD012084F8940400BF65749C
:105620002946206809F068FF00BF002084F8940430
:1056300000BF00BFEEE7D0F8E02400F29C41104626
:1056400008F090BD70B50446256800BF94F8940436
:10565000012801D1022070BD012084F8940400BF0C
:10566000E86800F0400030B1607B012803D1A86BEE
:1056700040F48030A863206809F02AFE206809F011
:10568000EBF900BF002084F8940400BF00BFE2E7FC
:1056900010B50446D4F8E00408F0A8FD2068D0F85E
:1056A000001E41F00101C0F8001EE07A002804D07D
:1056B0000248016841F00601016010BD10ED00E0F4
:1056C00070B504460D460CB9012070BD58480068FD
:1056D00000F00700A84209D255490D70084600683D
:1056E00000F00700A84201D00120EEE7207800F08A
:1056F000020002281DD1207800F00400042805D102
:105700004C48006840F4E0504A490860207800F0B6
:105710000800082805D14748006840F46040454922
:1057200008604448006820F0F000A168084341493F
:105730000860207800F00100A8B36068012807D154
:105740003C4808380068C0F34040B8B90120BCE7C5
:105750006068022802D06068032807D135480838FD
:105760000068C0F3406048B90120AEE7314808380E
:105770000068C0F3400008B90120A6E72D48006882
:1057800020F00300616808432A490860FEF752FDD3
:10579000064609E0FEF74EFD801B41F28831884243
:1057A00002D9032091E707E02248006800F00C00CE
:1057B0006168B0EB810FEDD11D48006800F0070073
:1057C000A84209D91A490D700846006800F0070080
:1057D000A84201D0012078E7207800F004000428D6
:1057E00007D11448006820F4E050E16808431149EB
:1057F0000860207800F00800082808D10D480068EB
:1058000020F46040216940EAC1000A49086000F0C4
:105810003FF808490968C1F30311074A515CC840C1
:105820000649086006480068FFF704F800204CE7C6
:10583000003C024008380240303A010834010020A0
:105840002C0100200148006870470000340100204E
:1058500000B5FFF7F7FF04490968C1F38221034A45
:10586000515CC84000BD000008380240403A0108C1
:1058700000B5FFF7E7FF04490968C1F34231034A65
:10588000515CC84000BD000008380240403A0108A1
:105890002DE9F047002400250026A1462548006890
:1058A00000F00C0020B1042805D008283AD105E00A
:1058B000DFF8849039E0DFF8849036E01D48001F5F
:1058C000006800F03F041B48001F006800F48000DF
:1058D00078B11A481749091F0968C1F38811A0FB5C
:1058E00001700146224600233846FAF7DDFC0546E2
:1058F0000EE011480F49091F0968C1F38811A0FB88
:1059000001700146224600233846FAF7CDFC0546D1
:105910000848001F0068C0F30140401C4600B5FB6A
:10592000F6F902E0DFF8109000BF00BF4846BDE87E
:10593000F0870000083802400024F400001BB70084
:10594000F8B504460CB90120F8BD207800F001003C
:10595000002874D0F948006800F00C0004280DD02D
:10596000F648006800F00C00082813D1F348001F27
:10597000006800F48000B0F5800F0BD1EF480838C4
:105980000068C0F34040002859D06068002856D114
:105990000120D9E700BF6068B0F5803F08D1E74833
:1059A0000838006840F48030E449083908601EE097
:1059B0006068B0F5A02F0DD1E0480838006840F4C9
:1059C0008020DE49083908600846006840F48030CD
:1059D00008600CE0D9480838006820F48030D749C6
:1059E000083908600846006820F48020086000BF7D
:1059F000606890B1FEF71EFC054606E0FEF71AFC53
:105A0000401B642801D903209EE7CC480838006871
:105A1000C0F340400028F1D011E0FEF70BFC054632
:105A200006E0FEF707FC401B642801D903208BE742
:105A3000C24808380068C0F340400028F1D12078FF
:105A400000F0020002285FD1BC48006800F00C00A2
:105A500058B1BA48006800F00C0008281CD1B748BB
:105A6000001F006800F48000B0B9B448083800682E
:105A7000C0F3400020B1E068012801D0012063E7B5
:105A8000AE480838006820F0F800216940EAC100FB
:105A9000AA490839086037E0E06800B30120A84946
:105AA0000860FEF7C7FB054606E0FEF7C3FB401B98
:105AB000022801D9032047E7A04808380068C0F34E
:105AC00040000028F1D09D480838006820F0F80018
:105AD000216940EAC10099490839086014E00020B2
