:020000040800F2
:10000000A05600209D0100089DAA0008218200083A
:1000100099AA0008E71800084DEC0008000000004D
:10002000000000000000000000000000B5B900085A
:100030005D28000800000000E5AE0008B7B9000820
:10004000B7010008B7010008B7010008B7010008B0
:10005000B7010008B7010008B7010008B7010008A0
:10006000B70100088729000891290008B701000896
:1000700055240008B7010008B7010008B7010008BF
:10008000B7010008B7010008B7010008951900087A
:1000900085190008B7010008B70100089B2900086E
:1000A00089BA0008B7010008B7010008B7010008C5
:1000B000B701000899BA0008B7010008B7010008A5
:1000C000B7010008B7010008B7010008B701000830
:1000D000B7010008B7010008B7010008D1C7000840
:1000E000B7010008B7010008B7010008B701000810
:1000F000B7010008B7010008B7010008B701000800
:10010000B7010008B7010008B7010008B7010008EF
:10011000B7010008B7010008B7010008B7010008DF
:10012000B70100086524000875240008852400082C
:10013000B7010008B7010008B7010008651A0008F8
:10014000551A0008B7010008B7010008A1AA000865
:10015000B701000895240008B701000815C9000878
:10016000B7010008B7010008B7010008B70100088F
:10017000B7010008B7010008B7010008000000003F
:10018000B7010008B7010008DFF80CD001F0BEF895
:100190000048004711170108A05600200648804774
:1001A00006480047FEE7FEE7FEE7FEE7FEE7FEE75C
:1001B000FEE7FEE7FEE7FEE775BA000889010008E2
:1001C000B5EEC00AF1EE10FA07D2DFED1E0AB4EE6A
:1001D000E00AF1EE10FAA8BF7047DFED1B0AB5EE9A
:1001E000C00A60EE200ABDEEE01A11EE100AF1EE30
:1001F00010FA38BF401E00EE100A1549F7EE001A3B
:10020000B8EEC00A30EEC00ADFED100A60EE200A38
:10021000BCEEE00A10EE100AC0F3080000EE100A6F
:1002200001EB8000B8EE400A90ED011A70EEC00AB2
:1002300090ED000A71EEE01A21EE800A00EE810ACC
:1002400070470000CD024CB483F9223E0000004408
:10025000381E010870B405880E884468D1F804C0BF
:100260005368B54208D140884988884201BF118847
:100270008D425188884203D070BC6FF002007047F5
:1002800005FB00F1880827D094ED001ADCED000A88
:1002900094ED010ADCED011A31EE201AD4ED020AC8
:1002A00070EE211A9CED020A83ED001AC3ED011ACB
:1002B00094ED031ADCED031A30EE800A401E71EE55
:1002C000210A83ED020A04F11004C3ED030A03F1CD
:1002D00010030CF1100CD7D111F0030030D0B0F1A5
:1002E000004F30D200282BDD211F1B1FACF1040270
:1002F00010F0010F0AD091ED010AD2ED010A091D9B
:10030000121D30EE200A83ED010A1B1D400817D094
:1003100091ED010AD2ED010A401E30EE200A83ED74
:10032000010A91ED020AD2ED020A01F1080102F17F
:10033000080230EE200A83ED020A03F10803E7D138
:1003400070BC00207047B4EC010A401EFCEC010AAE
:1003500030EE200AA3EC010AF5D1F1E701804280DA
:10036000436070472DE9F34F84B0049840680090D3
:10037000486801900498B0F800E04588DFEDFE0A77
:1003800000200290B0EE600AAE4506D10888498888
:10039000884204BF7146864504D06FF0020006B063
:1003A000BDE8F08F01985FEA010C18BFB7EE001AA4
:1003B0003DD000BFBEEB0C0117D0B1F1004F80F073
:1003C0001F82002911DD021F11F0010F1CBFC2EDB9
:1003D000010A121D4B1006D0C2ED010AC2ED020A3D
:1003E00008325B1EF8D100EB8100BCF10102A0ECE9
:1003F000011A19D0B2F1004F80F00882002A13DDF3
:10040000031F12F0010F1CBFC3ED010A1B1D511089
:1004100008D000BFC3ED010AC3ED020A491E03F173
:100420000803F7D100EB8200BCF1010CC2D14FF000
:1004300000080395002D14BFB0EE602A002000F0E4
:10044000BF8100BF009908FB05F001EB800B01990B
:10045000DBED002A01EB80000346F0EE421AC645B0
:1004600052D9AEEB0802ABEB850112F0010F17D0A9
:1004700001EB850191ED000AB5EEC00AF1EE10FA2C
:1004800007DDB4EEE10AF1EE10FA09DDF0EE401AF4
:1004900006E0B1EE400AF4EEC01AF1EE10FAF5D320
:1004A000521031D001EB850C9CED000AB5EEC00A6C
:1004B000F1EE10FA05DDB4EEE10AF1EE10FA09DD15
:1004C00006E0B1EE400AF4EEC01AF1EE10FA01D2E5
:1004D000F0EE401A01EBC50191ED000AB5EEC00A3D
:1004E000F1EE10FA05DDB4EEE10AF1EE10FA09DDE5
:1004F00006E0B1EE400AF4EEC01AF1EE10FA01D2B5
:10050000F0EE401A521ECDD1F5EEC01AF1EE10FAFF
:1005100000F07381F5EEC02A0126F1EE10FA009981
:10052000D4BFB1EE620AB0EE620AB4EE610AF1EE37
:1005300010FA1CBFAEEB0802B2F1010C47D005FB6C
:1005400008F201EB820292ED001A00BFB0EE410A00
:1005500005FB06F4B5EEC00A00EB8404F1EE10FAD8
:10056000CCBFF0EE400AF1EE400AF4EE610AF1EE83
:1005700010FA28D1B5EB080C11D0BCF1004F7DD298
:10058000BCF1000F0BDD00BF92ED000AD1ED000AB7
:10059000BCF1010CE2EC010AA1EC010AF4D1290042
:1005A0000ED0B1F1004F6AD2002909DD94ED000AA6
:1005B000D0ED000A491EE4EC010AA0EC010AF5D1D5
:1005C000012002900BE0761CBCF1010CBED1029818
:1005D000012804D0F5EEC02AF1EE10FA7ED09BED92
:1005E000000AB5EB08009A465946064622D0B0F1FB
:1005F000004F74D200281DDD091F10F0010F06D036
:10060000F0EE400A80EEA01A81ED011A091D40109B
:1006100010D000BFD1ED010A401E80EE801A81ED9E
:10062000011A91ED021AC1EE000AC1ED020A01F1B0
:100630000801EFD1280026D0B0F1004F7ED200286B
:1006400021DDAAF1040110F0010F06D0D1ED010A5D
:1006500080EE801A81ED011A091D401013D000BFF1
:10066000D1ED010A401E80EE801A81ED011AD1ED14
:10067000020A80EE801A81ED021A01E0CBE0D6E09A
:1006800001F10801ECD1DDE900124FF000095FEA49
:100690000E0773D0C14504BF01EB860102EB850252
:1006A00074D091ED000ADC465046331E35D01C460E
:1006B000B6F1004F7ED2002C2FDD0B1FABF1040CE6
:1006C00016F0010F0FD0F0EE400ADCED011AB0EE8B
:1006D000601A00EEE11A83ED011A01E08DE0B1E04D
:1006E0001B1D0CF1040C741015D000BFD3ED010AD2
:1006F0009CED011A40EE410AC3ED010AD3ED020A56
:100700009CED021A0CF1080C40EE410AC3ED020AFE
:100710000833641EEAD101EB86012B0036D0B3F119
:10072000004F72D2002B31DDA2F1040CAAF10400BB
:1007300013F0010F0CD0DCED010A00E08BE090ED2E
:10074000011A001D40EE410ACCED010A0CF1040C27
:100750005C1019D0DCED010A90ED011A40EE410A5F
:10076000CCED010ADCED020A90ED021A083040EEF1
:10077000410ACCED020A03E0000000000DE005E0B4
:10078000641E0CF1080CE5D102EB830201EB880139
:100790007F1E09F101097FF47DAF009808F101087F
:1007A000001D00900398401E03907FF44BAE029909
:1007B000012900E058E004BF06B0BDE8F08F00BF9B
:1007C000B5EEC00AF1EE10FA7FF4E9AD04990EFB24
:1007D00005F3002B4A684FF000010BD902EB810CA6
:1007E0009CED000AB5EEC00AF1EE10FA02D1491CE8
:1007F0008B42F3D88B427FF4D2AD6FF00400CEE58C
:10080000E0EC010A491EFBD1EFE538E0E0EC010A1B
:10081000521EFBD108E692ED000AD1ED000ABCF1B0
:10082000010CE2EC010AA1EC010AF4D1B7E694ED67
:10083000000AD0ED000A491EE4EC010AA0EC010A0E
:10084000F5D1BDE6D1ED000A401E80EE801AA1EC84
:10085000011AF7D1EEE6D3ED000A401E80EE801AB1
:10086000A3EC011AF7D10EE7BCEC011AD1ED000A96
:100870005B1E40EE410AE1EC010AF5D14DE7B0EC18
:10088000011AD2ED000A5B1E40EE410AE2EC010AB9
:10089000F5D17BE72DE9F04F82B0466853680193AC
:1008A000058847884B88002000900888874201BF50
:1008B000B2F800C06545528893421EBF6FF0020037
:1008C00002B0BDE8F08F9FED412A4FEA970EC7F3C3
:1008D000400B00BFDDE9000202EB800A4A6898463F
:1008E0004FF00009B0EE420AB4465FEA0E0025D090
:1008F00092ED001ADCED001A02EB8302DCED010A36
:1009000001EE810A92ED001A02EB8302401ED2ED45
:10091000001A02EB830200EE810A9CED021ADCED64
:10092000030A00040CF1100C000C01EE210A92EDF8
:10093000001A02EB830200EE810AD9D117F00300FE
:1009400026D0ACF10404A2EB830210F0010F08D012
:1009500002EB8302D4ED010A92ED001A241D00EE91
:10096000810A5FEA0B0013D002EB830CD4ED010A7D
:100970009CED001A02EBC302401E00EE810AD4ED8A
:10098000020A92ED001A04F1080400EE810AEBD18C
:1009900009F10100AAEC010A1FFA80F9486800EB8E
:1009A0008902A8F101001FFA80F8B8F1000F99D16F
:1009B000009806EB8706184480B20090681E050474
:1009C0002D0C87D102B00020BDE8F08F00000000A0
:1009D00070B405880E884468D1F804C05368B542E5
:1009E00008D140884988884201BF11888D425188CA
:1009F000884203D070BC6FF00200704705FB00F125
:100A0000880827D094ED001ADCED000A94ED010A65
:100A1000DCED011A31EE601AD4ED020A70EE611AB3
:100A20009CED020A83ED001AC3ED011A94ED031A3E
:100A3000DCED031A30EEC00A401E71EE610A83ED50
:100A4000020A04F11004C3ED030A03F110030CF1D0
:100A5000100CD7D111F0030030D0B0F1004F30D2DC
:100A600000282BDD211F1B1FACF1040210F0010F29
:100A70000AD091ED010AD2ED010A091D121D30EED6
:100A8000600A83ED010A1B1D400817D091ED010A91
:100A9000D2ED010A401E30EE600A83ED010A91EDAD
:100AA000020AD2ED020A01F1080102F1080230EE59
:100AB000600A83ED020A03F10803E7D170BC00204D
:100AC0007047B4EC010A401EFCEC010A30EE600AEB
:100AD000A3EC010AF5D1F1E72DE9F04F0288476850
:100AE000B0F802804888D1F8049082B04FF0000A34
:100AF0001646824207BF098888456FF0020002B09F
:100B000018BFBDE8F08F4FEA980B02EB420001904E
:100B1000C8F34000CDF8000009EB8A01BBF1000FDB
:100B200033D0019801EB820C01EB80043B46E64692
:100B300001EBC2054FEA0B0093ED000A401E81ED68
:100B4000000A93ED010A01EB02118CED000A93ED0E
:100B5000020A0CEB021C85ED000A93ED030A05EB7B
:100B6000021584ED000A04EB021403F11003E3D133
:100B70000EEB820000EB820000EB8201ABF1010082
:100B8000504307EB0B1701EB001118F0030C21D0B9
:100B90003B1FA1EB82011CF0010F06D093ED010A6F
:100BA00001EB82011B1D81ED000A009880B100BF9E
:100BB00093ED010A01EB820401EBC20184ED000A0E
:100BC00093ED020A401E81ED000A03F10803EFD104
:100BD00007EB8C070AF101001FFA80FA701E060469
:100BE000360C99D102B00020BDE8F08F2DE9F05FFE
:100BF0000546002092469B4688460646814640248C
:100C00001BE0284641464746224600F060FA53461C
:100C10005A46C01A914110D311461846224600F098
:100C200047FA2D1A67EB01084F46224601200021A2
:100C300000F03EFA17EB00094E41201EA4F101041A
:100C4000DFDC484631462A464346BDE8F09F40EA8D
:100C500001039B0703D009E008C9121F08C0042A3A
:100C6000FAD203E011F8013B00F8013B521EF9D221
:100C70007047D2B201E000F8012B491EFBD2704749
:100C80000022F6E710B513460A4604461946FFF758
:100C9000F0FF204610BD2DE9FE4F804681EA03009B
:100CA000C00F0C46009021F0004123F00045B8EB46
:100CB0000200A94105D24046214690461C460B46FB
:100CC000024623F00040104347D0270DC7F30A0027
:100CD000C3F30A510290401A019040286BDAC3F323
:100CE000130040F4801B0098924620B10023D2EB01
:100CF000030A63EB0B0B01985946C0F140025046C2
:100D000000F0D6F906460D4650465946019A00F0C5
:100D1000EEF910EB08006141002487EA115284EAE1
:100D2000E7731A4340D0009A62B3019A012A4FEA4E
:100D3000075215DC001B61EB02014FF0004202EA92
:100D40000752CDE90042001C41F5801132462B4686
:100D500000F025FA03B0BDE8F08F40462146F9E7E0
:100D6000001B61EB0201001C41F5801300185B4180
:100D70002018A2F5001747EB030140EAD570B61919
:100D80006D4111E06D084FEA360645EAC0754FEA3D
:100D90000752001B61EB0201001C41F5801149085C
:100DA0004FEA30000019514132462B4603B0BDE8EE
:100DB000F04F00F0E5B90098012240000023D0EB8D
:100DC000020263EBE073009821464FEAE074B8EB4F
:100DD000000061EB0401E9E783F000435BE781F089
:100DE000004158E72DE9FE4F81EA030404F0004476
:100DF00021F0004100944FF0000B23F0004350EA33
:100E000001045ED052EA03045BD0C3F30A54C1F379
:100E10000A552C44A4F2F3340194A0FB0254C1F30C
:100E2000130141F48011C3F3130343F4801301FB56
:100E3000024400FB034E840A970A44EA815447EABD
:100E40008357A4FB076802958D0A05FB07854FEAC7
:100E5000932C04FB0C542705029D4FEA065847EAE1
:100E60001637B5EB08056EEB070C870E920E47EAB6
:100E7000811742EA8312A7FB0201B6EB0B0164EB78
:100E800000042B0D43EA0C335E1844EB1C50DA4689
:100E90005146E7FB0201C5F313044FEA0B3343EA63
:100EA00014534FEA0432019C43EA0603A4F10C04F4
:100EB0000294009CCDE900B400F071F903B0BDE8E4
:100EC000F08F00200146F9E72DE9F04D81EA030497
:100ED00004F0004B21F0004514464FF0000A23F0C7
:100EE000004150EA050220D054EA01021DD0C5F3AA
:100EF0000A570246C5F31303C1F31300C1F30A56A0
:100F000040F4801543F48013A7EB0608101BD64667
:100F100008F2FD3873EB050002D308F1010801E087
:100F200092185B41B8F1000F03DA00200146BDE8DA
:100F3000F08D00204FF48011064684460EE0171B0A
:100F400073EB050705D3121B63EB050306434CEA5D
:100F5000010C49084FEA300092185B4150EA010742
:100F6000EDD152EA030012D082EA040083EA0501BF
:100F7000084305D0101BAB4106D20122002306E036
:100F800000224FF0004302E06FF0010253101AEB11
:100F900006004CEB085110EB0A0041EB0B01BDE8D9
:100FA000F04D00F0EDB80EB5C10F80EAE0700844D6
:100FB000CA07002140F233438DE80E000A460B4673
:100FC00000F0EDF803B000BD0EB540F233410291E0
:100FD0000021CDE900110A460B4600F0E0F803B00D
:100FE00000BD70B5C1F30A5201F000450024C1F301
:100FF000130140F2FF3341F480119A4201DA0020DC
:1010000070BD40F233439A42A2F2334203DC5242B3
:1010100000F05DF800E090402C43F1D0404270BDFC
:1010200000F0004230F000400AD0C10D01F56071BF
:10103000C0F3160042EA0151C2084007114370474D
:10104000002001467047000030B5041E71F1000415
:1010500004DB4FF00044404264EB0101141E73F1C5
:10106000000405DB1C464FF00043524263EB0403CF
:10107000994208BF904230BD01F0004330B421F0E6
:10108000004150EA010206D00A0DA2F56072C1F3D8
:101090001301002A02DC30BC00207047440F44EAF0
:1010A000C104C100E01830BC00EBC25000F031B800
:1010B000202A04DB203A00FA02F100207047914018
:1010C000C2F1200320FA03F3194390407047202A0D
:1010D00004DB203A21FA02F00021704721FA02F3E2
:1010E000D040C2F120029140084319467047202A9F
:1010F00006DBCB17203A41FA02F043EAE07306E040
:1011000041FA02F3D040C2F120029140084319464F
:1011100070470029A8BF7047401C490008BF20F055
:101120000100704710B4B0FA80FC00FA0CF050EAED
:10113000010404BF10BC704749B1CCF1200421FA6E
:1011400004F411FA0CF118BF012121430843A3EB69
:101150000C01CB1D4FEA00614FEA102042BF002076
:1011600010BC704700EBC35010440029A4BF10BC52
:101170007047401C490008BF20F0010010BC7047B8
:1011800010B5141E73F1000408DA401C41F100018F
:1011900092185B411A4301D120F0010010BD2DE9E6
:1011A000F04D92469B4611B1B1FA81F202E0B0FADD
:1011B00080F220329046FFF77BFF04460F4640EA5C
:1011C0000A0041EA0B0153465A46084313D0114620
:1011D00053EA010019D0C8F140025046FFF777FFEB
:1011E00005460E46504659464246FFF761FF084302
:1011F00005D0012004E020463946BDE8F08D0020EE
:10120000054346EAE0762C4337430A986305E40A2F
:10121000A0EB08000022FD0A44EA47540A3002D538
:1012200000200146E9E7010510196941DDE908459B
:1012300000196941BDE8F04DA2E770B521F0004307
:1012400003430CD0C1F30A550024D5EB040564EB2D
:101250000403D617AD1AB34102DB0020014670BD6E
:10126000201841EB025170BD2DE9F04D00231A46C4
:101270001B1A8A4103DB00200146BDE8F08DC1F353
:101280000A52C1F3130141F480154FF0000BD1074E
:1012900002D100186D41521E0027044640F2FF1192
:1012A000384601EB620A3E468046024600204FF473
:1012B0008011FFF70CFFC2197141BB1846EB01000A
:1012C000B4EB030C75EB000C04D3E41A65EB0005DA
:1012D00017460E46241908F101006D418046342856
:1012E000E3DDF91946EB0600091BA84103D24FF0D4
:1012F000FF32134601E0002213461BEB070046EBCA
:101300000A51BDE8F04DFFF73BBF0000064C074D0A
:1013100006E0E06840F0010394E8070098471034C5
:10132000AC42F6D3FEF734FFF0270108102801087D
:1013300070B58C1810F8015B15F0070301D110F897
:10134000013B2A1106D110F8012B03E010F8016BC4
:1013500001F8016B5B1EF9D12B0705D40023521E47
:101360000DD401F8013BFAE710F8013BCB1A921CAF
:1013700003E013F8015B01F8015B521EF9D5A142AD
:10138000D8D3002070BD30B505460C46002D0DD0D9
:10139000022C0BD94FF6FF72A11E284602F032F83C
:1013A000291901F8020C000A01F8010C30BD0000F7
:1013B00010B501221021024803F08AFF10BD000081
:1013C0000000024010B500221021024803F080FF07
:1013D00010BD00000000024010B501221146024875
:1013E00003F076FF10BD00000004024010B500229B
:1013F0000121024803F06CFF10BD00000004024010
:1014000010B50446FFF7DEFF922000F0A3F9062294
:101410009549122000F07EF9FFF7CAFF9248407804
:10142000000200B2904909780843904908800846B4
:10143000B0F9000000EE100AB8EEC00A8C48D0EDFA
:10144000000A20EE200AD4ED080A20EE200A84EDDE
:10145000000A8548C078000200B2834989780843B1
:10146000824908800846B0F9000000EE100AB8EE84
:10147000C00A7F48D0ED000A20EE200AD4ED080A09
:1014800020EE200A84ED010A77484079000200B27C
:10149000754909790843754908800846B0F9000084
:1014A00000EE100AB8EEC00A7148D0ED000A20EE36
:1014B000200AD4ED080A20EE200A84ED020AFFF784
:1014C00095FF08226849002000F024F9FFF784FF07
:1014D000654800780F284FD166480078F0B362481D
:1014E000C078000200B26049897808435F490880EB
:1014F00094ED090A0846B0F9000000EE900AF8EEF3
:10150000E00A5D4890ED001A10EE810A84ED030AAE
:1015100055484079000200B25349097908435349BC
:10152000088094ED0A0A0846B0F9000000EE900A1F
:10153000F8EEE00A504890ED001A10EE810A84EDB2
:10154000040A4948C079000200B247498979084332
:101550004649088094ED0B0A084600E00DE0B0F91A
:10156000000000EE900AF8EEE00A434890ED001A01
:1015700010EE810A84ED050A44E03B48C078000281
:1015800000B2394989780843384908800846B0F9DB
:10159000000000EE100AB8EEC00A3748D0ED000A8D
:1015A00020EE200A84ED030A2F484079000200B2A1
:1015B0002D49097908432D4908800846B0F90000F3
:1015C00000EE100AB8EEC00A2B48D0ED000A20EE5B
:1015D000200A84ED040A2448C079000200B222499E
:1015E00089790843214908800846B0F9000000EED7
:1015F000100AB8EEC00A2048D0ED000A20EE200AFA
:1016000084ED050AFFF7DEFEA22000F0A3F8022217
:101610001549222000F07EF8FFF7CAFE1248007834
:10162000C0001149497840EA611010490880084615
:10163000B0F90000B0F5806F05DB08460088A0F522
:10164000006000B208800948B0F9000000EE100AFE
:10165000F8EEC00AB4EE001AB3EE070A00EE810AF3
:1016600084ED070A10BD0000D2040020DA04002037
:1016700094040020A40400209804002070B50446BF
:101680000D461C48046000201B4908700FF078F9D3
:10169000194909780843184908700FF027FA1649C4
:1016A00009780843144908701DB1144800F0BAFACB
:1016B0001CE09FED130A114880ED090A9FED110A05
:1016C00080ED0A0A9FED0F0A80ED0B0A9FED0E0ACE
:1016D00080ED0C0A90ED0C0ADFED0C0A80EE801A0A
:1016E00080ED081A9FED0A0A80ED060A024800788C
:1016F00070BD0000DC0400209E04002018190020AA
:10170000AC38223BB016CE393F161B41C3F51C4105
:101710000000204270B506460C46154646F0800093
:1017200000F018F806E0552000F014F82070641C52
:10173000681EC5B2002DF6D170BD70B504460D46C9
:1017400044F0800000F006F8552000F003F82870FF
:1017500070BD000001B582B04FF47A70012301AA78
:1017600002A900900348006805F01EFB9DF80400E4
:101770000EBD0000DC04002070B505460C4628466E
:10178000FFF7E8FF2046FFF7E5FF70BDD2ED020A44
:1017900092ED021AB6EE000A00EEC10AD2ED030A7B
:1017A00092ED031A00EEC10AD0ED000A20EE200AE5
:1017B000D2ED010A92ED021A60EE810A92ED001A52
:1017C000D2ED031A41EE610A90ED011A00EE810A92
:1017D000D2ED010A92ED031A60EE810A92ED001A31
:1017E000D2ED021A41EE210A90ED021A00EE810AB2
:1017F000F0EE000A20EE200A81ED000A92ED010AC7
:10180000D2ED020A20EE200AD2ED000A92ED031A70
:1018100000EE810AD0ED000A60EE200A92ED011A76
:10182000D2ED011AB6EE000A01EE610AD2ED031AFA
:1018300092ED032AB0EE401A01EEC21AD0ED011A61
:10184000B0EE600A01EE210AD2ED020A92ED031A0F
:1018500060EE810A92ED001AD2ED011A41EE610AA2
:1018600090ED021A00EE810AF0EE000A20EE200A46
:1018700081ED010A92ED010AD2ED030A20EE200A61
:10188000D2ED000A92ED021A00EEC10AD0ED000A74
:1018900020EE200AD2ED020A92ED031A60EE810AD0
:1018A00092ED001AD2ED011A41EE210A90ED011AD3
:1018B00000EE810A92ED011AD2ED011AF6EE000A4D
:1018C00041EE610A92ED021AD2ED021A41EE610A6E
:1018D00090ED021A00EE810AF0EE000A20EE200AD6
:1018E00081ED020A704700BFFEE7000010B5044614
:1018F0002068A0F20120A0B1012802D0042830D134
:101900001FE004F11C01194808F098FC18484188B0
:101910001848C0F83411164801881648C0F8381124
:101920001FE004F11C01144808F088FC10484188AD
:101930001048C0F8C8120E4801880E48C0F8CC12F2
:101940000FE004F11C010D4801F038FC0848418803
:101950000B48C0F81013064801880948C0F8141352
:1019600000BF00BF00BF00BF10BD0000240E00205C
:10197000E8020020FC0C0020B80F002020130020FB
:101980002810002010B5024802F04FFE10BD0000E4
:10199000F807002010B5024802F047FE10BD000015
:1019A000F807002010B5044640F253122068811A4F
:1019B00090422BD005DCF12829D0A0F2511018BBA1
:1019C00023E0AE290FD0B32935D104F11C011C4806
:1019D00001F0F4FB1B4841881948816119480188CE
:1019E0001748C16127E004F11C01174808F026FCE4
:1019F0001448418814482C388163124801881248E1
:101A00002C38C1630121817515E014E013E0207FBB
:101A100041B20E480177A17F607F41EA002000EECD
:101A2000100AB8EEC00ADFED0A0A80EE201A074855
:101A300080ED081A00BF00BF00BF00BF10BD00004E
:101A400028100020E802002020170020CC160020DB
:101A50000000C84210B5024802F0E7FD10BD0000CA
:101A60002008002010B5024802F0DFFD10BD000084
:101A70002008002030B58BB004460D4601200690AA
:101A8000002001900290039004900790012009909B
:101A90000890002005903149206888421DD13048C7
:101AA000046085620E200A9040F2FF7340F201222A
:101AB000002120460FF0B9FA40F2FF7340F20222F3
:101AC000082120460FF0B1FA40F2FF7340F20522E0
:101AD000142120460FF0A9FA2FE0224920688842FD
:101AE0002BD12148046085620F200A9040F2FF73D9
:101AF00040F20622782120460FF097FA40F2FF7359
:101B000040F20122802120460FF08FFA40F2FF734D
:101B100040F251128C2120460FF087FA40F2FF73F9
:101B200040F25312942120460FF07FFA40F2FF73E7
:101B3000F1229C2120460FF078FA01A9204602F0FC
:101B400017FC204603F06FF80221204602F056FBF6
:101B50001021204602F052FB0BB030BD0064004063
:101B6000B418002000680040E0180020F0B587B0ED
:101B700006460C4617461D4601940020029003902D
:101B8000049005956B463A4601A9304602F04BFB9E
:101B900007B0F0BD04284FF00000704700207047E8
:101BA00010B50022044905480BF0CEF8044903485B
:101BB0000BF0BCF8002010BD2C290020501C002088
:101BC0002C21002070B505460C46284621680DF0F2
:101BD0003FF818B1284621680FF05EFA29460448FC
:101BE0000BF0A4F802480BF071F8002070BD000063
:101BF000501C00200020704710B50A460849D1F853
:101C0000BC12D1F81412002901D0012010BD0146E8
:101C100003480BF099F8BDE8104001480BF02CB9CF
:101C2000501C002070B52DED048B88B004460020B8
:101C30000690079000F04CFDFE4880ED000A00BFC2
:101C400000F046FDFB48D0ED000A30EE600AF2EEEF
:101C5000040AB4EEE00AF1EE10FA14DD9FEDF60A84
:101C600084ED090A9FEDF50A84ED0A0A9FEDF30A57
:101C700084ED0B0A9FEDF20A84ED0C0A9FEDF10A48
:101C800084ED060A55E29FEDF00A00F0DDFC9FEDC1
:101C9000EF0A84ED0C0A9FEDED0A84ED090A9FED31
:101CA000EB0A84ED0A0A9FEDE90A84ED0B0A00268F
:101CB00073E1FFF787FB9220FFF74CFD062206A990
:101CC0001220FFF727FDFFF773FB9DF819000002B4
:101CD00000B29DF8181040EA010500EE105AB8EE67
:101CE000C00ADB48D0ED000A20EE200A84ED000A8D
:101CF0009DF81B00000200B29DF81A1040EA010591
:101D000000EE105AB8EEC00AD148D0ED000A20EE1D
:101D1000200A84ED010A9DF81D00000200B29DF822
:101D20001C1040EA010500EE105AB8EEC00AC8487F
:101D3000D0ED000A20EE200A84ED020AD4ED000A5C
:101D400060EEA00A94ED011AD4ED011A41EE210AC9
:101D500094ED021AD4ED021A41EE210AB0EE600AA7
:101D60000EF07EF9B0EE408A94ED0C0A30EE080ACF
:101D700084ED0C0AFFF73AFB082206A90020FFF7C2
:101D8000C9FCFFF729FB9DF818000F2850D19DF8DA
:101D90001B00000200B29DF81A1040EA010500EE97
:101DA000105AB8EEC00AAB48D0ED000A20EE200A67
:101DB00084ED030A94ED090AD4ED030A30EE200AFB
:101DC00084ED090A9DF81D00000200B29DF81C1068
:101DD00040EA010500EE105AB8EEC00A9D48D0ED69
:101DE000000A20EE200A84ED040A94ED0A0AD4EDDC
:101DF000040A30EE200A84ED0A0A9DF81F00000252
:101E000000B29DF81E1040EA010500EE105AB8EE2F
:101E1000C00A9048D0ED000A20EE200A84ED050AA1
:101E200094ED0B0AD4ED050A30EE200A84ED0B0A7E
:101E300006BBF0EE488AB0EE489A002017E004F1A5
:101E40000C0101EB800191ED000A03A901EB800177
:101E500081ED000A04F10C0101EB800191ED000A13
:101E6000694601EB800181ED000A411CC8B20328DC
:101E7000E5DB49E0B4EEE88AF1EE10FA01DDF0EEC0
:101E8000488AB4EEC98AF1EE10FA01D2B0EE489A4F
:101E9000002037E004F10C0101EB800191ED000A14
:101EA00003A901EB8001D1ED000AB4EEE00AF1EEE6
:101EB00010FA0ADD04F10C0101EB800191ED000A3A
:101EC00003A901EB800181ED000A04F10C0101EB93
:101ED000800191ED000A694601EB8001D1ED000A15
:101EE000B4EEE00AF1EE10FA0AD204F10C0101EBB3
:101EF000800191ED000A694601EB800181ED000A45
:101F0000411CC8B20328C5DB38EEC90A524880ED2F
:101F1000000A002012E003A901EB800191ED000A04
:101F2000694601EB8001D1ED000A30EE600A4B49B1
:101F300001EB800181ED000A411CC8B20328EADBF5
:101F4000454890ED000AF6EE000AB4EEE00AF1EE24
:101F500010FA1BDC414890ED000ADFED410AB4EEB7
:101F6000E00AF1EE10FA11DC90ED010ADFED3C0A17
:101F7000B4EEE00AF1EE10FA08DC90ED020ADFEDB3
:101F8000380AB4EEE00AF1EE10FA00DD0AE09FED47
:101F9000350A00F059FB701C86B23348008886422F
:101FA000FFF687AE00BFD4ED0C0A2F48008800EE84
:101FB000100AB8EE400A80EE801A84ED0C1A002058
:101FC00015E004F1240101EB8001D1ED000A26495E
:101FD000098800EE101AB8EE400A80EE801A04F16B
:101FE000240101EB800181ED001A411CC8B20328D5
:101FF000E7DBFFF7E7F9A220FFF7ACFB022206A917
:102000002220FFF787FBFFF7D3F99DF81800C000E7
:102010009DF8191040EA6115B5F5806F02DBA5F552
:10202000006005B200EE105AF8EEC00AB4EE001AD5
:102030001CE00000CC040020AC38223BB016CE39A6
:102040003F161B41000020420AD7A33B00000000BE
:102050009404002098040020A00400200C19002003
:102060009A99193E6F12033AD0040020B3EE070A82
:1020700000EE810A84ED060A34480088401C00B254
:1020800032490880324890ED000AF6EE000AB4EEBC
:10209000E00AF1EE10FA3FF7D3AD94ED0C0ADFED54
:1020A0002D0A30EE600AB0EEC00AF6EE000AB4EE79
:1020B000E00AF1EE10FAEEDC274890ED000A5FED41
:1020C000180AB4EEE00AF1EE10FAE4DC90ED010A31
:1020D0005FED1D0AB4EEE00AF1EE10FADBDC90EDE4
:1020E000020A5FED210AB4EEE00AF1EE10FAD2DC4A
:1020F00094ED090AB0EEC00ADFED180AB4EEE00A6A
:10210000F1EE10FAC7DC94ED0A0AB0EEC00ADFED7A
:10211000130AB4EEE00AF1EE10FABCDC94ED0B0AFF
:10212000B0EEC00ADFED0D0AB4EEE00AF1EE10FAEF
:10213000B1DC00BF94ED0C0ADFED090A80EE801AD5
:1021400084ED081A08B0BDEC048B70BDA604002015
:10215000A0040020CDCC1C410C1900200AD7233C40
:10216000C3F51C4110B504490448FFF783FC04493A
:102170000448FFF77FFC10BDED180008F8070020A9
:10218000A51900082008002010B5044608231E4A9F
:1021900040F2FF111D48FFF7E9FC08231C4A40F2FA
:1021A000FF111C48FFF7E2FC08231B4A990117485E
:1021B000FFF7DCFC052094FBF0F100FB1140012847
:1021C0000DD10823154A4FF4A8711248FFF7CEFC31
:1021D0000823134A4FF4A9710E48FFF7C7FC0520E6
:1021E00094FBF0F100FB1140022806D108230D4AB0
:1021F0004FF4AA710748FFF7B9FC08230A4A99016E
:102200000448FFF7B3FC10BD6C030020F807002062
:10221000C403002020080020740300201C040020B8
:10222000240400202C040020CC03002001200349BA
:10223000087400204874087070470000CC0C00201F
:1022400000B500F063F800F001F800BD2B48002154
:10225000016041602A48016041602A4890ED010A0E
:10226000BDEEC00A10EE100A000A24490870254885
:1022700090ED010ABDEEC00A10EE100A4870214828
:1022800090ED020ABDEEC00A10EE100A000A887036
:102290001C4890ED020ABDEEC00A10EE100AC8708C
:1022A000184890ED030ABDEEC00A10EE100A000AAD
:1022B0000871144890ED030ABDEEC00A10EE100A32
:1022C0004871104800780E4908700E48407C4870EC
:1022D0000C48007C88700B48007DC8700948007E5F
:1022E00008710848407E487107480649498B0180BB
:1022F0000449C969C0F80210704700001C0400209E
:1023000024040020CC0C00202C0400201448007869
:10231000B0B1012805D0022802D003281ED101E067
:1023200000BF00BF0F48D0F82E000D4948600D488F
:10233000D0F8320088600B48D0F83600C8600DE055
:102340009FED090A064880ED010A9FED070A80ED1E
:10235000020A9FED050A80ED030A00BF00BF704727
:10236000CC0C00204616002000000000344890F8F5
:102370003A0010B1012861D12AE03148C07A012821
:1023800010D1304890F8F00501280BD001202D49DC
:1023900081F8F00502202C49087000202B490870B4
:1023A000294908762648C07A032810D1254890F894
:1023B000F00503280BD00220224981F8F005012006
:1023C000214908700020214908701F49087635E02E
:1023D0001B48007DC0F3001078BB1948007DC0F396
:1023E000401050BB1648407D00F0010028B318484B
:1023F000408978B9134890F8F00501280AD00120E7
:10240000104981F8F00502200F4908704FF4C87098
:102410000F4948810E48408978B90A4890F8F0057C
:1024200001280AD10220074981F8F0050120064958
:1024300008704FF4C8700649488100BF00BF70475C
:102440004616002028100020CC0C0020CC160020BE
:102450003016002010B5024802F086FC10BD0000C6
:10246000AC0B002010B5024802F07EFC10BD00004D
:102470000C0C002010B5024802F076FC10BD0000E4
:10248000F408002010B5024802F06EFC10BD0000F8
:102490005409002010B5024802F066FC10BD00008F
:1024A0006C0C00200146087810381823B0FBF3F2BA
:1024B0000848805CC865032A05D908686FF30900DD
:1024C000001D886503E008686FF309008865886D62
:1024D00070470000881B0108014600208A6A8B694A
:1024E000CBB932B1012A0DD0022A03D0032A10D170
:1024F0000EE000BFCB6A03F08073B3F1807F00D1A0
:10250000012007E0CB6AB3F1C07F00D1012001E0D8
:1025100000E000BF34E08B69B3F5005F1AD132B13F
:10252000012A07D0022A03D0032A11D10AE000BFF2
:1025300001200EE0CB6A03F08073B3F1807F00D1FD
:10254000012006E0CB6AB3F1C07F00D1012000E09A
:1025500000BF15E032B1012A05D0022A04D0032AB7
:102560000CD103E000BF00BF012008E0CB6A03F0FC
:102570008073B3F1807F00D1012000E000BF00BF75
:102580007047000010B502F0A9FE1E4C6168401AA9
:10259000A06002F0A3FE60601B485A210170012177
:1025A0008170C17000234360184991ED7A0AB1EE41
:1025B000400A10EE102A8260A1F5806191EDBC0AFC
:1025C000B1EE400A10EE101AC160DFF844C09CF86A
:1025D0001CC080F801C04FF6FF7CA0F810C0223864
:1025E000D0F82240046043608260C160A0F810C04F
:1025F0001221FEF7C8FEBDE8104012210548FFF782
:10260000FBBA0000040600204E31002028140020F0
:10261000CC1600202C31002008B5084840680090F6
:10262000074900980968884204D206480068401C9F
:102630000449086002490098086008BD001000E0E5
:10264000500400204C0400200C494868F0EE400A79
:1026500000BF0A494968091A01EE101AF8EE411A3A
:10266000074991ED001AB8EE411A20EE811AF4EEF6
:10267000C11AF1EE10FAECD370470000001000E030
:102680004004002010B52DED028B82B004460E48A8
:102690004068019020680199081A00EE100AF8EECF
:1026A000400A0A4890ED000AB8EE400A80EE801A0F
:1026B000B0EE418A01982060FFF7AEFFB0EE480A05
:1026C00002B0BDEC028B10BD001000E04004002001
:1026D00010B52DED028B00F059F80F4890ED000A6F
:1026E000B8EE400A808800EE900AF8EE600A9FED8E
:1026F0000B1A00EE810A0848C08800EE900AF8EE36
:10270000600A9FED071A00EE810AB0EE408AB0EE33
:10271000480ABDEC028B10BD380400206F12833ACA
:10272000BD3786351249096841F08071104A116041
:102730000021104A51601146096841F00101116001
:102740000D4941430D4A1160114609684FF47A72F0
:10275000B1FBF2F10A4A116008490968064AB1FB67
:10276000F2F1084A11600021074A11607047000029
:10277000FCED00E0001000E040420F0040040020AB
:1027800044040020480400204C04002038B52948A7
:1027900040680090FFF740FF274800684FF0FF3186
:1027A000A0FB01310098181841F10001234A03C22F
:1027B000234800232149026803C9FEF717FA214A7A
:1027C00003C220480CC81E4800680024A2FB001564
:1027D00003FB005002FB04021848D0E90030591AEC
:1027E00060EB0200184AC2E9001016480068174959
:1027F0000860174800231449026803C9FEF7F6F978
:1028000012498880084680881149096841430E486A
:10281000D0E90030591A60F100000E4AC2E90010F8
:102820000D4800230B49026803C9FEF7DFF9074989
:10283000C88038BD001000E04C040020580400207F
:1028400040040020600400206804002038040020B8
:102850004404002070040020480400207047000059
:102860002C48008820B12B480088401E2949088048
:102870002848408820B127484088401E2549488084
:102880002448808820B123488088401E21498880C0
:102890002048C08820B11F48C088401E1D49C880FC
:1028A0001C48408920B11B484089401E1949488175
:1028B0001848C08920B11748C089401E1549C881F1
:1028C0001448808920B113488089401E11498881AD
:1028D0001048C08920B10F48C089401E0D49C881E9
:1028E0000C48008A20B10B48008A401E0949088222
:1028F0000848408A20B10748408A401E054948825E
:102900000448808A20B10348808A401E0149888299
:10291000704700003016002010B502464B880B802F
:102920008B884B80CB888B800B89CB804B890B812C
:102930008B894B81CB898B810B8ACB814B8A0B8214
:102940004A82B1F90030B1F902402344B1F90440A0
:102950002344B1F906402344B1F908402344B1F9B6
:102960000A402344B1F90C402344B1F90E402344FA
:10297000B1F910402344B1F9124023440A2493FBD7
:10298000F4F318B210BD10B5082002F099FB10BD89
:1029900010B5102002F094FB10BD10B5202002F0FD
:1029A0008FFB10BDD2ED020A92ED021AB6EE000ABC
:1029B00000EEC10AD2ED030A92ED031A00EEC10A3D
:1029C000D0ED000A20EE200AD2ED010A92ED021AA3
:1029D00060EE810A92ED001AD2ED031A41EE210A4F
:1029E00090ED011A00EE810AD2ED010A92ED031A70
:1029F00060EE810A92ED001AD2ED021A41EE610AF0
:102A000090ED021A00EE810AF0EE000A20EE200A94
:102A100081ED000A92ED010AD2ED020A20EE200AB1
:102A2000D2ED000A92ED031A00EEC10AD0ED000AC1
:102A300060EE200A92ED011AD2ED011AB6EE000AFC
:102A400001EE610AD2ED031A92ED032AB0EE401AAC
:102A500001EEC21AD0ED011AB0EE600A01EE210AB1
:102A6000D2ED020A92ED031A60EE810A92ED001A8D
:102A7000D2ED011A41EE210A90ED021A00EE810A10
:102A8000F0EE000A20EE200A81ED010A92ED010A23
:102A9000D2ED030A20EE200AD2ED000A92ED021ACE
:102AA00000EE810AD0ED000A20EE200AD2ED020AE3
:102AB00092ED031A60EE810A92ED001AD2ED011A2E
:102AC00041EE610A90ED011A00EE810A92ED011AC1
:102AD000D2ED011AF6EE000A41EE610A92ED021AF9
:102AE000D2ED021A41EE610A90ED021A00EE810A5F
:102AF000F0EE000A20EE200A81ED020A704772B65D
:102B000000BFFEE710B57B494888C11700EB117183
:102B10000911A0EB011141BB7748D0F81610D0F88D
:102B20001A0000EB4002C2EBC01001EBC00071497B
:102B30004988411A6F48008800EB4002C2EBC01080
:102B4000A1EBC00010F57A7F0FD26B480021818283
:102B5000016041608160C16001610020674981F8C6
:102B6000F005674908706749087062494888C117CD
:102B700000EB11710911A0EB011101291CD1614871
:102B8000D0F83411D0F8380100EB4002C2EBC0108D
:102B900001EBC00057494988401A5649098801EBA2
:102BA0004102C2EBC111A0EBC10010F57A7F03D244
:102BB000012155480EF0E2F94E494888C11700EB53
:102BC00011710911A0EB011102291CD14D48D0F857
:102BD000C812D0F8CC0200EB4002C2EBC01001EBEF
:102BE000C00044494988411A4248008800EB40022D
:102BF000C2EBC010A1EBC00010F57A7F03D2012117
:102C000041480EF0BBF93B494888C11700EB1171F0
:102C10000911A0EB011103291FD13C48816BC06B46
:102C200000EB4002C2EBC01001EBC0003149498803
:102C3000411A3048008800EB4002C2EBC010A1EB03
:102C4000C00010F57A7F08D201212F480EF096F9C6
:102C500000212E48817509F025F926494888C117B9
:102C600000EB11710911A0EB011104291CD12348BB
:102C7000D0F81013D0F8140300EB4002C2EBC010E0
:102C800001EBC0001B494988411A1A48008800EB33
:102C90004002C2EBC010A1EBC00010F57A7F03D256
:102CA000012119480EF06AF912494888C11700EB52
:102CB00011710911A0EB011105291AD10F48816981
:102CC000C06900EB4002C2EBC01001EBC000094933
:102CD0004988401A0749098801EB4102C2EBC1113A
:102CE000A0EBC10010F57A7F03D2012106480EF057
:102CF00045F910BDE80200204616002028100020EB
:102D0000CC0C0020FC0C002090180020F4160020B1
:102D10001A4890F83A0010B101282CD100E02AE0BE
:102D20001648407DC0F3800020B3154890F8F005A8
:102D300002280CD11348007C48B91348808930B967
:102D40004FF4C8701049888101200E4908740C485E
:102D500090F8F00502280DD10A48007C012809D11D
:102D60000948808930B94FF4C8700749888100202C
:102D70000449087400BF00BF7047000046160020D9
:102D800028100020CC0C00203016002016480078B7
:102D9000E8B101280ED0022823D141F6DC601249A7
:102DA00088804EF22410A1F89801084680880F49C7
:102DB000488316E041F27C500B4988804EF684200F
:102DC000A1F89801084680880849488309E0002056
:102DD00005498880A1F898010846808803494883FE
:102DE00000BF00BF70470000FC0C0020CC0C00208E
:102DF00010B53A48B0F9040001EE100AB8EEC11A55
:102E0000F0EE410A354890ED5E1AB0EE410A801DA1
:102E100007F07EFF3148B0F9980101EE100AB8EED4
:102E2000C11AF0EE410A2D4890EDC31AB0EE410AE6
:102E300000F5CD7007F06CFF2848D0F8D60100EE01
:102E4000100AB1EE400A264880ED000A2348D0F867
:102E50004200244908602148D0F8420000EE100AE0
:102E6000214807F0B0F91D48D0F8D60100EE100A4D
:102E70001E4807F0A8F91948007820B1012816D09B
:102E8000022829D114E01548B0F80403000A1849B3
:102E90000870124890F8040348701048B0F87001A8
:102EA000000A88700D4890F87001C87014E000BFE7
:102EB0000A48B0F80403000A0D490870074890F862
:102EC000040348700548B0F87001000A8870034890
:102ED00090F87001C87000BF00BF10BDFC0C00204E
:102EE0001001002014010020240E0020B80F002043
:102EF00074030020002015E0154901EB800191EDDD
:102F0000000A1349421C01EB820181ED000A1149BC
:102F100001EB800191ED000A0E4901EB820181ED88
:102F2000000A401C0428E7DB0B48B0F9440100EE1E
:102F3000100AB8EEC00A084880ED610AB0F9D8025C
:102F400000EE100AB8EEC00A034880EDC60A7047CA
:102F5000800E002014100020FC0C002010B5002072
:102F600010490870DFED100AB7EE000A40F20221A6
:102F70000E4807F079F9DFED0C0AB7EE000A40F2CF
:102F800001210A4807F070F9312209490548801DDE
:102F900007F094FF312207490448723007F08EFF92
:102FA00010BD0000FC0C00209A99993E240E0020D0
:102FB00098000020D000002010B5274807F082F9C3
:102FC000264807F07FF9FFF795FF052122485C307E
:102FD0000EF01CFC224880ED5E0A052100F54670CB
:102FE0000EF014FC1E4880EDC30A90ED5E0A1D48E9
:102FF00080ED000A1A4890EDC30AB1EE400A1A4863
:1030000080ED000A164890ED4F0A80ED5F0A90EDC2
:10301000B40A80EDC40AB0F9460100EE100AB8EE19
:10302000C00A0F4880ED600AB0F9DA0200EE100A1B
:10303000B8EEC00A0A4880EDC50A90ED5E0AD0EDF0
:10304000C30A30EE200ABDEEC00A10EE100A00B22C
:103050000349488010BD0000240E0020B80F002056
:10306000FC0C0020080100200C01002010B5FFF727
:10307000A3FFFFF78BFEFFF7BBFE0BF065FE0BF027
:10308000ABFE10BD3F4890F83A0010B1012877D14F
:1030900027E03D4890F8F00510B33A48807A0128BF
:1030A0001ED13A48808858B93948007840B100208C
:1030B00037490870374948614FF4C87033498880F0
:1030C0003248808860B932480078012808D0012051
:1030D0002F4908702F4948614FF4C8702B498880E8
:1030E0004EE02848007DC0F3401008BB2548C07C56
:1030F000F0B12648808858B92548007840B10020B2
:1031000023490870234948614FF4C8701F498880DB
:103110001E48808860B91E480078012808D0012028
:103120001B4908701B4948614FF4C87017498880D3
:103130001448007DC0F3401008B31248C07CF0B1C1
:103140001248808858B91248007840B100201049D0
:103150000870104948614FF4C8700C4988800B48CA
:10316000808860B90A480078022808D002200849FF
:103170000870084948614FF4C8700449888000BF4E
:1031800000BF70474616002028100020301600208F
:10319000FC0C0020CC0C00200180704700EE100ACF
:1031A000B8EEC00A9FED041AC0EE010AB0EE080A9C
:1031B00020EE800A7047000000F8FF454A780B783F
:1031C00042EA032213B24381CA788B7842EA03228F
:1031D00013B2C3804A790B7942EA032212B2828089
:1031E0008B7903817047818180ED040A0023037588
:1031F0007047000000EE100AB8EE400A9FED041A76
:10320000C0EE010A9FED030A20EE800A704700001D
:1032100000F8FF450000B44300EE100AB8EE400A83
:103220009FED061AC0EE010AB0EE000A20EE800AF9
:10323000DFED030A20EE200A7047000000F8FF458A
:10324000C3F5484010B50446B4F90400FFF7A6FFE3
:1032500084ED080A94ED080AD4ED040A20EE200A51
:1032600084ED090A2189E187B4F9060004F12A01F5
:10327000FFF752FB20854420015B46200153608903
:1032800081B2442001534421085BFFF7B3FF84ED72
:10329000130A4421085BFFF7BFFF84ED120A4620A2
:1032A000015B4420005B081AB0F5805F05DD50200B
:1032B000005B401C01B2502001534620015B4420BA
:1032C000005B081A10F5805F05DA5020005B401E95
:1032D00001B250200153616D216694ED160A84ED10
:1032E000190A94ED170A84ED1A0A207D98BBB4F9E7
:1032F0005000C0EB40314420005B0144616594ED17
:10330000130AB4F9500000EE900AF8EEE00A9FEDBF
:10331000381A00EE810A84ED170A94ED120AB4F906
:10332000500000EE900AF8EEE00AB0EE001A60EEEF
:10333000810A9FED301A00EE810A84ED160A5420AE
:10334000005BA4F86C0094ED170A84ED1D0A94ED5F
:10335000160A84ED1C0A207D012832D1B4F95000F0
:10336000C0EB40314420005B0144B4F86C00091A02
:10337000616594ED130AB4F9500000EE900AF8EE7E
:10338000E00A9FED1B1A00EE810AD4ED1D0A30EE13
:10339000600A84ED170A94ED120AB4F9500000EEA9
:1033A000900AF8EEE00AB0EE001A60EE810A9FED96
:1033B000111A00EE810AD4ED1C0A30EE600A84ED89
:1033C000160A616D206E081A00EE100AB8EEC00AE7
:1033D0009FED091AC0EE010A9FED080A20EE800A4F
:1033E000DFED070A20EE200A84ED100A10BD000070
:1033F0000000B443C3F5484000F8FF4500007A449C
:103400000000704200280FD0491E0BD3DFF820C007
:1034100010F8013B5340DBB23CF8133083EA122230
:10342000491EF5D2104670474FF6FF7070470000F6
:10343000381C010870B50B480168001D0568001DA7
:103440000068084400280CD0074C0822A11C06F094
:10345000C7F804F112012846BDE87040042206F0C6
:10346000BFB870BD107AFF1FE8050020374890ED07
:10347000010AA0F5FC70D0ED7E0A30EE200A334838
:1034800080ED020A90ED020AF3EE040AB4EEE00ABF
:10349000F1EE10FA0ED2B3EE040A80ED020A90EDBE
:1034A000020AA0F5FC70D0ED7E0A30EE600A2748D3
:1034B00080ED010A254890ED020ADFED250AB4EE01
:1034C000E00AF1EE10FA0EDD9FED210A80ED020A0E
:1034D00090ED020AA0F5FC70D0ED7E0A30EE600A95
:1034E0001A4880ED010A1B4890F80406B0B1012883
:1034F00029D1164890ED020A9FED171AC0EE010A75
:103500009FED161A9FED160A00EE810ABCEEC00A66
:1035100010EE100A13490968886314E00B4890ED17
:10352000020A9FED0D1AC0EE010A9FED0C1A9FEDE5
:103530000C0A00EE810ABCEEC00A10EE100A09491E
:103540000968886300BF00BF704700002016002094
:103550000000344228100020000034430000FA44E8
:103560000000FA43440A002010B52DED048B3F48BB
:1035700090EDBC0AD0EDB30A30EE600A10EE101ADE
:103580000846FDF74DFD41EC190BB0EE490AF0EE8F
:10359000690A0BF031FFB0EE408AF0EE608A9FEDD1
:1035A000340B53EC102B51EC180BFDF74DFD04D2EE
:1035B00031480089401C304908819FED300A2B4872
:1035C00080EDB30A07F090FC2D49A1F8FA022748D4
:1035D00090EDB31AF0EE410A90EDBC1AB0EE410A3C
:1035E00000F50F7007F094FB204890ED9E0AB1EEB5
:1035F000400A80EDB40A90EDB41AF0EE410A90ED65
:10360000BD1AB0EE410A00F5D67007F081FB1748ED
:1036100090ED7A0ABDEEC00A10EE100A01B213480E
:10362000FFF7BAFD1648B0F8F812B0F8FA020844ED
:1036300000B21349A1F8F8020846B0F9F80246F2C0
:10364000A811884203DD08460D49A1F8F8020C488C
:10365000B0F9F8020B49884204DA49F65860084983
:10366000A1F8F802BDEC048B10BD0000201300206F
:10367000000000000000E03F3016002000000000C5
:1036800028100020589EFFFF10B56F4800786E4943
:103690004978884249D024216B48001DFDF7F0FA93
:1036A0006A4890EDBC0A684880ED020A684890EDCF
:1036B000BC0A654880ED010A4FF4107163488C30F4
:1036C000FDF7DEFA4FF4107161488C30FDF7D8FA3F
:1036D00025226049604807F0F1FB25225F495B48DD
:1036E0008C3007F0EBFB25225D495E4807F0E6FBD6
:1036F00025225D495848903007F0E0FB25225B49C0
:103700005B4807F0DBFB25225A4951488C3007F013
:10371000D5FB252258494D48BC3807F0CFFB252260
:1037200056495348903007F0C9FB4748007810B11C
:1037300001285AD15AE0464890F8F00501281CD0DB
:1037400002281BD0032832D14D48D0F81E0000EECD
:10375000100ADFED4C0A80EE201A3D4880EDB51AC4
:103760004748D0F8260000EE100ADFED470A80EE49
:10377000201A364880EDB51A24E000BF4048D0F842
:103780001E0000EE100ADFED410A80EE201A3048DC
:1037900080EDB51A3A48D0F8260000EE100ADFEDA9
:1037A0003C0A80EE201A294880EDB51A0AE09FED08
:1037B000390A274880EDB50A9FED360A234880ED87
:1037C000B50A00BF00BF224890EDB30AD0EDB50A9C
:1037D00030EE200A80EDB30A1C4890EDB30AD0ED1C
:1037E000B50A30EE200A80EDB30A26E0184890F8BA
:1037F000F005012810D002280FD003281AD1124852
:1038000090ED010A124880EDB30A0F4890ED020ACC
:103810000E4880EDB30A0EE000BF0B4890ED010AA0
:103820000B4880EDB30A084890ED020A074880ED86
:10383000B30A00E000BF00BF00BF00BF024800782D
:103840000149487010BD0000CC1600202013002054
:1038500028100020500100203C14002018010020F6
:10386000C00100205C1500208801002030020020EB
:1038700044110020F8010020A0020020680200206E
:103880004616002000004042000010420000C042E6
:10389000000058420000000010B59FED2E0A0121E3
:1038A0002D48FFF7A0FC9FED2B0A02212B48FFF7C4
:1038B0009AFC0021294880F8F2150020274981F858
:1038C000F0059FED270A01F5806080ED7E0AB7EED6
:1038D000000A214880EDB80AB0EE000A084680EDE3
:1038E000B80A002180F80C13017580F8D415002067
:1038F0001A4981F8DC0225221A491B4807F0DEFA32
:1039000025221A4914488C3007F0D8FA2522184984
:10391000184807F0D3FA252217491348903007F0CA
:10392000CDFA25221549164807F0C8FA252215496F
:103930000A488C3007F0C2FA252213490648BC38E1
:1039400007F0BCFA252211490D48903007F0B6FA6D
:1039500010BD00002DB23D3F201300202810002094
:1039600000001442500100203C14002018010020E7
:10397000C00100205C1500208801002030020020DA
:1039800044110020F8010020A0020020680200205D
:10399000564890F8F105022815D1544890F8F005E2
:1039A000032810D19FED520A524880EDB30AB3EEBE
:1039B0000F0A00F5847080ED7E0A9FED4F0A00F536
:1039C000FC7080ED010A494890F8F005032867D1A2
:1039D000464890F8F30540B9444890F8F40520B102
:1039E0009FED430A434880EDB30A404890F8F30541
:1039F000012809D13D4890F8F405012804D09FED35
:103A00003F0A3C4880EDB30A384890F8F305022895
:103A100009D1364890F8F405022804D09FED380A01
:103A2000344880EDB30A314890F8050670B92F4844
:103A300090F8060650B19FED300A324880ED010A39
:103A4000B3EE0F0AA0F5FC7080ED7E0A274890F8CF
:103A5000050601280FD1254890F8060601280AD04E
:103A60009FED250A274880ED010AB3EE0D0AA0F567
:103A7000FC7080ED7E0A1D4890F8050602280FD1E3
:103A80001A4890F8060602280AD09FED1B0A1D4826
:103A900080ED010AB3EE040AA0F5FC7080ED7E0A09
:103AA000124890F8F105032819D1104890F8F00554
:103AB000022804D00D4890F8F00501280FD19FEDA1
:103AC0000E0A0C4880EDB30A9FED0F0A00F58470D2
:103AD00080ED7E0A9FED080A0A4880ED010A03483E
:103AE00090F8F01580F8F1157047000028100020BC
:103AF000333327C12013002000000000333357C1A7
:103B00009A99F3C1201600200000144210B59B487A
:103B100090EDB30ADFED9A0AB4EEE00AF1EE10FA86
:103B200003D29FED970A80EDB30A944890EDB30A53
:103B3000DFED940AB4EEE00AF1EE10FA03DD9FED3A
:103B4000910A80EDB30A904890F8D40510B101288D
:103B50006BD135E0894890EDB31AF0EE410A90ED53
:103B6000BC1AB0EE410A00F50F7007F0D1F8834897
:103B700090ED9E0AB1EE400A80EDB40A90EDB41AC1
:103B8000F0EE410A90EDBD1AB0EE410A00F5D67094
:103B900007F0BEF8794890ED7A0ABDEEC00A10EE43
:103BA000100A01B27548FFF7F7FA7748B0F8F81233
:103BB000B0F8FA02084400B27349A1F8F80234E000
:103BC0006E4890EDB31AF0EE410A90EDBC1AB0EEDB
:103BD000410A00F58E7007F09BF8684890ED560A90
:103BE00080EDB40A90EDB41AF0EE410A90EDBD1AE2
:103BF000B0EE410A8C3007F08BF8634890EDF00A84
:103C0000B1EE400ABDEEC00A10EE100A01B25B48E8
:103C1000FFF7C2FA5C48B0F8F812B0F8FA020844AC
:103C200000B25949A1F8F80200BF00BF5748007818
:103C300080B9554890EDB30A5548407C00EE900A93
:103C4000F8EE600A9FED531A00EE810A4E4880EDAF
:103C5000B60A04E04C4890EDB30A80EDB60A08E0DD
:103C6000494890EDB60ADFED4C0A30EE600A80ED6F
:103C7000B60A454890EDB60AD0EDBB0A30EE600AB0
:103C8000DFED440AB4EEE00AF1EE10FAE8DC08E0F9
:103C90003D4890EDB60ADFED400A30EE200A80ED97
:103CA000B60A394890EDB60AD0EDBB0A30EE600A8C
:103CB000DFED3A0AB4EEE00AF1EE10FAE8D390F83C
:103CC000DC0210B1012857D12BE02F4890EDB61A35
:103CD000F0EE410A90EDBB1AB0EE410A00F50F700C
:103CE00007F016F8284890ED9E0A80EDB40A90ED92
:103CF000B41AF0EE410A90EDBD1AB0EE410A00F59B
:103D0000D67007F005F8204890ED7A0AB1EE400A27
:103D1000BDEEC00A10EE100A01B21B48FFF73CFAD4
:103D20002AE0194890EDB61AF0EE410A90EDBB1A60
:103D3000B0EE410A00F58E7006F0EAFF124890EDF1
:103D4000560A80EDB40A90EDB41AF0EE410A90EDF7
:103D5000BD1AB0EE410A8C3006F0DAFF0A4890ED49
:103D6000320AB1EE400ABDEEC00A10EE100A01B2EE
:103D70000548FFF711FA00BF00BF10BD2013002057
:103D800000001EC20000944128100020CC16002024
:103D9000CC0C0020000034430000B443000034C3C6
:103DA000164890F8F005052819D2DFE800F0030462
:103DB000050F060000BF00BF00BF00200F4981F8BB
:103DC000DC0200210D4880F8D41508E000200B49E2
:103DD00081F8DC020021094880F8D41500BF00BF3B
:103DE000064890F8F01580F8F11590F8F31580F872
:103DF000F41590F8051680F8061670472810002074
:103E0000154890F8F005F0B11448002101604160B8
:103E10001148B0F8F8024042000A104908700E48F4
:103E200090F8F802404248700D480021016041605E
:103E3000094800884042000A09498870064800780D
:103E40004042C87006E00548002101604160044816
:103E50000160416070470000281000206C030020C2
:103E6000C403002010B5B048FFF7ECF9AF4890ED5F
:103E70001C0AF7EE000A20EE200AAD4880EDDE0AAB
:103E8000AA4890ED050AFFEE000A20EE200AA84895
:103E900080EDE00A90EDD50AA348D0EDB80A80EE97
:103EA000201A80EDBB1A07E0A148B0F8E005401CDD
:103EB00001B29F48A0F8E0159B4890EDBB0A9C48D2
:103EC000B0F9E00500EE900AF8EEE00A9FED991ACD
:103ED00000EEC10ADFED980AB4EEE00AF1EE10FA46
:103EE000E2DC07E09248B0F8E005401E01B29048DD
:103EF000A0F8E0158C4890EDBB0A8D48B0F9E005BC
:103F000000EE900AF8EEE00A9FED8A1A00EEC10A70
:103F1000DFED8A0AB4EEE00AF1EE10FAE2D384484B
:103F200090F8D405E8B1012828D17F4890EDBB0A6C
:103F30007F48B0F9E00500EE900AF8EEE00A9FED48
:103F40007D1A00EEC10A784880EDBC0A7848B0F9C5
:103F5000200300EE100AB8EEC00A734880EDBD0AD7
:103F60000CE0734890EDDE0A6F4880EDBC0A7048A3
:103F700090EDE00A6C4880EDBD0A00BF00BF6A48C2
:103F800090EDBC0A6E4880ED070A6948FFF75AF9C0
:103F9000674890ED200A80ED210A644890ED200AE0
:103FA000B1EE400A624880ED200A90ED200AD0ED83
:103FB000210A30EE600ADFED600AB4EEE00AF1EEAD
:103FC00010FA06DDB0F87800401E00B25849A1F89A
:103FD0007800574890ED200AD0ED210A30EE600AB3
:103FE000DFED560AB4EEE00AF1EE10FA06D2B0F8B0
:103FF0007800401C00B24E49A1F878004C4890ED82
:10400000200AB0F9780000EE900AF8EEE00A9FED81
:10401000491A00EE810A464880ED1F0A434890ED98
:10402000060AB1EE400A424880ED220AD0ED170A96
:1040300090EDB81A80EE810A4148407C00EE900A6B
:10404000F8EE600A9FED3C1A00EE810A384880EDD8
:10405000BB0A07E03648B0F8E802401C00B2344919
:10406000A1F8E802324890EDBB0AB0F9E80200EE90
:10407000900AF8EEE00A9FED2F1A00EEC10ADFED7C
:104080002E0AB4EEE00AF1EE10FAE3DC07E028486D
:10409000B0F8E802401E00B22549A1F8E802244821
:1040A00090EDBB0AB0F9E80200EE900AF8EEE00AE3
:1040B0009FED201A00EEC10ADFED200AB4EEE00AFF
:1040C000F1EE10FAE3D31A4890F8DC02D8B10128D7
:1040D00027D1174890EDBB0AB0F9E80200EE900A2C
:1040E000F8EEE00A9FED131A00EEC10A104880EDC9
:1040F000BC0AB0F9280000EE100AB8EEC00A0C485D
:1041000080EDBD0A0DE00A4890ED200A80EDBC0A62
:1041100090ED220A80EDBD0A90ED1F0A80EDBB0AEA
:1041200000BF00BF10BD000020130020C00600200B
:10413000281000200000B44300003443000034C3C2
:10414000CC0C002010B5294890F8F20530B10128B8
:1041500017D002281DD0032842D132E04FF4FA6074
:10416000234908810420214981F8F005FFF718FE52
:1041700001211E4880F8F21502211E480CF0FEFEB7
:104180002EE01B480089401E19490881FFF7ECF911
:1041900026E00321154880F8F21500201449088113
:1041A0000220124981F8F00501211048017580F8BC
:1041B0000C1301201049087003210E480CF0DEFE9C
:1041C0000EE00A4890F8F00548B1FFF7E1FBFFF771
:1041D000E7FDFFF759FAFFF799FCFFF747F900BF32
:1041E00000BFFFF70DFEFFF73DFE10BD28100020B9
:1041F0003016002090180020CC0C002010B502468C
:1042000092F82030012B01D0022B06D110684069B2
:10421000084314686061002010BD506A40F480209B
:1042200050620120F8E7F0B504460D461E4694F8AA
:10423000207020688368A86800B900E000BF012FE3
:1042400001D0022F7DD103F0806030B903F000600F
:1042500018B903F0805000287ED0C3F3016101201B
:1042600088403060A86860B9B5F800C0E86840EAE6
:104270004C5C206800F5C07000EB0110C0F800C075
:104280000FE0D5E901C040EACC00D5F80CC040EA07
:104290000C00D4F800C00CF5C07C0CEB011CCCF871
:1042A0000000D5F810C0206800F5C07000EB0110C8
:1042B000C0F804C0287D01280ED1206800F5C07028
:1042C00000EB0110406840F4807C206800F5C0706D
:1042D00000EB0110C0F804C0D079000692F806C0C7
:1042E00040EA0C4092F805C040EA0C2092F804C065
:1042F00040EA0C00D4F800C00CF5C07C0CEB011CAB
:10430000CCF80C00D078000692F802C040EA0C40CD
:1043100092F801C040EA0C2092F800C040EA0C007C
:10432000D4F800C00CF5C07C0CEB011CCCF80800E4
:10433000206800F5C07000EB0110006840F0010C2F
:1043400001E00FE008E0206800F5C07000EB01100C
:10435000C0F800C00020F0BD606A40F40010606248
:104360000120F8E7606A40F4802060620120F2E7F3
:10437000F0B504460A46216894F82050012D01D07A
:10438000022D7ED1424901F50071086840F001001C
:104390000860086820F47C5008600868566A40EAA3
:1043A00006200860107D00F01F06012000FA06F3C9
:1043B000C8699843C861A1F50071D069C8B9D1F83E
:1043C0000C029843C1F80C02908880B2968940EAAA
:1043D000064601F51070576940F83760108880B2C2
:1043E000168940EA064601F51070576900EBC700D0
:1043F0004660D069012819D1D1F80C021843C1F8E0
:104400000C02908880B2168840EA064601F51070CA
:10441000576940F83760908980B2168940EA0646AD
:1044200001F51070576900EBC7004660906928B924
:10443000D1F804029843C1F8040204E0D1F8040260
:104440001843C1F80402106928B9D1F8140298433E
:10445000C1F8140204E0D1F814021843C1F81402A0
:10446000106A012804D1D1F81C021843C1F81C02BB
:10447000D1F8000220F00100C1F800020020F0BDD8
:10448000FFE7606A40F4802060620120F7E70000E7
:1044900000640040704770B5044694F82050012D28
:1044A00001D0022D7DD151B92068C06800F0030011
:1044B00080B9606A40F400106062012070BD20681D
:1044C000006900F0030028B9606A40F400106062DF
:1044D0000120F3E7206800F5D87000EB01100068B8
:1044E00000F004009060906840B9206800F5D87032
:1044F00000EB01100068400D106007E0206800F537
:10450000D87000EB01100068C0085060206800F50A
:10451000D87000EB0110006800F00200D060206845
:1045200000F5D87000EB0110406800F00F0008287B
:1045300002D30820106108E0206800F5D87000EB75
:104540000110406800F00F001061206800F5D8707D
:1045500000EB0110406800F47F40000A9061206881
:1045600000F5D87000EB01104068000C5061206825
:1045700000F5D87000EB011080681870206800F515
:10458000D87000EB0110806800F47F40000A58707A
:10459000206800F5D87000EB0110806800F47F00FF
:1045A00000E03CE0000C9870206800F5D87000EB4B
:1045B00001108068000ED870206800F5D87000EBFC
:1045C0000110C0681871206800F5D87000EB011068
:1045D000C06800F47F40000A5871206800F5D87068
:1045E00000EB0110C06800F47F00000C9871206897
:1045F00000F5D87000EB0110C068000ED87131B919
:104600002068C06840F020002668F06005E020685F
:10461000006940F020002668306100204EE7606AA3
:1046200040F480206062012048E72DE9F05F0446F5
:104630000025206846692068D0F8049020688768C3
:104640002068D0F80CA02068D0F810B02068D0F80E
:10465000188006F00100002855D007F00100C0B115
:1046600001202168886007F0020018B1204600F0A0
:104670000AFB0EE007F0040010B145F4006508E005
:1046800007F0080010B145F4805502E0204600F024
:10469000F9FA07F48070C8B14FF48070216888601F
:1046A00007F4007018B1204600F0EFFA0EE007F4AE
:1046B000806010B145F4005508E007F4006010B1C7
:1046C00045F4804502E0204600F0DEFA07F4803031
:1046D000C8B14FF480302168886007F4003018B109
:1046E000204600F0D4FA0EE007F4802010B145F423
:1046F000004508E007F4002010B145F4803502E0E1
:10470000204600F0C3FA06F0080038B10AF01000A5
:1047100020B145F4007510202168C86006F004003F
:1047200040B10AF0080028B108202168C86020467E
:1047300000F01CFA06F0020038B12068C06800F0F2
:10474000030010B1204600F013FA06F0400038B123
:104750000BF0100020B145F480651020216808613D
:1047600006F0200040B10BF0080028B108202168B5
:104770000861204600F028FA06F0100038B12068E1
:10478000006900F0030010B1204600F01FFA06F4A3
:10479000003040B109F0100028B1102021684860B5
:1047A000204600F03FFA06F4803040B109F00800DE
:1047B00028B1082021684860204600F069FA06F414
:1047C000004088B309F0040078B306F4807020B18B
:1047D00008F0010008B145F0010506F4007020B1B1
:1047E00008F0020008B145F0020506F4806020B12F
:1047F00008F0040008B145F0040506F40060A0B11B
:1048000008F0700088B108F07000402817D006DC6E
:1048100010280BD020280CD0302819D10CE05028BB
:1048200010D0602814D110E01DE019E045F0080513
:104830000FE045F010050CE045F0200509E045F0DB
:10484000400506E045F0800503E045F4807500E092
:1048500000BF00BF2068806920F070002168886177
:104860000420216848602DB1606A284360622046B8
:10487000FFF710FEBDE8F09F70B504460CB90120AB
:1048800070BD94F8200010B9204600F0AFF8206801
:10489000006840F001002168086000F01FFD054637
:1048A0000DE000F01BFD401B0A2808D9606A40F4A7
:1048B00000306062052084F820000120E0E72068D5
:1048C000406800F001000028EBD02068006820F06C
:1048D00002002168086000F001FD05460DE000F0CF
:1048E000FDFC401B0A2808D9606A40F40030606271
:1048F000052084F820000120C2E72068406800F00D
:1049000002000028EBD1207E012806D12068006833
:1049100040F080002168086005E02068006820F011
:10492000800021680860607E012806D12068006848
:1049300040F040002168086005E02068006820F031
:10494000400021680860A07E012806D12068006828
:1049500040F020002168086005E02068006820F031
:10496000200021680860E07E012806D120680068E8
:1049700020F010002168086005E02068006840F021
:10498000100021680860207F012806D12068006897
:1049900040F008002168086005E02068006820F009
:1049A000080021680860607F012806D1206800683F
:1049B00040F004002168086005E02068006820F0ED
:1049C000040021680860D4E9020108432169084312
:1049D000616908436168491E08432168C861002075
:1049E0006062012084F82000002049E710B586B0FD
:1049F0000446142101A8FCF743F95649206888426F
:104A000049D155480068401C534908600846006871
:104A100001280FD100BF002000905048006840F0EE
:104A200000704E4908600846006800F00070009071
:104A300000BF00BF00BF0020009048481038006849
:104A400040F008004549103908600846006800F049
:104A50000800009000BF00BF0320019002200290D8
:104A600000200390032004900920059001A93C48F0
:104A700000F034FB00220121132000F009FE132076
:104A800000F0F2FD00220121142000F001FE1420AC
:104A900000F0EAFD5CE033492068884258D100BF4D
:104AA000002000902D48006840F080602B4908608D
:104AB0000846006800F08060009000BF00BF2648F4
:104AC0000068401C244908600846006801280FD18E
:104AD00000BF002000902148006840F000701F498E
:104AE00008600846006800F00070009000BF00BF3A
:104AF00000BF0020009019481038006840F0020004
:104B00001649103908600846006800F0020000905D
:104B100000BF00BF6020019002200290002003909F
:104B2000032004900920059001A90F4800F0D6FA4F
:104B3000002201213F2000F0ABFD3F2000F094FD5A
:104B400000220121402000F0A3FD402000F08CFD58
:104B500006B010BD006400408000002040380240D4
:104B6000000C024000680040000402407047000052
:104B700010B504461049206888420CD10F4BA3F1B0
:104B80001C0200212046FFF786FC0C482038816A71
:104B9000001D88470FE00A49206888420BD1094B65
:104BA000A3F11C0200212046FFF775FC05482038C0
:104BB000816A001D884710BD00640040D4180020A1
:104BC00000680040001900207047000010B504463E
:104BD0001049206888420CD10F4BA3F11C0201211F
:104BE0002046FFF758FC0C482038816A001D884792
:104BF0000FE00A49206888420BD1094BA3F11C023F
:104C000001212046FFF747FC05482038816A001D36
:104C1000884710BD00640040D418002000680040A0
:104C200000190020704770B5044694F82000012850
:104C300022D1022084F820002068006820F00100C2
:104C40002168086000F04AFB05460DE000F046FBD5
:104C5000401B0A2808D9606A40F4003060620520D1
:104C600084F82000012070BD2068406800F0010039
:104C70000028EBD16062F6E7606A40F400206062D1
:104C80000120F0E7704770477047704770477047E2
:104C9000704770B50446A56D00F020FB064694F8F9
:104CA0003500022808D08020606500BF002084F80D
:104CB000340000BF012070BD2068006820F016009D
:104CC000216808602068406920F080002168486100
:104CD000206C08B9A06C28B12068006820F008009A
:104CE000216808602068006820F0010021680860E1
:104CF00010E000F0F3FA801B05280BD92020606536
:104D0000032084F8350000BF002084F8340000BF81
:104D10000320D0E72068006800F001000028E8D1F7
:104D200094F85C103F208840A860012084F835008A
:104D300000BF002084F8340000BF00BFBBE701467D
:104D400091F83500022803D0802048650120704783
:104D5000052081F835000868006820F001000A6825
:104D600010600020F3E70000F8B504460020009032
:104D70008C4800684FF41651B0FBF1F7A56D2E6812
:104D800094F85C1008208840304098B12068006892
:104D900000F0040070B12068006820F00400216871
:104DA000086094F85C1008208840A860606D40F0AE
:104DB0000100606594F85C1001208840304068B1C3
:104DC0002068406900F0800040B194F85C10012038
:104DD0008840A860606D40F00200606594F85C1047
:104DE00004208840304068B12068006800F002006C
:104DF00040B194F85C1004208840A860606D40F0D9
:104E00000400606594F85C1010208840304078B34E
:104E10002068006800F0080050B394F85C1010207F
:104E20008840A8602068006800F4802080B1206875
:104E3000006800F4002028B9206CC8B12046216C1D
:104E4000884715E0A06C98B12046A16C88470FE018
:104E50002068006800F4807028B92068006820F09D
:104E6000080021680860206C10B12046216C88473A
:104E700094F85C10202088403040002865D02068DD
:104E8000006800F0100000285FD094F85C1020202B
:104E90008840A86094F83500052828D1206800686B
:104EA00020F01600216808602068406920F080002A
:104EB00021684861206C08B9A06C28B1206800689E
:104EC00020F008002168086094F85C103F208840BA
:104ED000A860012084F8350000BF002084F8340069
:104EE00000BF206D10B12046216D8847F8BD2068B5
:104EF000006800F4802080B12068006800F4002081
:104F000028B9606C10B12046616C88471DE0E06BE9
:104F1000D8B12046E16B884717E02068006800F4AC
:104F2000807068B92068006820F01000216808606F
:104F3000012084F8350000BF002084F8340000BF51
:104F4000E06B10B12046E16B8847606D38B3606D4F
:104F500000F00100F0B1052084F8350020680068F9
:104F600020F001002168086000BF0098401C0090FC
:104F7000B84200D905E02068006800F00100002870
:104F8000F3D100BF012084F8350000BF002084F871
:104F9000340000BFE06C10B12046E16C884700BFD0
:104FA000A4E70000900000202DE9F0410446002510
:104FB00000F094F9074614B90120BDE8F081606A59
:104FC00000B100BF022084F8350000BF002084F843
:104FD000340000BF2068006820F0010021680860EC
:104FE0000AE000F07BF9C01B052805D92020606588
:104FF000032084F83500E0E72068006800F0010035
:105000000028EED12068056821480540D4E9010157
:105010000843E16808432169084361690843A169BD
:105020000843E1690843216A08430543606A04288C
:1050300003D1D4E90B0108430543206805602068CB
:10504000456925F00705606A0543606A04280DD1AB
:10505000A06A0543E06A48B12046FDF73DFA28B151
:1050600040206065012084F83500A6E7206845618E
:105070002046FDF717FA064694F85C103F2088405A
:10508000B06000206065012084F83500002094E7BE
:105090003F8010F070B5044600F020F90646254622
:1050A000681C10B104480078054400BF00F016F9F0
:1050B000801BA842FAD370BD8C000020704700000E
:1050C00010B5044604480068204020B1024804603E
:1050D0002046FFF7F3FF10BD143C0140F8B502462F
:1050E0000B460025002400200021D6E0012606FA08
:1050F00001F51E6806EA0504AC4274D11E7906F07B
:105100000306012E04D01E7906F00306022E13D1E9
:1051100090684F000326BE40B0434F00DE68BE409B
:1051200030439060506801268E40B0431E79C6F32C
:1051300000168E40304350601E7906F00306032EA1
:1051400009D0D0684F000326BE40B0434F009E6890
:10515000BE403043D0601E7906F00306022E13D104
:10516000CF0802F1200656F827004E07F70E0F264B
:10517000BE40B0434F07FF0E1E69BE403043CF080C
:1051800002F1200646F8270010684F000326BE40B3
:10519000B0431E7906F003064F00BE403043106056
:1051A0005E6806F44036002E76D000BF00260096DA
:1051B0003C4E366846F480463A4F3E603E4636687E
:1051C00006F48046009600BF00BF374E8F0856F8A1
:1051D00027008E07370F0F26BE40B043334EB24232
:1051E00002D1002624E057E0314EB24201D101261F
:1051F0001EE0304EB24201D1022619E02E4EB242DC
:1052000001D1032614E02D4EB24201D104260FE055
:105210002B4EB24201D105260AE02A4EB24201D1FC
:10522000062605E0284EB24201D1072600E00826F6
:105230008F073F0FBE4030431B4E8F0846F82700B4
:10524000224E3068A0435E6806F4801606B1204303
:105250001E4E3060361D3068A0435E6806F40016AE
:1052600006B12043194E361D3060184E361F306887
:10527000A0435E6806F4003606B12043134E361F85
:105280003060361F3068A0435E6806F4803606B191
:1052900020430E4E083E3060491C1029FFF426AF13
:1052A000F8BD0000443802400838014000000240C8
:1052B0000004024000080240000C024000100240BE
:1052C0000014024000180240001C0240083C01404B
:1052D0000AB1816101E00B048361704701480068F5
:1052E000704700008400002070B504460CB901200E
:1052F00070BD94F83D0028B9002084F83C00204699
:1053000000F0DAF8242084F83D002068006820F0DE
:105310000100216808602068006840F400402168AE
:1053200008602068006820F400402168086001F0EF
:105330005FF905465C496068884206D85B4885424B
:1053400001D2012007E0002005E05948854201D242
:10535000012000E00020012800D1C9E75548B5FB35
:10536000F0F62068406820F03F0030432168486034
:105370004D496068884201D8701C07E04FF4967070
:1053800070434FF47A71B0FBF1F0401C2168096A58
:1053900021F03F0108432168086243496068884260
:1053A00014D8681E61684900B0FBF1F0401CC0F3DE
:1053B0000B00042801D204203DE0681E616849000A
:1053C000B0FBF1F0401CC0F30B0034E0A06838B92A
:1053D000681E616801EB4101B0FBF1F0401C0AE07E
:1053E000681E616801EBC10202EB0111B0FBF1F034
:1053F000401C40F48040C0F30B0008B901201AE0C3
:10540000A06848B9681E616801EB4101B0FBF1F08A
:10541000401CC0F30B000CE0681E616801EBC10288
:1054200002EB0111B0FBF1F0401CC0F30B0040F4A3
:10543000804040F400402168C9694CF6FF729143F6
:1054400008432168C861D4E9070108432168096855
:1054500021F0C001084321680860D4E90310084323
:105460002168896848F2FF329143084321688860C7
:10547000D4E9050108432168C96821F0FF01084308
:105480002168C8602068006840F001002168086059
:1054900000202064202084F83D000020206384F850
:1054A0003E0000BF24E70000A086010080841E00AB
:1054B00000093D0040420F0010B586B0044614219B
:1054C00001A8FBF7DDFB2A49206888424DD100BFC7
:1054D000002000902748006840F00400254908603B
:1054E0000846006800F00400009000BF00BF00BF45
:1054F000002000900846006840F00100086008465F
:10550000006800F00100009000BF00BF4815019046
:1055100012200290012003900320049004200590A3
:1055200001A91548FFF7DAFD4FF4807001901220B1
:10553000029001200390032004900420059001A90B
:105540000E48FFF7CBFD00BF002000900948103047
:10555000006840F400000749103108600846006800
:1055600000F40000009000BF00BF06B010BD0000B6
:10557000005C004030380240000802400000024059
:1055800003480068034909780844014908607047E6
:10559000840000208C00002010B50D48006840F405
:1055A00000700B4908600846006840F4806008609D
:1055B0000846006840F480700860032000F0A6F8F8
:1055C0000F2000F007F800F02BF8002010BD0000BD
:1055D000003C024070B504460E4800784FF47A71E2
:1055E000B1FBF0F00C490968B1FBF0F5284601F079
:1055F000FBFC08B1012070BD102C07D2002221460F
:10560000501E00F045F80548046001E00120F2E773
:105610000020F0E78C00002090000020880000208F
:1056200008B500BF002000900E48006840F480409C
:105630000C4908600846006800F48040009000BFF4
:1056400000BF00BF00200090081F006840F080509D
:10565000091F08600846006800F08050009000BFF5
:1056600000BF08BD443802400146084600280DDB53
:1056700000BF00BF00F01F0301229A4043099B00B6
:1056800003F1E023C3F8002100BF00BF00BF704753
:105690002DE9F05F80460D461646002709F0E0FB35
:1056A000074639462A46334601F00700C0F1070A8B
:1056B000BAF1040F02D94FF0040A01E0C0F1070A61
:1056C000D14600F1040ABAF1070F02D24FF0000AE6
:1056D00001E0A0F1030AD4464FF0010A0AFA09FAE0
:1056E000AAF1010A0AEA020A0AFA0CFA4FF0010BBF
:1056F0000BFA0CFBABF1010B0BEA030B4AEA0B04B0
:105700002146404609F0B4FBBDE8F09F00BF00F021
:105710000702064B19684FF6FF031940044B0B4371
:1057200043EA0221014B196000BF70470CED00E015
:105730000000FA0570470246106841620020704779
:10574000F0B5034615461868446A21B944EA054095
:105750001E68B06219E01868806A04EB10440022E9
:1057600008E0186800F5827050F8220004EB10443D
:10577000501CC2B2481E9042F3D844EA054718684C
:1057800000F582704E1E40F826700020F0BDD0F863
:10579000E00407F0F5BE01EBC10200EB8202D0F895
:1057A000E004126A07F016BE01EBC10200EB8202B0
:1057B000D0F8E004D2F8602207F07ABED0F8E00416
:1057C00007F0E0BE2DE9F04104460D4605F08000EB
:1057D000802808D105F00F0000EBC00104F114008F
:1057E00000EB810607E005F00F0000EBC00104F5B7
:1057F000157000EB81063146206808F0E9FF074686
:105800003846BDE8F08170B504460E4606F08000CB
:1058100080280AD106F00F0000EBC00104F114004B
:1058200000EB81050120687009E006F00F0000EB35
:10583000C00104F5157000EB81050020687006F0CA
:105840000F00287000BF94F89404012801D10220B1
:1058500070BD012084F8940400BF2946206808F038
:105860004BFB00BF002084F8940400BF00BFEFE7AB
:1058700070B504460E4606F00F002179884201D922
:10588000012070BD06F0800080280AD106F00F00CC
:1058900000EBC00104F1140000EB810501206870E9
:1058A00009E006F00F0000EBC00104F5157000EBF5
:1058B0008105002068700020A87006F00F00287095
:1058C00000BF94F89404012801D10220D9E70120F7
:1058D00084F8940400BF2946206808F00BFD00BF3F
:1058E000002084F8940400BF00BFCAE7024601F01C
:1058F0000F0000EBC00302F5157000EB8300406958
:1059000070472DE9F04705460E4690461F464FF07A
:10591000000906F0800080280AD106F00F0000EB95
:10592000C00105F1140000EB81040120607009E062
:1059300006F00F0000EBC00105F5157000EB8104C7
:105940000020607006F00F002070C4F808802771F6
:10595000607808B120786083022F01D10020607147
:1059600000BF95F89404012802D10220BDE8F08719
:10597000012085F8940400BF2146286808F0D0F97A
:1059800000BF002085F8940400BF4846EEE72DE9EB
:10599000F04105460E461746984606F00F0000EB0C
:1059A000C00105F5157000EB8104E760C4F81080B4
:1059B00000206061607006F00F002070A879012857
:1059C00000D1E761AA792146286808F027FD002068
:1059D000BDE8F08170B504460D4605F00F00217951
:1059E000884201D9012070BD05F0800080280AD1CD
:1059F00005F00F0000EBC00104F1140000EB81067C
:105A00000120707007E005EBC50104F5157000EB8F
:105A10008106002070700120B07005F00F0030701A
:105A200000BF94F89404012801D10220DBE7012093
:105A300084F8940400BF3146206808F0A2FC05F009
:105A40000F0028B9A17904F29C42206808F01AFCE2
:105A500000BF002084F8940400BF00BFC3E72DE915
:105A6000F04105460E461746984606F00F0000EB3B
:105A7000C00105F1140000EB8104E760C4F8108058
:105A8000002060610120607006F00F002070A8798E
:105A9000012800D1E761AA792146286808F0BEFCF8
:105AA0000020BDE8F0812DE9FE4F0446D4F800B097
:105AB0005E46206808F06EFF002874D1206808F068
:105AC000A8FF08B9BDE8FE8F40F608008059C0F372
:105AD0000D20C4F8D404206808F09BFF00F00200F9
